:020000040800F2
:1000000090060020490200080903000801030008C7
:1000100005030008F902000875030008FFFFFFFF51
:10002000FFFFFFFFFFFFFFFFFFFFFFFF11030008C0
:10003000FD020008FFFFFFFF0D0300081503000885
:1000400063020008630200086302000863020008FC
:1000500063020008630200086302000863020008EC
:1000600063020008630200086302000863020008DC
:1000700063020008630200086302000863020008CC
:1000800063020008630200086302000863020008BC
:1000900063020008630200086302000863020008AC
:1000A000630200086302000863020008630200089C
:1000B000630200086302000863020008630200088C
:1000C000630200086302000863020008630200087C
:1000D000630200086302000863020008630200086C
:1000E000630200086302000863020008630200085C
:1000F000630200086302000863020008630200084C
:10010000630200086302000863020008630200083B
:10011000630200086302000863020008630200082B
:10012000630200086302000863020008630200081B
:10013000630200086302000863020008630200080B
:10014000FFFFFFFFFFFFFFFFFFFFFFFFFFFFFFFFBF
:1001500063020008630200086302000863020008EB
:1001600063020008630200086302000863020008DB
:1001700063020008630200086302000800F002F84E
:1001800000F052F814A696E8000CB244B344DA45E5
:1001900001D100F049F8BAE80F000FA696E8300048
:1001A000A5EB040504EB0607AAEB0704A7F101077A
:1001B0004FEA15154FEA3414A4F10104AC4201D3FF
:1001C00000F032F813F0010F18BFFB1A43F00103DF
:1001D00000F001F8DBE718471808000038080000B5
:1001E000103A24BF78C878C1FAD8520724BF30C863
:1001F00030C144BF04680C607047000070470000C5
:100200000023002400250026103A28BF78C1FBD81F
:10021000520728BF30C148BF0B6070471FB500F0C0
:10022000D9FB1FBD10B510BD00F033F81146FFF724
:10023000F5FF00F017FB00F051F803B4FFF7F2FFF1
:1002400003BC00F099F800000948804709480047BE
:10025000FEE7FEE7FEE7FEE7FEE7FEE7FEE7FEE776
:10026000FEE7FEE704480549054A064B70470000D3
:10027000190300087D01000890000020900600206E
:10028000900200209002002070477047704770472E
:100290007047754600F02CF8AE4605006946534697
:1002A00020F00700854618B020B5FFF7DBFFBDE85A
:1002B00020404FF000064FF000074FF000084FF0CD
:1002C000000BAC46ACE8C009ACE8C009ACE8C0091A
:1002D000ACE8C00921F007018D46704710B504460F
:1002E000AFF300802046BDE81040FFF7A6BF000036
:1002F0000048704728000020FEE70000704700001B
:10030000FEE70000FEE700007047000070470000B5
:1003100070470000704700004EF68850CEF2000093
:10032000026841F2000142F47002C4F2020102606C
:100330000A6842F001020A600A689207FCD54A681E
:1003400022F003024A6000BF4A6812F00C0FFBD192
:100350000A684FF6FF73CFF6F2631A400A60002274
:100360004A600A634FF41F028A604FF0006140F850
:10037000801C7047FEE700007047000041F2040156
:10038000C4F202010A6800F00F0022F0F00242EA13
:10039000001008607047000041F20401C4F202013D
:1003A0000A6800F0070022F4E06242EA00200860D8
:1003B0007047000041F20401C4F202010A6800F033
:1003C000070022F4605242EAC02008607047000033
:1003D00041F25401C4F202010A68012822F03002FD
:1003E00008BF30320A607047042888BF7047DFE8D2
:1003F00000F0032B15220C0041F20000C4F20200B1
:10040000026861F300020260704741F20000C4F22A
:100410000200426A61F300024262704741F200004A
:10042000C4F20200026801F0010122F0807242EA87
:1004300001610160704741F20000C4F20200026AEB
:1004400061F300020262704741F20000C4F2020050
:10045000026801F0010122F4803242EA01410160A8
:100460007047000041F20002010CC4F202028958F8
:1004700000F01F0021FA00F000F0010070470000BA
:1004800041F25401C4F202010A6800F0030022F4B0
:10049000405242EA003008607047000041F200001C
:1004A0000021C4F2020000BF0268920304D4B1F537
:1004B000405F01F10101F7D30068C0F3404070478D
:1004C00041F2000200F01F034FF0010CC4F20202DF
:1004D00001290CFA03F14FEA1040835814BF23EAB4
:1004E000010119438150704780B541F2040EC4F2F6
:1004F000020EDEF800C070B14CF48033CEF800304C
:10050000DEF800C0012814BF4CF400302CF4003099
:10051000CEF8000009E02CF48030CEF80000DEF8C0
:100520002C0040F00070CEF82C00DEF8000061F3E3
:100530009540CEF80000DEF80000090961F35E7016
:10054000CEF80000DEF8000020F0004040EAC27063
:10055000CEF8000080BD000041F20000C4F20200AD
:10056000016841F00101016001688907FCD541681B
:1005700021F00301416000BF416811F00C0FFBD175
:1005800001684FF6FF72CFF6F26211400160002160
:10059000416001634FF41F018160704741F2040123
:1005A000C4F202010A6860F301020A6000BF00BFE2
:1005B00000BF00BF00BF00BF00BF00BF00BF00BF43
:1005C00000BF00BF00BF00BF00BF00BF00BF00BF33
:1005D00000BF00BF7047000041F20400C4F20200F7
:1005E0000068C0F381007047002808BF704780B5DD
:1005F0004EF2100140F2880ECEF20001C2F2000E5F
:100600004FF0320C002300BF82B2332A06D3DEF84B
:100610000020323802FB0CF24A6004E0DEF80000F1
:100620005043486000208B600A6842F001020A6073
:100630000A6802F00112012AFAD00A6822F00102C7
:100640000A6002048B60DFD1BDE880407047000083
:1006500040F200424FF6FF71C0F20012C0E90012F2
:1006600070470000B0B58B790A88032B0BD07BB99B
:100670004979282901F00F0E18D0182908BF026106
:10068000110616D12EE04FF0000E110611D129E00F
:1006900003F0080C0B79C97903F00403634401F0FB
:1006A000030103EB010E110603D11BE042611106A9
:1006B00018D000234FF00F0C002104E0013108296D
:1006C00003F104030ED022FA01F4E407F6D0046823
:1006D0000CFA03F5AC43046004680EFA03F52C43EE
:1006E0000460EBE7B2F5807F38BFB0BD120A00238B
:1006F0004FF00F0C002104E00131082903F104033D
:100700000ED022FA01F4E407F6D044680CFA03F59F
:10071000AC43446044680EFA03F52C434460EBE7B5
:10072000B0BD00002DE9F04182B0042000F046F990
:1007300040F22000C2F2000000684DF68361C4F26E
:100740001B31A0FB0101880C40F28C01C2F20001B8
:10075000086008684FF47A71484340F28801C2F299
:10076000000140F200080860C2F20008D8F800005A
:100770000121FFF7A5FE6C462046FFF769FF40F216
:100780000C06C2F2000640F214053188C2F20005E0
:1007900040F200472868C0F21017009121460197E7
:1007A000FFF760FFD8F804000121FFF789FE6C46CF
:1007B0002046FFF74DFF7188686800912146019738
:1007C000FFF750FFD8F808000121FFF779FE6C46CB
:1007D0002046FFF73DFFB188A868009121460197A8
:1007E000FFF740FF308800281CBF29680861708827
:1007F00000281CBF69680861B08800281CBFA96870
:1008000008610220C0F2180001210125FFF758FEFF
:100810006C462046FFF71CFF42F60000C0F20010B5
:10082000CDE9005040F60000C4F201002146FFF778
:1008300019FF02B0BDE8F081022811D840F20C0186
:10084000C2F2000131F81010002908BF704740F2D1
:100850001402C2F2000252F82000C2685140C16086
:100860007047000000F016F8FFF75CFF0020FFF76C
:10087000E3FFC820FFF7B8FE0120FFF7DDFFC82027
:10088000FFF7B2FE0220FFF7D7FFC820FFF7ACFE4C
:10089000ECE7000080B5FFF75FFE01200121FFF7C4
:1008A000A3FD00BFFFF7FAFD0028FBD002203B218B
:1008B0000122FFF719FE0020FFF7E2FD02200121CF
:1008C000FFF792FD1920FFF7CDFD0128FAD1002096
:1008D000FFF754FD0420FFF76DFD0420FFF75CFDDA
:1008E0000120FFF775FD0220FFF758FEFFF774FEA9
:1008F0000228FBD10020FFF76BFDBDE8804000F02F
:1009000001B80000B0B541F2040441F20025C4F280
:100910000204C0F27A05FFF75FFE02280BD0A8BBE5
:10092000206D800532D5E06A800144BF46F600455F
:10093000C0F2DC252AE0D4F800C021682268890CC6
:10094000C2F34172130101F00F01581C0F29034635
:1009500018BF0223002A18BF03465FEACC3003EB1E
:10096000010006D440F60011C0F23D0100FB01F584
:100970000CE02168890301D4454307E0216DC1F3F0
:1009800001310231B5FBF1F101FB00F540F220002D
:10099000C2F200000560216804A2C1F30311515C9A
:1009A000026822FA01F10160B0BD00BF0000000042
:1009B0000000000001020304060708094EF21001BE
:1009C000CEF200010A68042822F0040208BF0432B3
:1009D0000A607047F1EE100A4FF6FF71C0F2C031A5
:1009E00020EA010040F04070E1EE100A704700007C
:1009F000100A00080000002028000000E0010008A4
:100A0000380A0008280000206806000000020008DC
:100A1000050018000500180005001800002000401F
:100A20000080000000140140001401400014014047
:080A300000127A000000000032
:040000050800017D71
:00000001FF
