:020000041000EA
:100000004B2A110200000000A4030000EEC3A6E981
:100010007EEEE78880B500F087F90020002100F02F
:100020000DF8292000F00FF8202000F011F800F062
:1000300033F900F013F800F025F980BD4CF2B93C1B
:10004000C0F2000C604747F67D1CC0F2000C604710
:1000500047F6D12CC0F2000C6047000080B54FF08D
:10006000A040012100F075F900060BD1032000F03B
:1000700075F9000606D1012000F075F9000604BFED
:10008000002080BD00F074F94FF47A7000F075F92B
:10009000012080BD2DE9F04381B019B343F2B83897
:1000A0000F4606464FF0FF344FF00009C2F2000839
:1000B0003D46B7F5807F28BF4FF480754FF0A040D4
:1000C000314642462B46CDF8009000F05BF960B90E
:1000D00040462946224600F05AF904467F1B2E442A
:1000E000E6D103E04FF0FF3400E00124204601B0E8
:1000F000BDE8F08310B582B004464FF0000C4FF01D
:10010000A0404FF4805122462023CDF800C000F0DB
:1001100039F9000622D120461C214FF0FF3200F0B1
:1001200036F9E169814219D1E078112816D1A07819
:10013000022813D1E168B1F5002F0FD8606846F2AC
:100140007872C4F26A72904208D1A068FFF7A2FFE9
:100150002169401A18BF012002B010BD012002B071
:1001600010BD00002DE9F0410C4605460E184FF079
:100170000008B4F5803F07D3A8B228B94FF4803700
:100180000321102021E000BFB4F5004F08D328461A
:100190006FF3DF3020B94FF4004702210F2014E045
:1001A00029466FF31F31200BB1FA81F1B8EB143FF0
:1001B00018BF0120490901404FF008004FF4807733
:1001C00018BF0C2018BF4FF4805725FA00F082B2F8
:1001D0004FF0A04047F2305300F0DEF800060BD19C
:1001E0003D44B542A4EB070424BF0020BDE8F081E4
:1001F000B4F5803FC0D2C7E700F0BAF84FF47A7088
:1002000000F0BBF80120BDE8F08100002DE9F047C7
:1002100082B04FF000098AB343F2B83814460E4654
:100220000746C2F2000840F6B83A00BF2546B4F5CA
:10023000807F28BF4FF480754FF0A040394642467A
:100240002B46CDF8009000F09DF890B94FF0A040FB
:10025000314642462B46CDF80090CDF804A000F080
:10026000A0F848B92F44641B2E44DFD14FF0000999
:1002700004E04FF0010901E04FF00109484602B0E7
:10028000BDE8F08780B542F20400C1F200000068CA
:1002900000F08CF880BD0000B0B588B06846FFF76C
:1002A00029FF08B101243CE0DDE90501FFF75AFF11
:1002B00038B100F05DF84FF47A7000F05EF8012478
:1002C0002FE0DDE902020599FFF7A0FF38B100F049
:1002D0004FF84FF47A7000F050F8012421E00399B0
:1002E0000598FFF7D7FE0499884213D14FF0A0403C
:1002F0000021102247F23053002400F04DF805464B
:1003000000F036F828060CD04FF47A7000F035F87B
:10031000012406E000F02CF84FF47A7000F02DF87C
:100320000124204608B0B0BDEC20C6F205000168EB
:100330007F2221F002010160016821F004010160C7
:100340006FF0030143180431342943F8D82CF9D154
:10035000704748F6F57CC0F2000C604747F2613CFC
:10036000C0F2000C604747F21D3CC0F2000C604731
:1003700047F6717CC0F2000C604744F2717CC0F219
:10038000000C604748F69D2CC0F2000C604744F218
:10039000C17CC0F2000C604748F6A10CC0F2000C12
:1003A000604749F2D90CC0F2000C604744F62D0CAE
:1003B000C0F2000C604700000000000000000000D8
:1003C000000000000000000000000000000000002D
:1003D000000000000000000000000000000000001D
:1003E000000000000000000000000000000000000D
:1003F00000000000000000000000000000000000FD
:020000041000EA
:102000000070022055210010692100107B21001072
:102010008D2100108F210010912100100000000080
:10202000000000000000000000000000D1020000DD
:1020300095210010000000007503000081030000DE
:102040009B2100109D2100109F210010A121001054
:10205000A3210010A5210010A7210010A921001024
:10206000AB210010AD210010AF210010B1210010F4
:10207000B3210010B5210010B7210010B9210010C4
:10208000BB210010BD210010BF210010C121001094
:10209000C3210010C5210010C7210010C921001064
:1020A000CB210010CD210010CF210010D121001034
:1020B000D3210010D5210010D7210010D921001004
:1020C000DB210010DD210010DF210010E1210010D4
:1020D000E3210010E5210010E7210010E9210010A4
:1020E000EB210010ED210010EF210010F121001074
:1020F000F3210010F5210010F7210010F921001044
:10210000FB210010FD210010FF2100100122001012
:1021100003220010052200100722001009220010DF
:102120000B2200100D2200100F22001000000000F2
:10213000000000000000000000000000000000009F
:10214000DFF80CD000F070F800480047792A001042
:10215000007002202E4880F308882E4880F30A88F9
:102160002D4880472D4800475FEA0E00EFF30881B5
:10217000EFF309822A4B9847FEE75FEA0E00EFF380
:102180000881EFF30982274B9847FEE7FEE7FEE759
:10219000FEE7FEE7FEE7FEE7FEE7FEE7FEE7FEE717
:1021A000FEE7FEE7FEE7FEE7FEE7FEE7FEE7FEE707
:1021B000FEE7FEE7FEE7FEE7FEE7FEE7FEE7FEE7F7
:1021C000FEE7FEE7FEE7FEE7FEE7FEE7FEE7FEE7E7
:1021D000FEE7FEE7FEE7FEE7FEE7FEE7FEE7FEE7D7
:1021E000FEE7FEE7FEE7FEE7FEE7FEE7FEE7FEE7C7
:1021F000FEE7FEE7FEE7FEE7FEE7FEE7FEE7FEE7B7
:10220000FEE7FEE7FEE7FEE7FEE7FEE7FEE7FEE7A6
:1022100000700220006002205922001041210010AD
:10222000D1260010A12300101CB5094800900948D0
:1022300001900546009C06E0E06840F0010394E848
:10224000070098471034AC42F6D3FFF77DFF00003B
:10225000C02200100023001042F2000247F20001E9
:102260000020C1F20002C2F2010100BF52F820308A
:1022700041F8203001304B28F8D14EF61450CEF200
:10228000000040F80C1C416F41F470014167016887
:1022900041F010010160016841F4807101607047F4
:1022A00002E008C8121F08C1002AFAD1704770471F
:1022B000002001E001C1121F002AFBD1704700007D
:1022C0007C38001000300020784C0000A022001064
:1022D000F4840010007201200C080000A0220010FD
:1022E000008D001000F0012004000000A02200106A
:1022F000048D001004F0012024000000B022001022
:102300002DE9F05F0546002092469B46884606462A
:10231000814640241BE0284641464746224600F0BD
:102320002FF853465A46C01A914110D31146184609
:10233000224600F016F82D1A67EB01084F46224698
:102340000120002100F00DF817EB00094E41201E7E
:10235000A4F10104DFDC484631462A464346BDE885
:10236000F09F202A04DB203A00FA02F10020704797
:102370009140C2F1200320FA03F3194390407047C3
:10238000202A04DB203A21FA02F00021704721FACA
:1023900002F3D040C2F12002914008431946704731
:1023A00082B04EF6285715460C460646CEF2000778
:1023B00000F028FA43F20040EFF30881C1F2000078
:1023C00000F02EFD300743F6450043F66401C1F2EC
:1023D0000000C1F2000158BF084600F069FF16F086
:1023E000040043F6560192A0C1F200010CBF08465A
:1023F0002C4600F05DFF92A000F05AFF216894A0E7
:1024000000F00EFD616896A000F00AFDA16898A09A
:1024100000F006FDE1689AA000F002FD21699CA091
:1024200000F0FEFC61699EA000F0FAFCA169A0A08A
:1024300000F0F6FCE169A2A000F0F2FCA0690190B6
:102440007868800705D543F61900C1F2000000F056
:102450002FFF7868B0F1FF3F05DC43F63200C1F290
:10246000000000F025FF7868400040F1DC8043F672
:102470000500C1F2000000F01BFF386800063ED0E6
:1024800043F2E770C1F2000000F012FF3868C007A5
:1024900006D0019943F27E30C1F2000000F0C0FC8A
:1024A0003868800710D5019943F20B30C1F2000063
:1024B00000F0B6FC3868000606D5F96843F2F33040
:1024C000C1F2000000F0ACFC3868000705D543F20B
:1024D000A960C1F2000000F0EBFE3868C00605D527
:1024E00043F2FE60C1F2000000F0E2FE38688006B0
:1024F00005D543F20A60C1F2000000F0D9FE386849
:1025000010F47F4F46D043F62700C1F2000000F0E0
:10251000CFFE3868C00505D543F23450C1F2000043
:1025200000F0C6FE3868800510D5019943F2D4202A
:10253000C1F2000000F074FC3868000406D5396967
:1025400043F2F330C1F2000000F06AFC3868400545
:1025500005D543F2CA40C1F2000000F0A9FE386878
:10256000000505D543F25170C1F2000000F0A0FE55
:102570003868C00405D543F29D70C1F2000000F038
:1025800097FE3868800405D543F25D60C1F2000013
:1025900000F08EFE3868B0F5803F44D343F2F87007
:1025A000C1F2000000F084FE3868C00305D543F294
:1025B0005640C1F2000000F07BFE3868800305D56C
:1025C00043F2CD50C1F2000000F072FE38684003C3
:1025D00005D543F22840C1F2000000F069FE3868DA
:1025E000000305D543F26150C1F2000000F060FE27
:1025F0003868C00205D543F2A150C1F2000000F0D6
:1026000057FE3868C00105D543F20150C1F2000001
:1026100000F04EFE3868800105D543F28F40C1F2CC
:10262000000000F045FE00F0BFF800BFFEE700BF6D
:102630005573696E67207533325073702E00000039
:10264000537461636B206672616D653A000000002F
:10265000523020203A203078253038580A000000C7
:10266000523120203A203078253038580A000000B6
:10267000523220203A203078253038580A000000A5
:10268000523320203A203078253038580A00000094
:10269000523132203A203078253038580A00000074
:1026A0004C5220203A203078253038580A0000005B
:1026B000504320203A203078253038580A00000056
:1026C000785053523A203078253038580A000000AC
:1026D00014460D46064600F095F805A031462A46F8
:1026E000234600F09DFB00F05FF800BFFEE700BF4F
:1026F0004E4D495F48616E646C65723A20253038F2
:10270000582C20253038582C20253038580A000005
:1027100010B5DDF808C0B2F1C04F0BD040F6000E86
:10272000C6F2000E724505D040F2004EC6F2000E11
:10273000724536D14BF2800440F0800EC6F204049C
:10274000A6452ED14FF20804C2F20104BCF1000FDD
:10275000C4F800C00DD04FF2160C4FF21404C2F2B0
:10276000010C4FF0000EC2F20104ACF800E0A4F836
:1027700000E04FF21004C2F2010422604FF20C029A
:10278000C2F2010210604FF21800C2F201000160B3
:102790004FF21C00C2F201000360BDE8104000F0DF
:1027A00031B8102010BD0000F0B581B04FF2080420
:1027B000C2F20104206818B34FF216054FF2140656
:1027C000C2F20105C2F2010628883188884217D07A
:1027D0004FF21007C2F20107216882B20968386817
:1027E000895C00F087FA28882168013082B28988E4
:1027F0008A4228BF002081B2328828809142EBD1E2
:1028000001B0F0BDF0B583B04FF21005C2F2010582
:102810002868B0F1C04F0AD040F20041C6F2000172
:10282000884219BF0C242D2008242C2001E0042408
:102830002B2000F064FA4FF20C064FF21807C2F298
:102840000106C2F2010730683968224600F05CFADE
:1028500008B103B0F0BD30683968022200F059FABF
:102860000028F6D14FF21C00C2F20100006843F2CA
:1028700021010190C0F201112868029101A900F024
:102880004DFA03B0F0BD000040F2E80042F6D93145
:10289000C2F20000C1F20001016040F2EC0042F619
:1028A0007141C2F20000C1F20001016070470000F6
:1028B00010B582B04FF20801C2F20101096879B186
:1028C0004FF21403C2F201030A681C881055621CFF
:1028D00094B289888C4228BF00221A8002B010BDB1
:1028E0004FF21001C2F201010A688DF807000DF1E4
:1028F000070104461046012200F015FA204602B0F6
:1029000010BD000080B5FFF77DFF4120BDE880408D
:1029100000F0C8BC0120704770B582B004464FF289
:102920000400C2F2010004704FF22400C2F2010060
:1029300001604FF22000C2F2010002600DF10701B8
:1029400002200122012600F0F3F99DF80700C0F3F0
:10295000411003280FD0022879D14BF20005C6F2AE
:10296000040528464FF45041012200F0D2F92846D0
:102970004FF4483168E00DF101013A20062200F0E1
:10298000D7F99DF801104BF20000C6F2040000F1E7
:102990008005202901F01F01284606FA01F13CBFFD
:1029A0004BF20000C6F20400012200F0B2F99DF8DB
:1029B0000210284620293CBF4BF20000C6F204005A
:1029C00001F01F0106FA01F1022200F0A2F99DF8C0
:1029D0000310284620293CBF4BF20000C6F2040039
:1029E00001F01F0106FA01F1012200F092F99DF8B1
:1029F0000410284620293CBF4BF20000C6F2040018
:102A000001F01F0106FA01F1012200F082F99DF8A0
:102A10000510284620293CBF4BF20000C6F20400F6
:102A200001F01F0106FA01F1022200F072F99DF88F
:102A3000060020283CBF4BF20005C6F2040500F05A
:102A40001F0006FA00F12846022200F062F9042C69
:102A500009D8201FB0FA80F040094000032C08BFBD
:102A6000012000F06AF9012003210B22092300F064
:102A700069F902B070BD000082B04BF28004C6F26A
:102A8000040404F53E5000F062F9642000F064F99B
:102A9000022000F066F900F069F9032000F06BF9FC
:102AA0000020002500F06CF9002000F06EF90020F5
:102AB00000F070F90DF107010F2001228DF8075089
:102AC00000F036F99DF80700002804BF562000F0FA
:102AD00066F90DF107011020012200F029F99DF897
:102AE0000700002808BFA92000F05EF9002000F0D0
:102AF00060F903200321642200F060F9012040F610
:102B0000C41100F060F901200021002200F060F9FA
:102B100020464FF480514FF0C0424FF4E12300951E
:102B2000FFF7F6FD19A026A128A200F079F9FFF71A
:102B3000ABFE9C2000F080F842F6151142F605121B
:102B4000C1F200010220C1F20002FFF7E5FE2020E1
:102B500000F043F94FF480304FF4806100F042F907
:102B600080B943F20400C2F200000168002000F0C6
:102B70003EF9292000F0C3F82A2000F0C0F82020F8
:102B800000F03AF900F03DF9FCE700BF5B25732047
:102B9000542025735D626C6520706572697068658C
:102BA00072616C2070726F6A656374286D70292081
:102BB000737461727420746F20776F726B2E0A00C9
:102BC00053657020203920323032360031393A34A2
:102BD000313A3136000000000C460546FFF712FE80
:102BE00007A000F065FB0AA0294600F019F90DA026
:102BF000214600F015F9FFF7D7FD00BFFEE700BF43
:102C00006F7320657272206F6363757273000000CA
:102C1000636F646520202020203A203078253038EA
:102C2000580A00006F626A6563745F69643A203015
:102C300078253038580A0000B0F5807F84BF102016
:102C4000704710B581090122830618BF02EB90116D
:102C50004FF0FF308840C4434FF6FF70C0F20F00C2
:102C600000F0D4F8204600F0D6F8002010BD000097
:102C70001C4615460E460746FFF7C4FD08A000F0A7
:102C800017FB0CA03946324600F0CAF811A02946BD
:102C9000224600F0C5F8FFF787FD00BFFEE700BF42
:102CA00073797374656D206572726F72206F6363E0
:102CB000757273007531364572724D6F64756C654F
:102CC0003A2575207531364572724C696E653A2524
:102CD000750A0000753332457272496E666F313A7B
:102CE000257520753332457272496E666F323A250A
:102CF000750A00004DF67D7CC0F2000C604747F677
:102D00007D1CC0F2000C604749F6210CC0F2000C9B
:102D1000604749F69D0CC0F2000C60474DF6656CAB
:102D2000C0F2000C60474EF2CD1CC0F2000C6047B0
:102D300048F20D7CC0F2000C60474AF6256CC0F2E8
:102D4000000C60474AF68D6CC0F2000C60474FF6ED
:102D5000310CC0F2000C604744F2717CC0F2000CF0
:102D600060474AF67D5CC0F2000C60474AF66D0C85
:102D7000C0F2000C60474AF6E93CC0F2000C604724
:102D80004AF6A95CC0F2000C60474AF6FD5CC0F24E
:102D9000000C604745F6214CC0F2000C60474AF633
:102DA000596CC0F2000C60474AF6696CC0F2000C26
:102DB00060474AF6B13CC0F2000C604745F6651C1E
:102DC000C0F2000C604745F6295CC0F2000C604779
:102DD0004CF2113CC0F2000C604747F6852CC0F263
:102DE000000C60474CF2791CC0F2000C60474CF2BA
:102DF000B93CC0F2000C604747F6D12CC0F2000C81
:102E0000604747F2012CC2F2010C60474AF6510CB0
:102E1000C0F2000C60474AF6796CC0F2000C6047C3
:102E20000FB4054B10B503A9044A029800F008F846
:102E300010BC5DF814FB0000B128001000F0012068
:102E40002DE9FF4F8DB00F460546002606E02528E8
:102E50000BD0DDE90F1290476D1C761C28780028F6
:102E6000F5D111B03046BDE8F08F0024A246A1464E
:102E70000122EC4900E0044315F8013F203B02FA2F
:102E800003F00842F7D128782A2810D06FF02F02DB
:102E90002878A0F13001092914D80AEB8A0102EB45
:102EA000410144F0020400EB010A6D1CF0E701CF80
:102EB0005FEA000A03D544F40054CAF1000A44F062
:102EC00002046D1C28782E2817D115F8010F44F044
:102ED00004042A280ED06FF02F022878A0F13001C8
:102EE00009290AD809EB890102EB410100EB01092C
:102EF0006D1CF2E757F8049B6D1C28786C280FD0E6
:102F000006DC4C2817D068280DD06A2814D104E0BC
:102F1000742810D07A280FD10DE044F400140AE090
:102F200044F4801401E044F440146978814202D1F1
:102F300004F580146D1C6D1C2A786E2A1FD00CDCE1
:102F4000632A31D004DC002A8BD0582A11D1A3E0A7
:102F5000642A68D0692A0CD165E0732A2ED004DC7B
:102F60006F2A73D0702A04D19BE0752A6FD0782A1B
:102F70006ED01046DDE90F129047761C50E1C4F385
:102F80000250022806D0032809D0042801CF09D016
:102F9000066045E101CFF117C0E9006140E101CFD2
:102FA00006803DE106703BE117F8040B8DF8000048
:102FB00000208DF80100EB46012003E057F804BB28
:102FC0004FF0FF3061074FF0000102D40DE008F12F
:102FD0000101884649450FDA8045F8DB1BF80810E7
:102FE0000029F4D108E008F1010188468142FADBAA
:102FF0001BF808100029F6D1DDE90F23AAEB080021
:103000008146214600F036F9304400EB080604E022
:10301000DDE90F121BF8010B9047B8F10108F7D258
:1030200021464846F7E00A21C4F302534FF0000B53
:103030000891022B04D001CFC117032B09D00AE05D
:10304000FF1D27F00707F7E8020108E032E01FE064
:1030500020E000B2C117042B01D140B2C117031EFA
:1030600071F1000307DA4FF0000CD0EB0C006CEBB1
:1030700001012D2302E0230504D52B238DF82430F4
:10308000012303E0E30701D02023F7E7984658E047
:103090000A2110E010210EE010204FF0000B0890E4
:1030A0000CE010214FF0000B44F004044FF008092D
:1030B000089103E008214FF0000B0891C4F302537C
:1030C000022B04D001CF0021032B06D006E0FF1D08
:1030D00027F00707F7E8020103E080B2042B00D1D4
:1030E000C0B24FF0000823072BD5702A07D0DDF8B7
:1030F00020C08CF0100C5CEA0B0C05D00EE04023D5
:103100008DF82430012308E050EA010306D0302373
:103110008DF824308DF8252002239846DDF820C054
:103120008CF0080C5CEA0B0C0BD150EA010301D1C6
:10313000630706D530238DF824304FF00108A9F13C
:103140000109582A04D038A20B9208AA0A920BE06F
:103150003AA2F9E75B46089AFFF7D2F80B9B9B5C13
:103160000A9A521E0A92137050EA0102F2D10A988A
:10317000ADEB000000F1200B600702D524F4803491
:1031800001E04FF00109D94502DDA9EB0B0000E099
:10319000002000EB0B0141440890AAEB010AE00378
:1031A00006D4DDE90F232146504600F063F80644BB
:1031B0004FF0000908E009A911F80900DDE90F1234
:1031C000904709F10109761CC145F4DBE0030CD5F9
:1031D000DDE90F232146504600F04CF8064404E098
:1031E000DDE90F1230209047761C0899481E0890A0
:1031F0000029F5DC08E00A980A990078491C0A9130
:10320000DDE90F129047761CBBF10001ABF1010B19
:10321000F1DC21465046DDE90F2300F019F80644A1
:103220006D1C1BE609280100303132333435363746
:103230003839616263646566000000003031323302
:1032400034353637383941424344454600000000A2
:103250002DE9F041044600251E461746880404D493
:1032600005E039462020B0476D1C641EF9D528467C
:10327000BDE8F0812DE9F041044600251E46904648
:10328000C80301D5302700E02027880404D505E0D5
:1032900041463846B0476D1C641EF9D52846BDE846
:1032A000F08100000149FFF703BB000000F001209E
:1032B00010B5044601E0FFF7FBFA14F8010B0449CE
:1032C0000028F8D1BDE810400A20FFF7F1BA00004D
:1032D00000F001205B5052454349534552525D2056
:1032E0006461746120627573206572726F72206808
:1032F0006173206F636375727265642C2050432084
:103300003A203078253038780D0A005B4441434339
:1033100056494F4C5D205468652070726F63657329
:10332000736F7220617474656D70746564206120C0
:103330006C6F6164206F722073746F7265206174AA
:103340002061206C6F636174696F6E2074686174B2
:1033500020646F6573206E6F74207065726D697480
:1033600020746865206F7065726174696F6E2C20BF
:103370005043203A203078253038780D0A005B49D8
:1033800041434356494F4C5D5468652070726F63EA
:103390006573736F7220617474656D7074656420F9
:1033A000616E20696E737472756374696F6E2066E6
:1033B000657463682066726F6D2061206C6F636155
:1033C00074696F6E207468617420646F6573206E19
:1033D0006F74207065726D697420657865637574AB
:1033E000696F6E2C205043203A2030782530387891
:1033F0000D0A004154203A3078253038780D0A0003
:103400005B486172644661756C745F48616E646CA0
:1034100065725D43757272656E74206D73703A20CB
:103420003078253038580A005B494E5650435D616C
:103430006E20696E7465677269747920636865636C
:103440006B206572726F7220686173206F636375A1
:10345000727265640D005B554E444546494E5354A7
:10346000525D616E20756E646566696E6564206983
:103470006E737472756374696F6E206572726F72A9
:1034800020686173206F636375727265640D005B01
:1034900044495642595A45524F5D616E20696E74D7
:1034A00065676572206469766973696F6E206279F9
:1034B000207A65726F206572726F72206861732066
:1034C0006F636375727265640D005B494D505245C0
:1034D0004349534552525D496D7072656369736526
:1034E0002064617461206163636573732065727227
:1034F0006F7220686173206F636375727265640D0B
:10350000005B554E414C49474E45445D616E207508
:103510006E616C69676E65642061636365737320B7
:103520006572726F7220686173206F636375727267
:1035300065640D005B494255534552525D696E7397
:103540007472756374696F6E206275732065727230
:103550006F7220686173206F636375727265640DAA
:10356000005B4E4F43505D6120636F70726F636507
:1035700073736F722064697361626C6564206F722B
:10358000206E6F742070726573656E742065727240
:103590006F7220686173206F636375727265640D6A
:1035A000005B53544B4F465D6120737461636B2025
:1035B0006F766572666C6F77206572726F722068C5
:1035C0006173206F636375727265640D005B494EB1
:1035D0005653544154455D20616E20455053522E40
:1035E00054206F7220455053522E49542076616CFE
:1035F0006964697479206572726F722068617320E2
:103600006F636375727265640D005B4D4C5350457A
:1036100052525D41204D656D4D616E61676520665A
:1036200061756C74206F6363757272656420647574
:1036300072696E6720666C6F6174696E672D706F5A
:10364000696E74206C617A7920737461746520707E
:103650007265736572766174696F6E0D005B4C53B1
:10366000504552525D4120627573206661756C74DD
:10367000206F6363757272656420647572696E672A
:1036800020666C6F6174696E672D706F696E74204F
:103690006C617A79207374617465207072657365EA
:1036A00072766174696F6E0D005B4D554E53544BCD
:1036B0004552525D556E737461636B20666F722064
:1036C000616E20657863657074696F6E20726574D1
:1036D00075726E2068617320636175736564206F15
:1036E0006E65206F72206D6F726520616363657314
:1036F000732076696F6C6174696F6E730D005B4D3A
:1037000053544B4552525D537461636B696E67202D
:10371000666F7220616E20657863657074696F6E84
:1037200020656E74727920686173206361757365BA
:1037300064206F6E65206F72206D6F72652061630B
:10374000636573732076696F6C6174696F6E730D56
:10375000005B554E53544B4552525D556E73746128
:10376000636B20666F7220616E206578636570748C
:10377000696F6E2072657475726E20686173206364
:103780006175736564206F6E65206F72206D6F7256
:1037900065204275734661756C74730D005B5354FC
:1037A0004B4552525D537461636B696E6720666F5F
:1037B0007220616E20657863657074696F6E206534
:1037C0006E7472792068617320636175736564201B
:1037D0006F6E65206F72206D6F7265204275734643
:1037E00061756C74730D004D656D4D616E6167653B
:1037F000204661756C740D005573616765204661E4
:10380000756C740D00436F6E666967757261626CEA
:1038100065204661756C740D00566563746F722087
:103820004661756C740D00427573204661756C7449
:103830000D004465627567204576656E74204661AB
:10384000756C740D004F63637572656420696E203A
:103850007461736B2E005573696E67207533324D3A
:1038600073702E004F63637572656420696E206902
:103870006E746572727570742E0000000070012005
:10388000B1310020B9310020C93100200000000012
:103890000000000000000000000000000000000028
:1038A00000000000000000001905010000000000F9
:1038B000000000009D050100A9050100D93100208C
:1038C000DB31002051340020DF310020E1310020C5
:1038D000E3310020E5310020E7310020E93100200C
:1038E000EB310020ED310020EF310020F1310020DC
:1038F000F3310020F5310020F7310020F9310020AC
:10390000FB310020FD310020FF310020013200207A
:1039100003320020053200209534002009320020B7
:103920000B3200200D3200200F3200201132002017
:103930001332002015320020B5340020034885469C
:1039400000F006F800480047FD4800200070012004
:10395000064C0125064E05E0E36807CC2B430C3CE2
:1039600098471034B442F7D3FFF7ECFF183100202A
:103970002831002002E008C8121F08C1002AFAD12D
:1039800070477047002001E001C1121F002AFBD1DF
:1039900070470000787C0020787C0020BC64000028
:1039A0000831002070B51D4E3078002834D0EFF378
:1039B0001085EFF3108072B619480068002802D015
:1039C0008047002813D03078811E032912D20124A9
:1039D0002046214603F01AFC1248016804220A43DB
:1039E000026030BF0021204603F010FC0AE085F39E
:1039F000108870BD012805D10A480168042291434E
:103A0000016030BF08480068002803D031780229DF
:103A100000D1804785F3108870BDC046B4B900203E
:103A200030E1002010ED00E02CE100201948804733
:103A3000194800477046EFF30881EFF30982174BEE
:103A40009847FEE77046EFF30881EFF30982144BC5
:103A50009847FEE7FEE7FEE7FEE7FEE7FEE7FEE744
:103A6000FEE7FEE7FEE7FEE7FEE7FEE7FEE7FEE72E
:103A7000FEE7FEE7FEE7FEE7FEE7FEE7FEE7FEE71E
:103A8000FEE7FEE7FEE7FEE7FEE7FEE7FEE7FEE70E
:103A9000FEE7FEE7B5350020C13000205934002094
:103AA0001D33002030B50B460146002020220124A2
:103AB00009E00D46D5409D4205D31D469540491B62
:103AC0002546954040191546521E002DF1DC30BDAB
:103AD000F0B51FB40646002082B00546402401918F
:103AE00000901BE0019922460F46304600F042F854
:103AF000049A059B801A994110D310461946224614
:103B000000F028F8361A8F41019722460120002143
:103B1000009F00F01FF838184D4100902046641EA9
:103B20000028DFDC019B00982946324607B0F0BD33
:103B300003460B439B0703D009E008C9121F08C0C6
:103B4000042AFAD203E00B780370401C491C521E71
:103B5000F9D2704710B5202A04DB0146203A914083
:103B6000002010BD914020239C1A0346E3401943D6
:103B7000904010BD10B5202A04DB0846203AD04002
:103B8000002110BD0B46D340D0402024A21A914002
:103B90000843194610BD000015460C46064600F0C5
:103BA0001FFAEFF308811D4803F0FEFF300701D52F
:103BB0001C4800E01A4804F041FA0420064001D0F5
:103BC0001AA000E0184804F039FA1CA004F036FAF4
:103BD000002E00D02C4621681CA003F0E5FF616890
:103BE0001EA003F0E1FFA16820A003F0DDFFE16863
:103BF00022A003F0D9FF216924A003F0D5FF616959
:103C000026A003F0D1FFA16928A003F0CDFFE16950
:103C10002AA003F0C9FF00F0B7F9FEE78A79002077
:103C2000D1790020B2790020C37900205573696EE4
:103C300067207533325073702E0000005374616337
:103C40006B206672616D653A0000000052302020E2
:103C50003A203078253038580A00000052312020B0
:103C60003A203078253038580A000000523220209F
:103C70003A203078253038580A000000523320208E
:103C80003A203078253038580A000000523132206E
:103C90003A203078253038580A0000004C52202055
:103CA0003A203078253038580A0000005043202050
:103CB0003A203078253038580A00000078505352A6
:103CC0003A203078253038580A00000080B503F0DB
:103CD000A3FA80BD14460D46064600F081F904A003
:103CE00031462A46234603F05FFF00F04DF9FEE718
:103CF0004E4D495F48616E646C65723A20253038DC
:103D0000582C20253038582C20253038580A0000EF
:103D100010B582B001AC204603F084FA019803F09C
:103D200087FA6078000601D500F024FF02B010BDCC
:103D3000F0B583B0002501953C4C02AE20463146DB
:103D400003F07CFA30880821014007D0204603F0B8
:103D50007BFA642003F07EFA03F054FA032101AAEF
:103D6000204603F07DFADD4F3C6804E0304603F066
:103D7000E5F903F047FA002C22D02646A46A307DEC
:103D80000028F3D1707D0028F0D1B07D0228F2D157
:103D90006946264803F06AFAB168F26800989142D1
:103DA00004D28842E7D3904204D3E4E7904201D39F
:103DB0008842E0D3F1690029D8D0306A8847D5E736
:103DC0003968002922D00026019A3546E14803E0EF
:103DD0002546896A00291BD08B7D022BF9D18B687F
:103DE000F40708D0CC68954208D2A34204D2AB4273
:103DF00002D32B4600E001261D46EAE7A3422C46EB
:103E000000D31C46AB42E3D32C46E1E72E46E04804
:103E100001998D4207D0F10705D003212A4603F00E
:103E20002BFA03F0EFF903B0F0BDC0460030056097
:103E3000014802490160704708ED00E000300020B1
:103E40000120C007064908607047C04604480421A5
:103E5000016070470120C005014908607047C046F5
:103E600080E200E00120C007064908607047C046B4
:103E700004480421016070470120C0050149086021
:103E80007047C04600E100E00120C007014908601A
:103E90007047C04600E200E0FF20000603490A68C0
:103EA0008243032080071018086070471CE400E07C
:103EB000FF20000402490A6882430A607047C04636
:103EC00000E400E0FF20000602490A6882430A601D
:103ED0007047C04614E400E070B55D4D29685B4E44
:103EE00030680024224603F0CDF930682968224664
:103EF00003F0CEF9534801685348814201D02D2088
:103F000000E02C2003225207914200D12B2003F025
:103F1000C5F970BD70B5032465071024AA4205D009
:103F2000104DAA4202D0484DAA4219D1802505431E
:103F30000D4EB54214D1049C264D2C60002C04D0AB
:103F4000264C00252580244C2580404C20603D488F
:103F500002603F4801604048036000F041F80446B9
:103F6000204670BD0008006080B004601B480088D7
:103F700019490988081A41424141164802685042CD
:103F8000504108437047C046F0B581B0114C2068DD
:103F9000002805D0104D2888104E3188884201D164
:103FA00001B0F0BD274F04E0288081B232889142F1
:103FB000F6D080B221680968095C386803F074F9AA
:103FC000206881882888401C82B28A42ECD3002075
:103FD000EAE7C046C0B9002060BA00205EBA0020FF
:103FE000F0B583B0174D286803214907884205D0F2
:103FF0001549884205D108242C2004E004242B20F4
:1040000001E00C242D2003F055F9104E3068104FBC
:104010003968224603F054F9002801D003B0F0BDFE
:1040200039683068022203F033F90028F6D10948D4
:104030000290094800680190286801A903F046F938
:1040400003B0F0BDC8B9002000040060C4B900206E
:1040500064BA00202130010168BA002080B502F066
:10406000E7FF02F099FD00F03DFD00F085FC00F057
:104070000FFE00F083FE01F015F803F03DF803F0A9
:104080002BF903F02FF980BDB0B503461020002BAB
:1040900022D0012920D8EFF31084EFF3108572B6F7
:1040A0009D7D002D02D084F31088B0BD0020986261
:1040B000DA6119760121997527490A68002A02D127
:1040C0000B600021D96225490A68002A01D0936259
:1040D000DA620B6084F31088B0BDC04654BA002089
:1040E00010B51024002808D0817D002905D00121B9
:1040F00041750024C47503F085F8204610BD00000A
:10410000B0B5052003F0D6F8214D002428462146FD
:1041100003F0EEF8FFF794FEFFF7BEFEFFF7A2FEF6
:104120001F21204603F0EAF801204102284603F04F
:10413000EBF80821284603F0EDF8FF21284603F0AC
:10414000EFF8284603F0F2F80348046003480460DF
:104150002046B0BD0030056054BA002058BA002097
:1041600010B504461020002C11D0A37D002B0ED0DA
:104170006262616021461031054803F077F8022041
:10418000E075FF200230A08203F03CF8002010BD53
:104190000030056080B501461020002908D08A7DD6
:1041A000002A05D001204875C87503F02BF80020BF
:1041B00080BD0000B0B590B019480AAC21462CC8AB
:1041C0002CC12CC82CC100F05DF840200C212246E7
:1041D00003F0B2F82A490860002819D0114801AA52
:1041E000114638C838C138C838C138C838C10E4837
:1041F0000024214603F0A6F80C490860002809D0E5
:10420000802003F0A5F80A4803F0A8F8012404E090
:10421000002402E0074803F0A7F8204610B0B0BD24
:10422000E0770020F8770020BD390020BC7C00201A
:10423000696600200960000084B0104C104D04E055
:10424000621C81B2104603F095F828680022D3431F
:1042500001A903F095F80028F2D101A803F096F81F
:1042600002990029F1D00398002802D003F094F8B5
:10427000EBE7204603F078F8E7E7C046026000006D
:10428000F47C0020B0B58CB0144806AA114638C89A
:1042900038C138C838C11020242103F083F81049F0
:1042A0000860002810D00F486A46114638C838C147
:1042B00038C838C10820802103F074F80A49086022
:1042C000002804D00CB0B0BD0320400302E003205E
:1042D0004003401C03F048F80CB0B0BD3478002017
:1042E000BCB900201C780020B8B9002080B50A466F
:1042F0000021FFF7C9FE4142484180BD80B5FFF76C
:10430000EFFE4142484180BD80B5FFF729FF4142A1
:10431000484180BD80B5FFF73DFF4142484180BD27
:1043200010B5002400F042FD002810D000F032FE4D
:1043300000280CD003F03CF87D24A00003F03EF8E8
:104340006001044903F040F803F044F801242046DA
:1043500010BDC046AC0D00006A480088401A4142BA
:104360004141C8007047C046F0B583B043490025BD
:10437000434B28462A4601F0A3F9002867D0009550
:104380000195812043003F4C284621462A4601F0F2
:104390002BF9002860D03C4908800D2001903B4853
:1043A0000090611C00200223024601F01DF9002844
:1043B00057D00E26019636480090A11C00250223F6
:1043C00028462A4601F010F900284FD012270197FD
:1043D00030480090E11C0296022628462A463346C1
:1043E00001F002F901972C480090211D28462A4629
:1043F000334601F0F9F8019728480090611D2846DE
:104400002A46334601F0F0F8019725480090A11D97
:1044100028462A46334601F0E7F8029801902148E1
:104420000090E11D28462A46334601F0DDF80720BA
:1044300001901D4800902D34284621462A463346D7
:1044400001F0D2F801F002F902F0CAFF12E017A061
:1044500003F0F4FD01250DE014A003F0EFFD0125AC
:1044600008E012A003F0EAFD012503E00FA003F02D
:10447000E5FD0125284603B0F0BDC0460A1800003E
:10448000F4780020232A000062BA00205879002026
:10449000687900201C79002030790020787900208C
:1044A000447900200C7900206C7C00204465762043
:1044B000696E666F207365727669636520696E69DF
:1044C00074206661696C7572652E000010B50D4828
:1044D0000088884214D10820002B10D00A490A68AD
:1044E000496819711A700C0EDC710C0C9C71090A68
:1044F0005971110ED970110C9970110A597010BDB3
:10450000002010BD62BA002098E00020B0B5401E27
:10451000622800D9AEE10C464D1C400078448088EA
:10452000400087446200710083009900BD00CA000A
:10453000DA00ED00FB000A01A701A701A701A7010E
:10454000A701A701A701A701A701A701A701A7012B
:10455000A701A701A701A701A701A701A701A7011B
:10456000A7012101260133014001A70145014D01A9
:104570005301A701A701A701A701A701A701A7014F
:10458000A701A701A701A701A701A701A701A701EB
:10459000A701A701A701A701A701A701A701A701DB
:1045A000A7015F01A701A70167016C0171017601F5
:1045B0007B01800185018A018F01A7019401A70178
:1045C000A701A701A701A701A701A701A701A701AB
:1045D000A701A7019901A701A701A701A701A701A9
:1045E000A701A701A7019E01A301A078E178090214
:1045F0000918DF4802F0BEFEA078E1780902091828
:10460000DC4803F0D1FAB0BDE2782978D64802F050
:10461000EDFE2878697809020918E278D34803F09A
:10462000C3FA0020012102F0E7FEB0BD20796179D4
:1046300009020918E3782A78C54802F0E3FE2079D8
:1046400061790902091828786A7812021218E37849
:10465000C04803F0A9FAB0BD2079617909020918B0
:10466000AE4802F087FE211DAD48082202F0D0FEC0
:104670002079617909020818A179E27912025118AA
:1046800009040A18207A617A09020818A17AE37AE3
:104690001B02591809040B18A2A003F085FAB0BD3B
:1046A0002389E288A1889B4802F0B8FE2389E2882A
:1046B000A188994803F078FAB0BD28786978090292
:1046C0000918A878EA7812021218A879EB791B0267
:1046D0001B188F4802F0A2FEB0BDA078E178090255
:1046E000091863792279884802F08CFEA078E17875
:1046F0000902091863792279844803F055FAB0BD9C
:10470000E2782978964802F071FE287869780902E3
:104710000918E278934803F047FAB0BD2878697821
:10472000090209188C4802F025FE287869780902E8
:1047300009188A4803F038FAB0BD20786178090278
:104740000918A078E27812021218604802F06CFE94
:104750002078617809020918A078E278120212180C
:104760005BA003F021FAB0BD2188564802F002FE9A
:10477000B0BDA01C002102F05DFE014620786278E9
:10478000120212184E4802F05BFEB0BDA01C0021C0
:1047900002F050FE01462078627812021218474853
:1047A00002F04EFEB0BD2188434802F0E3FDB0BDEB
:1047B00020786178090209183E4802F0DBFDB0BD9F
:1047C000A27821783A4802F011FEB0BD20786178D5
:1047D00009020918A07AE27A12021218334802F08C
:1047E00023FEB0BD2178E0784042C2B22E4802F0EC
:1047F000FDFDB0BD2178294802F0BCFDB0BD217897
:10480000254802F0B7FDB0BD2178224802F0B2FD84
:10481000B0BD21781E4802F0ADFDB0BD21781B4827
:1048200002F0A8FDB0BD2178174802F0A3FDB0BD8D
:104830002178144802F09EFDB0BD2178104802F0A6
:1048400099FDB0BD21780D4802F094FDB0BD2178EE
:10485000094802F08FFDB0BD2178114802F08AFDB1
:10486000B0BD21780F4802F085FDB0BD2178164813
:1048700002F080FDB0BDC0462BA000002AA00000C1
:1048800029A0000028A0000027A0000026A000000A
:1048900025A0000024A0000023A0000022A000000A
:1048A0002CA0000033A0000021A0000016A00000F2
:1048B00015A0000014A0000013A0000012A000002A
:1048C00011A0000010A0000034A000000FA0000004
:1048D0005B4D53475F424C455F4D54555F455843D0
:1048E00048414E4745445F494E445D2048616E64EF
:1048F0006C65203D20307825582C206D7475203D46
:104900002025640A000000000EA00000587A002054
:104910000DA000000CA00000AB7B00200AA000004E
:104920000BA000005B4D53475F424C455F4C4C5F12
:10493000464541545255455F494E445D2048616E9D
:10494000646C65203D203078254C580A000000003A
:1049500009A00000207B002008A00000F17A0020C0
:1049600007A00000A77A002005A00000727B0020AD
:1049700003A000001A7C002080B5024802F066FD0A
:1049800080BDC046913C00202F480088411A484213
:10499000484170472C480088884205D10120002BEF
:1049A00001D000211970704700207047F0B583B026
:1049B00014460D460146202D00D320251F4F3846B2
:1049C0002A46FFF7B5F8200A1D4E70703470032098
:1049D000C10200201B4B024600F072FE0124002899
:1049E00028D000970195152045020020022729466E
:1049F00002463B4600F0F8FD00281BD000960197C8
:104A0000691C0026304632463B4600F0EDFD00288A
:104A100010D000960196A6358120430030462946E5
:104A2000324600F0E1FD002804D00749088000F07C
:104A30000DFE3446204603B0F0BDC04694B90020B8
:104A400090B90020007900205CBA00200020704757
:104A5000B0B582B00124A10219481A4A102300F00F
:104A60008DFEFFF7A7FB002825D025020095102119
:104A700028220823204602F0EFFC68351248294618
:104A800002F0F0FC33208101104802F0F1FC1048E4
:104A90000221302202F0F2FC02F0F6FC0D4802F096
:104AA000F9FC0D4802F0FCFC0C4802F0FFFC0C483D
:104AB00002F002FD00E00024204602B0B0BDC04676
:104AC000D8CF0020D4B9002070BE0020D8D3002059
:104AD000F88A0020713A00208D3A0020993A00208F
:104AE000813A002010B502F0A9F8002402212046E6
:104AF00002F004FCFFF7AAF9FFF7DAF9FFF7B8F9BB
:104B00000F2003210422072302F0DCFC00F036F81A
:104B1000FFF706FC002807D0FFF79AFF002805D012
:104B200000F010FD204610BD03A000E009A003F036
:104B300085FA012010BDC046626C655F636F6E74BC
:104B4000726F6C6C65725F696E6974206572726FEA
:104B5000722E0000626C655F686F73745F696E69C6
:104B600074206572726F722E0000000080B502F032
:104B7000AFFC80BD80B502F0B1FC80BD10B52B4804
:104B800002F0B2FC2A4802F0B5FC2A4802F0B8FC58
:104B9000294802F0BBFC294802F0BEFC284802F07C
:104BA000C1FC284802F0C4FC274802F0C7FC274893
:104BB00002F0CAFC264802F0CDFC264802F0D0FCE8
:104BC000254802F0D3FC254802F0D6FC244802F028
:104BD000D9FC244802F0DCFC234802F0DFFC234827
:104BE00002F0E2FC224802F0E5FC224802F0E8FC78
:104BF000214802F0EBFC214802F0EEFC204802F0D4
:104C0000F1FC204802F0F4FC1F4802F0F7FC1F48BA
:104C100002F0FAFC0020C4432046214602F0FAFCD0
:104C20002046214602F0FCFC10BDC046D3BC020069
:104C3000B3BC0200BBBC0200CBBC0200C3BC020080
:104C4000B9550100695601006127020001270200E1
:104C500015270200710B02005D24020031260200BC
:104C60009D2502008D260200F9250200C5260200BE
:104C70007D270200752702007D0B0200D9E90300A1
:104C800001E803003DE70300C5EA03009DEA0300D5
:104C900070B58EB0022002F0C9FC0CAC204600F0CA
:104CA0003DF8204602F0C8FC1A4808A90A4638C850
:104CB00038C203881380807890700024204602F068
:104CC000C1FC07A9062088708120400008800325C8
:104CD00020462A4602F0BCFC6E46092070701A205D
:104CE0003070B01C0C491922FEF722FF1B2220460F
:104CF000314602F0B3FC204602F0B6FC052110223A
:104D0000284602F0B7FC0121204602F075FB0EB0E8
:104D100070BDC0464C7800204C7C0020B0B582B0FD
:104D200000281FD0044609206D460622294602F0BD
:104D3000A7FC2878002803D169464978002913D0B8
:104D400069464A7962714A78E2708A78A2700209EB
:104D5000000180182071C8783F22104060700879E7
:104D60001040207002B0B0BD034906222046FEF775
:104D7000DFFE02B0B0BDC0465B78002080B504A065
:104D800019210022FFF712FEFFF7EEFA80BDC046A0
:104D9000485433324636373578355F424C455F509C
:104DA00045524950484552414C000000F0B58FB083
:104DB0005E48012102F06AFC0024002800D1B1E025
:104DC0005B4802F069FC002800D1ABE0594802F0D2
:104DD00069FC002800D1A5E057480125294602F0CA
:104DE00067FC002800D19DE0042000905348544AFD
:104DF00010210B4602F062FC002800D192E05148DD
:104E0000062102F061FC002800D18BE04E4802210F
:104E100002F060FC002800D184E02C0200204B4905
:104E20004B4A131859601C8109191C307028F8D19D
:104E300000204849484A1318596028251D81283107
:104E40001C307028F7D145480EC800680E900BA89A
:104E50000EC00BA802F044FC00285ED00020404A9F
:104E6000404B1918CA600C82412189005218303019
:104E70006028F6D10294BF20C4433B4E20463B4AF3
:104E80001718CC22BE50D023FD522C363030F6D12C
:104E900001920026364F37488019C7600A460299AA
:104EA00001821146BF183036602EF4D13249334E9C
:104EB000019A30198150C5522C313034F9D1304922
:104EC00003A8024678C978C278C978C202F00EFCFD
:104ED000002824D000202B492B4A029C13189C81C7
:104EE0009960091920304028F8D12748022221462C
:104EF00002F002FC002814D000202449244A11505A
:104F000013189C80091910302028F8D1204802225B
:104F1000214602F0F7FB044604E0002402E00024EE
:104F200000E0002420460FB0F0BDC04628900020CD
:104F3000F8920020C0910020988B002070950020EE
:104F4000809500208097002010950020B09B0020C5
:104F5000E0930020C0A300209095002064780020FA
:104F6000B8A10020B094002010A50020C096002019
:104F7000B09F00205094002060A4002000960020E4
:104F800074780020B0970020588B0020B099002042
:104F900008900020B0B590B018480AAA114638C849
:104FA00038C138C838C14020082102F0C5F9144979
:104FB0000860002816D0134801AA114638C838C125
:104FC00038C838C138C838C10F480024214602F01B
:104FD000B9F90E490860002809D00D4802F098FB85
:104FE000012407E00FA003F029F8002402E009A043
:104FF00003F024F8204610B0B0BDC046B8780020B9
:105000004CA60020947800204D48002014A60020D3
:10501000496700206C6C635461736B4964204E5582
:105020004C4C00006C6C635461736B4D736751752D
:105030006575654964204E554C4C00000348044991
:1050400001600448044901607047C046300B0020ED
:10505000FD6700202C0B00202D49002010B582B0E8
:1050600004460D48016800290BD00C4802880B68E3
:105070009C548B88511C8AB29A4200D30021018033
:1050800006E001A90C7006480068012202F046FB08
:10509000204602B010BDC046C0B900205EBA002054
:1050A000C8B900200148024901607047280B002060
:1050B0003948002080B5FEF767FF7D20800002F0B0
:1050C000C9F8FEF76FFC80BD82B00A4D0AA403E068
:1050D0000146204602F068FD28680022D343694655
:1050E00002F04EF90028F3D10199009802F01CFB60
:1050F000F2E7C0464CA600206C6C635F7461736B72
:1051000020676574206D7367206661696C65643A19
:1051100025750A0080B5FEF763FF02F00BFB80BD2A
:1051200010B50024FFF722FD002808D0FEF71EFF6F
:10513000002804D0FEF7D0FE02F002FB0124204636
:1051400010BD000010B5094B1960094908700948E5
:10515000026001200024214602F058F803210A22AF
:105160000523204602F0AEF910BDC04630E1002014
:10517000B4B900202CE100208AB0094801AC2146D6
:105180002CC82CC12CC82CC12CC82CC102F0DEFAB2
:1051900004480021224602F0D5F802F0DDFAFEE7CD
:1051A000D0780020E13700200C460546FEF718FFB6
:1051B00006A002F043FF09A0294602F0F5FC0CA06E
:1051C000214602F0F1FCFEF7DFFEFEE76F7320657B
:1051D0007272206F6363757273000000636F6465A1
:1051E00020202020203A203078253038580A00002E
:1051F0006F626A6563745F69643A2030782530387D
:10520000580A0000F0B583B01C4616460F460290BF
:1052100009891348089D2A4602F006F9F888C00556
:1052200013D402943C8A0E48401C2146324602F0B8
:10523000FBF8A01B81B2A94200D80546AAB2786942
:1052400081190298FEF774FC07E0398900950298ED
:105250003246234600F0E4FD0546A8B203B0F0BD97
:1052600015510000F0B585B01D4616460F460121C8
:1052700001701478384602F075FA002800D16EE00B
:10528000009701950746C8379D490546481C2146A9
:1052900002F070F8D8350295601E512800D9D9E087
:1052A0004000C046784480884000874451005D003B
:1052B0006F0095009A00A100A700AE00B400BB00EB
:1052C000C000C700CC00D300D300D900DF00E60047
:1052D000EC00D300D300F300F90000010501D30076
:1052E0000C01D30013011A01D300D300D300D30063
:1052F000D300D300D300D300D300D300D300D30016
:10530000D300D300D300D300D300D300D300D30005
:10531000D300D300D300D300D300D300D300D300F5
:10532000D300D300D300D300D300D300D300D300E5
:10533000D300D300D300D300D300D300D300D300D5
:10534000D300D300D300D300D300D300D3001E0179
:10535000029C20463146019A02F00AFACBE06848E6
:1053600002F002F805B0F0BD3846314602F006FA08
:105370000028029C00D0BEE004A90098088038886C
:1053800048800A20042202F0FFF9B4E001213046EF
:1053900002F000FA7A889042014600D311463A881A
:1053A000914202D2172900D339803A7854498B1C94
:1053B000C1B2184602F01AF80220B8713988009C70
:1053C000204602F0EDF903A90C80388848800A20B5
:1053D000042202F0D9F98DE03846314602F0E6F9B0
:1053E00088E0029C20463146019A02F0E5F982E00D
:1053F00038463146019A02F0E5F97BE0029C2046EE
:105400003146019A02F0E4F975E038463146019AD6
:1054100000F0ECFA6EE0029C20463146019A02F060
:10542000DDF968E03846314600F0D6FB62E0029CC8
:1054300020463146019A02F0D7F95CE03846314601
:1054400000F066FA56E0029C20463146019A02F0CE
:10545000D1F950E006223846214602F0D1F949E060
:1054600038463146019A02F0D1F943E0029C2046C9
:105470003146019A02F0D0F93DE038463146019AB2
:1054800000F042FC36E0029C20463146019A02F0D0
:10549000C9F930E038463146019A00F0D1F929E0E7
:1054A000029C20463146019A02F0C2F923E03846B8
:1054B000314600F093F91DE0029C20463146019AE6
:1054C00002F0BCF917E0029C20463146019A02F036
:1054D000BBF910E0029C20463146019A02F0BAF96D
:1054E00009E0384600F0D4FB04E038463146019A22
:1054F00000F0DDFB029C204602F0B2F905B0F0BDE1
:10550000145200000148024941607047BC0A002063
:10551000E949002010B50C46C988C90503D5218981
:1055200000F066FC208210BD01480249016170470D
:1055300064090020BD4C0020012101700048704723
:10554000FFFF000080B5114802F010F8104802F08B
:1055500013F8104802F016F80F4802F019F80F4837
:1055600002F01CF801F01AFA01F04AF801F032F8E2
:1055700000F09CFC01F034F801F012F800F09CFC03
:10558000FFF7D2FFFFF7BEFF80BDC04639610020A4
:10559000056200207161002061620020CD61002061
:1055A000B0B501468B4A1088002810D013888A4A6B
:1055B0001468002204E00834521C9A42184608D2AB
:1055C00025888D42F7D865888D42F4D302E0002209
:1055D00000E01846D100804B1B6859184968002923
:1055E00000D01046B0BDC046F0B581B01C4617468D
:1055F0000D461549079B069A00280DD00D46002F31
:105600001BD03846214602F031F90646681C1022AC
:10561000394601F0FDFE0AE028460F46214602F019
:105620002BF90646B81C294601F0A4FE3D46E81CAD
:105630003146224601F0F8FE03E0284601F094FED0
:105640000026304601B0F0BDA5520000F0B581B093
:1056500060480188002912D002885F480368002052
:1056600004E00833401C9042114606D25C88002CAE
:10567000F7D11C88002CF4D002E0114600E0002095
:105680000E4C884206D181B2204601F073FE002004
:1056900001B0F0BDC60002F0F5F805464E4F38687F
:1056A0008019458002F0F4F80246601C294601F09A
:1056B000BBFE38688019408801B0F0BDA3520000DD
:1056C000F0B583B001920E46424D2988002400298E
:1056D00002930FD0404A12681788002F0AD02988F9
:1056E000083201231C468B4204D2631C17880832FF
:1056F000002FF7D18C4205D1A1B21F4801F03AFE2C
:10570000002735E01C4D002813D02E46019D002DAA
:105710002AD00520C102284602F0C0F80746B01C76
:1057200010222946354601F073FE002F0DD10027C7
:105730001EE00520C102304602F0B6F80746E81C1C
:10574000314601F017FE002FF1D0E0002249096830
:105750000F5208180299416000214180281DA2B211
:10576000394601F061FE03E0701C01F0FDFD0027E9
:10577000384603B0F0BDC04699520000F0B581B084
:10578000134D00281FD0002A1DD00C4600291AD026
:10579000002B18D00F490B800F490A6000210F46DB
:1057A0000E46FF00D151761CF7B29F42F9D300227A
:1057B00000922146134602F07DF8681C214601F054
:1057C000D9FD01B0F0BD284601F0CEFD01B0F0BD1D
:1057D00097520000C0A50020C4A5002070B582B07B
:1057E0000E460446102002F06BF800280AD0054649
:1057F0006189A0887278002300930193012A06D062
:10580000032205E00D4801F0AFFD02B070BD022299
:1058100000F026FB010607D0C3B21821002228465B
:1058200002F054F8024602E0192028700122A088F4
:10583000294602F051F802B070BDC0462351000065
:10584000F0B58BB004920C4605460121204601F0CC
:10585000A1FF07460321204601F09CFF03902E463E
:105860002888001D80B202F02BF8002813D00546CE
:1058700005A8394602F036F8002811D005A8C088DE
:10588000010701D5C00512D4162128463A4602F078
:105890002FF8024628E01D4801F066FD0BB0F0BD70
:1058A000162128463A4602F029F802461CE005A9CE
:1058B000304602F029F8002801D003460EE0B088F7
:1058C0000499491F89B2621D009201910122394653
:1058D000039B00F0C5FA01060CD0C3B2162128467E
:1058E0003A4601F0F3FF0246B088294601F0F4FF82
:1058F0000BB0F0BD28462146049C2246FEF718F95D
:105900001720287077812246EEE7C046225100001A
:10591000F0B589B00D4604460121284601F03AFF52
:1059200006460321284601F035FF029003A83146C0
:1059300001F0D8FF07462088001D80B201F0C0FFAB
:1059400000280CD00546002F0ED003A8C088800781
:1059500010D40C212846324601F0DCFF3BE02248FF
:1059600001F002FD09B0F0BD0C212846324601F0DD
:10597000C5FF30E003A9204601F0C6FF002806D08D
:1059800003460C212846324601F0A0FF23E0A08800
:1059900003AF3946FFF7BEFD388A029A824205D925
:1059A0000C212846324601F0BBFF14E0801A411C4E
:1059B0002088814203DD1018401E03A90882079841
:1059C000801A81B2A08800916B1C03A9FFF71AFC12
:1059D0000D212970401CA18882B20846294601F099
:1059E0007BFF09B0F0BDC0461F510000F0B591B07B
:1059F00014460E46074601213046099101F0CAFEC1
:105A000005460321304601F0C5FE024671480A955D
:105A100029460546089201F007FD7279681C214667
:105A200001F002FD07973888001D80B201F048FFA1
:105A3000002804D00746082C06D3102005E0A81C37
:105A400001F092FC11B0F0BD022006900A9A08996C
:105A5000501E80B288420AD2701D05900BA801F03A
:105A600065FF002603960296099804900FE008212E
:105A7000384601F043FF9EE00BA9079C204601F049
:105A800043FF002834D00390099C002C75D10BA84B
:105A900001F052FF002870D00BAC204601F052FFFD
:105AA0002289A188E81C01F0BFFC0E98017840789B
:105AB0000002401882B2E188281D01F0B5FC20895F
:105AC0000028E1D000240A998842DED30899884250
:105AD000DAD80BA80599069A01F03AFF0028D4D02D
:105AE0000BA8C0888007C7D43004CED10D9ECCE768
:105AF000A0880BA9FFF70EFD0F98801C049989B2AE
:105B000000220392022904D382B2029B9BB29342E9
:105B1000BAD1012903D17870049B5B1C01E0049B7E
:105B20000298029080B299B20A18208882420493A7
:105B300006D90229A8D8001F0BAA1082801C7870F1
:105B40000BAC2289384601F009FF07988088218A2A
:105B500000910499891C049189B27B180022039258
:105B60002146FFF74FFB0446681D214601F002FC69
:105B7000049820180490039C87E7049988B20228AF
:105B800002D30920387017E00399080606D0CBB27B
:105B9000082138460A9A01F099FE0CE0300405D03D
:105BA000B2B20821384601F0B5FE04E008213846BB
:105BB0000A9A01F0D9FE0146A81D8CB2214601F0D7
:105BC000D9FB079880883946224601F085FE11B03E
:105BD000F0BDC04617510000F0B587B00A46044634
:105BE0000121104601F0D6FD064601A8314601F01C
:105BF00079FE07462088001D80B201F061FE002872
:105C00000CD00546002F0ED001A8C088800710D404
:105C10000A212846324601F07DFE2EE01B4801F0A5
:105C2000A3FB07B0F0BD0A212846324601F066FE0C
:105C300023E001A9204601F067FE002806D00346B4
:105C40000A212846324601F041FE16E0A08801AE46
:105C50003146FFF75FFC2088318A814202D3401E23
:105C600001A90882A08801A90A8A00926B1C00225F
:105C7000FFF7C8FA0B212970401CA18882B20846A0
:105C8000294601F029FE07B0F0BDC0461E510000B4
:105C900080B582B00189002907D000230381808864
:105CA00000930193042200F0DBF802B080BDF0B550
:105CB00089B015460C4607460121204601F06AFDD1
:105CC000064603A8314601F00DFE00280CD0412005
:105CD000800003A9C9880140814205D103A9384643
:105CE00001F012FE002801D009B0F0BDB888E91E0D
:105CF00089B2E21C0092019100223146134600F065
:105D0000AFF809B0F0BD0000F0B58BB003920C46BF
:105D1000074601260846314601F03CFD014605A82C
:105D2000049101F0DFFD0546102001F0C9FD0028B7
:105D30000CD0002D0FD005A9CA8811073D4613D4F9
:105D400012210446049A01F0D3FD1AE0274801F01D
:105D50000BFB0BB0F0BD12210446049A01F0CEFDFE
:105D6000214606463D460EE005A9D20511D4098A12
:105D7000C91C039B99420CD212210446049A01F0DB
:105D8000F9FD21460646A888324601F0A5FD0BB074
:105D9000F0BD002AD4D5074605A9284601F0B4FD78
:105DA000002805D0034612213C463846049A13E0E9
:105DB000A8880399C91E89B2E21C009201910022B1
:105DC000049C2146134600F04BF8010609D0C3B2EB
:105DD000122122463C46384601F078FD39460646F7
:105DE000D1E7132039463870CDE7C0462151000075
:105DF000B0B50C4605460846FFF7D2FB01462948D8
:105E00000288002091420AD0C900274A126851181E
:105E100049680A68002A02D0284621469047B0BD4A
:105E2000F0B581B01C4615460E4607460846FFF7FA
:105E3000B7FB01461B480288002091420ED0234642
:105E4000C900194A1268511849684C68002C05D0DD
:105E500006980090384631462A46A04701B0F0BD6A
:105E6000F0B583B01C4615460E4607460846FFF7B8
:105E700097FB01460B4802880020914210D0234630
:105E8000C900094A1268511849688C68002C07D06B
:105E90000998089900910190384631462A46A04752
:105EA00003B0F0BDC0A50020C4A5002008480149EA
:105EB000C1647047615A0020092040010449054A25
:105EC0000A50E2480021044A026041607047C0461F
:105ED000500B00209D620020ED490000F0B587B016
:105EE0000546D8482E184520000128180290F84889
:105EF0002B5C0391497B9768D0682C46503402781C
:105F0000002B45D0002965D0092A00D0B1E0FF213F
:105F100009020F40092109028F4200D0FCE0027AF9
:105F200004A90A72027943791B029A188379C57908
:105F30002D02EB181B049A180592027843781B0275
:105F40009A188378C0780002C01800048018049062
:105F5000481C01F015FD07460D4601203070002653
:105F6000039A967210208143B9482F303840029B23
:105F700003C3517BB448401C01F0FCF9B64A3A40D7
:105F800051208543218830462B4601F0FFFC55E126
:105F9000002970D0092A00D1CAE0072A00D008E100
:105FA000FF231B021F40012673029F4200D015E110
:105FB00040780E2800D041E1002603988672A2485E
:105FC000401D01F0D7F921881A203246334601F0EE
:105FD000DDFC33E10E2A00D09CE0FF2109023940AC
:105FE00009231B02994200D0E7E0027A04A90A7251
:105FF000027943791B029A188379C4792402E31841
:106000001B049A180592027843781B029A18837829
:10601000C0780002C018000480180490481C01F0E9
:10602000AFFC0191894A0ACA894A00900840114090
:106030002F2404400A191027BB43284601F0ACFC6A
:10604000002800D1F7E00246F84301213170814970
:1060500091610399D161019B034000987C4E3040CF
:106060000443029804604360284601F09BFC00262C
:10607000E4E00126E2E0082A00D09CE0FF210902CA
:10608000394009231B02994200D0C1E0027A04A9D9
:106090000A72027943791B029A188379C47924021F
:1060A000E3181B049A180592027843781B029A1889
:1060B0008378C0780002C018000480180490481C3F
:1060C00001F05EFC0191614A0ACA614A00900840F1
:1060D00011402F2404400A191027BB43284601F021
:1060E0005BFC002800D1A8E00246F8430121317092
:1060F000584991610399D161019B03400098544E26
:1061000030400443029804604360284601F04AFC92
:10611000002693E0012691E02846039C214601F0E9
:1061200047FC0026A672617B474801F023F985E011
:10613000FF2109020F4009210902434B8F425AD126
:10614000027A04A90A72027943791B029A188379A8
:10615000C5792D02EB181B049A1805920278437832
:106160001B029A188378C0780002C01800048018B7
:106170000490481C01F004FC07460D4601203070D5
:106180000026039A96721020814331482F30384000
:10619000029B03C3517B2C48C01D01F0EBF82E4A33
:1061A0003A4051208543218830462B4601F0EEFBD2
:1061B00044E0012642E0012640E02846039D2946AE
:1061C00001F0F6FB204CA01C394601F0F7FB00263D
:1061D000AE72697BE01C01F0CDF82FE02846039CED
:1061E000214601F0E5FB0026A672617B1648001DE2
:1061F00001F0C0F822E02846039C21461D4601F02C
:10620000D7FB0026A672617BA81D01F0B3F815E04C
:106210002846039C214601F0CBFB0B4D2846083055
:10622000394601F0CBFB0026A672617B0935284672
:1062300001F0A0F802E0022600E00226304607B096
:10624000F0BDC04649040000CE360000C8A50020BD
:1062500000CF87F7A98002002FCF87F770B50028FD
:1062600010D00D4600290DD0002A0BD0D168097836
:1062700000240E290FD0082927D11549405C002899
:1062800023D10CE01620492100242246234601F0A8
:106290009BFB204670BD0E49405C002815D00124B0
:1062A0002C730026EE72FF2004302881304601F066
:1062B00091FB03C50748EE806E716E61AE61E861C7
:1062C000AC700548314601F055F8204670BDC04617
:1062D0005103000061560020CD36000010B5044681
:1062E00000F078FD002802D00C21012006E000F02B
:1062F0004BFD002801D1014600E00C21207008462A
:1063000010BD000010B50A46002911D00446906B5C
:1063100000280DD0107C072811D0062816D005289B
:106320001DD110480068D060104600F075FD13E0E4
:106330008520C1001C20002301F046FB10BD094848
:106340000068D060104600F06BFD05E0054800686D
:10635000D060104600F06AFD0120207010BD0020C2
:10636000207010BD50080020B0B50D4600290FD098
:106370000446A86B00280BD0287C07280FD00628DD
:1063800012D0052817D12846114600F046FD0FE02F
:106390001C200A4900232A4601F016FBB0BD2846FE
:1063A000114600F040FD03E02846114600F048FD8C
:1063B00001202070B0BD00202070B0BD8D04000011
:1063C00010B50A46002918D00446906B002814D056
:1063D000107C072817D0062823D0052831D1404843
:1063E0000178D068484318490968884200D80146B6
:1063F000D160104600F012FD20E01C20134900235C
:1064000001F0E2FA10BD36480178D06848430E49E1
:106410000968884200D80146D160104600F004FDAA
:106420000CE02F480178D068484307490968884242
:1064300000D80146D160104600F021FD01202070F7
:1064400010BD0020207010BD54080020530400002F
:10645000B0B50D46002919D00446A86B002815D008
:10646000287C072819D0062826D0052835D1E868C9
:106470001B490978FDF716FB1A490968884200D3C1
:106480000146E960284600F0CAFC23E01C201649BA
:1064900000232A4601F098FAB0BDE868104909784F
:1064A000FDF700FB0F490968884200D30146E96007
:1064B000284600F0BAFC0DE0E86809490978FDF7C4
:1064C000F1FA08490968884200D30146E960284684
:1064D00000F0E8FC01202070B0BD00202070B0BDAD
:1064E0005C08002058080020B5040000B0B5044640
:1064F000012500F0D7FB002801D0284608E000F075
:1065000069FC002801D0012002E000F03DFC0546B6
:1065100020702846B0BD70B504460C26012500F059
:10652000F5FB00280BD100F062FC002807D100F039
:1065300038FC0546002801D12E4600E00C262570C7
:10654000304670BD70B504460C26012500F0DEFB18
:1065500000280BD100F04BFC002807D100F021FCF3
:106560000546002801D12E4600E00C262570304655
:1065700070BD10B5044600F0C9FB002803D100F03F
:1065800036FC002803D0002020700C2010BD00F045
:1065900008FC00212170002800D00C2010BD000054
:1065A000152000011249074A0A5053208000064A6C
:1065B0000A502920C000054A0A5051208000044A90
:1065C0000A507047D55B0020ED5A0020455B002043
:1065D000895A00200648014901667047715C002015
:1065E00003480449044A054B8363C263016470474E
:1065F000500B0020F75C00209B5C0020C95C002051
:1066000070470000B0B584B0002808D00446816807
:10661000022001F0E5F9002804D004B0B0BD042048
:1066200004B0B0BDE389A289607C014601F0DEF9C7
:106630000028F2D16269A369217C607C0125009564
:10664000019002900025284601F0D6F90028E4D1F7
:10665000206A01F0D7F90028DFD1A18B606A01F030
:10666000D7F90028D9D106480570627C03CC01F027
:10667000D5F90028D1D101F0D7F9284604B0B0BD32
:106680000C0D002070B50126067027480078002404
:10669000002801D0204670BDEFF31085EFF3108085
:1066A00072B601F0C7F900280CD0344C20780028CD
:1066B00004D11F4801F0C4F90120207085F310882F
:1066C000012070BD2F490846683800682B4A1278AF
:1066D000002A1DD030401BD0052208680B68984264
:1066E00004D0531E12061A46F7D1FF22110613D00A
:1066F00023490968814213D90C4A128885F310880E
:10670000081A5109884200D800263446204670BD38
:1067100085F31088204670BD85F31088204670BD33
:1067200085F31088204670BD5F09002022080020F4
:10673000FFFFFF1FB0B501210170EFF31084EFF3ED
:10674000108072B60D4D2878002813D00C480068D0
:106750000C490968814205D2491D814204D201F0E9
:1067600075F905E0642001E04B20800000F072FD27
:106770000020287084F31088B0BDC0465B0900205B
:1067800080000040E8010040B0B584B0002808D087
:1067900004468168042001F023F9002804D004B0E5
:1067A000B0BD042004B0B0BDE389A289607C01467D
:1067B00001F01CF90028F2D16269A369217C607C98
:1067C00001250095019002900025284601F014F95A
:1067D0000028E4D1206A01F015F90028DFD1A18B4F
:1067E000606A01F015F90028D9D103CC627A01F072
:1067F00033F90028D3D10348057001F033F9284656
:1068000004B0B0BD9C0D002070B584B0002808D045
:1068100004468168062001F0E3F8002804D004B0A3
:1068200070BD042004B070BDE389A289A17C607CA6
:1068300001F0DCF80028F2D16269A369217C607C58
:10684000A57C01260096019002950025284601F0BE
:10685000D3F80028E3D1206A01F0D4F80028DED173
:10686000A18B606A01F0D4F80028D8D103CC627AF9
:1068700001F0D4F80028D2D10348057001F0F8F8EF
:10688000284604B070BDC0469D0D0020B0B584B050
:10689000002808D004468168032001F0A1F80028F0
:1068A00004D004B0B0BD042004B0B0BDE389A28917
:1068B000607C014601F09AF80028F2D16269A36970
:1068C000217C607C012500950190029000252846DE
:1068D00001F092F80028E4D1206A01F093F8002832
:1068E000DFD1A18B606A01F093F80028D9D103CCE5
:1068F000627A01F0B1F80028D3D10348057001F0A5
:10690000BDF8284604B0B0BDBC0D002070B584B001
:10691000002808D004468168052001F061F80028AD
:1069200004D004B070BD042004B070BD638A228A14
:10693000A17D607D01F05AF80028F2D1A17DE068C8
:1069400001F0A2F80028ECD1A269E369217D607D05
:10695000A57D01260096019002950025284601F0AC
:106960004BF80028DDD1606A01F04CF80028D8D13E
:10697000218CA06A01F04CF80028D2D103CCA27B74
:1069800001F06AF80028CCD10348057001F082F8C4
:10699000284604B070BDC046BD0D00200248034922
:1069A0008164034941657047200D0020B95E0020D5
:1069B000095E002070B50546554E3068002801D0AC
:1069C000012070BD01F06CF82846FFF71BFE04465D
:1069D000002801D0204670BD0348306003CD01F08F
:1069E00065F8204670BDC04684270200F0B581B02E
:1069F0000446474F3868002801D001261EE001F008
:106A00004FF803CC637A00252A46083C01F054F87D
:106A100003C42068627A2946083C01F053F8A0605C
:106A20002046FFF7B1FE0646284601F051F8002E39
:106A300004D10448386003CC01F038F8304601B086
:106A4000F0BDC046D427020070B50546304E306810
:106A5000002801D0012070BD01F022F82846FFF780
:106A6000D3FE0446002801D0204670BD03483060A4
:106A700003CD01F01BF8204670BDC046E42702009C
:106A8000F0B581B00446224F3868002801D00126B5
:106A90001EE001F005F803CC637A00252A46083C85
:106AA00001F00AF803C42068627A2946083C01F024
:106AB00009F8A0602046FFF7E9FE0646284601F0E7
:106AC00007F8002E04D10448386003CC00F0EEFF34
:106AD000304601B0F0BDC046F427020070B505464F
:106AE0000B4E3068002801D0012070BD00F0D8FFA7
:106AF0002846FFF70BFF0446002801D0204670BD52
:106B00000448306003CD00F0D1FF204670BDC04680
:106B1000C00D002004280200B0B501230370D06826
:106B200004780020162C35D87123DB00CB18C04622
:106B30007C4424796400A744151A2D0B2D2D2D2D8E
:106B4000102D0B2D1F2D102D2D2D2D2D242D290019
:106B50000846194600F0C2FFB0BD08461946FFF7C7
:106B60007DFBB0BD0846194600F0BEFFB0BD08462B
:106B7000194600F0BFFFB0BD0846194600F0C0FF3F
:106B8000B0BD0846194600F0C1FFB0BD0846194621
:106B900000F0C2FFB0BD000080B582B00020014609
:106BA000024600F0BFFF00F0C3FF00F0C7FFFDF793
:106BB000A7FA012000030A4988800A48086000916A
:106BC000E120030308480221084AFDF7A3F908A0C1
:106BD00014A117A200F0E8FFFEF730FA02B080BD62
:106BE000CCB90020D8BF002080B00460000800604D
:106BF0005B257320542025735D626C65207065727F
:106C00006970686572616C2070726F6A6563742860
:106C100063702920737461727420746F20776F72AF
:106C20006B2E0A004A756E20323620323032340024
:106C300031383A35343A34300000000080B500F085
:106C400083FF00F087FF00F08BFF002800D080BD9D
:106C500000F08CFF054800F08FFF022000F0E6FCFA
:106C60000B2000F08FFF002080BDC04620F5010002
:106C7000084909680A4A1278824203D8002000298C
:106C800007D105E03522D20042438818002900D1FF
:106C900008467047E8920020014800787047C046D7
:106CA000C2A50020F0B581B0FFF7F6FF002827D07D
:106CB000044600250126E8B2FFF7DAFF00280FD0CE
:106CC00099300178002907D04078002804D00020AE
:106CD000374600280FD114E0304600280BD110E0D1
:106CE000912001011E202A46234600F06DFE002758
:106CF0003846002805D06D1CAC42DCD1002700E0EE
:106D000000270120384001B0F0BD0000F0B581B08F
:106D1000FFF7C2FF002828D0044600250126E8B26C
:106D2000FFF7A6FF00280DD08D30017B002905D08C
:106D3000417B002902D00078002811D0304600287D
:106D40000AD115E01E200C492A46234600F03CFEDD
:106D50000027384600280BD06D1CAC42DFD106E07E
:106D6000002037460028F7D102E0002700E0002786
:106D70000120384001B0F0BD26090000014800683C
:106D80007047C046EC92002080B5FFF7F7FF00285F
:106D900005D03321C900405C411E884180BD0020E0
:106DA00080BD80B5FFF7EAFF0146002000290AD028
:106DB0003322D2008A181278002A04D09131087840
:106DC000411E4842484180BD014800687047C046A6
:106DD000F092002080B5FFF7F7FF002805D047218B
:106DE0008900405C411E884180BD002080BD80B587
:106DF000FFF7EAFF0146002000290CD0472292004D
:106E00008A181278002A06D0A531097802220A438E
:106E1000032A00D1012080BD70477047704770473A
:106E2000172181747047704770477047FF21743194
:106E3000826B642353548374501819214170704736
:106E400070B50A460446FF2108462030A36B1E1881
:106E5000B92040001D18185C002807D0FF2A00D870
:106E6000D1B268781A2200F036F8687030780028BD
:106E700001D0012000E00220285CA07470BDB0B5F4
:106E80000446FF20A16B024620328A5C002A08D00B
:106E900074300D18287801211A2200F01CF828708F
:106EA000A074B0BDB0B50446FF20A16B02462032ED
:106EB0008A5C002A08D074300D18287832216422A8
:106EC00000F003F82870A074B0BD4018904200D8BC
:106ED0000246D0B270475318834200D2421AD0B251
:106EE00070470000F0B585B016460546EFF3058003
:106EF00002AA95701180D67000240394002800D156
:106F0000E443002E2DD0242E18D801932B48009056
:106F10000068002100F03CFE0390002809D12648BB
:106F2000009000680027394600F032FE03900028E8
:106F30003AD000980068049003980EE0802E27D87D
:106F400001931D4800680027394600F021FE039098
:106F5000002824D018490968049101993246FCF7A9
:106F6000E7FD144EF01C294600F004FA14480068AE
:106F700002A900273A46234600F010FE002805D05B
:106F8000321D81B2104600F0F5F910E001270EE045
:106F90000848801C314600F0EDF9002707E005485D
:106FA000401C00F0E1F902E0024800F0DDF938464B
:106FB00005B0F0BD04600000B8B90020BCB90020E5
:106FC000F47C002080B582B0019100900022EFF3A4
:106FD0000580002801D0134600E0D343084800682C
:106FE000694600F0DBFD002806D0014605A000F050
:106FF000DBFD002002B080BD012002B080BDC04694
:107000004CA60020626C655F7461736B5F73656E84
:10701000645F6D73675F746F5F6C6C635F746173E3
:107020006B206661696C65643A25750A0000000092
:1070300080B5282000F03EF90A2000F03BF90B2033
:1070400000F038F90C2000F035F90D2000F032F98D
:107050000E2000F02FF90F2000F02CF9102000F086
:1070600029F9352000F026F9112000F023F912202B
:1070700000F020F980BD00001C4615460E4607466C
:10708000FCF7AEFF07A000F0D9FF0BA0394632464F
:1070900000F08AFD10A02946224600F085FDFCF78D
:1070A00073FFFEE773797374656D206572726F729A
:1070B000206F6363757273007531364572724D6F60
:1070C00064756C653A2575207531364572724C6968
:1070D0006E653A25750A0000753332457272496E45
:1070E000666F313A257520753332457272496E6686
:1070F0006F323A25750A000080B50020172100F094
:10710000FDF8FCF7A7FEFCF7DDFEFCF7B5FE02205C
:107110000249034AFEF716F880BDC046A548002084
:1071200099480020B0B50C460546C160D0037D21CA
:10713000C900FCF7B7FC0019A860B0BD10B582B05B
:107140000446407D217D00290CD0EFF31081EFF340
:10715000108272B60022227562682260626A226220
:1071600081F3108800280AD0EFF31081EFF310822A
:1071700072B600226275E27DA27581F31088A17D4E
:1071800002291ED0002934D1EFF31080EFF31081D3
:1071900072B6E16A002901D0A26A8A6217490A68B8
:1071A000A24201D1A26A0A6015490A68A24201D12D
:1071B000E26A0A6080F310880020A062E06202B0F8
:1071C00010BD002803D02169019122680AE0207EC9
:1071D00001280CD100200190074801A900F046F8D1
:1071E000226801992046FFF79DFF02B010BD0120E3
:1071F000A07502B010BDC0460030056054BA002032
:1072000058BA002080B5FCF73FFE80BD03B40148AA
:10721000019001BD39C4010003B40148019001BDD2
:10722000610E020003B40148019001BD45A30100B5
:1072300003B40148019001BDADA0010003B40148B1
:10724000019001BD65BF010003B40148019001BD7B
:10725000BDBD010003B40148019001BD51F8020019
:1072600003B40148019001BD1DBF010003B40148F2
:10727000019001BD45BF010003B40148019001BD6B
:10728000CDBF010003B40148019001BD698D01002B
:1072900003B40148019001BD058F010003B401480A
:1072A000019001BDE971010003B40148019001BDE5
:1072B00079DC010003B40148019001BD5572010061
:1072C00003B40148019001BD858E010003B401485B
:1072D000019001BD89DB010003B40148019001BDAB
:1072E0000922010003B40148019001BDD12301002E
:1072F00003B40148019001BD79C0010003B4014805
:10730000019001BD89C2010003B40148019001BD93
:10731000BDBE010003B40148019001BD81BE010062
:1073200003B40148019001BDF9BD010003B4014857
:10733000019001BDD9C0010003B40148019001BD15
:107340000114010003B40148019001BD1D23010097
:1073500003B40148019001BD51EC030003B401489E
:10736000019001BDE105030003B40148019001BD96
:10737000E9F6020003B40148019001BDFDF60200E8
:1073800003B40148019001BDF912010003B40148A2
:10739000019001BDB9A0030003B40148019001BDF3
:1073A000A511010003B40148019001BD9D12010027
:1073B00003B40148019001BD6118020003B4014803
:1073C000019001BD2D20020003B40148019001BDD0
:1073D000FD23020003B40148019001BD698202004F
:1073E00003B40148019001BDB13C030003B401485E
:1073F000019001BDC5F7020003B40148019001BD31
:10740000C923030003B40148019001BD39F702000C
:1074100003B40148019001BDD9F7020003B401484B
:10742000019001BD25F7020003B40148019001BDA0
:1074300011F7020003B40148019001BD03F90200F5
:1074400003B40148019001BD61F7020003B4014893
:10745000019001BDD505030003B40148019001BDB1
:107460006D18030003B40148019001BDB95A03002F
:1074700003B40148019001BDDD59030003B4014884
:10748000019001BD8518030003B40148019001BDBE
:10749000AF28030003B40148019001BDFD050300BE
:1074A00003B40148019001BD0506030003B401487F
:1074B000019001BDF505030003B40148019001BD31
:1074C000ED05030003B40148019001BD89A6010048
:1074D00003B40148019001BDF11A020003B4014850
:1074E000019001BD7923020003B40148019001BD60
:1074F0007520020003B40148019001BD392002004B
:1075000003B40148019001BD4520020003B40148C5
:10751000019001BD8120020003B40148019001BD2A
:107520006920020003B40148019001BD512002000E
:1075300003B40148019001BD5D20020003B401487D
:10754000019001BD31E0020003B40148019001BD8A
:1075500019E0020003B40148019001BD25E00200DA
:1075600003B40148019001BDB9DF020003B4014832
:10757000019001BDD1DF020003B40148019001BDBB
:10758000F5DF020003B40148019001BDDDDF020018
:1075900003B40148019001BD01E0020003B40148B9
:1075A000019001BDE9DF020003B40148019001BD73
:1075B0000DE0020003B40148019001BD49E0020062
:1075C00003B40148019001BD3DE0020003B401484D
:1075D000019001BDADDF020003B40148019001BD7F
:1075E0005DE9030003B40148019001BD75E90300A2
:1075F00003B40148019001BD69E9030003B40148E7
:10760000019001BD51E9030003B40148019001BD9F
:1076100045E9030003B40148019001BD49E20300BC
:1076200003B40148019001BD55E2030003B40148D1
:10763000019001BD0559010003B40148019001BD4D
:107640007927030003B40148019001BDE52303003D
:1076500003B40148019001BD8D23030003B4014828
:10766000019001BD5D28030003B40148019001BDF4
:107670009F28030003B40148019001BDEB280300DB
:1076800003B40148019001BDF57E010003B4014837
:10769000019001BD3594020003B40148019001BD81
:1076A00025AA020003B40148019001BD49A00200CF
:1076B00003B40148019001BDCD39020003B4014873
:1076C000019001BD7DDC020003B40148019001BDC1
