:020000041000EA
:100000004B2A110200000000A4030000EEC3A6E981
:100010007EEEE78880B500F087F90020002100F02F
:100020000DF8292000F00FF8202000F011F800F062
:1000300033F900F013F800F025F980BD4CF2B93C1B
:10004000C0F2000C604747F67D1CC0F2000C604710
:1000500047F6D12CC0F2000C6047000080B54FF08D
:10006000A040012100F075F900060BD1032000F03B
:1000700075F9000606D1012000F075F9000604BFED
:10008000002080BD00F074F94FF47A7000F075F92B
:10009000012080BD2DE9F04381B019B343F2B83897
:1000A0000F4606464FF0FF344FF00009C2F2000839
:1000B0003D46B7F5807F28BF4FF480754FF0A040D4
:1000C000314642462B46CDF8009000F05BF960B90E
:1000D00040462946224600F05AF904467F1B2E442A
:1000E000E6D103E04FF0FF3400E00124204601B0E8
:1000F000BDE8F08310B582B004464FF0000C4FF01D
:10010000A0404FF4805122462023CDF800C000F0DB
:1001100039F9000622D120461C214FF0FF3200F0B1
:1001200036F9E169814219D1E078112816D1A07819
:10013000022813D1E168B1F5002F0FD8606846F2AC
:100140007872C4F26A72904208D1A068FFF7A2FFE9
:100150002169401A18BF012002B010BD012002B071
:1001600010BD00002DE9F0410C4605460E184FF079
:100170000008B4F5803F07D3A8B228B94FF4803700
:100180000321102021E000BFB4F5004F08D328461A
:100190006FF3DF3020B94FF4004702210F2014E045
:1001A00029466FF31F31200BB1FA81F1B8EB143FF0
:1001B00018BF0120490901404FF008004FF4807733
:1001C00018BF0C2018BF4FF4805725FA00F082B2F8
:1001D0004FF0A04047F2305300F0DEF800060BD19C
:1001E0003D44B542A4EB070424BF0020BDE8F081E4
:1001F000B4F5803FC0D2C7E700F0BAF84FF47A7088
:1002000000F0BBF80120BDE8F08100002DE9F047C7
:1002100082B04FF000098AB343F2B83814460E4654
:100220000746C2F2000840F6B83A00BF2546B4F5CA
:10023000807F28BF4FF480754FF0A040394642467A
:100240002B46CDF8009000F09DF890B94FF0A040FB
:10025000314642462B46CDF80090CDF804A000F080
:10026000A0F848B92F44641B2E44DFD14FF0000999
:1002700004E04FF0010901E04FF00109484602B0E7
:10028000BDE8F08780B542F20400C1F200000068CA
:1002900000F08CF880BD0000B0B588B06846FFF76C
:1002A00029FF08B101243CE0DDE90501FFF75AFF11
:1002B00038B100F05DF84FF47A7000F05EF8012478
:1002C0002FE0DDE902020599FFF7A0FF38B100F049
:1002D0004FF84FF47A7000F050F8012421E00399B0
:1002E0000598FFF7D7FE0499884213D14FF0A0403C
:1002F0000021102247F23053002400F04DF805464B
:1003000000F036F828060CD04FF47A7000F035F87B
:10031000012406E000F02CF84FF47A7000F02DF87C
:100320000124204608B0B0BDEC20C6F205000168EB
:100330007F2221F002010160016821F004010160C7
:100340006FF0030143180431342943F8D82CF9D154
:10035000704748F6F57CC0F2000C604747F2613CFC
:10036000C0F2000C604747F21D3CC0F2000C604731
:1003700047F6717CC0F2000C604744F2717CC0F219
:10038000000C604748F69D2CC0F2000C604744F218
:10039000C17CC0F2000C604748F6A10CC0F2000C12
:1003A000604749F2D90CC0F2000C604744F62D0CAE
:1003B000C0F2000C604700000000000000000000D8
:1003C000000000000000000000000000000000002D
:1003D000000000000000000000000000000000001D
:1003E000000000000000000000000000000000000D
:1003F00000000000000000000000000000000000FD
:020000041000EA
:102000000000012055210010692100107B210010E3
:102010008D2100108F210010912100100000000080
:10202000000000000000000000000000D1020000DD
:1020300095210010000000007503000081030000DE
:102040009B2100109D2100109F210010A121001054
:10205000A3210010A5210010A7210010A921001024
:10206000AB210010AD210010AF210010B1210010F4
:10207000B3210010B5210010A13C0020A93C002094
:10208000B13C0020BD210010BF210010C121001073
:10209000C3210010C5210010C7210010C921001064
:1020A000CB210010CD210010CF210010D121001034
:1020B000D3210010D5210010D7210010D921001004
:1020C000DB210010DD210010DF210010E1210010D4
:1020D0001D370020E5210010E7210010E921001044
:1020E000EB210010ED210010EF210010F121001074
:1020F000F3210010F5210010F7210010F921001044
:10210000FB210010FD210010FF2100100122001012
:1021100003220010052200100722001009220010DF
:102120000B2200100D2200100F22001000000000F2
:10213000000000000000000000000000000000009F
:10214000DFF80CD000F070F800480047F55100208F
:10215000000001202E4880F308882E4880F30A886A
:102160002D4880472D4800475FEA0E00EFF30881B5
:10217000EFF309822A4B9847FEE75FEA0E00EFF380
:102180000881EFF30982274B9847FEE7FEE7FEE759
:10219000FEE7FEE7FEE7FEE7FEE7FEE7FEE7FEE717
:1021A000FEE7FEE7FEE7FEE7FEE7FEE7FEE7FEE707
:1021B000FEE7FEE7FEE7FEE7FEE7FEE7FEE7FEE7F7
:1021C000FEE7FEE7FEE7FEE7FEE7FEE7FEE7FEE7E7
:1021D000FEE7FEE7FEE7FEE7FEE7FEE7FEE7FEE7D7
:1021E000FEE7FEE7FEE7FEE7FEE7FEE7FEE7FEE7C7
:1021F000FEE7FEE7FEE7FEE7FEE7FEE7FEE7FEE7B7
:10220000FEE7FEE7FEE7FEE7FEE7FEE7FEE7FEE7A6
:102210000000012000F00020592200104121001090
:10222000B93C0020313800201CB50948009009480D
:1022300001900546009C06E0E06840F0010394E848
:10224000070098471034AC42F6D3FFF77DFF00003B
:10225000F42200102423001082B00020019000908E
:1022600042F20001C1F2000100910190FFE70198E4
:102270004A2810D8FFE70098019950F82100019AE8
:1022800043F20001C2F2000141F82200FFE7019889
:1022900001300190EBE743F20000C2F200004EF67D
:1022A0000851CEF2000108604EF68851CEF20001CE
:1022B000086840F4700008604EF61451CEF2000138
:1022C000086840F010000860086840F480700860FA
:1022D00002B0704702E008C8121F08C1002AFAD1F4
:1022E00070477047002001E001C1121F002AFBD196
:1022F0007047000024230010003200208C390000B9
:10230000D4220010B05C001000B0002004000000D7
:10231000D4220010B45C001004B00020CC000000F7
:10232000E42200102DE9F05F0546002092469B460E
:1023300088460646814640241BE0284641464746DB
:10234000224600F045F853465A46C01A914110D330
:1023500011461846224600F02CF82D1A67EB0108AA
:102360004F4622460120002100F023F817EB000918
:102370004E41201EA4F10104DFDC484631462A46C6
:102380004346BDE8F09F30B50B46014600202022B1
:10239000012409E021FA02F59D4205D303FA02F572
:1023A000491B04FA02F52844151EA2F10102F1DCD2
:1023B00030BD202A04DB203A00FA02F100207047E9
:1023C0009140C2F1200320FA03F319439040704773
:1023D000202A04DB203A21FA02F00021704721FA7A
:1023E00002F3D040C2F120029140084319467047E1
:1023F0002DE9FE4F804681EA0300C00F0C46009095
:1024000021F0004123F00045B8EB0200A94105D2BC
:102410004046214690461C460B46024623F00040AB
:10242000104347D0270DC7F30A00C3F30A510290A7
:10243000401A019040286BDAC3F3130040F4801B6C
:102440000098924620B10023D2EB030A63EB0B0BFA
:1024500001985946C0F140025046FFF7AAFF0646D0
:102460000D4650465946019A00F07AF910EB0800E3
:102470006141002487EA115284EAE7731A4340D08D
:10248000009A62B3019A012A4FEA075215DC001B39
:1024900061EB02014FF0004202EA0752CDE900422F
:1024A000001C41F5801132462B4600F07AF903B04A
:1024B000BDE8F08F40462146F9E7001B61EB0201C1
:1024C000001C41F5801300185B412018A2F500178D
:1024D00047EB030140EAD570B6196D4111E06D0874
:1024E0004FEA360645EAC0754FEA0752001B61EB1A
:1024F0000201001C41F5801149084FEA3000001923
:10250000514132462B4603B0BDE8F04F00F03AB9D6
:102510000098012240000023D0EB020263EBE0733D
:10252000009821464FEAE074B8EB000061EB04012B
:10253000E9E783F000435BE781F0004158E72DE9CC
:10254000FE4F81EA030404F0004421F000410094AE
:102550004FF0000B23F0004350EA01045ED052EA32
:1025600003045BD0C3F30A54C1F30A552C44A4F20C
:10257000F3340194A0FB0254C1F3130141F4801120
:10258000C3F3130343F4801301FB024400FB034E27
:10259000840A970A44EA815447EA8357A4FB0768F0
:1025A00002958D0A05FB07854FEA932C04FB0C541A
:1025B0002705029D4FEA065847EA1637B5EB08058E
:1025C0006EEB070C870E920E47EA811742EA8312E0
:1025D000A7FB0201B6EB0B0164EB00042B0D43EAF1
:1025E0000C335E1844EB1C50DA465146E7FB0201FF
:1025F000C5F313044FEA0B3343EA14534FEA043292
:10260000019C43EA0603A4F10C040294009CCDE96A
:1026100000B400F0C6F803B0BDE8F08F002001461A
:10262000F9E72DE9F04D81EA030404F0004B21F0B5
:10263000004514464FF0000A23F0004150EA05021D
:1026400020D054EA01021DD0C5F30A570246C5F353
:102650001303C1F31300C1F30A5640F4801543F489
:102660008013A7EB0608101BD64608F2FD3873EB63
:10267000050002D308F1010801E092185B41B8F1AE
:10268000000F03DA00200146BDE8F08D00204FF472
:102690008011064684460EE0171B73EB050705D331
:1026A000121B63EB050306434CEA010C49084FEA91
:1026B000300092185B4150EA0107EDD152EA030065
:1026C00012D082EA040083EA0501084305D0101BFA
:1026D000AB4106D20122002306E000224FF0004366
:1026E00002E06FF0010253101AEB06004CEB0851A8
:1026F00010EB0A0041EB0B01BDE8F04D00F042B8D1
:10270000C1F30A52C1F3130140F2FF3341F48011C7
:102710009A4202DA00200146704740F233439A425F
:10272000A2F2334202DC5242FFF752BEFFF741BE33
:1027300030B5041E71F1000404DB4FF00044404248
:1027400064EB0101141E73F1000405DB1C464FF01D
:102750000043524263EB0403994208BF904230BDEC
:10276000202A06DBCB17203A41FA02F043EAE07355
:1027700006E041FA02F3D040C2F120029140084342
:102780001946704710B5141E73F1000408DA401C96
:1027900041F1000192185B411A4301D120F0010080
:1027A00010BD2DE9F04D92469B4611B1B1FA81F270
:1027B00002E0B0FA80F220329046FFF7FAFD0446BC
:1027C0000F4640EA0A0041EA0B0153465A460843C5
:1027D00013D0114653EA010019D0C8F14002504607
:1027E000FFF7F6FD05460E46504659464246FFF7AE
:1027F000E0FD084305D0012004E020463946BDE84D
:10280000F08D0020054346EAE0762C4337430A98D2
:102810006305E40AA0EB08000022FD0A44EA4754DD
:102820000A3002D500200146E9E701051019694187
:10283000DDE9084500196941BDE8F04DA2E7000057
:1028400080B586B048F28010C5F2000003900DF10B
:10285000170101F0DCFF03989DF8171001F0DCFF71
:102860009DF817008007002841D5FFE748F2801047
:10287000C5F20000029005A901F0D3FF029801F013
:10288000D5FF46F6AC10C2F2000002F089F8002035
:102890000490FFE70498BDF81410884211DAFFE7AE
:1028A00004994BF27400C2F20000415C46F6BE107F
:1028B000C2F2000002F074F8FFE7049801300490BF
:1028C000E8E746F65A00C2F2000002F069F84BF25F
:1028D0007402C2F2000243F20000C6F2000048F2A5
:1028E0008011C5F20001202301F004FBFFE7002066
:1028F0008DF8170048F2C010C5F2000001900DF1EC
:10290000170101F084FF01989DF8171001F084FF72
:102910009DF81700800700281AD5FFE748F2C0107D
:10292000C5F20000009001F081FF46F6B510C2F23A
:10293000000002F035F800994BF29402C2F2000256
:1029400043F20000C6F20000202301F04DFBFFE738
:1029500006B080BD80B586B004900391029200F06D
:10296000FBFAEFF308800590059946F2D270C2F2A7
:10297000000002F015F8002001909DF810000007FB
:10298000002807D5FFE746F2AC60C2F2000002F073
:1029900007F806E046F2DC60C2F2000002F000F840
:1029A000FFE79DF810004007002809D5FFE746F231
:1029B000CD60C2F2000001F0F3FF0298019008E040
:1029C00046F2BE60C2F2000001F0EAFF03980190F7
:1029D000FFE746F2F360C2F2000001F0E1FF019868
:1029E000016846F24170C2F2000001F0D9FF01987F
:1029F000416846F24F70C2F2000001F0D1FF019829
:102A0000816846F25D70C2F2000001F0C9FF0198D2
:102A1000C16846F26B70C2F2000001F0C1FF01987C
:102A2000016946F29570C2F2000001F0B9FF019809
:102A3000416946F28770C2F2000001F0B1FF0198CF
:102A4000816946F27970C2F2000001F0A9FF019895
:102A5000C16946F2A370C2F2000001F0A1FF019823
:102A6000806900904EF62C50CEF20000006880077E
:102A7000002807D5FFE746F25150C2F2000001F0EE
:102A80008FFFFFE74EF62C50CEF200000068C00F1B
:102A900038B1FFE746F26C50C2F2000001F080FF4F
:102AA000FFE74EF62C50CEF20000006840000028F0
:102AB00040F18481FFE746F23C50C2F2000001F091
:102AC0006FFF4EF62850CEF2000000680006002886
:102AD0006DD0FFE746F21C50C2F2000001F060FF2B
:102AE0004EF62850CEF200000068C00740B1FFE764
:102AF000009946F22A60C2F2000001F051FFFFE7A0
:102B00004EF62850CEF200000068800700281DD540
:102B1000FFE7009946F2B750C2F2000001F040FF13
:102B20004EF62850CEF200000068000600280CD5B2
:102B3000FFE74EF63450CEF20000016846F29F6087
:102B4000C2F2000001F02CFFFFE7FFE74EF628502D
:102B5000CEF2000000680007002807D5FFE746F224
:102B6000DA30C2F2000001F01BFFFFE74EF62850FA
:102B7000CEF200000068C006002807D5FFE746F245
:102B80003040C2F2000001F00BFFFFE74EF6285084
:102B9000CEF2000000688006002807D5FFE746F265
:102BA0003930C2F2000001F0FBFEFFE7FFE74EF60E
:102BB0002850CEF20000006810F47F4F7DD0FFE770
:102BC00046F26050C2F2000001F0EAFE4EF62850D4
:102BD000CEF200000068C005002807D5FFE746F2E6
:102BE0005F20C2F2000001F0DBFEFFE74EF6285046
:102BF000CEF200000068800500281DD5FFE700998F
:102C000046F28050C2F2000001F0CAFE4EF6285093
:102C1000CEF200000068000400280CD5FFE74EF655
:102C20003850CEF20000016846F29F60C2F2000008
:102C300001F0B6FEFFE7FFE74EF62850CEF20000A7
:102C400000684005002807D5FFE746F2F310C2F2FE
:102C5000000001F0A5FEFFE74EF62850CEF200007E
:102C600000680005002807D5FFE746F28440C2F25D
:102C7000000001F095FEFFE74EF62850CEF200006E
:102C80000068C004002807D5FFE746F2D140C2F231
:102C9000000001F085FEFFE74EF62850CEF200005E
:102CA00000688004002807D5FFE746F28D30C2F2A5
:102CB000000001F075FEFFE7FFE74EF62850CEF268
:102CC00000000068000C002877D0FFE746F22E5085
:102CD000C2F2000001F064FE4EF62850CEF2000071
:102CE0000068C003002807D5FFE746F27D10C2F256
:102CF000000001F055FEFFE74EF62850CEF200002E
:102D000000688003002807D5FFE746F2FB20C2F2E7
:102D1000000001F045FEFFE74EF62850CEF200001D
:102D200000684003002807D5FFE746F24E10C2F2C4
:102D3000000001F035FEFFE74EF62850CEF200000D
:102D400000680003002807D5FFE746F28D20C2F295
:102D5000000001F025FEFFE74EF62850CEF20000FD
:102D60000068C002002807D5FFE746F2CE20C2F275
:102D7000000001F015FEFFE74EF62850CEF20000ED
:102D80000068C001002807D5FFE746F22B20C2F2F9
:102D9000000001F005FEFFE74EF62850CEF20000DD
:102DA00000688001002807D5FFE746F2B710C2F29D
:102DB000000001F0F5FDFFE7FFE7FFE700F08AF80C
:102DC000FFE7FEE780B500F089FA80BD80B500F02E
:102DD00085FA80BD80B500F081FA80BD80B584B0F1
:102DE00003900291019200F0B7F80399029A019BB7
:102DF00046F20F70C2F2000001F0D2FD00F06AF856
:102E0000FFE7FEE780B586B0DDF820C004900391AF
:102E1000029201930298B0F1C04F10D0FFE70298E0
:102E200040F20041C6F20001884208D0FFE7029854
:102E300040F60001C6F20001884210D1FFE7049875
:102E40004BF20001C6F2040188420CD0FFE704985F
:102E50004BF28001C6F20401884204D0FFE7102043
:102E60008DF8170031E008994BF2B800C2F200006B
:102E70000160006860B1FFE74BF2C601C2F20001D9
:102E8000002008804BF2C401C2F200010880FFE775
:102E900002984BF2C001C2F20001086004984BF2A4
:102EA000BC01C2F20001086003984BF2C801C2F2F3
:102EB0000001086001984BF2CC01C2F200010860E9
:102EC00000F04AF88DF81700FFE79DF8170006B0EC
:102ED00080BD000080B582B04BF2B800C2F20000A5
:102EE000006808B9FFE735E0FFE74BF2C600C2F221
:102EF000000000884BF2C401C2F200010988884238
:102F000028D0FFE74BF2C000C2F2000000684BF28D
:102F1000B801C2F200010091096809684BF2C602CB
:102F2000C2F2000201921288895C01F084FC0099CF
:102F300001980288013202800088096889888842E5
:102F400007DBFFE74BF2C601C2F200010020088058
:102F5000FFE7CAE702B080BD80B584B04BF2C00085
:102F6000C2F200000068B0F1C04F13D1FFE72B2080
:102F700001F066FC4BF2BC00C2F2000000684BF2AC
:102F8000C801C2F200010968042201F05EFC8DF85C
:102F90000E0032E04BF2C000C2F20000006840F2C6
:102FA0000041C6F20001884213D1FFE72C2001F056
:102FB00047FC4BF2BC00C2F2000000684BF2C801B3
:102FC000C2F200010968082201F03FFC8DF80E00F2
:102FD00012E02D2001F034FC4BF2BC00C2F20000E4
:102FE00000684BF2C801C2F2000109680C2201F02E
:102FF0002CFC8DF80E00FFE7FFE7FFE79DF80E00C1
:1030000028B1FFE79DF80E008DF80F0030E0FFE7D4
:103010004BF2BC00C2F2000000684BF2C801C2F2E1
:1030200000010968022201F015FC8DF80E00FFE78F
:103030009DF80E0028B1FFE79DF80E008DF80F00F7
:1030400016E0FFE74BF2CC00C2F2000000680190EE
:1030500043F22100C0F2011002904BF2C000C2F214
:103060000000006801A901F0FAFB8DF80F00FFE7EE
:103070009DF80F0004B080BD80B582B001F0F4FB74
:103080000090009844F24021C0F20F0188420ED314
:10309000FFE7009846F23911C6F6C20100FB01F0C5
:1030A0004FEAB01041F2C701884204D3FFE74FF066
:1030B000FF30019036E000984DF68361C4F21B3179
:1030C000A0FB0110800C4BF20401C2F20001086069
:1030D0004BF20C01C2F20001002008604BF2080123
:1030E000C2F2000108604EF21003CEF20003186035
:1030F0004EF21402CEF200026FF07F4111604EF2E8
:103100001801CEF20001086005221A60BFF34F8F4C
:10311000BFF36F8F09684BF21002C2F20002116018
:103120000190FFE7019802B080BD000080B584B037
:1031300002900191019818B9FFE7002003900FE079
:10314000DDF808C0019A5008002349F2806EC0F2F1
:10315000980E1946ECFB0E01FFF7E4F80390FFE729
:10316000039804B080BD000082B04EF21800CEF289
:103170000000006801904BF21001C2F200010868E3
:10318000019A801A20F07F404BF20C02C2F200023A
:103190001368184400900198086000984BF20401ED
:1031A000C2F200010B68B0FBF3FC4BF20800C2F264
:1031B0000000036863440360DDF800C00B68BCFBDB
:1031C000F3F101FB13C11160006802B07047000009
:1031D00080B584B0039002914BF2B800C2F20000B7
:1031E000006870B9FFE703988DF807004BF2C00044
:1031F000C2F2000000680DF10701012201F039FB65
:103200001FE0039A4BF2B801C2F20001086803689C
:103210004BF2C400C2F20000B0F800C003F80C206A
:10322000028801320280008809688988884207DBA9
:10323000FFE74BF2C401C2F2000100200880FFE763
:10324000FFE7039804B080BD80B500F0ADF880BD05
:1032500080B588B01C208DF81D001A208DF81F0045
:103260001B208DF81E009DF81D0001F0E9FA9DF865
:103270001F204BF28000C6F2040006904FF400714C
:10328000019101F0E2FA06989DF81E20802102913A
:1032900001F0DBFA019906980022039201F0DAFAB4
:1032A0000299039A069801F0D5FA039A06984FF40A
:1032B0008061049101F0C9FA0499069801220592EF
:1032C00001F0DCFA0499059A069801F0DCFA0499F9
:1032D000059A069801F0DCFA08B080BD80B584B08C
:1032E0000020ADF80C0043F20000C6F200000DF122
:1032F0000E0101F0D2FABDF80E000006002849D5F3
:10330000FFE7FFE743F23400C6F200000168002047
:10331000019041B1FFE7BDF80C1000202029B8BF93
:1033200001200190FFE70198C00780B1FFE743F259
:103330000400C6F200000068BDF80C20511CADF876
:103340000C104BF27401C2F200018854DAE7BDF8A8
:103350000C00F0B1FFE700200290FFE70298BDF8F3
:103360000C10884211DAFFE702994BF27400C2F2A6
:103370000000415C46F6BE10C2F2000001F010FBF6
:10338000FFE7029801300290E8E70020ADF80C005A
:10339000FFE7FFE7BDF80E1043F20000C6F20000A1
:1033A00001F080FA04B080BD70B596B000F074FAF8
:1033B000322001F07CFA00F085F98DF857009DF875
:1033C000570048B1FFE79DF8571046F68F10C2F23C
:1033D000000001F0E5FA72E100F0A8FE00F042FF03
:1033E00008B9FFE76BE146F6E100C2F2000046F6DD
:1033F000CD11C2F2000146F6C412C2F2000201F081
:10340000CFFA46F61D10C2F2000001F0C9FAFFF72C
:1034100033FE38B1FFE746F6A300C2F2000001F028
:10342000BFFA4CE10020079011901090FFF79CFE2E
:10343000014607980F910E900D90FFE7FFF794FE5D
:103440000C900C980F99401A0B900B9844F2402165
:10345000C0F20F0188421ED3FFE70E980B99FFF7C9
:1034600065FE0A900A984CF6CD41CCF6CC41A0FB03
:103470000121C90801EB8102A0EB42020D9B46F637
:103480000110C2F2000001F08BFA0C980F9000209E
:103490000E900D90FFE700F01FFE09900998B0F123
:1034A000FF3F17DCFFE743F20000C6F2000001F027
:1034B00057F80D9801300D90012807D1FFE746F627
:1034C0008500C2F2000001F06BFAFFE7052001F071
:1034D000EEF9B3E70998B8B9FFE70C981099401ACC
:1034E00044F24021C0F20F01884209D3FFE746F6BB
:1034F0005C00C2F2000001F053FA0C981090FFE754
:10350000322001F0D9F999E7FFF72EFE0C900C98C4
:1035100010901198411C119108904BF23402C2F2A4
:1035200000022220107069460020086043F200006B
:10353000C6F2000048F2C011C5F20001012300F0FC
:1035400099FB8DF856009DF85600C8B1FFE70D981D
:1035500001300D90012809D1FFE79DF8561046F67D
:103560006210C2F2000001F01BFAFFE743F2000014
:10357000C6F2000000F0F4FF052001F098F95DE7C5
:10358000322001F099F96946002008604BF21402DC
:10359000C2F2000243F20000C6F2000048F28011BD
:1035A000C5F200010C2300F0B5F98DF856009DF826
:1035B0005600C8B1FFE70D9801300D90012809D1E0
:1035C000FFE79DF8561046F64C10C2F2000001F0DD
:1035D000E7F9FFE743F20000C6F2000000F0C0FF89
:1035E000052001F064F929E743F20000C6F200006B
:1035F00000F0B6FF8DF857009DF8570098B1FFE72F
:103600000D9801300D90012809D1FFE79DF8571062
:1036100046F67910C2F2000001F0C2F9FFE705207A
:1036200001F045F90AE74BF21401C2F200010691DC
:1036300008784A7840EA0220ADF854008878CA78C1
:1036400040EA0220ADF8520008794A7940EA0220A7
:10365000ADF850008879CA7940EA0220ADF84E00F2
:10366000087A4A7A40EA0220ADF84C00887AC97A92
:1036700040EA0120ADF84A0008990C9ABDF94E3095
:10368000BDF94C00BDF94AE0BDF95440BDF95250B6
:10369000BDF95060EC46CCF81060CCF80C50CCF87A
:1036A0000840CCF804E0CCF8000046F6C000C2F2B6
:1036B000000001F075F90E9801300E90BEE616B0CC
:1036C00070BD000080B586B007208DF8150006207B
:1036D0008DF81400172001F0B3F88DF81600FFE7FD
:1036E0009DF8160028B1FFE79DF816008DF8170029
:1036F000CEE0FFE79DF815008DF81000C82002907D
:1037000043F20400C6F2000000904BF21400C2F233
:10371000000001902020ADF80C00BDF80E0020F054
:103720000100ADF80E00BDF80E0020F00200ADF86B
:103730000E00BDF80E0040F0080020F00400ADF8C7
:103740000E00BDF80E0020F03000ADF80E00BDF800
:103750000E0040F04000ADF80E00BDF80E0020F461
:10376000C070ADF80E00BDF80E0020F40070ADF88A
:103770000E00BDF80E0020F48060ADF80E00BDF81C
:103780000E0020F40060ADF80E00BDF80E0020F42D
:103790008050ADF80E0048F28010C5F20000694676
:1037A00001F08FF88DF81600FFE79DF8160028B19C
:1037B000FFE79DF816008DF8170069E0FFE79DF818
:1037C00014008DF81000C82002904BF23400C2F2B1
:1037D0000000009043F20000C6F20000019020209B
:1037E000ADF80C00BDF80E0020F00100ADF80E00A1
:1037F000BDF80E0020F00200ADF80E00BDF80E007E
:1038000040F0040020F00800ADF80E00BDF80E00F6
:1038100020F03000ADF80E00BDF80E0020F04000A2
:10382000ADF80E00BDF80E0020F4C070ADF80E002B
:10383000BDF80E0040F40070ADF80E00BDF80E00AB
:1038400020F48060ADF80E00BDF80E0020F400609A
:10385000ADF80E00BDF80E0020F48050ADF80E005B
:1038600048F2C010C5F20000694601F02AF88DF850
:103870001600FFE79DF8160028B1FFE79DF8160037
:103880008DF8170004E0FFE700208DF81700FFE730
:103890009DF8170006B080BD80B584B0FFF7D8FC56
:1038A000642001906A20ADF808009DF80E0000F039
:1038B000FD008DF80E009DF80E0040F001008DF81F
:1038C0000E009DF80E0000F0F30008308DF80E0099
:1038D0009DF80E0040F010008DF80E0043F200003D
:1038E000C6F2000001A900F0F1FF00200090FFE700
:1038F00000981F280BDCFFE700984BF23401C2F25E
:1039000000010854FFE7009801300090F0E704B090
:1039100080BD000080B58EB084461098CDF830C0D0
:103920000B910A92ADF826308DF825000C9843F2E1
:103930000001C6F20001884218D0FFE70C9843F25C
:103940000041C6F20001884210D0FFE70C9843F610
:103950000001C6F20001884208D0FFE70C9843F648
:103960000041C6F2000188420AD1FFE70B9838B146
:10397000FFE7BDF8260018B1FFE70A9820B9FFE776
:1039800001208DF8370070E10C980121059100F0BD
:10399000A2FF0C98022100F0A3FF0C9800F0A5FFF5
:1039A00005980C9A202191640C9A4FF6FF711161D1
:1039B0000C9948640C9908640020ADF82000BDF80B
:1039C0002600112803DBFFE71020049003E0BDF878
:1039D00026000490FFE704988DF823000C989DF8CA
:1039E000231000F087FF0C980121039100F087FF5E
:1039F00003980C99886400200790FFE70C98C06B2F
:103A000000F01F0100200929029012D0FFE70C9856
:103A1000C06B00F01F0100200A29029009D0FFE7C7
:103A20000C98C06B00F01F000F3818BF01200290E7
:103A3000FFE70298C007D0B1FFE70C98C06B00F019
:103A40001F000D2804D1FFE702208DF837000CE19C
:103A5000079801300790B0F5FA6F04D3FFE7042010
:103A60008DF8370001E1012000F026FFC6E7FFE7EF
:103A7000BDF82000BDF82610884280F2B280FFE732
:103A800000200790FFE70C98C06B00F01F000F2884
:103A900015D0FFE7079801300790B0F5FA6F0AD309
:103AA000FFE70C99082088640C99022088640420A0
:103AB0008DF83700D9E0012000F0FEFEE3E7BDF805
:103AC0002600BDF82010401A9DF8231088421CDD06
:103AD000FFE7BDF82600BDF82010401A9DF823101E
:103AE000401A112803DBFFE71020019009E0BDF820
:103AF0002600BDF82010401A9DF82310401A0190AE
:103B0000FFE701988DF8220003E000208DF82200E5
:103B1000FFE70C989DF8221000F0ECFE0C980430A2
:103B20000B9948610A98BDF8201008440B998861E8
:103B30000B98C0680690BDF81A00000406909DF826
:103B4000231006980843069006980B99C8600B98B6
:103B50003F2100F061FE0B98022100F0D5FE0B988A
:103B600000F0D7FE00200790FFE700208DF824002A
:103B70000B9809A900F04BFE9DF82400800700284F
:103B800001D5FFE717E0079801300790B0F5FA6F0D
:103B90000DD3FFE70B9800F049FE0C9908208864CC
:103BA0000C990220886404208DF837005DE0012024
:103BB00000F082FED9E70B983F2100F02DFE0B9814
:103BC00000F034FE9DF82310BDF820000844ADF845
:103BD00020009DF822008DF82300052000F06CFEE7
:103BE00046E70C990820886400200790FFE70C98AE
:103BF000C06B00F01F000D280FD0FFE707980130C1
:103C00000790B0F5FA6F04D3FFE704208DF8370072
:103C10002BE0012000F050FEE9E79DF82500D8B127
:103C2000FFE70C990220886400200790FFE70C98BA
:103C3000C06BC00678B1FFE7079801300790B0F578
:103C4000FA6F04D3FFE704208DF837000DE0012060
:103C500000F032FEEBE7FFE70C984FF6FF7100F043
:103C600021FE00208DF83700FFE79DF837000EB0E9
:103C700080BD000080B58AB084460C98CDF820C085
:103C800007910692ADF816308DF81500089843F2AA
:103C90000001C6F20001884218D0FFE7089843F2FD
:103CA0000041C6F20001884210D0FFE7089843F6B1
:103CB0000001C6F20001884208D0FFE7089843F6E9
:103CC0000041C6F2000188420AD1FFE7079838B1E7
:103CD000FFE7BDF8160018B1FFE7069820B9FFE727
:103CE00001208DF8270001E108980121029100F0E0
:103CF000F2FD0299089800F0F3FD089800F0F5FD38
:103D00000298089A20219164089A4FF6FF71116178
:103D100008994864089908640698079948610898C2
:103D2000079988610798C0680390BDF80E000004E9
:103D30000390BDF816100398084303900398079961
:103D4000C86007983F2100F067FD0798022100F046
:103D5000DBFD079800F0DDFD0298089988640020DB
:103D60000490FFE70898C06B00F01F0100200729AE
:103D7000019012D0FFE70898C06B00F01F010020EF
:103D80000E29019009D0FFE70898C06B00F01F00D2
:103D9000083818BF01200190FFE70198C00700B361
:103DA000FFE70898C06B00F01F000D2807D1FFE760
:103DB000079800F03BFD02208DF8270096E004985C
:103DC00001300490B0F5FA6F07D3FFE7079800F0D1
:103DD0002DFD04208DF8270088E0012000F06CFD07
:103DE000C0E700200490FFE700208DF8140007983A
:103DF00005A900F00CFD9DF814008007002801D5EE
:103E0000FFE711E0049801300490B0F5FA6F07D392
:103E1000FFE7079800F00AFD04208DF8270065E011
:103E2000012000F049FDDFE707983F2100F0F4FC96
:103E3000079800F0FBFC00200490FFE70898C06B97
:103E400000F01F0100200E29009009D0FFE708981C
:103E5000C06B00F01F000D3818BF01200090FFE775
:103E60000098C00778B1FFE7049801300490B0F5DE
:103E7000FA6F04D3FFE704208DF8270036E0012015
:103E800000F01AFDDAE70898C06B00F01F000D285B
:103E900004D1FFE703208DF8270027E09DF81500E7
:103EA000D8B1FFE708990220886400200490FFE75A
:103EB0000898C06BC00678B1FFE704980130049001
:103EC000B0F5FA6F04D3FFE704208DF827000DE06A
:103ED000012000F0F1FCEBE7FFE708984FF6FF71D7
:103EE00000F0E0FC00208DF82700FFE79DF8270098
:103EF0000AB080BD80B588B0069005910492ADF8F7
:103F00000E30069850B1FFE7059838B1FFE70498E6
:103F100020B1FFE7BDF80E0020B9FFE710208DF8B3
:103F20001F005CE0069804300599486104980599E3
:103F300088610598C0680290BDF80A0000040290EC
:103F4000BDF80E1002980843029002980599C860C7
:103F50000698012100F0D3FC8DF80700FFE79DF8DB
:103F6000070028B1FFE79DF807008DF81F0036E035
:103F7000FFE705983F2100F04FFC8DF80700FFE7B1
:103F80009DF8070028B1FFE79DF807008DF81F0096
:103F900025E0FFE70598022100F0B6FC8DF8070048
:103FA000FFE79DF8070028B1FFE79DF807008DF8AF
:103FB0001F0014E0FFE7059800F0ABFC8DF8070048
:103FC000FFE79DF8070028B1FFE79DF807008DF88F
:103FD0001F0004E0FFE700208DF81F00FFE79DF8B9
:103FE0001F0008B080BD000080B588B00690059124
:103FF0000492ADF80E30069850B1FFE7059838B13D
:10400000FFE7049820B1FFE7BDF80E0020B9FFE7F5
:1040100010208DF81F005BE0049805994861069810
:10402000059988610598C0680290BDF80A000004EF
:104030000290BDF80E10029808430290029805996C
:10404000C86005983F2100F0E7FB8DF80700FFE707
:104050009DF8070028B1FFE79DF807008DF81F00C5
:1040600036E0FFE70598022100F04EFC8DF80700CE
:10407000FFE79DF8070028B1FFE79DF807008DF8DE
:104080001F0025E0FFE70598002100F047FC8DF8B0
:104090000700FFE79DF8070028B1FFE79DF807003C
:1040A0008DF81F0014E0FFE7059800F032FC8DF852
:1040B0000700FFE79DF8070028B1FFE79DF807001C
:1040C0008DF81F0004E0FFE700208DF81F00FFE7D8
:1040D0009DF81F0008B080BD80B582B000208DF82B
:1040E00003004BF2B400C2F20000006820B9FFE701
:1040F0004FF0FF30019015E01E200DF10301012269
:1041000000F0B6F820B1FFE74FF0FF30019009E072
:104110009DF8030000F003000338B0FA80F0400976
:104120000190FFE7019802B080BD000080B582B029
:1041300000208DF807004BF2B401C2F200010860C4
:104140000F200DF10701012200F092F80090009875
:1041500028B9FFE79DF807006A2807D0FFE746F671
:10416000D910C2F2000000F01BFC78E010204421BE
:1041700000F0B8F80090009840B1FFE7009946F6CB
:10418000E420C2F2000000F00BFC68E011204C219A
:1041900000F0A8F80090009840B1FFE7009946F6BB
:1041A000C120C2F2000000F0FBFB58E012204421C5
:1041B00000F098F80090009840B1FFE7009946F6AB
:1041C0009E20C2F2000000F0EBFB48E0102001A9A5
:1041D000032200F04DF80090009878B9FFE79DF8B1
:1041E000040044280AD1FFE79DF805004C2805D1BA
:1041F000FFE79DF80600442807D0FFE746F6F310D6
:10420000C2F2000000F0CCFB29E0322000F04FFBAE
:104210004BF2B401C2F20001012008609DF80710C2
:1042200046F67B20C2F2000000F0BAFB46F61C20E6
:10423000C2F2000000F0B4FB46F64C20C2F20000CF
:1042400000F0AEFB46F60830C2F2000000F0A8FB1A
:1042500046F64630C2F2000000F0A2FBFFE702B0D3
:1042600080BD00004BF2B400C2F20000006870474D
:1042700080B586B08DF813000391ADF80A209DF843
:1042800013004BF25401C2F20001087043F2000027
:10429000C6F200000122002300F096F90190019877
:1042A00018B1FFE70198059018E00399BDF80A20BE
:1042B00043F20000C6F20000002300F045F8019030
:1042C000019818B1FFE70198059007E043F200005C
:1042D000C6F2000000F044F90590FFE7059806B02B
:1042E00080BD000080B582B08DF807008DF8061003
:1042F0009DF807004BF25401C2F2000108709DF8CE
:104300000600487043F20000C6F2000002220123BA
:1043100000F05AF902B080BD80B582B00020019053
:104320004EF20000C6F2040000F0FDFA642000F036
:10433000BEFA00F05BFA012000F020FA00F004FA67
:10434000FEF782FFFFE7FEE72DE9F04F81B004465C
:10435000A0F1C040A0F540504FEAB020032882BF32
:10436000012001B0BDE8F08F0F4600294FF0010099
:104370001CBF9146002A02D101B0BDE8F08F204653
:1043800001210093012500F0A6FA2046022100F049
:10439000A7FA204600F0A9FA2020A0644FF6FF708B
:1043A0004E46206165642564B9F1100F28BF1026C0
:1043B000F1B2204600F09EFAA9EB060AA564642536
:1043C000E06B00F01F00092834D0E06B00F01F0004
:1043D0000A282FD0012000F06FFAE06B00F01F00D8
:1043E0000D2818BFB5F10105EAD1E06B00F01F0000
:1043F0000D280CD0642500BF013D00F0AC800120E9
:1044000000F05AFAE06B00F01F000D28F4D10220F2
:10441000A064E16BC906AFD0642500BF013D00F088
:104420009A80012000F048FAE06BC0064FF00200CD
:10443000F4D1A1E7B9F1000F3ED04FF0000B4FF0DF
:104440008008002508E000BF052000F035FA4FF095
:10445000000BA8B248452FD2E06B00F01F000F28D8
:104460000ED15FEA0A4014D01FFA8AF62046102EB9
:1044700028BF1026F1B200F03DFAAAEB060A0EE0C2
:10448000012000F019FABBF5FA6F40D20BF1010BD5
:10449000DFE7204600214FF0000A00F02BFAA06869
:1044A0000006D1D56068A9B201357854C4F81080EF
:1044B000A0680006F6D4C7E70820A064E06B00F00F
:1044C0001F000D280AD06425013D44D0012000F0D2
:1044D000F3F9E06B00F01F000D28F5D1009868B1EA
:1044E0000220A064E06BC00608D06425013D32D0F4
:1044F000012000F0E1F9E06BC006F7D120464FF64D
:10450000FF7100F0CFF9002001B0BDE8F08F082066
:10451000A064E06B00F01F000D280BD0642500BFE5
:10452000013D18D0012000F0C7F9E06B00F01F003A
:104530000D28F5D10220A064E06BC0060BD06425E5
:10454000013D08D0012000F0B7F9E06BC0064FF044
:104550000400F5D110E7042001B0BDE8F08F0000A1
:10456000B0B50446A0F1C040A0F540504FEAB020DD
:10457000032884BF1020B0BDE06B00F01F000A28A4
:104580000BD0E06B00F01F000E2806D0E06B00F0AF
:104590001F000D281CBF0120B0BD0220A064E06BED
:1045A000C00604BF0020B0BD642500BF013D04BFAC
:1045B0000320B0BD012000F07FF9E06BC00604BF0E
:1045C0000020B0BDF2E700002DE9F0470446A0F15D
:1045D000C040A0F540504FEAB020032884BF01201E
:1045E000BDE8F0870F4600294FF001001CBF92463E
:1045F000002A01D1BDE8F087204601219846012517
:1046000000F069F92046012100F06AF9204600F027
:104610006CF92020A0644FF6FF702061656425646A
:10462000A5646425E06B00F01F0007283BD0E06B19
:1046300000F01F000E2836D0E06B00F01F000828A5
:1046400031D0012000F038F9E06B00F01F000D2898
:1046500018BFB5F10105E5D1E06B00F01F000D2892
:104660000AD06425013D1BD0012000F025F9E06B44
:1046700000F01F000D28F5D10220A064E16BC906EF
:10468000B8D06425013D0BD0012000F015F9E06B96
:10469000C0064FF0020008BFBDE8F087013DF3D12E
:1046A0000420BDE8F087BAF1000F30D000254FF4A8
:1046B000005902E00135554529D0785D2060A06899
:1046C000800409D440F2D176013E1BD0012000F0D5
:1046D000F3F8A0688004F7D5C4F81090E06B00F000
:1046E0001F000E28E6D06426013E04BF0320BDE86B
:1046F000F087012000F0E0F8E06B00F01F000E28CA
:10470000F2D1D7E70220A0640420BDE8F087B8F119
:10471000000F10D00220A064E06BC0060BD064250F
:10472000013D04BF0420BDE8F087012000F0C4F87B
:10473000E06BC006F4D120464FF6FF7100F0B2F8EE
:104740000020BDE8F087000080B582B00120002283
:104750000192114600F0ECF80198694608604BF2AE
:104760000000C6F204004FF000514FF0C0424FF479
:10477000E133FEF747FB02B080BD000080B582B098
:104780008DF8070000208DF806000F200DF10601BE
:10479000012200F0D2F89DF8060020B9FFE756206C
:1047A00000F0D0F8FFE710200DF10601012200F023
:1047B000C4F89DF8060028B1FFE79DF8060000F058
:1047C000C6F803E0A92000F0C2F8FFE7002000F0DF
:1047D000C3F803216422084600F0C3F89DF80700DF
:1047E00040F6C41100F0C2F802B080BD80B582B0BE
:1047F000022000F0C0F80020019000F0C1F80198FC
:1048000000F0C3F8019800F0C5F802B080BD48F28E
:104810001D2CC0F2000C604748F2590CC0F2000C8D
:10482000604748F2C52CC0F2000C604748F2AD0C5E
:10483000C0F2000C60474DF67D7CC0F2000C604772
:1048400047F67D1CC0F2000C604749F6210CC0F20F
:10485000000C604749F69D0CC0F2000C60474DF615
:10486000656CC0F2000C604740F23D2CC0F2000CB9
:1048700060474EF2CD1CC0F2000C604749F2F16C6B
:10488000C0F2000C604749F2716CC0F2000C604746
:1048900049F2F97CC0F2000C604749F6013CC0F2D5
:1048A000000C604749F6812CC0F2000C604744F2CE
:1048B000717CC0F2000C604744F2817CC0F2000CB5
:1048C000604748F2653CC0F2000C604749F69D4CD9
:1048D000C0F2000C60474AF22D3CC0F2000C604769
:1048E0004AF2112CC0F2000C604749F67D4CC0F230
:1048F000000C60474AF2911CC0F2000C60474AF27B
:104900005D3CC0F2000C604748F2351CC0F2000C60
:10491000604748F2151CC0F2000C604748F2195C71
:10492000C0F2000C60474FF6310CC0F2000C60473B
:104930004CF2113CC0F2000C604748F20D7CC0F212
:10494000000C60474AF6596CC0F2000C60474AF60A
:10495000696CC0F2000C60474AF6B13CC0F2000C32
:10496000604745F6651CC0F2000C604745F6295CBF
:10497000C0F2000C60474AF67D5CC0F2000C604754
:104980004AF6A95CC0F2000C60474AF6FD5CC0F232
:10499000000C604745F6214CC0F2000C6047000057
:1049A0000FB4054B10B503A9044A029800F0CAF8E9
:1049B00010BC5DF814FB0000AD40002000B00020EA
:1049C0002DE9FF5F82B00021DDE90430020DDDF842
:1049D00040B0034318D044F61050A2F2FF324243D5
:1049E0001514119801281FD0A5EB0B00401C5FEA9D
:1049F000000A4FF000064E4FDFF83891B04650469F
:104A000015D5CAF1000413E0119801244AA3012826
:104A100001D16FEA0B010298119AC0E90031C0E997
:104A2000024206B0BDE8F09FCBF10000DFE704468C
:104A30000021404A491842EB0450CDE9001012E031
:104A4000E00707D032463B4640464946FDF777FD32
:104A50008046894632463B4610461946FDF76FFDB3
:104A600006460F466410002CEAD1DDE90401DDE9B9
:104A70000023BAF1000F06DAFDF761FD42464B460E
:104A8000FDF75DFD05E0FDF7CCFD42464B46FDF729
:104A9000C8FD04460E460022284BFDF749FE03D808
:104AA0004FF0FF30014607E00022254B20463146FB
:104AB000FDF79EFCFDF724FE102409E0002C0ADB24
:104AC0000A220023FDF72EFC039B30321A55641E88
:104AD00050EA0102F2D1641C039AC4F11103144498
:104AE000119A012A03D0012208430DD10AE008439C
:104AF00004D000204FF0110B119072E7A3EB0B05CF
:104B00006D1E0DE05B4504DD4FF0000205F101056F
:104B100004E003DA4FF00002A5F10105002AECD011
:104B200002981199C0E90231C0E9004579E7000017
:104B3000000014400000F03F300000000000F0438F
:104B40000000E03F2DE9FF4F95B09B4689460646A1
:104B500000250FE2252877D100242746F84A0121B5
:104B6000059400E0044316F8013F203B01FA03F0EE
:104B70001042F7D130782A2811D06FF02F03307807
:104B8000A0F13002092A16D8059A44F0020402EB7B
:104B9000820203EB42021044761C0590EFE759F8BD
:104BA000042B0592002A03DA504244F40054059085
:104BB00044F00204761C30782E2816D116F8010F26
:104BC00044F004042A280DD06FF02F023078A0F1B1
:104BD0003003092B09D807EB870302EB4303C718FF
:104BE000761CF3E759F8047B761C30786C280FD0DC
:104BF00006DC4C2817D068280DD06A2814D104E0B0
:104C0000742810D07A280FD10DE044F400140AE083
:104C100044F4801401E044F440147278824202D1DA
:104C200004F58014761C761C307866280BD013DCD3
:104C3000582877D009DC002875D04528F6D04628BA
:104C4000F4D047281AD19DE118E0632835D06428B4
:104C500079D0652812D195E1702873D008DC6728D7
:104C6000F1D069286FD06E280DD06F2806D1B5E03D
:104C700073282CD0752875D0782874D05A46179987
:104C800090476D1C75E1C4F30250022809D0032837
:104C90000DD0D9F8001004280DD00D6009F10409D9
:104CA00067E1D9F80010EA17C1E90052F6E7D9F830
:104CB00000100D80F2E70D70F0E719F8041B8DF875
:104CC000001000208DF80100EA46012003E059F8A9
:104CD00004AB4FF0FF3061074FF0000102D40DE04C
:104CE00008F101018846B9420FDA8045F8DB1AF86D
:104CF00008100029F4D108E008F10101884681423A
:104D0000FADB1AF808100029F6D105985B46A0EBEB
:104D1000080721463846179A00F094FA284400EB19
:104D2000080507E04DE029E10DE01AF8010B5A46AD
:104D300017999047B8F10108F7D25B4621463846EB
:104D4000179A13E142E00A220092C4F302524FF094
:104D5000000A022A08D059F804CB032A4FEAEC7162
:104D60000AD00DE029E02AE009F1070121F007024D
:104D7000F2E802C1914609E00FFA8CFC4FEAEC71AF
:104D8000042A03D14FFA8CFC4FEAEC71002907DAB0
:104D90000A460021DCF1000C61EB02012D2202E049
:104DA000220504D52B228DF80420012203E0E2071E
:104DB00001D02022F7E7904659E00A2102E01022B4
:104DC0000DE010214FF0000A00910BE010224FF08F
:104DD000000A44F004040827009203E008224FF080
:104DE000000A0092C4F30252022A05D059F804CBFB
:104DF0000021032A08D009E009F1070121F0070288
:104E0000F2E802C1914605E01FFA8CFC042A01D1A8
:104E10000CF0FF0C4FF00008220728D5702806D0B0
:104E2000009B83F0100353EA0A0305D00EE04022F2
:104E30008DF80420012208E05CEA010206D030224D
:104E40008DF804208DF8050002229046009B83F027
:104E5000080353EA0A030AD15CEA010201D162079E
:104E600005D530228DF804204FF001087F1E582808
:104E700004D034A003900EA802900DE036A0F9E70C
:104E800053466046009AFDF74DFA84460398825CCB
:104E90000298401E029002705CEA0100F0D1029874
:104EA00006A9081A00F1200A600702D524F480340C
:104EB00000E00127574502DDA7EB0A0000E00020D3
:104EC00000EB0A01009005984144401A0590E00368
:104ED00006D45B462146179A059800F0B3F90544BD
:104EE000002706E001A85A46C05D179990476D1C3F
:104EF0007F1C4745F6DBE0030CD55B462146179A3D
:104F0000059800F09FF9054404E030205A461799AF
:104F100090476D1C0099481E00900029F5DC08E0C0
:104F2000029802995A460078491C029117999047B5
:104F30006D1CBAF10001AAF1010AF1DC65E1000083
:104F4000092801003031323334353637383961625F
:104F50006364656600000000303132333435363723
:104F600038394142434445460000000000F058F9FA
:104F70000544761C307800287FF4ECAD19B0284643
:104F8000BDE8F08F620700D4062709F1070222F07E
:104F9000070CFCE80223E14603F000485FEA080C36
:104FA00002D00FF2702C0DE05FEA045C02D50FF224
:104FB000682C07E05FEAC47C02D00FF2602C01E0AD
:104FC000AFF2700C4FF0FF3823F00043CDF850C023
:104FD00065280CD006DC452809D046281DD0472876
:104FE0003DD13DE0662818D067287ED138E0002109
:104FF000112F01DB112000E0781CCDE9000106A98A
:105000000EA8FFF7DDFCDDE90F010E9A03910021E8
:10501000009207F1010A04914DE04FF00040009723
:10502000CDE9011006A90EA8FFF7CAFCDDE90F02C1
:1050300003920E9B11990022DDF80CA000930492BC
:1050400011B9791C00EB010AB7EB0A0004D4C0F1D6
:10505000FF3007F1010A0490AAEB0700019044E039
:10506000012F00DA01270021112F01DD112000E0BE
:105070003846CDE9000106A90EA8FFF7A1FCDDE93D
:105080000F010E9A0391002104910092BA46210764
:105090000CD40399514500DA8A46BAF1010F05DDB7
:1050A000009AAAF10101515C302908D0B84202DA15
:1050B00010F1040F06DA0121CDE9011015E0AAF183
:1050C0000101E9E7002805DC049901440491AAEBF9
:1050D000000102E0411C514500DD8A460499401A56
:1050E000401C01904FF000400290200704D401982A
:1050F000504501DBCDF8048000208DF84F00029868
:105100000DF14F07B0F1004F25D02B200E900298E3
:105110004FF0020800280CDA404202902D200E9039
:1051200007E00A210298FDF72EF93031029007F8C6
:10513000011DB8F10001A8F10108F2DC0298002875
:10514000EFD1791E0E980870307800F0200040F002
:10515000450007F8020D12A8C01B00F107081498BB
:10516000007800B1012000EB0A01019801EBE07129
:1051700005984144401A401E0590E00306D45B4662
:105180002146179A059800F05DF8054414980078B8
:1051900018B15A46179990476D1CE00324D55B4619
:1051A0002146179A059800F04DF805441CE0049834
:1051B000002807DBDDE90301884203DD0098405C3D
:1051C000179901E0179930205A469047049805F145
:1051D0000105401C04900198401E019004D12E202E
:1051E0005A46179990476D1CBAF10001AAF1010ABD
:1051F000DDDC05E017F8010B5A46179990476D1C46
:10520000B8F10001A8F10108F4DC5B462146179AC9
:105210000598ABE62D0000002B00000020000000E8
:105220002DE9F041044600251E461746880404D4A3
:1052300005E039462020B0476D1C641EF9D528468C
:10524000BDE8F0812DE9F041044600251E46904658
:10525000C80301D5302700E02027880404D505E0E5
:1052600041463846B0476D1C641EF9D52846BDE856
:10527000F0815B494E5650435D616E20696E7465E6
:10528000677269747920636865636B206572726FF9
:105290007220686173206F636375727265640D0AB2
:1052A000005B554E444546494E5354525D616E2055
:1052B000756E646566696E656420696E7374727577
:1052C0006374696F6E206572726F722068617320FB
:1052D0006F636375727265640D0A005B44495642E0
:1052E000595A45524F5D616E20696E7465676572EB
:1052F000206469766973696F6E206279207A6572BD
:105300006F206572726F7220686173206F636375BE
:10531000727265640D0A005B494D50524543495312
:105320004552525D496D70726563697365206461B1
:10533000746120616363657373206572726F72209C
:10534000686173206F636375727265640D0A005B38
:10535000554E414C49474E45445D616E20756E6126
:105360006C69676E65642061636365737320657241
:10537000726F7220686173206F6363757272656407
:105380000D0A005B494255534552525D696E737474
:1053900072756374696F6E20627573206572726FC7
:1053A0007220686173206F636375727265640D0AA1
:1053B000005B4E4F43505D6120636F70726F636599
:1053C00073736F722064697361626C6564206F72BD
:1053D000206E6F742070726573656E7420657272D2
:1053E0006F7220686173206F636375727265640DFC
:1053F0000A005B53544B4F465D6120737461636BCD
:10540000206F766572666C6F77206572726F72209E
:10541000686173206F636375727265640D0A005B67
:10542000494E5653544154455D20616E20455053BA
:10543000522E54206F7220455053522E49542076DC
:10544000616C6964697479206572726F7220686139
:1054500073206F636375727265640D0A005B4D4C57
:1054600053504552525D41204D656D4D616E6167EF
:1054700065206661756C74206F6363757272656414
:1054800020647572696E6720666C6F6174696E67FF
:105490002D706F696E74206C617A792073746174F9
:1054A0006520707265736572766174696F6E0D0A3E
:1054B000005B4C53504552525D412062757320662B
:1054C00061756C74206F63637572726564206475B6
:1054D00072696E6720666C6F6174696E672D706F9C
:1054E000696E74206C617A792073746174652070C0
:1054F0007265736572766174696F6E0D0A005B4D3B
:10550000554E53544B4552525D556E737461636BE7
:1055100020666F7220616E20657863657074696FB4
:105520006E2072657475726E206861732063617598
:10553000736564206F6E65206F72206D6F726520D9
:105540006163636573732076696F6C6174696F6EF4
:10555000730D0A005B4D53544B4552525D537461B9
:10556000636B696E6720666F7220616E2065786379
:10557000657074696F6E20656E74727920686173EE
:1055800020636175736564206F6E65206F72206D96
:105590006F7265206163636573732076696F6C61F8
:1055A00074696F6E730D0A005B554E53544B455230
:1055B000525D556E737461636B20666F7220616E0D
:1055C00020657863657074696F6E2072657475729A
:1055D0006E2068617320636175736564206F6E650A
:1055E000206F72206D6F7265204275734661756C15
:1055F00074730D0A005B53544B4552525D537461F2
:10560000636B696E6720666F7220616E20657863D8
:10561000657074696F6E20656E747279206861734D
:1056200020636175736564206F6E65206F72206DF5
:105630006F7265204275734661756C74730D0A0054
:105640004D656D4D616E616765204661756C740DC9
:105650000A005573616765204661756C740D0A0018
:10566000436F6E666967757261626C65204661752D
:105670006C740D0A00566563746F72204661756C18
:10568000740D0A00427573204661756C740D0A0032
:105690004465627567204576656E74204661756C59
:1056A000740D0A005B5052454349534552525D20E8
:1056B0006461746120627573206572726F72206814
:1056C0006173206F636375727265642C2050432090
:1056D0003A203078253038780D0A005B4441434346
:1056E00056494F4C5D205468652070726F63657336
:1056F000736F7220617474656D70746564206120CD
:105700006C6F6164206F722073746F7265206174B6
:105710002061206C6F636174696F6E2074686174BE
:1057200020646F6573206E6F74207065726D69748C
:1057300020746865206F7065726174696F6E2C20CB
:105740005043203A203078253038780D0A005B49E4
:1057500041434356494F4C5D5468652070726F63F6
:105760006573736F7220617474656D707465642005
:10577000616E20696E737472756374696F6E2066F2
:10578000657463682066726F6D2061206C6F636161
:1057900074696F6E207468617420646F6573206E25
:1057A0006F74207065726D697420657865637574B7
:1057B000696F6E2C205043203A203078253038789D
:1057C0000D0A004154203A3078253038780D0A000F
:1057D0004F63637572656420696E207461736B2E0C
:1057E0000A005573696E67207533324D73702E0A47
:1057F000005573696E67207533325073702E0A003E
:105800004F63637572656420696E20696E7465729A
:10581000727570742E0A00537461636B2066726136
:105820006D653A0A00616464723A2030782530343C
:10583000580A004E4D495F48616E646C65723A20AB
:10584000253038582C20253038582C202530385811
:105850000A00636F646520202020203A20307825DC
:105860003038580A00523020203A2030782530381D
:10587000580A00523120203A203078253038580A12
:1058800000523220203A203078253038580A005211
:105890003320203A203078253038580A00504320F1
:1058A000203A203078253038580A004C5220203ACF
:1058B000203078253038580A00523132203A2030D2
:1058C00078253038580A00785053523A20307825DD
:1058D0003038580A006F626A6563745F69643A2001
:1058E0003078253038580A00696E666F3A20307873
:1058F000253038580A005B486172644661756C74E3
:105900005F48616E646C65725D43757272656E743A
:10591000206D73703A203078253038580A0073793A
:105920007374656D206572726F72206F6363757238
:10593000730A006F7320657272206F6363757273F0
:105940000A00753332457272496E666F313A2575B9
:1059500020753332457272496E666F323A25750A88
:10596000007531364572724D6F64756C653A2575F8
:10597000207531364572724C696E653A25750A009C
:10598000494D552077616974696E6720666F722092
:10599000667265736820616363656C2F6779726FE7
:1059A00020646174612E0D0A00494D5520646174B4
:1059B000612D726561647920726561642066616938
:1059C0006C65642E0D0A0043617074757265206306
:1059D0006C6F636B20696E6974206661696C6564C5
:1059E0002E0D0A00494D55312C256C752C256C75F2
:1059F0002C25642C25642C25642C25642C25642CF2
:105A000025640D0A002346572C50494E504F4E5FD7
:105A1000435F464153543130345F56322C25732C4A
:105A200025730D0A0023524154452C256C752E25F3
:105A30006C75206670732C6572723D256C750D0A4D
:105A4000002353545245414D2C313034487A2C3187
:105A50003135323030626175642C494D55312C72CC
:105A600065636F7264696E672D6F6E6C790D0A00E5
:105A7000444D412052656164204661696C65642033
:105A80003A2025640A00444D41205772697465200C
:105A90004661696C6564203A2025640A00444D41E2
:105AA0002053746F70204661696C6564203A20252C
:105AB000640A004D617374657220444D4120496E43
:105AC0006974204661696C6564203A2025640A0087
:105AD000727820646F6E650A00747820646F6E655A
:105AE0000A0025303258200031313A35393A303108
:105AF000005365702032382032303236004C534D1E
:105B00003644533320436F6E6E656374204661697B
:105B10006C65642E0D0A004C534D3644533320639C
:105B20006F6E66696775726174696F6E2072656108
:105B3000646261636B206661696C65642E0D0A00A6
:105B4000416363656C65726F6D657465723A20318F
:105B5000303420487A2C202B2F2D313620672C20F2
:105B60004354524C315F584C3D307834340D0A0068
:105B70004779726F73636F70653A20313034204813
:105B80007A2C202B2F2D32303030206470732C2053
:105B90004354524C325F473D307834430D0A004C39
:105BA000534D3644533320496E6974204F4B3A208D
:105BB00057484F5F414D5F493D3078253032580D91
:105BC0000A004C534D36445333204354524C335FF8
:105BD00043205772697465204661696C65643A2098
:105BE00025640D0A004C534D364453332043545220
:105BF0004C325F47205772697465204661696C6555
:105C0000643A2025640D0A004C534D36445333202A
:105C10004354524C315F584C20577269746520468A
:105C200061696C65643A2025640D0A00494D55315F
:105C30003A207365712C726561645F75732C4178CD
:105C40005F7261772C41795F7261772C417A5F7264
:105C500061772C47785F7261772C47795F72617743
:105C60002C477A5F7261770D0A00436F6C6C656335
:105C7000746F723A204163633D7261772A302E302F
:105C8000303034383820673B204779726F3D72617D
:105C9000772A302E303730206470733B206E6F6D62
:105CA000696E616C2031303420487A0D0A000000A2
:045CB00000000000F0
:040000051000215571
:00000001FF
