:020000042000DA
:1030000000700120BD310020C5310020D5310020E5
:1030100000000000000000000000000000000000B0
:103020000000000000000000000000001905010081
:1030300000000000000000009D050100A90501003E
:10304000E5310020E73100206D360020EB31002013
:10305000ED310020EF310020F1310020F33100206C
:10306000F5310020F7310020F9310020FB3100203C
:10307000FD310020FF31002001320020033200200A
:103080000532002007320020093200200B320020D8
:103090000D3200200F32002011320020B136002006
:1030A0001532002017320020193200201B32002078
:1030B0001D3200201F32002021320020D136002096
:1030C0000348854600F006F8004800477951002083
:1030D000007001201CB50948009009480190054680
:1030E0000126009C05E0E36807CC33430C3C98477D
:1030F0001034AC42F7D3FFF7E7FF00002431002083
:103100003431002002E008C8121F08C1002AFAD199
:1031100070477047002001E001C1121F002AFBD157
:1031200070470000C0840020C08400208C71000023
:103130001431002070B51D4E3078002834D0EFF3E4
:103140001085EFF3108072B619480068002802D08D
:103150008047002813D03078811E032912D2012421
:103160002046214604F026F81248016804220A434A
:10317000026030BF0021204604F01CF80AE085F30D
:10318000108870BD012805D10A48016804229143C6
:10319000016030BF08480068002803D03178022958
:1031A00000D1804785F3108870BDC046FCC1002067
:1031B000BCED002010ED00E0B8ED0020194880477C
:1031C000194800477046EFF30881EFF30982174B67
:1031D0009847FEE77046EFF30881EFF30982144B3E
:1031E0009847FEE7FEE7FEE7FEE7FEE7FEE7FEE7BD
:1031F000FEE7FEE7FEE7FEE7FEE7FEE7FEE7FEE7A7
:10320000FEE7FEE7FEE7FEE7FEE7FEE7FEE7FEE796
:10321000FEE7FEE7FEE7FEE7FEE7FEE7FEE7FEE786
:10322000FEE7FEE7D5370020C130002075360020CC
:1032300039350020F0B51FB40646002082B005469F
:103240004024019100901BE0019922460F46304630
:1032500000F060F9049A059B801A994110D310463A
:103260001946224600F046F9361A8F410197224648
:1032700001200021009F00F03DF938184D410090D9
:103280002046641E0028DFDC019B00982946324658
:1032900007B0F0BD30B5434351435C18010C130C2B
:1032A0000D465D432C1980B292B2054655435143F9
:1032B0000A0C09044D1962415843010C00044019DD
:1032C000514130BD03460B439B0703D009E008C9B9
:1032D000121F08C0042AFAD203E00B780370401CC6
:1032E000491C521EF9D2704710B5002200E0521C52
:1032F000835C8C5CA34201D1002BF8D1D8B2E1B23F
:10330000401A10BDF8B502464A40D40F42004B00A7
:1033100052085B089A4202D20246084611464A0009
:1033200023D0C30D4A00DDB2120EAD1A202D35DABE
:1033300049020126490AF6058A19002C00D052429A
:1033400020214F1B1146B9402A411018C20D9A4244
:1033500021D0002C17D0012D08DCDA05801AD20FFD
:103360008019D207DBB203F02BFFF8BDDA05801A13
:10337000012340001B06C01880185A428018CA0F4B
:103380001043490007E04908C2071143DA05801AD3
:1033900080194008801803F019FFF8BD6100012270
:1033A000511A001BF7E70122D2075140AAE7012278
:1033B000D2075040A6E7024670B54A40D30FDB075C
:1033C00040002DD04A002AD0010E140E0002120235
:1033D0000919400A520A8418E50104465443000AB8
:1033E000120A2E045043A4194219200CC543AA18EE
:1033F000120C0125AD03521C521912047F3924040A
:1034000000D0521C104301D44000491EC2B20C0629
:10341000C0092018401C4008802A02D003E0002088
:1034200070BD40084000002900DA0020184370BD3C
:103430000122D207002800DB101A002900DB511AF4
:10344000814201D201207047002070470122D2073B
:10345000002800DB101A002900DB511A814201D933
:1034600001207047002070470122D207002800DBAE
:10347000101A002900DB511A814201D10120704746
:1034800000207047C20F410040020123400ADB05C3
:10349000D207090EC0187F2901DA0020704796294B
:1034A00003DC9623591AC84001E096398840002A67
:1034B000F4D04042704770B50446002903D0002084
:1034C0002022012310E0002801D00020C043C04684
:1034D000C0460DE02546D5408D4205D30D469540AA
:1034E000641B1D46954040191546521E002DF1DC07
:1034F000214670BD10B5202A04DB0146203A9140D8
:10350000002010BD914020239C1A0346E34019433C
:10351000904010BD10B5202A04DB0846203AD04068
:10352000002110BD0B46D340D0402024A21A914068
:103530000843194610BD000015460C46064600F02B
:10354000D5F9EFF308811D4804F03EFB300701D5A3
:103550001C4800E01A4804F081FD0420064001D018
:103560001AA000E0184804F079FD1CA004F076FDD4
:10357000002E00D02C4621681CA004F025FB6168B9
:103580001EA004F021FBA16820A004F01DFBE1684F
:1035900022A004F019FB216924A004F015FB616945
:1035A00026A004F011FBA16928A004F00DFBE1693D
:1035B0002AA004F009FB00F06DF9FEE77A810020F3
:1035C000C1810020A2810020B38100205573696E63
:1035D00067207533325073702E000000537461639E
:1035E0006B206672616D653A000000005230202049
:1035F0003A203078253038580A0000005231202017
:103600003A203078253038580A0000005232202005
:103610003A203078253038580A00000052332020F4
:103620003A203078253038580A00000052313220D4
:103630003A203078253038580A0000004C522020BB
:103640003A203078253038580A00000050432020B6
:103650003A203078253038580A000000785053520C
:103660003A203078253038580A00000080B503F041
:10367000B3FD80BD14460D46064600F037F904A0A0
:1036800031462A46234604F09FFA00F003F9FEE78C
:103690004E4D495F48616E646C65723A2025303842
:1036A000582C20253038582C20253038580A000056
:1036B00010B582B001AC204603F094FD019803F0F0
:1036C00097FD6078000601D501F0FEF802B010BD4C
:1036D000F0B585B0002503953B4C04AE204631463D
:1036E00003F08CFD30880821014001200190C607BD
:1036F000002907D0204603F087FD642003F08AFDEF
:1037000032480660032103AA204603F089FD3048B1
:10371000046803E003F084FC2C480660002C25D0EC
:103720002046A46A017D0029F4D1417D0129F1D010
:10373000817D0229F2D102A90746234803F076FDD4
:103740003846BA68FB6802999A4204D29142E5D39E
:10375000994204D3E2E7994201D39142DED3C16991
:103760000029D7D0006A88473846D3E70096184822
:103770000668002E18D00021029A0D46124804E077
:103780001D461148B66A002E10D0B37D022BF9D128
:10379000B368CC0705D0AC1A9F1AA742F0D32B46CA
:1037A000EEE71D460199EDE729460748C90709D00C
:1037B00003998D4206D003212A4603F03DFD00986F
:1037C0000249086005B0F0BD0030056000E200E08D
:1037D0009CC20020014802490160704708ED00E0EA
:1037E0000030002070B55C4D29685A4E30680024C6
:1037F000224603F027FD30682968224603F028FDA1
:10380000534801689A48814201D02D2000E02C20C5
:1038100003225207914200D12B2003F01FFD70BDFF
:1038200070B5032465071024AA4205D0104DAA42A2
:1038300002D08F4DAA4219D1802505438B4EB54247
:1038400014D1049C264D2C60002C04D0264C00255D
:103850002580244C25803F4C20603D4802603E4836
:1038600001603F48036000F041F80446204670BD07
:10387000000800601C48008880B21A49098889B293
:10388000081A4142414116480268504250410843DB
:103890007047C046F0B581B0114C2068002805D0B3
:1038A000104D2888104E3188884201D101B0F0BDFA
:1038B000274F04E0288081B232889142F6D080B24E
:1038C00021680968095C386803F0CEFC20688188AB
:1038D0002888401C82B28A42ECD30020EAE7C04626
:1038E00008C20020AAC20020A8C20020F0B583B000
:1038F000174D286803214907884205D05C49884252
:1039000005D108242C2004E004242B2001E00C2401
:103910002D2003F0AFFC0F4E30680F4F3968224660
:1039200003F0AEFC002801D003B0F0BD3968306868
:10393000022203F08DFC0028F6D1084802900848C6
:1039400000680190286801A903F0A0FC03B0F0BD55
:1039500010C200200CC20020B0C2002021300101A2
:10396000B4C2002070B58AB0282003F083FC0A207E
:1039700003F080FC0B2003F07DFC0C2003F07AFCAC
:103980000D2003F077FC0E2003F074FC0F2003F0F1
:1039900071FC102003F06EFC352003F06BFC11204D
:1039A00003F068FC1225284603F064FC002420463E
:1039B0002146224603F070FC03F074FC03F078FC0F
:1039C00000F0E0F80126310326488180264A026093
:1039D0000090E120C3022548254AFFF721FF25A0DA
:1039E00031A134A204F0F0F801F020FB00F01AFF3E
:1039F00000F0C8FD00F0F6FF31A02946224600F095
:103A0000DBFD00F0CFFA01F0D7FA01F045FB1721FA
:103A1000204603F053FCF0052E490860FF210906FB
:103A20002D4A13688B4313602C49086002202C49EF
:103A30002C4A01F087FBC82003F046FC2AA001AA0B
:103A4000114668C868C168C868C168C868C12F489D
:103A5000214603F03FFC03F043FC03F047FC0AB0AF
:103A600070BDC04614C2002020CC002080B004608D
:103A7000000400605B257320542025735D626C6533
:103A8000207065726970686572616C2070726F6A0F
:103A90006563742863702920737461727420746F75
:103AA00020776F726B2E0A005365702032352032FA
:103AB0003032360031373A32383A353000000000C3
:103AC00053757065725F536D6172745F5261636BA1
:103AD0006574000080E200E014E400E000E100E032
:103AE000155100200951002097840020000000009B
:103AF00074ED002044000000B8C60020000400005F
:103B0000180000000100000000000000C94A002069
:103B1000B0B503461020002B22D0012920D8EFF3A6
:103B20001084EFF3108572B69D7D002D02D084F3D2
:103B30001088B0BD00209862DA611976012199756C
:103B40002D490A68002A02D10B600021D9622B4955
:103B50000A68002A01D09362DA620B6084F310884D
:103B6000B0BDC04601461020002909D08A7D002A38
:103B700006D001224A750020C875D107374A116066
:103B80007047C046F0B581B0052003F073FB2A4DA5
:103B900000242846214603F0AFFB0127F80713490C
:103BA0000860FF263106124A13688B4303218907F8
:103BB000591811600F4908601F21204603F07EFB51
:103BC0007902284603F09EFB0821284603F0A0FB5B
:103BD0002846314603F0A2FB284603F0A5FB064821
:103BE000046006480460204601B0F0BD80E200E0B9
:103BF0001CE400E000E100E09CC20020A0C2002024
:103C000010B51023002815D0847D002C12D04262FC
:103C1000416001461031084A0446104603F006FB95
:103C20000220E075FF200230A0820120C0070B496E
:103C300008600023184610BD0030056001461020C2
:103C4000002909D08A7D002A06D001204875C87550
:103C5000C0070249086000207047C04600E200E04B
:103C600084B0104C104D04E0621C81B2104603F089
:103C700061FB28680022D34301A903F061FB0028FF
:103C8000F2D101A803F062FB02990029F1D0039858
:103C9000002802D003F060FBEBE7204603F062FB54
:103CA000E7E7C046026000003C85002080B50A4678
:103CB0000021FFF72DFF4142484180BD80B5FFF74D
:103CC00051FF4142484180BD80B5FFF799FF414215
:103CD000484180BD80B5FFF7B1FF4142484180BDFA
:103CE000F0B593B07E48012103F042FB0026002886
:103CF00000D1D9E07B4803F041FB002800D1D3E09C
:103D0000794803F041FB002800D1CDE07748012439
:103D1000214603F03FFB002800D1C5E004200090BD
:103D20007348744A10210B4603F03AFB002800D177
:103D3000BAE07148062103F039FB002800D1B3E056
:103D40006E48022103F038FB002800D1ACE02502C8
:103D500000206B496B4A131859601D8149191C30AA
:103D60007028F8D100206849684A1318596028263D
:103D70001E8128311C307028F7D165480D9064A051
:103D800041688268C06810900F920E910DA803F0F0
:103D900019FB002800D186E001940020604A614BA5
:103DA0001918CA600D82412189005218303030281C
:103DB000F6D00395BF20C5435B4F28465B4A1418D5
:103DC000CC22A750D023E6522C373030F6D10292C5
:103DD0000024574F57480019C7600A4603990182CB
:103DE0001146BF183034302CF4D05349534C029A4A
:103DF00060198150C6522C313035F9D150A104A838
:103E0000024678C978C278C978C203F0E1FA00287E
:103E1000039C48D000205249524A13189C81996053
:103E2000091920302028F8D04E480222214603F0FC
:103E3000D5FA002837D000204B494C4A11501318AE
:103E40009C80091910301028F8D0484802222146D9
:103E500003F0CAFA0026002826D045480DAA1146CC
:103E600038C838C138C838C14020082103F0C2FA28
:103E70004049086000281AD03F4804AA114638C8B3
:103E800038C138C838C138C838C13C480026314626
:103E900003F020FA07463A480760002F0BD0394854
:103EA00003F0AEFA0AE00026304613B0F0BD384801
:103EB00004F0D4F8F8E7344804F0D0F8019C002F5F
:103EC000F2D003F0A3FA0398F43003F0A5FA7D20B2
:103ED00040012E4903F0A6FA03F0AAFA2646E3E7CA
:103EE00070980020409B0020089A0020E09300205A
:103EF000B89D0020C89D0020C89F0020589D00202C
:103F0000F8A30020289C002008AC0020D89D0020A9
:103F1000289C002000010400D89D002028000400F7
:103F200000AA0020F89C002058AD0020089F002027
:103F3000F8A70020989C0020A8AC0020489E0020F4
:103F4000F89C002000010200089F002028000400C7
:103F5000989C002000010200489E002028000400D8
:103F6000F89F0020A0930020F8A100205098002086
:103F7000B080002094AE00208C800020BD50002036
:103F80005CAE0020396F00200D820020AC0D0000D7
:103F9000F68100205A480088081A41424141C80071
:103FA0007047C046F0B583B03B4900253B4B2846DF
:103FB0002A4601F095FB002867D0009501958120E5
:103FC0004300374C284621462A4601F01DFB0028B5
:103FD0005BD04B4908800D20019032480090611C55
:103FE00000200223024601F00FFB00284DD00E26D0
:103FF00001962D480090A11C0025022328462A4640
:1040000001F002FB002840D01227019727480090BA
:10401000E11C0296022628462A46334601F0F4FAAD
:10402000019723480090211D28462A46334601F077
:10403000EBFA01971F480090611D28462A46334637
:1040400001F0E2FA01971C480090A11D28462A467B
:10405000334601F0D9FA0298019018480090E11D0A
:1040600028462A46334601F0CFFA0720019014482B
:1040700000902D34284621462A46334601F0C4FAE2
:1040800001F0F4FA03F0DAF903E00E4803F0E6FF7A
:104090000125284603B0F0BD0A180000E480002086
:1040A000232A000048810020588100200C81002034
:1040B000208100206881002034810020FC800020C5
:1040C000AC840020D781002010B50D4800888142C3
:1040D00014D10820002B10D00A490A6849681971C8
:1040E0001A700C0EDC710C0C9C71090A5971110EBE
:1040F000D970110C9970110A597010BD002010BDB3
:10410000AEC20020E0EC0020014800887047C046A5
:10411000A6C2002070B5401E622800D9AEE14D1C39
:104120004000C04678448088400087446200E00038
:10413000A3002A015001BE00F6000B0178015F01C7
:10414000A701A701A701A701A701A701A701A7012F
:10415000A701A701A701A701A701A701A701A7011F
:10416000A701A701A701A701A7018800CE00910020
:104170007F00A7011B0121019001A701A701A70151
:10418000A701A701A701A701A701A701A701A701EF
:10419000A701A701A701A701A701A701A701A701DF
:1041A000A701A701A701A701A7018701A701A701EF
:1041B0007900A0009D017C008E008500DD0082005A
:1041C000A301A701A001A701A701A701A701A701BA
:1041D000A701A701A701A701A701A7018B00A701BC
:1041E000A701A701A701A701A701A701A701BB007C
:1041F00027018878CA7812021218E0480C46114646
:1042000003F098F8A078E17809020918DC4803F077
:10421000DBFCA078E17809020818D749088070BD56
:104220000978A04828E109789B4825E10988A44835
:1042300022E1097894481FE1097895481CE1098832
:10424000A24819E10978984816E10978914813E1E4
:10425000881C00220C46114603F0F6F8014620782F
:10426000627812021218974803F0F4F870BD0978CA
:104270008B4801E108794A7912021418CB782A7820
:10428000B5480E46214603F0EBF830797179090202
:10429000091828786A7812021218F378AF4803F0E8
:1042A00093FC70BD09788148E6E0287869780902B6
:1042B0000918A878EA7812021218A879EB791B027B
:1042C0001B18954803F0D2F870BD881C00220C46DC
:1042D000114603F0B9F801462078627812021218EC
:1042E000794803F0B7F870BD09786848C4E0CA7827
:1042F0002B789F480C46194603F0BEF82878697859
:1043000009020918E2789B4803F05EFC9A490020F4
:104310000880012103F0B6F870BD8878CA781202CF
:1043200014184B790A797A480D46214603F098F81B
:10433000A878E978090209186B792A79754803F099
:1043400043FC70BDCA782B7887480C46194603F0A9
:1043500093F82878697809020918E278834803F00D
:1043600033FC70BD0878497809020918534883E086
:104370008A780978504803F07FF870BD097854486E
:104380007AE008794A791202121866480C461146FA
:1043900002F0D0FF211D6448082203F079F820794B
:1043A000617909020818A1790904E2791206511805
:1043B0000A18207A617A09020818A17A0904E37AB6
:1043C0001B0659180B1859A003F0FEFB70BD0B8992
:1043D000CA888C8851480D46214603F047F82B893E
:1043E000EA88A9884E4803F0EFFB70BD08784A7848
:1043F000120213188878CA781202121835480C462F
:10440000194603F04BF82078617809020918A07862
:10441000E2781202121830A003F0D6FB70BD2878A3
:104420006978090209184E4802F084FF28786978F3
:10443000090209184B4803F0C7FB70BD0B78C87818
:104440004042C2B21A48194603F016F870BD087807
:104450004A7812021318887AC97A09020A1815488C
:10446000194603F01BF870BD09780C4804E0097880
:10447000034801E00978034802F05CFF70BDC046C4
:104480002BA000002AA0000029A0000028A0000006
:1044900027A0000026A0000025A0000024A0000006
:1044A00023A0000022A000002CA0000033A00000E8
:1044B00021A0000016A0000015A0000014A000001C
:1044C00013A0000012A0000011A0000010A0000026
:1044D00034A000000FA000005B4D53475F424C45E5
:1044E0005F4D54555F45584348414E4745445F49E9
:1044F0004E445D2048616E646C65203D2030782517
:10450000582C206D7475203D2025640A00000000A1
:104510000EA000008D8200200DA000000CA0000065
:10452000E08300200AA000000BA000005B4D534771
:104530005F424C455F4C4C5F464541545255455F88
:10454000494E445D2048616E646C65203D203078A2
:10455000254C580A0000000009A0000055830020E7
:1045600008A000002683002007A00000DC820020B5
:1045700005A00000A7830020A6C2002003A0000021
:104580004F84002080B5024802F08EFF80BDC046F7
:10459000154100202F480088411A48424841704781
:1045A0002C480088884205D10120002B01D0002131
:1045B0001970704700207047F0B583B014460D465F
:1045C0000146202D00D320251F4F38462A46FEF7EE
:1045D00079FE200A1D4E707034700320C102002045
:1045E0001B4B024601F07CF80124002828D00097DC
:1045F00001951520450200200227294602463B4628
:1046000001F002F800281BD000960197691C0026D3
:10461000304632463B4600F0F7FF002810D00096A7
:104620000196A6358120430030462946324600F0E7
:10463000EBFF002804D00749088001F017F8344642
:10464000204603B0F0BDC046DCC10020D8C1002028
:10465000F0800020A4C2002000207047F0B597B081
:104660000124A1024548464A10252B4601F096F840
:1046700044A00BA94CC84CC14CC84CC147A002AACD
:104680001146C8C8C8C1C8C8C8C12421284602F0FC
:1046900011FF48490860002812D047A011AA11460E
:1046A00068C868C168C868C10820802102F002FF9C
:1046B00047490860002807D103204003401C01E05F
:1046C0000320400302F04EFE40200C210BAA02F012
:1046D00091FE4049086000281CD03FA002AA114664
:1046E00068C868C168C868C168C868C14348002113
:1046F00002F0F0FD42490860411E05468D41002848
:1047000033D0802002F0DCFE3E4802F0DFFE002DB8
:1047100003D127E00025002D24D026020096102189
:1047200028220823204602F0D7FE68363648314654
:1047300002F0D8FE33208101344802F0D9FE34481B
:104740000221302202F0DAFE02F0DEFE314802F0F1
:10475000E1FE314802F0E4FE304802F0E7FE304866
:1047600002F0EAFE284617B0F0BD032040030930EE
:1047700002F0F8FD002DD0D1F4E7C04620DC002087
:104780001CC20020388200200000000008850020A4
:1047900034000000408500200006000072820020E6
:1047A00000000000E8EC00202400000098BF00207A
:1047B0004002000004C200204B82002000000000E4
:1047C0000CED00202400000098BB00200004000035
:1047D00000C200203C85002065820020010000000E
:1047E000C084002044000000408B0020000800002E
:1047F000200000000000000000000000613C0020DC
:1048000004850020616E0020B8CA002020E000204E
:1048100040930020AD3C0020C93C0020D53C002046
:10482000BD3C002010B502F0C7F90024022120464B
:1048300002F044FD124804220260FF2000041149E6
:104840000B6883430B60104802600F20032107238D
:1048500002F078FE00F03CF8FFF742FA002807D09B
:10486000FFF7FCFE002805D000F07CFE204610BDBE
:1048700006A000E00CA003F0F1FB012010BDC04633
:1048800080E200E000E400E000E100E0626C655FCF
:10489000636F6E74726F6C6C65725F696E697420A1
:1048A0006572726F722E0000626C655F686F737460
:1048B0005F696E6974206572726F722E000000006D
:1048C00080B502F045FE80BD80B502F047FE80BD98
:1048D00010B52B4802F048FE2A4802F04BFE2A4849
:1048E00002F04EFE294802F051FE294802F054FE23
:1048F000284802F057FE284802F05AFE274802F0E6
:104900005DFE274802F060FE264802F063FE26485E
:1049100002F066FE254802F069FE254802F06CFEB2
:10492000244802F06FFE244802F072FE234802F091
:1049300075FE234802F078FE224802F07BFE2248F2
:1049400002F07EFE214802F081FE214802F084FE42
:10495000204802F087FE204802F08AFE1F4802F03D
:104960008DFE1F4802F090FE0020C44320462146E1
:1049700002F090FE2046214602F092FE10BDC04695
:10498000D3BC0200B3BC0200BBBC0200CBBC020023
:10499000C3BC0200B955010069560100612702003D
:1049A0000127020015270200710B02005D2402009E
:1049B000312602009D2502008D260200F925020005
:1049C000C52602007D270200752702007D0B02002C
:1049D000D9E9030001E803003DE70300C5EA03004D
:1049E0009DEA0300F0B58DB0022002F05FFE0924BD
:1049F00001AE0625204631462A4602F05DFE31789A
:104A000070780A460243120605D10BA82649818018
:104A100026480B9012E0C2B20BA8C27001AA5379CB
:104A20004371937883700B090901C9180171D1781A
:104A30003F23194041701179194001700BA802F011
:104A400041FE1B4807A90A46C8C8C8C2038813808C
:104A5000807890700026304602F03AFE06A98D70EC
:104A6000812040000880032530462A4602F036FEA9
:104A700001AF7C7013203870B81C0EA11222FEF713
:104A800021FC14223046394602F02EFE304602F058
:104A900031FE05211022284602F032FE0121304667
:104AA00002F0F0FC0DB0F0BD03BA000055404D031C
:104AB0007C80002053757065725F536D6172745F06
:104AC0005261636B65740000AAB002F01FFE08908B
:104AD000EBA003F0C3FA13A80F30009024A80C3009
:104AE0000690002501200B900A950C9510952E46F6
:104AF0000F950D951195099504E000250A202E4685
:104B000002F0E2FB129600F0FBF9074600F0FCF918
:104B1000044610982E4685B202F0FEFD0E90AF427C
:104B20003546129E02D10F98844206D0E1480068B3
:104B30001190002510972E460F94384600F0EAF9A0
:104B40000028DAD0DB490868002800D11190F0076E
:104B500001D0119AAEE008462838006800220D9274
:104B6000D54A904200D097E00C681198844200D159
:104B700092E0002C00D18FE00120204000D08BE09B
:104B8000BFF35F8F0020CB4B19181839097824AA7E
:104B90001154401C1828F7D10020069E1918097ED0
:104BA0001BAA1154401C2428F8D1BFF35F8F18684A
:104BB000844211D1039424A80024C474C471BF4D4D
:104BC000296824A8FEF790FB002808D02D1D641C3E
:104BD000072CF5D1FF2003E000200D905CE0E0B24F
:104BE00007900024B54D29683046FEF77DFB00286C
:104BF00005D02D1D641C072CF5D1FF2600E0E6B280
:104C000000200D900798062846D8062E44D82998EB
:104C10000590269D00212846FEF70AFC00283BD17E
:104C20007F20C40528462146FEF710FC002833D11A
:104C300001960021059E30461291FEF7F9FB0028EF
:104C40002AD1029530462146FEF700FC002823D1E8
:104C50000497129E1BA8855928462146FEF7F6FBAD
:104C60000746401E874128461299FEF7E1FB0028BF
:104C70000B9800D1384600280BD1361D1C2EE9D1E7
:104C8000079DA8001BA908580299FEF7EDFB002814
:104C90006BD112980D90049F0D9A501E16468641B6
:104CA0001698C0B2811F48424841304000D1119A45
:104CB000464000250220F1071BD0119212902020BF
:104CC000411B38468FB2044600F038F9874200D3C2
:104CD0000746002F11D0A8B213A9091820463A465A
:104CE00000F038F90146002800D1ED1922460F46A0
:104CF00005E0119202F0E8FA04E700272246002FAF
:104D0000119C16D00C98002805D00A980E99081A04
:104D10000899884206D3ABB26CA0394602F054FF22
:104D20000E980A900C98401C0C900A2002F0CCFAC5
:104D300013E00D9841424141A8B220280B9A00D1BE
:104D40000A46002A00D10D9C203841424141099A6F
:104D500052180992411E884106401194002F129862
:104D600000D0CFE602F0B0FACCE6239E340C601EF1
:104D70008441019880001BA908580599FEF774FB2F
:104D800000280B98049F00D02046002812980D9010
:104D900082D10596002414940999080E13AEF0717F
:104DA000080CB071080A707131711694357315943E
:104DB0002298010EF172010CB172010A7172307207
:104DC00002983F49FEF7F7FA07462146FEF730FB07
:104DD00000281294254600D13D462846384C2146ED
:104DE000FEF734FB002800D12C463F21090620465F
:104DF0000D91FEF787FAFEF745FB7073129C1A942B
:104E00001994189417942F481390009E0DE028468B
:104E10000D99FEF777FAFEF735FB711E0870000A50
:104E20003070B61C241D1C2C15D01BA80059264917
:104E3000FEF7C1FA0546129F3946FEF7F9FA002837
:104E400000D12F463846204D2946FEF7FFFA0028AC
:104E5000DDD13D46DBE713A805990177090A4177C3
:104E600000210846039B13AA525C8018491C1E2986
:104E7000F9D113A98877000AC8770D930BE7C046CC
:104E800043502070696E706F6E207635207377699D
:104E90006E67207231303A205632206F6E65207076
:104EA00061636B657420706572206576656E740D44
:104EB00000000000285C012044524853C8800020B4
:104EC00000007F43AA55010200401C46424C452089
:104ED0006E6F74696679206661696C65643D256CE6
:104EE0007520636F6E6E3D2575206F666673657401
:104EF0003D25753B2072657472790D0A0000000033
:104F000080B5FFF701F980BD014800687047C046D1
:104F100048F60020B0B5002400280CD00546FFF765
:104F2000F3F8854207D122480088854203D1214801
:104F30000078012404402046B0BDC04680B502F090
:104F4000F1FB162802D8142080B280BDC01E80B2AA
:104F500080BD0000F0B581B00124002825D00029D3
:104F600023D0002A21D005460E461746FFF7CCF87D
:104F700085421AD10E480088854216D10D48007826
:104F8000C00712D0284602F0CDFB162801D8142005
:104F900000E0C01E80B2874207D822480188284618
:104FA0003B46324602F0C4FB0446204601B0F0BD49
:104FB00044F6002046F6002070B582B00124E102DC
:104FC0001448154A102300F0E9FB144E0025144B39
:104FD000284631462A4600F083FB002816D000956B
:104FE000019511200301701C81B228462A4600F069
:104FF0000BFB00280AD00B49088002F09FFB0A49EE
:105000000880002802D000F031FB2C46204602B078
:1050100070BDC046C0ED0020C0F50020F0FF0000CC
:10502000B484002042F6002040F6002003480449E2
:1050300001600448044901607047C046300B0020FD
:10504000A16F00202C0B0020C951002010B582B0A8
:105050000E490A68002A0CD00D490B881468E054E8
:1050600094885A1C93B2A34200D300220A8002B053
:1050700010BD01A90870074A1368012204461846AA
:1050800002F062FB204602B010BDC04608C20020FC
:10509000A8C2002010C200200148024901607047E8
:1050A000280B0020A950002080B5FEF7F3FB7D20DF
:1050B000800002F0AFF8FEF73DF880BD82B00A4DE7
:1050C0000AA403E00146204602F07EFD2868002283
:1050D000D343694602F034F90028F3D101990098CE
:1050E00002F038FBF2E7C04694AE00206C6C635FC0
:1050F0007461736B20676574206D736720666169E6
:105100006C65643A25750A0080B5FEF7EFFB02F086
:1051100027FB80BD10B5FFF7F3FE0024002801D067
:10512000204610BDFFF7CCFB0028F9D0FEF7A2FB0C
:105130000028F5D0FEF756FB02F018FB01242046AC
:1051400010BD000010B5094B1960094908700948E5
:10515000026001200024214602F02CF803210A22DB
:105160000523204602F0EEF910BDC046BCED00203C
:10517000FCC10020B8ED00208AB009A001AC214696
:105180002CC82CC12CC82CC12CC82CC102F0F4FA9C
:105190000C480021224602F09DF802F0F3FAFEE7E7
:1051A000778400200100000030ED00204400000062
:1051B000B8C2002000040000180000000000000039
:1051C00000000000653900200C460546FEF78EFB06
:1051D00006A002F043FF09A0294602F0F5FC0CA04E
:1051E000214602F0F1FCFEF755FBFEE76F732065E8
:1051F0007272206F6363757273000000636F646581
:1052000020202020203A203078253038580A00000D
:105210006F626A6563745F69643A2030782530385C
:10522000580A0000F0B583B01C4616460F4602909F
:1052300009891348089D2A4602F030F9F888C0050C
:1052400013D402943C8A0E48401C2146324602F098
:1052500025F9A01B81B2A94200D80546AAB27869F7
:1052600081190298FEF72EF807E039890095029817
:105270003246234600F0E4FD0546A8B203B0F0BD77
:1052800015510000F0B585B01D4616460F460121A8
:1052900001701478384602F07BFA002800D16EE0E5
:1052A000009701950746C8379D490546481C214689
:1052B00002F040F8D8350295601E512800D9D9E097
:1052C0004000C046784480884000874451005D001B
:1052D0006F0095009A00A100A700AE00B400BB00CB
:1052E000C000C700CC00D300D300D900DF00E60027
:1052F000EC00D300D300F300F90000010501D30056
:105300000C01D30013011A01D300D300D300D30042
:10531000D300D300D300D300D300D300D300D300F5
:10532000D300D300D300D300D300D300D300D300E5
:10533000D300D300D300D300D300D300D300D300D5
:10534000D300D300D300D300D300D300D300D300C5
:10535000D300D300D300D300D300D300D300D300B5
:10536000D300D300D300D300D300D300D3001E0159
:10537000029C20463146019A02F010FACBE06848C0
:1053800001F0F0FF05B0F0BD3846314602F00CFAEE
:105390000028029C00D0BEE004A90098088038884C
:1053A00048800A20042202F005FAB4E001213046C8
:1053B00002F006FA7A889042014600D311463A88F4
:1053C000914202D2172900D339803A7854498B1C74
:1053D000C1B2184602F050F80220B8713988009C1A
:1053E000204602F0F3F903A90C80388848800A208F
:1053F000042202F0DFF98DE03846314602F0ECF984
:1054000088E0029C20463146019A02F0EBF982E0E6
:1054100038463146019A02F0EBF97BE0029C2046C7
:105420003146019A02F0EAF975E038463146019AB0
:1054300000F0ECFA6EE0029C20463146019A02F040
:10544000E3F968E03846314600F0D6FB62E0029CA2
:1054500020463146019A02F0DDF95CE038463146DB
:1054600000F066FA56E0029C20463146019A02F0AE
:10547000D7F950E006223846214602F0D7F949E034
:1054800038463146019A02F0D7F943E0029C2046A3
:105490003146019A02F0D6F93DE038463146019A8C
:1054A00000F042FC36E0029C20463146019A02F0B0
:1054B000CFF930E038463146019A00F0D1F929E0C1
:1054C000029C20463146019A02F0C8F923E0384692
:1054D000314600F093F91DE0029C20463146019AC6
:1054E00002F0C2F917E0029C20463146019A02F010
:1054F000C1F910E0029C20463146019A02F0C0F941
:1055000009E0384600F0D4FB04E038463146019A01
:1055100000F0DDFB029C204602F0B8F905B0F0BDBA
:10552000145200000148024941607047BC0A002043
:105530008552002010B50C46C988C90503D52189BC
:1055400000F066FC208210BD0148024901617047ED
:10555000640900205955002001210170004870475E
:10556000FFFF000080B5114802F040F8104802F03B
:1055700043F8104802F046F80F4802F049F80F4887
:1055800002F04CF801F01AFA01F04AF801F032F892
:1055900000F09CFC01F034F801F012F800F09CFCE3
:1055A000FFF7D2FFFFF7BEFF80BDC046D5690020E0
:1055B000A16A00200D6A0020FD6A0020696A0020AF
:1055C000B0B501468B4A1088002810D013888A4A4B
:1055D0001468002204E00834521C9A42184608D28B
:1055E00025888D42F7D865888D42F4D302E00022E9
:1055F00000E01846D100804B1B6859184968002903
:1056000000D01046B0BDC046F0B581B01C4617466C
:105610000D461549079B069A00280DD00D46002F10
:105620001BD03846214602F037F90646681C102286
:10563000394601F02DFF0AE028460F46214602F0C8
:1056400031F90646B81C294601F074FE3D46E81CB7
:105650003146224601F022FF03E0284601F082FE97
:105660000026304601B0F0BDA5520000F0B581B073
:1056700060480188002912D002885F480368002032
:1056800004E00833401C9042114606D25C88002C8E
:10569000F7D11C88002CF4D002E0114600E0002075
:1056A0000E4C884206D181B2204601F043FE002014
:1056B00001B0F0BDC60002F0FBF805464E4F386859
:1056C0008019458002F0FAF80246601C294601F074
:1056D000E5FE38688019408801B0F0BDA352000093
:1056E000F0B583B001920E46424D2988002400296E
:1056F00002930FD0404A12681788002F0AD02988D9
:10570000083201231C468B4204D2631C17880832DE
:10571000002FF7D18C4205D1A1B21F4801F00AFE3B
:10572000002735E01C4D002813D02E46019D002D8A
:105730002AD00520C102284602F0C6F80746B01C50
:1057400010222946354601F0A3FE002F0DD1002777
:105750001EE00520C102304602F0BCF80746E81CF6
:10576000314601F0E7FD002FF1D0E0002249096841
:105770000F5208180299416000214180281DA2B2F1
:10578000394601F08BFE03E0701C01F0EBFD0027B1
:10579000384603B0F0BDC04699520000F0B581B064
:1057A000134D00281FD0002A1DD00C4600291AD006
:1057B000002B18D00F490B800F490A6000210F46BB
:1057C0000E46FF00D151761CF7B29F42F9D300225A
:1057D00000922146134602F083F8681C214601F02E
:1057E000A9FD01B0F0BD284601F0BCFD01B0F0BD3F
:1057F0009752000008AE00200CAE002070B582B0B9
:105800000E460446102002F071F800280AD0054622
:105810006189A0887278002300930193012A06D041
:10582000032205E00D4801F09DFD02B070BD02228B
:1058300000F026FB010607D0C3B21821002228463B
:1058400002F05AF8024602E0192028700122A088CE
:10585000294602F057F802B070BDC046235100003F
:10586000F0B58BB004920C4605460121204601F0AC
:10587000A7FF07460321204601F0A2FF03902E4612
:105880002888001D80B202F031F8002813D00546A8
:1058900005A8394602F03CF8002811D005A8C088B8
:1058A000010701D5C00512D4162128463A4602F058
:1058B00035F8024628E01D4801F054FD0BB0F0BD5C
:1058C000162128463A4602F02FF802461CE005A9A8
:1058D000304602F02FF8002801D003460EE0B088D1
:1058E0000499491F89B2621D009201910122394633
:1058F000039B00F0C5FA01060CD0C3B2162128465E
:105900003A4601F0F9FF0246B088294601F0FAFF55
:105910000BB0F0BD28462146049C2246FDF7D2FC80
:105920001720287077812246EEE7C04622510000FA
:10593000F0B589B00D4604460121284601F040FF2C
:1059400006460321284601F03BFF029003A831469A
:1059500001F0DEFF07462088001D80B201F0C6FF7F
:1059600000280CD00546002F0ED003A8C088800761
:1059700010D40C212846324601F0E2FF3BE02248D9
:1059800001F0F0FC09B0F0BD0C212846324601F0D0
:10599000CBFF30E003A9204601F0CCFF002806D061
:1059A00003460C212846324601F0A6FF23E0A088DA
:1059B00003AF3946FFF7BEFD388A029A824205D905
:1059C0000C212846324601F0C1FF14E0801A411C28
:1059D0002088814203DD1018401E03A90882079821
:1059E000801A81B2A08800916B1C03A9FFF71AFCF2
:1059F0000D212970401CA18882B20846294601F079
:105A000081FF09B0F0BDC0461F510000F0B591B054
:105A100014460E46074601213046099101F0D0FE9A
:105A200005460321304601F0CBFE024671480A9537
:105A300029460546089201F031FD7279681C21461D
:105A400001F02CFD07973888001D80B201F04EFF51
:105A5000002804D00746082C06D3102005E0A81C17
:105A600001F080FC11B0F0BD022006900A9A08995E
:105A7000501E80B288420AD2701D05900BA801F01A
:105A80006BFF002603960296099804900FE0082108
:105A9000384601F049FF9EE00BA9079C204601F023
:105AA00049FF002834D00390099C002C75D10BA825
:105AB00001F058FF002870D00BAC204601F058FFD1
:105AC0002289A188E81C01F0E9FC0E980178407851
:105AD0000002401882B2E188281D01F0DFFC208915
:105AE0000028E1D000240A998842DED30899884230
:105AF000DAD80BA80599069A01F040FF0028D4D007
:105B00000BA8C0888007C7D43004CED10D9ECCE747
:105B1000A0880BA9FFF70EFD0F98801C049989B28D
:105B200000220392022904D382B2029B9BB29342C9
:105B3000BAD1012903D17870049B5B1C01E0049B5E
:105B40000298029080B299B20A1820888242049387
:105B500006D90229A8D8001F0BAA1082801C7870D1
:105B60000BAC2289384601F00FFF07988088218A04
:105B700000910499891C049189B27B180022039238
:105B80002146FFF74FFB0446681D214601F0D2FB7A
:105B9000049820180490039C87E7049988B202288F
:105BA00002D30920387017E00399080606D0CBB25B
:105BB000082138460A9A01F09FFE0CE0300405D017
:105BC000B2B20821384601F0BBFE04E00821384695
:105BD0000A9A01F0DFFE0146A81D8CB2214601F0B1
:105BE000A9FB079880883946224601F08BFE11B048
:105BF000F0BDC04617510000F0B587B00A46044614
:105C00000121104601F0DCFD064601A8314601F0F5
:105C10007FFE07462088001D80B201F067FE002845
:105C20000CD00546002F0ED001A8C088800710D4E4
:105C30000A212846324601F083FE2EE01B4801F07F
:105C400091FB07B0F0BD0A212846324601F06CFEF8
:105C500023E001A9204601F06DFE002806D003468E
:105C60000A212846324601F047FE16E0A08801AE20
:105C70003146FFF75FFC2088318A814202D3401E03
:105C800001A90882A08801A90A8A00926B1C00223F
:105C9000FFF7C8FA0B212970401CA18882B2084680
:105CA000294601F02FFE07B0F0BDC0461E5100008E
:105CB00080B582B00189002907D000230381808844
:105CC00000930193042200F0DBF802B080BDF0B530
:105CD00089B015460C4607460121204601F070FDAB
:105CE000064603A8314601F013FE00280CD04120DF
:105CF000800003A9C9880140814205D103A9384623
:105D000001F018FE002801D009B0F0BDB888E91EE6
:105D100089B2E21C0092019100223146134600F044
:105D2000AFF809B0F0BD0000F0B58BB003920C469F
:105D3000074601260846314601F042FD014605A806
:105D4000049101F0E5FD0546102001F0CFFD00288B
:105D50000CD0002D0FD005A9CA8811073D4613D4D9
:105D600012210446049A01F0D9FD1AE0274801F0F7
:105D7000F9FA0BB0F0BD12210446049A01F0D4FDEB
:105D8000214606463D460EE005A9D20511D4098AF2
:105D9000C91C039B99420CD212210446049A01F0BB
:105DA000FFFD21460646A888324601F0ABFD0BB048
:105DB000F0BD002AD4D5074605A9284601F0BAFD52
:105DC000002805D0034612213C463846049A13E0C9
:105DD000A8880399C91E89B2E21C00920191002291
:105DE000049C2146134600F04BF8010609D0C3B2CB
:105DF000122122463C46384601F07EFD39460646D1
:105E0000D1E7132039463870CDE7C0462151000054
:105E1000B0B50C4605460846FFF7D2FB01462948B7
:105E20000288002091420AD0C900274A12685118FE
:105E300049680A68002A02D0284621469047B0BD2A
:105E4000F0B581B01C4615460E4607460846FFF7DA
:105E5000B7FB01461B480288002091420ED0234622
:105E6000C900194A1268511849684C68002C05D0BD
:105E700006980090384631462A46A04701B0F0BD4A
:105E8000F0B583B01C4615460E4607460846FFF798
:105E900097FB01460B4802880020914210D0234610
:105EA000C900094A1268511849688C68002C07D04B
:105EB0000998089900910190384631462A46A04732
:105EC00003B0F0BD08AE00200CAE00200848014928
:105ED000C1647047FD620020092040010449054A61
:105EE0000A50E2480021044A026041607047C046FF
:105EF000500B0020396B0020ED490000F0B587B051
:105F00000546D8482E184520000128180290F84868
:105F10002B5C0391497B9768D0682C4650340278FB
:105F2000002B45D0002965D0092A00D0B1E0FF211F
:105F300009020F40092109028F4200D0FCE0027AD9
:105F400004A90A72027943791B029A188379C579E8
:105F50002D02EB181B049A180592027843781B0255
:105F60009A188378C0780002C01800048018049042
:105F7000481C01F01BFD07460D460120307000262D
:105F8000039A967210208143B9482F303840029B03
:105F900003C3517BB448401C01F0CCF9B64A3A40E7
:105FA00051208543218830462B4601F005FD55E1FF
:105FB000002970D0092A00D1CAE0072A00D008E1E0
:105FC000FF231B021F40012673029F4200D015E1F0
:105FD00040780E2800D041E1002603988672A2483E
:105FE000401D01F0A7F921881A203246334601F0FE
:105FF000E3FC33E10E2A00D09CE0FF210902394086
:1060000009231B02994200D0E7E0027A04A90A7230
:10601000027943791B029A188379C4792402E31820
:106020001B049A180592027843781B029A18837809
:10603000C0780002C018000480180490481C01F0C9
:10604000B5FC0191894A0ACA894A0090084011406A
:106050002F2404400A191027BB43284601F0B2FC44
:10606000002800D1F7E00246F84301213170814950
:1060700091610399D161019B034000987C4E3040AF
:106080000443029804604360284601F0A1FC002606
:10609000E4E00126E2E0082A00D09CE0FF210902AA
:1060A000394009231B02994200D0C1E0027A04A9B9
:1060B0000A72027943791B029A188379C4792402FF
:1060C000E3181B049A180592027843781B029A1869
:1060D0008378C0780002C018000480180490481C1F
:1060E00001F064FC0191614A0ACA614A00900840CB
:1060F00011402F2404400A191027BB43284601F001
:1061000061FC002800D1A8E00246F843012131706B
:10611000584991610399D161019B03400098544E05
:1061200030400443029804604360284601F050FC6C
:10613000002693E0012691E02846039C214601F0C9
:106140004DFC0026A672617B474801F0F3F885E01C
:10615000FF2109020F4009210902434B8F425AD106
:10616000027A04A90A72027943791B029A18837988
:10617000C5792D02EB181B049A1805920278437812
:106180001B029A188378C0780002C0180004801897
:106190000490481C01F00AFC07460D4601203070AF
:1061A0000026039A96721020814331482F303840E0
:1061B000029B03C3517B2C48C01D01F0BBF82E4A43
:1061C0003A4051208543218830462B4601F0F4FBAC
:1061D00044E0012642E0012640E02846039D29468E
:1061E00001F0FCFB204CA01C394601F0FDFB002611
:1061F000AE72697BE01C01F09DF82FE02846039CFD
:10620000214601F0EBFB0026A672617B1648001DBB
:1062100001F090F822E02846039C21461D4601F03B
:10622000DDFB0026A672617BA81D01F083F815E056
:106230002846039C214601F0D1FB0B4D284608302F
:10624000394601F0D1FB0026A672617B093528464C
:1062500001F070F802E0022600E00226304607B0A6
:10626000F0BDC04649040000CE36000010AE00204C
:1062700000CF87F7A98002002FCF87F770B50028DD
:1062800010D00D4600290DD0002A0BD0D168097816
:1062900000240E290FD0082927D11549405C002879
:1062A00023D10CE01620492100242246234601F088
:1062B000A1FB204670BD0E49405C002815D001248A
:1062C0002C730026EE72FF2004302881304601F046
:1062D00097FB03C50748EE806E716E61AE61E861A1
:1062E000AC700548314601F025F8204670BDC04627
:1062F00051030000FD5E0020CD36000010B50446BD
:1063000000F026FD002802D00C21012006E000F05C
:10631000F9FC002801D1014600E00C21207008465C
:1063200010BD000010B50A46002911D00446906B3C
:1063300000280DD0107C072811D0062816D005287B
:106340001DD110480068D060104600F023FD13E016
:106350008520C1001C20002301F04CFB10BD094822
:106360000068D060104600F019FD05E0054800689F
:10637000D060104600F018FD0120207010BD0020F4
:10638000207010BD50080020B0B50D4600290FD078
:106390000446A86B00280BD0287C07280FD00628BD
:1063A00012D0052817D12846114600F0F4FC0FE062
:1063B0001C200A4900232A4601F01CFBB0BD2846D8
:1063C000114600F0EEFC03E02846114600F0F6FC12
:1063D00001202070B0BD00202070B0BD8D040000F1
:1063E00010B50A46002918D00446906B002814D036
:1063F000107C072817D0062823D0052831D1404823
:106400000178D068484318490968884200D8014695
:10641000D160104600F0C0FC20E01C20134900238E
:1064200001F0E8FA10BD36480178D06848430E49BB
:106430000968884200D80146D160104600F0B2FCDD
:106440000CE02F480178D068484307490968884222
:1064500000D80146D160104600F0CFFC012020702A
:1064600010BD0020207010BD54080020530400000F
:10647000B0B50D46002919D00446A86B002815D0E8
:10648000287C072819D0062826D0052835D1E868A9
:106490001B490978FDF70FF81A490968884200D3AB
:1064A0000146E960284600F078FC23E01C201649EC
:1064B00000232A4601F09EFAB0BDE8681049097829
:1064C000FCF7F9FF0F490968884200D30146E960EB
:1064D000284600F068FC0DE0E86809490978FCF7F7
:1064E000EAFF08490968884200D30146E960284666
:1064F00000F096FC01202070B0BD00202070B0BDDF
:106500005C08002058080020B5040000B0B504461F
:10651000012500F085FB002801D0284608E000F0A6
:1065200017FC002801D0012002E000F0EBFB05463B
:1065300020702846B0BD70B504460C26012500F039
:10654000A3FB00280BD100F010FC002807D100F0BD
:10655000E6FB0546002801D12E4600E00C262570FA
:10656000304670BD70B504460C26012500F08CFB4A
:1065700000280BD100F0F9FB002807D100F0CFFB79
:106580000546002801D12E4600E00C262570304635
:1065900070BD10B5044600F077FB002803D100F071
:1065A000E4FB002803D0002020700C2010BD00F078
:1065B000B6FB00212170002800D00C2010BD000087
:1065C000152000011249074A0A5053208000064A4C
:1065D0000A502920C000054A0A5051208000044A70
:1065E0000A5070477164002089630020E163002035
:1065F0002563002006480149016670470D650020AB
:1066000003480449044A054B8363C263016470472D
:10661000500B002093650020376500206565002041
:1066200070470000B0B584B0002808D004468168E7
:10663000022001F0EBF9002804D004B0B0BD042022
:1066400004B0B0BDE389A289607C014601F0E4F9A1
:106650000028F2D16269A369217C607C0125009544
:10666000019002900025284601F0DCF90028E4D1D1
:10667000206A01F0DDF90028DFD1A18B606A01F00A
:10668000DDF90028D9D106480570627C03CC01F001
:10669000DBF90028D1D101F0DDF9284604B0B0BD06
:1066A0000C0D002070B501260670274800780024E4
:1066B000002801D0204670BDEFF31085EFF3108065
:1066C00072B601F0CDF900280CD0344C20780028A7
:1066D00004D11F4801F0CAF90120207085F3108809
:1066E000012070BD2F490846683800682B4A12788F
:1066F000002A1DD030401BD0052208680B68984244
:1067000004D0531E12061A46F7D1FF22110613D0E9
:1067100023490968814213D90C4A128885F31088ED
:10672000081A5109884200D800263446204670BD18
:1067300085F31088204670BD85F31088204670BD13
:1067400085F31088204670BD5F09002022080020D4
:10675000FFFFFF1FB0B501210170EFF31084EFF3CD
:10676000108072B60D4D2878002813D00C480068B0
:106770000C490968814205D2491D814204D201F0C9
:106780007BF905E0642001E04B20800000F042FD31
:106790000020287084F31088B0BDC0465B0900203B
:1067A00080000040E8010040B0B584B0002808D067
:1067B00004468168042001F029F9002804D004B0BF
:1067C000B0BD042004B0B0BDE389A289607C01465D
:1067D00001F022F90028F2D16269A369217C607C72
:1067E00001250095019002900025284601F01AF934
:1067F0000028E4D1206A01F01BF90028DFD1A18B29
:10680000606A01F01BF90028D9D103CC627A01F04B
:1068100039F90028D3D10348057001F039F9284629
:1068200004B0B0BD9C0D002070B584B0002808D025
:1068300004468168062001F0E9F8002804D004B07D
:1068400070BD042004B070BDE389A289A17C607C86
:1068500001F0E2F80028F2D16269A369217C607C32
:10686000A57C01260096019002950025284601F09E
:10687000D9F80028E3D1206A01F0DAF80028DED147
:10688000A18B606A01F0DAF80028D8D103CC627AD3
:1068900001F0DAF80028D2D10348057001F0FEF8C3
:1068A000284604B070BDC0469D0D0020B0B584B030
:1068B000002808D004468168032001F0A7F80028CA
:1068C00004D004B0B0BD042004B0B0BDE389A289F7
:1068D000607C014601F0A0F80028F2D16269A3694A
:1068E000217C607C012500950190029000252846BE
:1068F00001F098F80028E4D1206A01F099F8002806
:10690000DFD1A18B606A01F099F80028D9D103CCBE
:10691000627A01F0B7F80028D3D10348057001F07E
:10692000C3F8284604B0B0BDBC0D002070B584B0DB
:10693000002808D004468168052001F067F8002887
:1069400004D004B070BD042004B070BD638A228AF4
:10695000A17D607D01F060F80028F2D1A17DE068A2
:1069600001F0A8F80028ECD1A269E369217D607DDF
:10697000A57D01260096019002950025284601F08C
:1069800051F80028DDD1606A01F052F80028D8D112
:10699000218CA06A01F052F80028D2D103CCA27B4E
:1069A00001F070F80028CCD10348057001F088F898
:1069B000284604B070BDC046BD0D00200248034902
:1069C0008164034941657047200D00205567002010
:1069D000A566002070B50546554E3068002801D0E8
:1069E000012070BD01F072F82846FFF71BFE044637
:1069F000002801D0204670BD0348306003CD01F06F
:106A00006BF8204670BDC04684270200F0B581B007
:106A10000446474F3868002801D001261EE001F0E7
:106A200055F803CC637A00252A46083C01F05AF851
:106A300003C42068627A2946083C01F059F8A06036
:106A40002046FFF7B1FE0646284601F057F8002E13
:106A500004D10448386003CC01F03EF8304601B060
:106A6000F0BDC046D427020070B50546304E3068F0
:106A7000002801D0012070BD01F028F82846FFF75A
:106A8000D3FE0446002801D0204670BD0348306084
:106A900003CD01F021F8204670BDC046E427020076
:106AA000F0B581B00446224F3868002801D0012695
:106AB0001EE001F00BF803CC637A00252A46083C5F
:106AC00001F010F803C42068627A2946083C01F0FE
:106AD0000FF8A0602046FFF7E9FE0646284601F0C1
:106AE0000DF8002E04D10448386003CC00F0F4FF08
:106AF000304601B0F0BDC046F427020070B505462F
:106B00000B4E3068002801D0012070BD00F0DEFF80
:106B10002846FFF70BFF0446002801D0204670BD31
:106B20000448306003CD00F0D7FF204670BDC0465A
:106B3000C00D002004280200B0B501230370D06806
:106B400004780020162C35D87123DB00CB18C04602
:106B50007C4424796400A744151A2D0B2D2D2D2D6E
:106B6000102D0B2D1F2D102D2D2D2D2D242D2900F9
:106B70000846194600F0C8FFB0BD08461946FFF7A1
:106B80007DFBB0BD0846194600F0C4FFB0BD084605
:106B9000194600F0C5FFB0BD0846194600F0C6FF13
:106BA000B0BD0846194600F0C7FFB0BD08461946FB
:106BB00000F0C8FFB0BD000080B500F0C9FF00F0D4
:106BC000CDFF00F0D1FF002800D080BD00F0D2FF43
:106BD000054800F0D5FF022000F068FD0B2000F012
:106BE000D5FF002080BDC04620F501000849096896
:106BF0000A4A1278824203D80020002907D105E012
:106C00003522D20042438818002900D10846704737
:106C1000309B0020014800787047C0460AAE002033
:106C2000F0B581B0FFF7F6FF002827D00446002515
:106C30000126E8B2FFF7DAFF00280FD0993001787B
:106C4000002907D04078002804D0002037460028CB
:106C50000FD114E0304600280BD110E09120010143
:106C60001E202A46234600F0C5FE0027384600288D
:106C700005D06D1CAC42DCD1002700E000270120CC
:106C8000384001B0F0BD0000F0B581B0FFF7C2FFA1
:106C9000002828D0044600250126E8B2FFF7A6FF09
:106CA00000280DD08D30017B002905D0417B0029C3
:106CB00002D00078002811D0304600280AD115E013
:106CC0001E200C492A46234600F094FE0027384631
:106CD00000280BD06D1CAC42DFD106E00020374607
:106CE0000028F7D102E0002700E00027012038400B
:106CF00001B0F0BD26090000014800687047C04699
:106D0000349B002080B5FFF7F7FF002805D0332122
:106D1000C900405C411E884180BD002080BD80B517
:106D2000FFF7EAFF0146002000290AD03322D200F3
:106D30008A181278002A04D091310878411E4842FE
:106D4000484180BD014800687047C046389B00201C
:106D500080B5FFF7F7FF002805D047218900405C88
:106D6000411E884180BD002080BD80B5FFF7EAFF4D
:106D70000146002000290CD0472292008A18127880
:106D8000002A06D0A531097802220A43032A00D13D
:106D9000012080BD7047704770477047172181748C
:106DA0007047704770477047FF217431826B6423CE
:106DB00053548374501819214170704770B50A46B6
:106DC0000446FF2108462030A36B1E18B92040005E
:106DD0001D18185C002807D0FF2A00D8D1B26878A7
:106DE0001A2200F036F868703078002801D00120AF
:106DF00000E00220285CA07470BDB0B50446FF20FE
:106E0000A16B024620328A5C002A08D074300D182B
:106E1000287801211A2200F01CF82870A074B0BD57
:106E2000B0B50446FF20A16B024620328A5C002ADE
:106E300008D074300D1828783221642200F003F84D
:106E40002870A074B0BD4018904200D80246D0B25D
:106E500070475318834200D2421AD0B270470000E4
:106E6000F0B585B00646EFF3058002ACA670218030
:106E7000E27000250395002800D1ED432A4F002A37
:106E80002BD00193242A15D80092294F386800216D
:106E900000F082FE0390002808D1244F38680024B7
:106EA000214600F079FE0390002836D0386804901F
:106EB00003980DE0802A27D800921C4F38680024E0
:106EC000214600F069FE0390002823D03968049120
:106ED0000199009AFCF7F6F9134FF81C314600F0BF
:106EE00029FA1448006802A9002632462B4600F011
:106EF00059FE44424441002812D03A1D81B2104646
:106F000000F018FA34460BE0B81C114600F012FAF3
:106F1000002405E00448401C00E0034800F022FA89
:106F2000204605B0F0BDC0460460000000C200204D
:106F300004C200203C85002010B582B00191009071
:106F40000022EFF30580002801D0134600E0D34370
:106F500007480068694600F025FE0446002803D073
:106F600004A0214600F030FE6042604102B010BD36
:106F700094AE0020626C655F7461736B5F73656EC5
:106F8000645F6D73675F746F5F6C6C635F74617374
:106F90006B206661696C65643A25750A0000000023
:106FA0001C4615460E460746FCF7A0FC07A001F05C
:106FB00055F80BA03946324600F006FE10A02946CF
:106FC000224600F001FEFCF765FCFEE7737973745E
:106FD000656D206572726F72206F636375727300E6
:106FE0007531364572724D6F64756C653A25752042
:106FF0007531364572724C696E653A25750A000026
:10700000753332457272496E666F313A2575207557
:107010003332457272496E666F323A25750A000046
:10702000F0B585B00446407D217D01290CD1EFF3F8
:107030001081EFF3108272B600222275626822601E
:10704000626A226281F3108800280AD0EFF310816F
:10705000EFF3108272B600226275E27DA27581F3B1
:107060001088A17D02291DD000295AD1EFF310808C
:10707000EFF3108172B6E16A002901D0A26A8A6238
:107080002C4A1368A34201D1A36A13602A4A1368E9
:10709000A34200D1116080F310880020A062E0625A
:1070A00005B0F0BD00280BD027690297206800903A
:1070B00003A800F07DFD0398012813D11B4D14E0B7
:1070C000207E01282BD100200290174802A900F051
:1070D000ADF820680090029F04A800F069FD0498B4
:1070E0000128EBD000F06AFD0546114806880580AE
:1070F0000197E7607D2042030027009839463B4610
:10710000FCF7C8F8002E01D0721955082A463B46F4
:10711000FCF790F801990818A06005B0F0BD0120B7
:10712000A07505B0F0BDC04600300560127A0000C1
:10713000ACC200209CC20020A0C2002019480088D8
:10714000081A4142414148007047C0460020009A59
:10715000022A0BD3002B09D0124A1288914205D182
:107160000020587011480078187002207047C046FF
:10717000019A022A13D1002B11D1009A002A0ED0B5
:10718000084B1B8899420AD10749088010780121D1
:1071900001400648017006480168491C0160002052
:1071A0007047C04640F6002044F6002046F6002016
:1071B00048F6002003B40148019001BD39C4010024
:1071C00003B40148019001BD43F9010003B4014833
:1071D000019001BD33F9010003B40148019001BDE4
:1071E000610E020003B40148019001BD45A30100F6
:1071F00003B40148019001BDADA0010003B40148F2
:10720000019001BD65BF010003B40148019001BDBB
:10721000BDBD010003B40148019001BD51F8020059
:1072200003B40148019001BD1DBF010003B4014832
:10723000019001BD45BF010003B40148019001BDAB
:10724000CDBF010003B40148019001BD698D01006B
:1072500003B40148019001BD058F010003B401484A
:10726000019001BDE971010003B40148019001BD25
:1072700079DC010003B40148019001BD55720100A1
:1072800003B40148019001BD858E010003B401489B
:10729000019001BD89DB010003B40148019001BDEB
:1072A000ADC3010003B40148019001BD43D7010003
:1072B00003B40148019001BD41F9020003B4014843
:1072C000019001BD89C2010003B40148019001BDD4
:1072D000BD0D010003B40148019001BD1D23010053
:1072E00003B40148019001BD0922010003B4014823
:1072F000019001BDD123010003B40148019001BDFB
:1073000079C0010003B40148019001BDBDBE010078
:1073100003B40148019001BD81BE010003B40148DE
:10732000019001BDF9BD010003B40148019001BD08
:10733000D9C0010003B40148019001BDFDF602006F
:1073400003B40148019001BDF912010003B40148E2
:10735000019001BDB9A0030003B40148019001BD33
:10736000A511010003B40148019001BDE9F6020036
:1073700003B40148019001BD3594020003B40148F3
:10738000019001BD25AA020003B40148019001BD8E
:1073900049A0020003B40148019001BDCD390200AB
:1073A00003B40148019001BD7DDC020003B4014833
:1073B000019001BD11F4020003B40148019001BD28
:1073C00015D0020003B40148019001BD192C020040
:1073D00003B40148019001BD1959020003B40148EA
:1073E000019001BD5129020003B40148019001BD83
:1073F0002982020003B40148019001BD011401007B
:1074000003B40148019001BDC5DF020003B4014887
:10741000019001BD6118020003B40148019001BD53
:107420002D20020003B40148019001BDFD2302009C
:1074300003B40148019001BD6982020003B4014810
:10744000019001BDB13C030003B40148019001BDAE
:1074500003F9020003B40148019001BD61F7020085
:1074600003B40148019001BD39F7020003B401489B
:10747000019001BD25F7020003B40148019001BD50
:10748000C5F7020003B40148019001BDC923030000
:1074900003B40148019001BDD9F7020003B40148CB
:1074A000019001BD11F7020003B40148019001BD34
:1074B000D505030003B40148019001BD9D120100F0
:1074C00003B40148019001BD51EC030003B401482D
:1074D000019001BDE105030003B40148019001BD25
:1074E0006D18030003B40148019001BDB95A0300AF
:1074F00003B40148019001BDDD59030003B4014804
:10750000019001BD8518030003B40148019001BD3D
:10751000AF28030003B40148019001BDFD0503003D
:1075200003B40148019001BD0506030003B40148FE
:10753000019001BDF505030003B40148019001BDB0
:10754000ED05030003B40148019001BD89A60100C7
:1075500003B40148019001BDF11A020003B40148CF
:10756000019001BD7923020003B40148019001BDDF
:107570007520020003B40148019001BD39200200CA
:1075800003B40148019001BD4520020003B4014845
:10759000019001BD8120020003B40148019001BDAA
:1075A0006920020003B40148019001BD512002008E
:1075B00003B40148019001BD5D20020003B40148FD
:1075C000019001BD31E0020003B40148019001BD0A
:1075D00019E0020003B40148019001BD25E002005A
:1075E00003B40148019001BDB9DF020003B40148B2
:1075F000019001BDD1DF020003B40148019001BD3B
:10760000F5DF020003B40148019001BDDDDF020097
:1076100003B40148019001BD01E0020003B4014838
:10762000019001BDE9DF020003B40148019001BDF2
:107630000DE0020003B40148019001BD49E00200E1
:1076400003B40148019001BD3DE0020003B40148CC
:10765000019001BDADDF020003B40148019001BDFE
:107660005DE9030003B40148019001BD75E9030021
:1076700003B40148019001BD69E9030003B4014866
:10768000019001BD51E9030003B40148019001BD1F
:1076900045E9030003B40148019001BD49E203003C
:1076A00003B40148019001BD55E2030003B4014851
:1076B000019001BD0559010003B40148019001BDCD
:1076C000F57E010003B40148019001BD7927030054
:1076D00003B40148019001BDE523030003B4014850
:1076E000019001BD8D23030003B40148019001BD49
:1076F0005D28030003B40148019001BD9F280300E9
:1077000003B40148019001BDEB28030003B4014814
:10771000019001BD2910010003B40148019001BD91
:107720000510010003B40148019001BD5D22030072
:1077300003B40148019001BD253D030003B4014895
:10774000019001BD513A030003B40148019001BD0D
:107750007DDE010003B40148019001BDA5BC02001B
:1077600003B40148019001BD7D08010003B4014844
:10777000019001BD6108010003B40148019001BD01
:107780004D10010003B40148019001BDE11001005A
:1077900003B40148019001BDD952030003B401486C
:1077A000019001BD3930030003B40148019001BDCF
:1077B0002944030003B40148019001BDB105030051
:1077C00003B40148019001BD99A7030003B4014827
:1077D000019001BDA530030003B40148019001BD33
:1077E0004946030003B40148019001BD89310300FB
:1077F00003B40148019001BDED44030003B4014806
:10780000019001BD0931030003B40148019001BD9D
:10781000E132030003B40148019001BDA934030023
:1078200003B40148019001BD3532030003B401489F
:10783000019001BD814E030003B40148019001BDD8
:107840003549030003B40148019001BD69320300CA
:1078500003B40148019001BDB135030003B40148F0
:10786000019001BDC331030003B40148019001BD83
:10787000DD30030003B40148019001BD8D350300E4
:1078800003B40148019001BD5935030003B4014818
:10789000019001BD0936030003B40148019001BD08
:1078A000F50B030003B40148019001BD410C030036
:1078B00003B40148019001BDE10C030003B4014889
:1078C000019001BDF10C030003B40148019001BD1A
:1078D000910C030003B40148019001BDA30C030007
:1078E00003B40148019001BD110D030003B4014828
:1078F000019001BDC15D030003B40148019001BDC9
:107900003166030003B40148019001BDED16030088
:1079100003B40148019001BD190F030003B40148ED
:10792000019001BD8766030003B40148019001BDC9
:107930005766030003B40148019001BD4D170300D1
:1079400003B40148019001BD7B66030003B4014804
:10795000019001BD6366030003B40148019001BDBD
:107960001D10030003B40148019001BD1510030070
:1079700003B40148019001BDAF0F030003B40148F7
:10798000019001BD2910030003B40148019001BD1D
:10799000D1A7030003B40148019001BD4B66030069
:1079A00003B40148019001BD6F66030003B40148B0
:1079B000019001BD57EF020003B40148019001BDE1
:1079C000DDE0030003B40148019001BDFD7A02002F
:1079D00003B40148019001BDCD52020003B4014837
:1079E000019001BD0552020003B40148019001BDA0
:1079F0004DF7020003B40148019001BD6942010046
:107A000003B40148019001BD31EE020003B4014806
:107A1000019001BDA117020003B40148019001BD0E
:107A2000DD10020003B40148019001BDF115020010
:107A300003B40148019001BD4917020003B4014895
:107A4000019001BD4913020003B40148019001BD3A
:107A50007115020003B40148019001BD9D0F0200A1
:107A600003B40148019001BDE11A020003B40148CA
:107A7000019001BD1D18020003B40148019001BD31
:107A80004D18020003B40148019001BD911202009B
:107A900003B40148019001BDF111020003B4014893
:107AA000019001BD3512020003B40148019001BDEF
:107AB000D513020003B40148019001BD6114020016
:107AC00003B40148019001BD1514020003B401483C
:107AD000019001BD1124020003B40148019001BDD1
:107AE000E922020003B40148019001BD3D1E0200DD
:107AF00003B40148019001BD751E020003B40148A2
:107B0000019001BDC91D020003B40148019001BDEF
:107B10002178020003B40148019001BD85430200B1
:107B200003B40148019001BDB12D020003B4014826
:107B3000019001BD11F1020003B40148019001BDA3
:107B4000C961020003B40148019001BDE9C002000F
:107B500003B40148019001BD5D52010003B4014826
:107B6000019001BD5D58010003B40148019001BDC1
:107B7000D953010003B40148019001BDE95501004A
:107B800003B40148019001BD195A010003B4014832
:107B9000019001BD91B2010003B40148019001BD03
:107BA0004D11010003B40148019001BD35140100DD
:107BB00003B40148019001BDED72010003B4014816
:107BC000019001BDBD7201000FB410B503A9044BB3
:107BD000044A029800F008F810BC08BC04B018472A
:107BE0004D500020A8840020FFB591B00F460546F7
:107BF000002606E025280AD0149A139990476D1C98
:107C0000761C28780028F5D1304615B0F0BD002448
:107C100000940121F34A029400E004436D1C2B7888
:107C20000846203B98401042F7D128782A280ED0E9
:107C3000022128780246303A092A15D8009A0A23E8
:107C40005A43303A80180C436D1C0090F1E701CF85
:107C50000090002805DA01204003044300984042C8
:107C60000090022004436D1C28782E2815D1042092
:107C7000044368786D1C2A280AD101CF6D1C02903C
:107C80000BE002990A225143303940186D1C0290D2
:107C90002878014630390929F3D928786C2810D082
:107CA00006DC4C281AD068280ED06A2817D104E0C8
:107CB000742813D07A2812D110E001204005044323
:107CC0000CE00121090501E0032109050C43697855
:107CD000814203D10120000524186D1C6D1C2878F9
:107CE00003906E281ED00CDC632831D004DC002801
:107CF0008AD0582811D1B2E064287BD069280CD1F1
:107D000078E073282DD004DC6F2870D0702804D15F
:107D1000A7E075286CD078286BD0149A13999047F7
:107D2000761C62E06002400F022807D003280AD0C8
:107D3000042838680AD006603F1D56E03868F117FD
:107D400006604160F8E738680680F5E70670F3E7FB
:107D50003878694608740020487404A8039001200C
:107D600003E0386803900020C0433F1D61070FD532
:107D7000002101E00199491C029A0191914213DA14
:107D80008142F7DB019A0399895C0029F2D10BE06B
:107D9000002101E00199491C01918142FADB019A1D
:107DA0000399895C0029F5D101990098139A401A2A
:107DB00000902146149B00F03BF901998019461868
:107DC00007E0039803990078491C0391149A1399CA
:107DD00090470198401E0190401CF2D12146149B0F
:107DE000139A009800F014F986196D1C09E741E018
:107DF00033E034E00A200021049005916002410F35
:107E0000022905D001CFC2179446032905D007E007
:107E1000FF1DFF08FF0003CF06E000B2C217944623
:107E2000042902D140B2C1178C4600226146944514
:107E300006DA0A460021404291418C462D2102E09B
:107E4000210504D52B216A461176012103E0E107C3
:107E500001D02021F7E7019154E00A200BE0102027
:107E600009E010200490002104200443082005911B
:107E7000029003E008200021059104906002410F68
:107E8000022905D001CF00229446032906D006E03E
:107E9000FF1DFF08FF0003CF8C4603E080B20429DA
:107EA00000D1C0B20021019121072BD5039970297F
:107EB00006D0049A1021059B4A401A4305D00EE0D3
:107EC00040216A461176012108E06146014306D04F
:107ED00030216A4611760399517602210191049A64
:107EE0000821059B4A401A430CD16146014301D148
:107EF000610707D530216A46117601210191029967
:107F0000491E02910399582904D037A103910FA962
:107F10000F910DE039A1F9E76146059B049AFBF743
:107F200089F9039B8C469B5C0F9A521E0F9213702B
:107F300061460143F0D10F9807A9081A2030039039
:107F4000600704D5012000048443029801E0012069
:107F500002900399884201DD401A00E00020411898
:107F60000290019809180098401A0090E00306D486
:107F70002146149B139A009800F05AF886190020A5
:107F8000049008E006A9085C149A13999047049895
:107F9000401C761C049001998842F3DBE0030CD569
:107FA0002146149B139A009800F042F8861904E0C9
:107FB000149A302013999047761C0299481E02901B
:107FC0000029F5DC08E00F980F990078491C0F9103
:107FD000149A13999047761C0399481E0390002920
:107FE000F1DCFBE609280100303132333435363715
:107FF00038396162636465660000000030313233F5
:108000003435363738394142434445460000000094
:10801000F8B5044600251E461746880404D405E03A
:1080200039462020B0476D1C641EF9D52846F8BD9E
:10803000FFB50446002581B01E46C80301D5302790
:1080400000E02027880404D505E038460399B047AE
:108050006D1C641EF9D5284605B0F0BD10B5044668
:1080600001E0FCF7F3FF2078641C03490028F8D1F5
:108070000A20FCF7EBFF10BDA8840020A000A000A0
:108080000002000000000000000700002F82002016
:108090000100000018AE00204400000098B300204A
:1080A00000080000200000000000000000000000A8
:1080B0001C8200200000000060AE002034000000A0
:1080C00098AE002000050000808400208B840020F2
:1080D00091840020838400208E84002094840020DA
:1080E00086840020953F0020C94000200000000049
:1080F00095450020A145002059460020FE006578E6
:10810000706572696D656E74616C00004669726DB0
:1081100077617265205265766973696F6E00000041
:108120004861726477617265205265766973696F20
:108130006E0000004D616E756661637475726572E4
:10814000204E616D650000004D6F64656C204E75BA
:108150006D6265720000000053657269616C204EAB
:10816000756D626572000000536F667477617265A9
:10817000205265766973696F6E005B486172644670
:1081800061756C745F48616E646C65725D43757295
:1081900072656E74206D73703A20307825303858CF
:1081A0000A004F63637572656420696E20746173A1
:1081B0006B2E005573696E67207533324D73702EC8
:1081C000004F63637572656420696E20696E746523
:1081D00072727570742E0044657620696E666F2029
:1081E0007365727669636520696E6974206661697A
:1081F0006C7572652E006C6C635461736B4D7367A4
:1082000051756575654964204E554C4C006C6C6326
:108210005461736B4964204E554C4C006C6C635F29
:108220007461736B5F6D73675F7175657565006C05
:108230006C635F7461736B00626C65537461636B34
:108240005F6D73675F717565756500626C6553740A
:1082500061636B5461736B5F4D656D506F6F6C5FE5
:108260006C6F6E6700626C65537461636B5461730D
:108270006B00626C65537461636B5461736B5F4D2B
:10828000656D506F6F6C5F73686F7274005B4D53F8
:10829000475F424C455F5048595F555044415445F3
:1082A0005F434F4D504C4554455F494E445D204817
:1082B000616E646C65203D20307825582C20545820
:1082C0005F504859203D20307825582C2052585F67
:1082D000504859203D20307825580A005B4D5347BF
:1082E0005F424C455F454E435259505445445F43AD
:1082F00048414E4745445F494E445D2048616E64A5
:108300006C65203D20307825582C20456E637279AD
:108310007074696F6E5F456E61626C6564203D20AC
:10832000307825580A005B4D53475F424C455F4506
:108330004E435259505445445F5245465245534866
:108340005F494E445D2048616E646C65203D20307D
:108350007825580A005B4D53475F424C455F4C4CB3
:108360005F56455253494F4E5F494E445D204D6123
:108370006E7566616374757265725F4E616D6520BE
:108380003D20307825582C2048616E646C65203D76
:1083900020307825582C2056657273696F6E203D09
:1083A00020307825580A005B4D53475F424C455FAB
:1083B000444953434F4E4E45435445445F494E4410
:1083C0005D2048616E646C65203D20307825582C16
:1083D00020726561736F6E203D20307825580A0049
:1083E0005B4D53475F424C455F434F4E4E454354B0
:1083F000494F4E5F5550444154455F434F4D504C9B
:108400004554455F494E445D20436F6E6E5F496E33
:1084100074657276616C203D20307825582C20439D
:108420006F6E6E5F4C6174656E6379203D203078AD
:1084300025582C205375706572766973696F6E5F6D
:1084400054696D656F75203D20307825580A005BB2
:108450004D53475F424C455F434F4E4E4543544555
:10846000445F494E445D48616E646C65203D203038
:1084700078253034580A006170705F6D61696E0054
:108480004243004643004E4F4E4500425000465086
:1084900000425300465300626C655F73656E645F13
:1084A0007461736B00000000000000000100000018
:1084B000001001003D7100204D71002071710020FD
:04000005200031BDE9
:00000001FF
