:020000042000DA
:1030000000700120653200206D3200207D320020EA
:1030100000000000000000000000000000000000B0
:103020000000000000000000000000001905010081
:1030300000000000000000009D050100A90501003E
:103040008D3200208F320020133400209332002074
:103050009532002097320020993200209B320020C8
:103060009D3200209F320020A1320020A332002098
:10307000A5320020A7320020A9320020AB32002068
:10308000AD320020AF320020B1320020B332002038
:10309000B5320020B7320020B93200201D340020A4
:1030A000BD320020BF320020C1320020C3320020D8
:1030B000BD310020C7320020C93200203D3400203D
:1030C0000348854600F006F80048004751480020B4
:1030D000007001201CB50948009009480190054680
:1030E0000126009C05E0E36807CC33430C3C98477D
:1030F0001034AC42F7D3FFF7E7FF00002431002083
:103100003431002002E008C8121F08C1002AFAD199
:1031100070477047002001E001C1121F002AFBD157
:10312000704700002075002020750020E076000028
:103130001431002070B51D4E3078002834D0EFF3E4
:103140001085EFF3108072B619480068002802D08D
:103150008047002813D03078811E032912D2012421
:103160002046214603F0E2FB1248016804220A438C
:10317000026030BF0021204603F0D8FB0AE085F34F
:10318000108870BD012805D10A48016804229143C6
:10319000016030BF08480068002803D03178022958
:1031A00000D1804785F3108870BDC04634C7002029
:1031B000A4E2002010ED00E0A0E20020B0B582B053
:1031C0006D4600242C702046294603F0B5FB297873
:1031D000204603F0B7FB287800283DD00194022058
:1031E00001A903F0B5FB1D4D01982860002833D0DC
:1031F0000024204603F0B2FB002808D0012003F091
:10320000B3FB0194022001A903F0A2FBECE71448F0
:103210000268002A1DD02868017843781B025918DB
:1032200083781B04C918C3781B06C918001D904772
:103230000446022003F092FB002803D0012003F093
:1032400093FBF6E70520214603F070FB022003F014
:1032500091FB002003F08EFB02B0B0BD44C70020FC
:1032600040C7002019488047194800477046EFF3CF
:103270000881EFF30982174B9847FEE77046EFF39A
:103280000881EFF30982144B9847FEE7FEE7FEE75B
:10329000FEE7FEE7FEE7FEE7FEE7FEE7FEE7FEE706
:1032A000FEE7FEE7FEE7FEE7FEE7FEE7FEE7FEE7F6
:1032B000FEE7FEE7FEE7FEE7FEE7FEE7FEE7FEE7E6
:1032C000FEE7FEE7FEE7FEE7FEE7FEE73535002016
:1032D000C13000201B34002011340020F0B51FB491
:1032E0000646002082B005464024019100901BE074
:1032F000019922460F46304600F079F8049A059B62
:10330000801A994110D310461946224600F05FF802
:10331000361A8F410197224601200021009F00F0BC
:1033200056F838184D4100902046641E0028DFDC16
:10333000019B00982946324607B0F0BD30B54343A3
:1033400051435C18010C130C0D465D432C1980B2DF
:1033500092B20546554351430A0C09044D19624186
:103360005843010C00044019514130BD03460B4342
:103370009B0703D009E008C9121F08C0042AFAD22B
:1033800003E00B780370401C491C521EF9D27047B1
:1033900070B50446002903D000202022012310E04C
:1033A000002801D00020C043C046C0460DE025469D
:1033B000D5408D4205D30D469540641B1D46954072
:1033C00040191546521E002DF1DC214670BD10B586
:1033D000202A04DB0146203A9140002010BD914094
:1033E00020239C1A0346E3401943904010BD10B5BA
:1033F000202A04DB0846203AD040002110BD0B46AD
:10340000D340D0402024A21A91400843194610BD51
:10341000FEE780B503F0B4FA80BDFEE710B582B0D8
:1034200001AC204603F0B2FA019803F0B5FA6078D7
:10343000000601D500F086FF02B010BDF0B585B0E2
:10344000002503953A4C04AE2046314603F0AAFA13
:1034500030880821014001200190C707002907D0CA
:10346000204603F0A5FA642003F07EFAE4480760E2
:10347000032103AA204603F0A1FAD848046804E017
:10348000304603F0FDF8DE480760002C22D02646C7
:10349000A46A307D0028F3D1707D0028F0D1B07D82
:1034A0000228F2D102A9F14803F08EFAB168F2685D
:1034B0000298914204D28842E7D3904204D3E4E7D1
:1034C000904201D38842E0D3F1690029D8D0306A14
:1034D0008847D5E70097E9480768002F18D00021F2
:1034E000029A0D46F44804E01D46F348BF6A002FD7
:1034F00010D0BB7D022BF9D1BB68CC0705D0AC1A2C
:103500009E1AA642F0D32B46EEE71D460199EDE741
:103510002946E948C90709D003998D4206D00321FD
:103520002A4603F057FA0098EC49086005B0F0BD50
:1035300000300560014802490160704708ED00E075
:103540000030002082B0282003F04AFA0A2003F05D
:1035500047FA0B2003F044FA0C2003F041FA0D2047
:1035600003F03EFA0E25284603F03AFA0F2003F046
:1035700037FA102003F034FA352003F031FA112025
:1035800003F02EFA1226304603F02AFA00242046D1
:103590002146224603F02AFA03F02EFA03F032FA0B
:1035A00000F030F901F0AAF86448654A294601F0B4
:1035B000C1F800F099FE00F047FD00F051FF61A056
:1035C0003146224600F05AFD00F018FB01F00AF8DF
:1035D00001F0A4F81721204603F01AFA0120019007
:1035E000C005A3490860FF2109065B4A13688B43A5
:1035F0001360A149086002205849594A01F00EF9A8
:10360000584D5F4F03E03C70012003F007FA00F0D3
:10361000A1FF00282DD003F007FA064603F00AFAAE
:103620002978002927D04B218900414351480818A7
:103630007D21C900FFF7ACFE4D490968711A81422E
:1036400029D302F0D5FF202802D3019847490870FA
:103650004648007800281ED000F072FF00281AD0DB
:1036600002F0C6FF1F2828D84048047002F0C4FFAB
:103670004DE02C700FE002F0BBFF002803D002F0F9
:10368000C1FF02F0B9FF384804603848047001985F
:1036900028703748066038780028B5D000F054FF0D
:1036A0000028B0D000F04CFF0028ADD03549097893
:1036B00000F05EFF0028A7D1A5E702F099FF2028BF
:1036C00022D300F047FF00281ED000F039FF002869
:1036D0001AD006462021284802F0ACFF202813D13A
:1036E00020223046244900F05FFF00281CD01E49EC
:1036F0000868401C0860052806D300F031FF2C70D4
:103700001A4804701848046001981849087002F0BB
:103710006FFF1F2804D81548047002F06DFFBAE748
:10372000019812490870B6E7202002F06BFF0E499D
:103730000C60124A116808181060E8E740B30020D6
:10374000AD47002053757065725F536D6172745F91
:103750005261636B6574000014E400E019480020B6
:1037600011480020AC830020B0830020B4830020E7
:10377000A8830020E70300003DEB002028EB002099
:10378000207500209CE20020B0B503461020002BDD
:1037900022D0012920D8EFF31084EFF3108572B600
:1037A0009D7D002D02D084F31088B0BD002098626A
:1037B000DA6119760121997530490A68002A02D127
:1037C0000B600021D9622E490A68002A01D0936259
:1037D000DA620B6084F31088B0BDC046CCC700200D
:1037E00001461020002909D08A7D002A06D0012236
:1037F0004A750020C875D107384A11607047C04625
:1038000000E200E0F0B581B0052003F0E9F82A4DB0
:1038100000242846214603F013F90127F80714492C
:103820000860FF263106134A13688B43032189077A
:1038300059181160104908601F21204603F0E8F86C
:103840007902284603F002F90821284603F004F91A
:103850002846314603F006F9284603F009F90748DF
:10386000046007480460204601B0F0BD00300560E8
:1038700080E200E01CE400E000E100E0CCC70020B2
:10388000D0C7002010B504461020002C13D0A37D13
:10389000002B10D06262616021461031064803F0AF
:1038A00093F80220E075FF200230A0820120C007BB
:1038B0000A490860002010BD003005600146102054
:1038C000002909D08A7D002A06D001204875C875D4
:1038D000C0070249086000207047C04600E200E0CF
:1038E00084B0104C104D04E0621C81B2104603F00D
:1038F000C5F828680022D34301A903F0C5F80028C1
:10390000F2D101A803F0C6F802990029F1D003987A
:10391000002802D003F0C4F8EBE7204603F0C6F815
:10392000E7E7C04602600000A075002080B50A46A7
:103930000021FFF729FF4142484180BD80B5FFF7D4
:103940004FFF4142484180BD80B5FFF79BFF414298
:10395000484180BD80B5FFF7B1FF4142484180BD7D
:10396000F0B591B07648012103F0A6F800260028B2
:1039700000D1E1E0734803F0A5F8002800D1DBE0B6
:10398000714803F0A5F8002800D1D5E06F48012464
:10399000214603F0A3F8002800D1CDE004200090D8
:1039A0006B486C4A10210B4603F09EF8002800D1AA
:1039B000C2E06948062103F09DF8002800D1BBE071
:1039C0006648022103F09CF8002800D1B4E02502EB
:1039D00000206349634A131859601D8149191C303E
:1039E0007028F8D100206049604A131859602826D1
:1039F0001E8128311C307028F7D15D480B905CA0E7
:103A000041688268C0680E900D920C910BA803F07B
:103A10007DF8002800D18EE059490C310822594B1D
:103A20000B608D80412080001B183031521EF7D171
:103A3000019455490C310C22544B0B608E802C3371
:103A40003031521EF9D1BF21C943514A514B5F1841
:103A5000CC243A51D0243D5312183031F7D14E487E
:103A60000C3008214D4A026086802C323030491ECD
:103A7000F9D14BA102A80246D8C9D8C2D8C9D8C228
:103A800003F04AF8002856D04D480C3008214D4A22
:103A90000580031F1A6052192030491EF8D148488A
:103AA0000822294603F03EF8002844D00020464969
:103AB000464A115013189D80491910301028F8D02B
:103AC00042480222294603F033F80026002833D06A
:103AD0003F480BAA114698C898C198C898C1402081
:103AE000082103F02BF83B490860002824D03A480D
:103AF00002AA114658C858C158C858C158C858C118
:103B000036480026314603F01FF835490860002882
:103B100012D0344803F01EF803F022F8F43528469A
:103B200003F024F87D2040012F4903F025F803F02D
:103B300029F8019E00E00026304611B0F0BDC046D5
:103B4000A8890020788C0020408B00201885002058
:103B50007090002080900020C094002010900020E1
:103B6000F09E0020608D002020AF0020909000206B
:103B7000608D0020000104009090002028000400C7
:103B8000908E002000A700208092002020B100200D
:103B9000F0A20020D08D002000910020C0AF0020B6
:103BA000908E0020000108008092002028000C0068
:103BB000D08D0020000104000091002028000800A2
:103BC00018840020F0940020F09C002088890020B8
:103BD00008730020CCB30020E4720020ED470020E1
:103BE00094B30020C1650020AC0D00005848008847
:103BF000401A41424141C8007047C046F0B583B009
:103C00003A4900253A4B28462A4601F0A9F80126F0
:103C1000002867D00095019581204300354C284647
:103C200021462A4601F030F800285BD04849088038
:103C30000D20019030480090611C002002230246B4
:103C400001F022F800284DD00E2701972B48009054
:103C5000A11C0025022328462A4601F015F8002859
:103C600040D002971227019725480090E11C0226B8
:103C700028462A46334601F007F80197214800906C
:103C8000211D28462A46334600F0FEFF01971E48B4
:103C90000090611D28462A46334600F0F5FF019743
:103CA0001A480090A11D28462A46334600F0ECFF32
:103CB0000298019016480090E11D28462A46334696
:103CC00000F0E2FF07200190124800902D342846B2
:103CD00021462A46334600F0D7FF01F007F802F0EC
:103CE00057FF2E46304603B0F0BDC0460A1800000C
:103CF00020730020232A0000847300209473002086
:103D0000487300205C730020A473002070730020AF
:103D1000387300200975002010B50D4800888842CE
:103D200014D10820002B10D00A490A68496819717B
:103D30001A700C0EDC710C0C9C71090A5971110E71
:103D4000D970110C9970110A597010BD002010BD66
:103D5000D8C7002008E2002010B50C46411E622999
:103D600000D930E1601C49007944898849008F44BA
:103D70006200680072007C0089009000A000AA0028
:103D8000B000B6002A012A012A012A012A012A01CB
:103D90002A012A012A012A012A012A012A012A01CB
:103DA0002A012A012A012A012A012A012A01C20024
:103DB000C500D200DF002A01E200E800EE002A017F
:103DC0002A012A012A012A012A012A012A012A019B
:103DD0002A012A012A012A012A012A012A012A018B
:103DE0002A012A012A012A012A012A012A01FA00AC
:103DF0002A012A010201050108010B010E0111012E
:103E0000140117011A012A011D012A012A012A01A0
:103E10002A012A012A012A012A012A012A012A014A
:103E200020012A012A012A012A012A012A012A0144
:103E30002A0123012601A078E178090209188148A6
:103E4000BFE0E27801787E4802F0A8FE0020012160
:103E500002F0AAFE10BD2179627912025118E378AE
:103E60000278744802F0A6FE10BD2079617909023B
:103E700009186E4802F002FE211D6D48082202F06A
:103E80009FFE10BD2389E288A188674802F09EFE4C
:103E900010BD01784278120251188278C3781B0253
:103EA0009A188379C0790002C3185E4802F08EFE2A
:103EB00010BDA078E1780902091863792279584881
:103EC00002F078FE10BDE27801785C4802F066FEF0
:103ED00010BD0178407800024118574871E0207801
:103EE000617809020918A078E278120212184B488A
:103EF00002F072FE10BD2188464862E0A01C00213D
:103F000002F070FE014620786278120212184048D2
:103F100002F06EFE10BDA01C002102F063FE0146FF
:103F20002078627812021218384802F061FE10BD43
:103F30002188354845E02078617809020918314820
:103F40003FE0A27821782E4802F028FE10BD2078AC
:103F5000617809020918A07AE27A12021218274839
:103F600002F03AFE10BD2178E0784042C2B2224809
:103F700002F014FE10BD21781C4822E021781A4876
:103F80001FE0217817481CE02178154819E02178B6
:103F9000124816E02178104813E021780D4810E00F
:103FA00021780B480DE0217808480AE0217806487E
:103FB00007E021780E4804E021780E4801E02178DE
:103FC000154802F05BFD10BD2BA000002AA00000E8
:103FD00029A0000028A0000027A0000026A00000C3
:103FE00025A0000024A0000023A0000022A00000C3
:103FF0002CA0000033A0000021A0000016A00000AB
:1040000015A0000014A0000013A0000012A00000E2
:1040100011A0000010A0000034A000000FA00000BC
:104020000EA000000DA000000CA000000AA00000DF
:104030000BA0000009A0000008A0000007A00000DD
:1040400005A0000003A0000080B5024802F0D6FDE4
:1040500080BDC046593D00202F480088411A484283
:10406000484170472C480088884205D10120002B28
:1040700001D000211970704700207047F0B583B05F
:1040800014460D460146202D00D320251F4F3846EB
:104090002A46FFF76BF9200A1D4E7070347003201A
:1040A000C10200201B4B024600F05AFE01240028EA
:1040B00028D00097019515204502002002272946A7
:1040C00002463B4600F0E0FD00281BD00096019719
:1040D000691C0026304632463B4600F0D5FD0028DC
:1040E00010D000960196A63581204300304629461F
:1040F000324600F0C9FD002804D00749088000F0CE
:10410000F5FD3446204603B0F0BDC04614C700207C
:1041100010C700202C730020D4C700200020704757
:10412000F0B597B00124E1024548464A10252B46D8
:1041300000F074FE44A00BA94CC84CC14CC84CC143
:1041400047A002AA1146C8C8C8C1C8C8C8C124210E
:10415000284602F059FD48490860002812D047A0BF
:1041600011AA114668C868C168C868C108208021C2
:1041700002F04AFD47490860002807D103204003A8
:10418000401C01E00320400302F090FC40200C2181
:104190000BAA02F0D3FC4049086000281CD03FA0C5
:1041A00002AA114668C868C168C868C168C868C101
:1041B0004348002102F0C8FC42490860411E054600
:1041C0008D41002833D0802002F024FD3E4802F0CB
:1041D00027FD002D03D127E00025002D24D0260245
:1041E0000096102128220823204602F01FFD683681
:1041F0003648314602F020FD33208101344802F078
:1042000021FD34480221302202F022FD02F026FD79
:10421000314802F029FD314802F02CFD304802F00F
:104220002FFD304802F032FD284617B0F0BD0320C4
:104230004003093002F03AFC002DD0D1F4E7C0462B
:1042400048CD00204CC70020D273002000000000A1
:104250006C75002034000000A475002000060000EA
:104260000C7400200000000010E200202400000078
:10427000D0C40020400200003CC70020E5730020AD
:104280000000000034E2002024000000D0C0002024
:104290000004000038C70020A0750020FF73002034
:1042A000010000002475002044000000A87B0020CD
:1042B00000080000200000000000000000000000D6
:1042C000E138002068750020E1640020E0CB002088
:1042D00048D50020B88300202D390020493900201E
:1042E000553900203D390020B0B501F0A5FF00246C
:1042F0000221204602F08CFB0F4804220260FF20BE
:1043000000040E490B6883430B600D4802600F20C8
:104310000321072302F0C0FC00F018F80125FFF785
:104320001FFB002806D0FFF7FBFE002802D000F09C
:1043300059FC25462846B0BD80E200E000E400E0DC
:1043400000E100E080B502F0ADFC80BD10B52B4867
:1043500002F0AEFC2A4802F0B1FC2A4802F0B4FC9C
:10436000294802F0B7FC294802F0BAFC284802F0BC
:10437000BDFC284802F0C0FC274802F0C3FC2748D7
:1043800002F0C6FC264802F0C9FC264802F0CCFC2C
:10439000254802F0CFFC254802F0D2FC244802F068
:1043A000D5FC244802F0D8FC234802F0DBFC23486B
:1043B00002F0DEFC224802F0E1FC224802F0E4FCBC
:1043C000214802F0E7FC214802F0EAFC204802F014
:1043D000EDFC204802F0F0FC1F4802F0F3FC1F48FF
:1043E00002F0F6FC0020C4432046214602F0F6FC11
:1043F0002046214602F0F8FC10BDC046D3BC0200A6
:10440000B3BC0200BBBC0200CBBC0200C3BC0200B8
:10441000B955010069560100612702000127020019
:1044200015270200710B02005D24020031260200F4
:104430009D2502008D260200F9250200C5260200F6
:104440007D270200752702007D0B0200D9E90300D9
:1044500001E803003DE70300C5EA03009DEA03000D
:10446000F0B58DB0022002F0C5FC092401AE06258E
:10447000204631462A4602F0C3FC7278317808465D
:10448000104305D10BA82649818026480B9011E0E6
:104490000BA8C27001AA53794371937883700B09FA
:1044A0000901C9180171D1783F2319404170117970
:1044B000194001700BA802F0A9FC1B4807A90A4685
:1044C000C8C8C8C203881380807890700026304620
:1044D00002F0A2FC06A98D7081204000088003250F
:1044E00030462A4602F09EFC01AF7C7013203870E3
:1044F000B81C0EA11222FEF739FF142230463946AD
:1045000002F096FC304602F099FC05211022284664
:1045100002F09AFC0121304602F046FB0DB0F0BDDE
:1045200003BA000055404D03D472002053757065E6
:10453000725F536D6172745F5261636B65740000EA
:104540005F4800887047C0465E48017801200840F7
:104550007047C04659480178012008407047C0465E
:104560005648002101705648018056480170704736
:1045700010B504460120002C13D0524A1278D207FD
:1045800001D1022010BD4E4A1288002A09D0A24251
:1045900007D1044A1170564801880123204602F0D1
:1045A00059FC10BD0875002010B504460120002CF0
:1045B00016D013460A46002912D0002B10D03F49CE
:1045C0000978C90701D1022010BD3D490988002999
:1045D00006D0A14204D144480188204602F03AFCAA
:1045E00010BDC046F0B583B034480025057034488E
:1045F0000580344805700124E1023348334A102312
:1046000000F00CFC324E334B284631462A4600F06F
:10461000A7FB00284FD0D72001902F480090F01C16
:1046200081B20025022328462A4600F02DFB0028EF
:1046300041D02A4908800095019541208700B01C8F
:1046400081B228462A463B4600F01EFB002832D0A5
:104650002349088002F004FC2249088000282AD05F
:10466000009501953B460C33701C81B228462A46C2
:1046700000F00AFB00281ED01B49088002F0F0FB66
:104680001A490880002816D0009501950E37301D74
:1046900081B228462A463B4600F0F6FA00280AD0A6
:1046A0001349088002F0DCFB12490880002802D080
:1046B00000F01CFB2C46204603B0F0BD3CEB002074
:1046C000B68300202CEB0020A8E20020A8EA0020FE
:1046D000F0FF0000107500203074002036EB002041
:1046E00038EB002032EB00203AEB002034EB0020C6
:1046F0002EEB002030EB00207047000003480449F7
:1047000001600448044901607047C046300B002036
:104710007D6600202C0B0020A148002001480249A2
:1047200001607047280B00202D47002080B5FEF760
:1047300001FD80BD70B51024002828D0002926D0A6
:10474000144B1960144E306014480260012528464D
:1047500002F010F90324204602F00CF931682046DB
:1047600002F0E4F80024E143062002F0DFF8280715
:104770000B4908600B490A68C02313433F22934347
:104780000B60094908601C21204602F041F92046CF
:1047900070BDC046DCC7002048C7002040C70020CD
:1047A00080E200E01CE400E000E100E0002815D019
:1047B000002913D0022908D001290FD10278AA2A92
:1047C00001D1074808E0022908D10178AB2905D1B9
:1047D00040780449087004480121017000207047A6
:1047E000B48300209CE200202075002082B0074C9A
:1047F00020680022D343694602F046F90028F7D129
:104800000199009802F032FBF2E7C046CCB30020D9
:1048100080B502F031FB80BD0020704710B5094B18
:1048200019600949087009480260012000242146E6
:1048300002F07CF803210A220523204602F02CFA1C
:1048400010BDC046A4E2002034C70020A0E2002032
:104850008AB009A001AC21462CC82CC12CC82CC19F
:104860002CC82CC102F00EFB0C480021224602F09D
:104870006BF902F00DFBFEE7277400200100000039
:1048800058E2002044000000E0C7002000040000BF
:104890001800000000000000000000004535002066
:1048A000FEE70000F0B583B01C4616460F460290A6
:1048B00009891348089D2A4602F08EF9F888C00538
:1048C00013D402943C8A0E48401C2146324602F022
:1048D00083F9A01B81B2A94200D80546AAB2786923
:1048E00081190298FEF742FD07E039890095029888
:1048F0003246234600F0E4FD0546A8B203B0F0BD01
:1049000015510000F0B585B01D4616460F46012131
:1049100001701478384602F0C1FA002800D16EE028
:10492000009701950746C8379D490546481C214612
:1049300002F0A4F8D8350295601E512800D9D9E0BC
:104940004000C046784480884000874451005D00A4
:104950006F0095009A00A100A700AE00B400BB0054
:10496000C000C700CC00D300D300D900DF00E600B0
:10497000EC00D300D300F300F90000010501D300DF
:104980000C01D30013011A01D300D300D300D300CC
:10499000D300D300D300D300D300D300D300D3007F
:1049A000D300D300D300D300D300D300D300D3006F
:1049B000D300D300D300D300D300D300D300D3005F
:1049C000D300D300D300D300D300D300D300D3004F
:1049D000D300D300D300D300D300D300D300D3003F
:1049E000D300D300D300D300D300D300D3001E01E3
:1049F000029C20463146019A02F056FACBE0684804
:104A000002F054F805B0F0BD3846314602F052FAD3
:104A10000028029C00D0BEE004A9009808803888D5
:104A200048800A20042202F04BFAB4E0012130460B
:104A300002F04CFA7A889042014600D311463A8837
:104A4000914202D2172900D339803A7854498B1CFD
:104A5000C1B2184602F0A2F80220B8713988009C51
:104A6000204602F039FA03A90C80388848800A20D1
:104A7000042202F025FA8DE03846314602F032FA7F
:104A800088E0029C20463146019A02F031FA82E029
:104A900038463146019A02F031FA7BE0029C20460A
:104AA0003146019A02F030FA75E038463146019AF3
:104AB00000F0ECFA6EE0029C20463146019A02F0CA
:104AC00029FA68E03846314600F0D6FB62E0029CE5
:104AD00020463146019A02F023FA5CE0384631461E
:104AE00000F066FA56E0029C20463146019A02F038
:104AF0001DFA50E006223846214602F01DFA49E030
:104B000038463146019A02F01DFA43E0029C2046E5
:104B10003146019A02F01CFA3DE038463146019ACE
:104B200000F042FC36E0029C20463146019A02F039
:104B300015FA30E038463146019A00F0D1F929E003
:104B4000029C20463146019A02F00EFA23E03846D4
:104B5000314600F093F91DE0029C20463146019A4F
:104B600002F008FA17E0029C20463146019A02F052
:104B700007FA10E0029C20463146019A02F006FA3C
:104B800009E0384600F0D4FB04E038463146019A8B
:104B900000F0DDFB029C204602F0FEF905B0F0BDFE
:104BA000145200000148024941607047BC0A0020CD
:104BB0000549002010B50C46C988C90503D52189CF
:104BC00000F066FC208210BD014802490161704777
:104BD00064090020D94B0020012101700048704772
:104BE000FFFF000080B5114802F0A4F8104802F061
:104BF000A7F8104802F0AAF80F4802F0ADF80F48E5
:104C000002F0B0F801F01AFA01F04AF801F032F8B7
:104C100000F09CFC01F034F801F012F800F09CFC6C
:104C2000FFF7D2FFFFF7BEFF80BDC04655600020F2
:104C3000216100208D6000207D610020E96000205E
:104C4000B0B501468B4A1088002810D013888A4AD4
:104C50001468002204E00834521C9A42184608D214
:104C600025888D42F7D865888D42F4D302E0002272
:104C700000E01846D100804B1B685918496800298C
:104C800000D01046B0BDC046F0B581B01C461746F6
:104C90000D461549079B069A00280DD00D46002F9A
:104CA0001BD03846214602F07DF90646681C1022CA
:104CB000394601F085FF0AE028460F46214602F0FA
:104CC00077F90646B81C294601F0D8FE3D46E81C97
:104CD0003146224601F080FF03E0284601F0E6FE5F
:104CE0000026304601B0F0BDA5520000F0B581B0FD
:104CF00060480188002912D002885F4803680020BC
:104D000004E00833401C9042114606D25C88002C17
:104D1000F7D11C88002CF4D002E0114600E00020FE
:104D20000E4C884206D181B2204601F0A7FE002039
:104D300001B0F0BDC60002F041F905464E4F38689B
:104D40008019458002F040F90246601C294601F0B6
:104D500043FF38688019408801B0F0BDA3520000BD
:104D6000F0B583B001920E46424D298800240029F7
:104D700002930FD0404A12681788002F0AD0298862
:104D8000083201231C468B4204D2631C1788083268
:104D9000002FF7D18C4205D1A1B21F4801F06EFE61
:104DA000002735E01C4D002813D02E46019D002D14
:104DB0002AD00520C102284602F00CF90746B01C93
:104DC00010222946354601F0FBFE002F0DD10027A9
:104DD0001EE00520C102304602F002F90746E81C39
:104DE000314601F04BFE002FF1D0E0002249096866
:104DF0000F5208180299416000214180281DA2B27B
:104E0000394601F0E9FE03E0701C01F04FFE002777
:104E1000384603B0F0BDC04699520000F0B581B0ED
:104E2000134D00281FD0002A1DD00C4600291AD08F
:104E3000002B18D00F490B800F490A6000210F4644
:104E40000E46FF00D151761CF7B29F42F9D30022E3
:104E500000922146134602F0C9F8681C214601F071
:104E60000DFE01B0F0BD284601F020FE01B0F0BDFE
:104E70009752000030B3002034B3002070B582B0E8
:104E80000E460446102002F0B7F800280AD0054666
:104E90006189A0887278002300930193012A06D0CB
:104EA000032205E00D4801F001FE02B070BD0222B0
:104EB00000F026FB010607D0C3B2182100222846C5
:104EC00002F0A0F8024602E0192028700122A08812
:104ED000294602F09DF802B070BDC0462351000083
:104EE000F0B58BB004920C4605460121204601F036
:104EF000EDFF07460321204601F0E8FF03902E4610
:104F00002888001D80B202F077F8002813D00546EB
:104F100005A8394602F082F8002811D005A8C088FB
:104F2000010701D5C00512D4162128463A4602F0E1
:104F30007BF8024628E01D4801F0B8FD0BB0F0BD3B
:104F4000162128463A4602F075F802461CE005A9EB
:104F5000304602F075F8002801D003460EE0B08814
:104F60000499491F89B2621D0092019101223946BC
:104F7000039B00F0C5FA01060CD0C3B216212846E7
:104F80003A4602F03FF80246B088294602F040F85F
:104F90000BB0F0BD28462146049C2246FEF7E6F9F8
:104FA0001720287077812246EEE7C0462251000084
:104FB000F0B589B00D4604460121284601F086FF70
:104FC00006460321284601F081FF029003A83146DE
:104FD00002F024F807462088001D80B202F00CF889
:104FE00000280CD00546002F0ED003A8C0888007EB
:104FF00010D40C212846324602F028F83BE0224823
:1050000001F054FD09B0F0BD0C212846324602F0F3
:1050100011F830E003A9204602F012F8002806D06B
:1050200003460C212846324601F0ECFF23E0A0881D
:1050300003AF3946FFF7BEFD388A029A824205D98E
:105040000C212846324602F007F814E0801A411C71
:105050002088814203DD1018401E03A908820798AA
:10506000801A81B2A08800916B1C03A9FFF71AFC7B
:105070000D212970401CA18882B20846294601F002
:10508000C7FF09B0F0BDC0461F510000F0B591B098
:1050900014460E46074601213046099101F016FFDD
:1050A00005460321304601F011FF024671480A957A
:1050B00029460546089201F08FFD7279681C214649
:1050C00001F08AFD07973888001D80B201F094FF37
:1050D000002804D00746082C06D3102005E0A81CA1
:1050E00001F0E4FC11B0F0BD022006900A9A089984
:1050F000501E80B288420AD2701D05900BA801F0A4
:10510000B1FF002603960296099804900FE008214B
:10511000384601F08FFF9EE00BA9079C204601F066
:105120008FFF002834D00390099C002C75D10BA868
:1051300001F09EFF002870D00BAC204601F09EFFCE
:105140002289A188E81C01F047FD0E98017840787B
:105150000002401882B2E188281D01F03DFD20893F
:105160000028E1D000240A998842DED308998842B9
:10517000DAD80BA80599069A01F086FF0028D4D04A
:105180000BA8C0888007C7D43004CED10D9ECCE7D1
:10519000A0880BA9FFF70EFD0F98801C049989B217
:1051A00000220392022904D382B2029B9BB2934253
:1051B000BAD1012903D17870049B5B1C01E0049BE8
:1051C0000298029080B299B20A1820888242049311
:1051D00006D90229A8D8001F0BAA1082801C78705B
:1051E0000BAC2289384601F055FF07988088218A48
:1051F00000910499891C049189B27B1800220392C2
:105200002146FFF74FFB0446681D214601F036FC9E
:10521000049820180490039C87E7049988B2022818
:1052200002D30920387017E00399080606D0CBB2E4
:10523000082138460A9A01F0E5FE0CE0300405D05A
:10524000B2B20821384601F001FF04E008213846D7
:105250000A9A01F025FF0146A81D8CB2214601F0F3
:105260000DFC079880883946224601F0D1FE11B026
:10527000F0BDC04617510000F0B587B00A4604469D
:105280000121104601F022FE064601A8314601F038
:10529000C5FE07462088001D80B201F0ADFE002843
:1052A0000CD00546002F0ED001A8C088800710D46E
:1052B0000A212846324601F0C9FE2EE01B4801F0C3
:1052C000F5FB07B0F0BD0A212846324601F0B2FED8
:1052D00023E001A9204601F0B3FE002806D00346D2
:1052E0000A212846324601F08DFE16E0A08801AE64
:1052F0003146FFF75FFC2088318A814202D3401E8D
:1053000001A90882A08801A90A8A00926B1C0022C8
:10531000FFF7C8FA0B212970401CA18882B2084609
:10532000294601F075FE07B0F0BDC0461E510000D1
:1053300080B582B00189002907D0002303818088CD
:1053400000930193042200F0DBF802B080BDF0B5B9
:1053500089B015460C4607460121204601F0B6FDEE
:10536000064603A8314601F059FE00280CD0412022
:10537000800003A9C9880140814205D103A93846AC
:1053800001F05EFE002801D009B0F0BDB888E91E2A
:1053900089B2E21C0092019100223146134600F0CE
:1053A000AFF809B0F0BD0000F0B58BB003920C4629
:1053B000074601260846314601F088FD014605A84A
:1053C000049101F02BFE0546102001F015FE002887
:1053D0000CD0002D0FD005A9CA8811073D4613D463
:1053E00012210446049A01F01FFE1AE0274801F03A
:1053F0005DFB0BB0F0BD12210446049A01F01AFEC9
:10540000214606463D460EE005A9D20511D4098A7B
:10541000C91C039B99420CD212210446049A01F044
:1054200045FE21460646A888324601F0F1FD0BB044
:10543000F0BD002AD4D5074605A9284601F000FE94
:10544000002805D0034612213C463846049A13E052
:10545000A8880399C91E89B2E21C0092019100221A
:10546000049C2146134600F04BF8010609D0C3B254
:10547000122122463C46384601F0C4FD3946064614
:10548000D1E7132039463870CDE7C04621510000DE
:10549000B0B50C4605460846FFF7D2FB0146294841
:1054A0000288002091420AD0C900274A1268511888
:1054B00049680A68002A02D0284621469047B0BDB4
:1054C000F0B581B01C4615460E4607460846FFF764
:1054D000B7FB01461B480288002091420ED02346AC
:1054E000C900194A1268511849684C68002C05D047
:1054F00006980090384631462A46A04701B0F0BDD4
:10550000F0B583B01C4615460E4607460846FFF721
:1055100097FB01460B4802880020914210D0234699
:10552000C900094A1268511849688C68002C07D0D4
:105530000998089900910190384631462A46A047BB
:1055400003B0F0BD30B3002034B300200848014957
:10555000C16470477D590020092040010449054A73
:105560000A50E2480021044A026041607047C04688
:10557000500B0020B9610020ED490000F0B587B064
:105580000546D8482E184520000128180290F848F2
:105590002B5C0391497B9768D0682C465034027885
:1055A000002B45D0002965D0092A00D0B1E0FF21A9
:1055B00009020F40092109028F4200D0FCE0027A63
:1055C00004A90A72027943791B029A188379C57972
:1055D0002D02EB181B049A180592027843781B02DF
:1055E0009A188378C0780002C018000480180490CC
:1055F000481C01F061FD07460D4601203070002671
:10560000039A967210208143B9482F303840029B8C
:1056100003C3517BB448401C01F030FAB64A3A400B
:1056200051208543218830462B4601F04BFD55E142
:10563000002970D0092A00D1CAE0072A00D008E169
:10564000FF231B021F40012673029F4200D015E179
:1056500040780E2800D041E1002603988672A248C7
:10566000401D01F00BFA21881A203246334601F022
:1056700029FD33E10E2A00D09CE0FF2109023940C8
:1056800009231B02994200D0E7E0027A04A90A72BA
:10569000027943791B029A188379C4792402E318AA
:1056A0001B049A180592027843781B029A18837893
:1056B000C0780002C018000480180490481C01F053
:1056C000FBFC0191894A0ACA894A009008401140AE
:1056D0002F2404400A191027BB43284601F0F8FC88
:1056E000002800D1F7E00246F843012131708149DA
:1056F00091610399D161019B034000987C4E304039
:105700000443029804604360284601F0E7FC002649
:10571000E4E00126E2E0082A00D09CE0FF21090233
:10572000394009231B02994200D0C1E0027A04A942
:105730000A72027943791B029A188379C479240288
:10574000E3181B049A180592027843781B029A18F2
:105750008378C0780002C018000480180490481CA8
:1057600001F0AAFC0191614A0ACA614A009008400E
:1057700011402F2404400A191027BB43284601F08A
:10578000A7FC002800D1A8E00246F84301213170AF
:10579000584991610399D161019B03400098544E8F
:1057A00030400443029804604360284601F096FCB0
:1057B000002693E0012691E02846039C214601F053
:1057C00093FC0026A672617B474801F057F985E0FB
:1057D000FF2109020F4009210902434B8F425AD190
:1057E000027A04A90A72027943791B029A18837912
:1057F000C5792D02EB181B049A180592027843789C
:105800001B029A188378C0780002C0180004801820
:105810000490481C01F050FC07460D4601203070F2
:105820000026039A96721020814331482F30384069
:10583000029B03C3517B2C48C01D01F01FF92E4A67
:105840003A4051208543218830462B4601F03AFCEE
:1058500044E0012642E0012640E02846039D294617
:1058600001F042FC204CA01C394601F043FC00260C
:10587000AE72697BE01C01F001F92FE02846039C21
:10588000214601F031FC0026A672617B1648001DFE
:1058900001F0F4F822E02846039C21461D4601F061
:1058A00023FC0026A672617BA81D01F0E7F815E035
:1058B0002846039C214601F017FC0B4D2846083072
:1058C000394601F017FC0026A672617B093528468F
:1058D00001F0D4F802E0022600E00226304607B0CC
:1058E000F0BDC04649040000CE36000038B30020A9
:1058F00000CF87F7A98002002FCF87F770B5002867
:1059000010D00D4600290DD0002A0BD0D16809789F
:1059100000240E290FD0082927D11549405C002802
:1059200023D10CE01620492100242246234601F011
:10593000E7FB204670BD0E49405C002815D00124CD
:105940002C730026EE72FF2004302881304601F0CF
:10595000DDFB03C50748EE806E716E61AE61E861E4
:10596000AC700548314601F089F8204670BDC0464C
:10597000510300007D550020CD36000010B50446CF
:1059800000F026FD002802D00C21012006E000F0E6
:10599000F9FC002801D1014600E00C2120700846E6
:1059A00010BD000010B50A46002911D00446906BC6
:1059B00000280DD0107C072811D0062816D0052805
:1059C0001DD110480068D060104600F023FD13E0A0
:1059D0008520C1001C20002301F092FB10BD094866
:1059E0000068D060104600F019FD05E00548006829
:1059F000D060104600F018FD0120207010BD00207E
:105A0000207010BD50080020B0B50D4600290FD001
:105A10000446A86B00280BD0287C07280FD0062846
:105A200012D0052817D12846114600F0F4FC0FE0EB
:105A30001C200A4900232A4601F062FBB0BD28461B
:105A4000114600F0EEFC03E02846114600F0F6FC9B
:105A500001202070B0BD00202070B0BD8D0400007A
:105A600010B50A46002918D00446906B002814D0BF
:105A7000107C072817D0062823D0052831D14048AC
:105A80000178D068484318490968884200D801461F
:105A9000D160104600F0C0FC20E01C201349002318
:105AA00001F02EFB10BD36480178D06848430E49FE
:105AB0000968884200D80146D160104600F0B2FC67
:105AC0000CE02F480178D0684843074909688842AC
:105AD00000D80146D160104600F0CFFC01202070B4
:105AE00010BD0020207010BD540800205304000099
:105AF000B0B50D46002919D00446A86B002815D072
:105B0000287C072819D0062826D0052835D1E86832
:105B10001B490978FDF73CFC1A490968884200D303
:105B20000146E960284600F078FC23E01C20164975
:105B300000232A4601F0E4FAB0BDE868104909786C
:105B4000FDF726FC0F490968884200D30146E96049
:105B5000284600F068FC0DE0E86809490978FDF77F
:105B600017FC08490968884200D30146E9602846C5
:105B700000F096FC01202070B0BD00202070B0BD68
:105B80005C08002058080020B5040000B0B50446A9
:105B9000012500F085FB002801D0284608E000F030
:105BA00017FC002801D0012002E000F0EBFB0546C5
:105BB00020702846B0BD70B504460C26012500F0C3
:105BC000A3FB00280BD100F010FC002807D100F047
:105BD000E6FB0546002801D12E4600E00C26257084
:105BE000304670BD70B504460C26012500F08CFBD4
:105BF00000280BD100F0F9FB002807D100F0CFFB03
:105C00000546002801D12E4600E00C2625703046BE
:105C100070BD10B5044600F077FB002803D100F0FA
:105C2000E4FB002803D0002020700C2010BD00F001
:105C3000B6FB00212170002800D00C2010BD000010
:105C4000152000011249074A0A5053208000064AD5
:105C50000A502920C000054A0A5051208000044AF9
:105C60000A507047F15A0020095A0020615A00205A
:105C7000A559002006480149016670478D5B002048
:105C800003480449044A054B8363C26301647047B7
:105C9000500B0020135C0020B75B0020E55B002068
:105CA00070470000B0B584B0002808D00446816871
:105CB000022001F031FA002804D004B0B0BD042065
:105CC00004B0B0BDE389A289607C014601F02AFAE4
:105CD0000028F2D16269A369217C607C01250095CE
:105CE000019002900025284601F022FA0028E4D114
:105CF000206A01F023FA0028DFD1A18B606A01F04D
:105D000023FA0028D9D106480570627C03CC01F043
:105D100021FA0028D1D101F023FA284604B0B0BD01
:105D20000C0D002070B5012606702748007800246D
:105D3000002801D0204670BDEFF31085EFF31080EE
:105D400072B601F013FA00280CD0344C20780028E9
:105D500004D11F4801F010FA0120207085F310884B
:105D6000012070BD2F490846683800682B4A127818
:105D7000002A1DD030401BD0052208680B689842CD
:105D800004D0531E12061A46F7D1FF22110613D073
:105D900023490968814213D90C4A128885F3108877
:105DA000081A5109884200D800263446204670BDA2
:105DB00085F31088204670BD85F31088204670BD9D
:105DC00085F31088204670BD5F090020220800205E
:105DD000FFFFFF1FB0B501210170EFF31084EFF357
:105DE000108072B60D4D2878002813D00C4800683A
:105DF0000C490968814205D2491D814204D201F053
:105E0000C1F905E0642001E04B20800000F0ACFD0A
:105E10000020287084F31088B0BDC0465B090020C4
:105E200080000040E8010040B0B584B0002808D0F0
:105E300004468168042001F06FF9002804D004B002
:105E4000B0BD042004B0B0BDE389A289607C0146E6
:105E500001F068F90028F2D16269A369217C607CB5
:105E600001250095019002900025284601F060F977
:105E70000028E4D1206A01F061F90028DFD1A18B6C
:105E8000606A01F061F90028D9D103CC627A01F08F
:105E90007FF90028D3D10348057001F07FF9284627
:105EA00004B0B0BD9C0D002070B584B0002808D0AF
:105EB00004468168062001F02FF9002804D004B0C0
:105EC00070BD042004B070BDE389A289A17C607C10
:105ED00001F028F90028F2D16269A369217C607C75
:105EE000A57C01260096019002950025284601F028
:105EF0001FF90028E3D1206A01F020F90028DED143
:105F0000A18B606A01F020F90028D8D103CC627A15
:105F100001F020F90028D2D10348057001F044F9BE
:105F2000284604B070BDC0469D0D0020B0B584B0B9
:105F3000002808D004468168032001F0EDF800280D
:105F400004D004B0B0BD042004B0B0BDE389A28980
:105F5000607C014601F0E6F80028F2D16269A3698D
:105F6000217C607C01250095019002900025284647
:105F700001F0DEF80028E4D1206A01F0DFF8002803
:105F8000DFD1A18B606A01F0DFF80028D9D103CC02
:105F9000627A01F0FDF80028D3D10348057001F0C2
:105FA00009F9284604B0B0BDBC0D002070B584B01E
:105FB000002808D004468168052001F0ADF80028CB
:105FC00004D004B070BD042004B070BD638A228A7E
:105FD000A17D607D01F0A6F80028F2D1A17DE068E6
:105FE00001F0EEF80028ECD1A269E369217D607D23
:105FF000A57D01260096019002950025284601F016
:1060000097F80028DDD1606A01F098F80028D8D10F
:10601000218CA06A01F098F80028D2D103CCA27B91
:1060200001F0B6F80028CCD10348057001F0CEF895
:10603000284604B070BDC046BD0D0020024803498B
:106040008164034941657047200D0020D55D002023
:10605000255D002070B50546554E3068002801D0FA
:10606000012070BD01F0B8F82846FFF71BFE04467A
:10607000002801D0204670BD0348306003CD01F0F8
:10608000B1F8204670BDC04684270200F0B581B04B
:106090000446474F3868002801D001261EE001F071
:1060A0009BF803CC637A00252A46083C01F0A0F84F
:1060B00003C42068627A2946083C01F09FF8A0607A
:1060C0002046FFF7B1FE0646284601F09DF8002E57
:1060D00004D10448386003CC01F084F8304601B0A4
:1060E000F0BDC046D427020070B50546304E30687A
:1060F000002801D0012070BD01F06EF82846FFF79E
:10610000D3FE0446002801D0204670BD034830600D
:1061100003CD01F067F8204670BDC046E4270200B9
:10612000F0B581B00446224F3868002801D001261E
:106130001EE001F051F803CC637A00252A46083CA2
:1061400001F056F803C42068627A2946083C01F041
:1061500055F8A0602046FFF7E9FE0646284601F004
:1061600053F8002E04D10448386003CC01F03AF80B
:10617000304601B0F0BDC046F427020070B50546B8
:106180000B4E3068002801D0012070BD01F024F8CA
:106190002846FFF70BFF0446002801D0204670BDBB
:1061A0000448306003CD01F01DF8204670BDC046A4
:1061B000C00D002004280200B0B501230370D06890
:1061C00004780020162C35D87123DB00CB18C0468C
:1061D0007C4424796400A744151A2D0B2D2D2D2DF8
:1061E000102D0B2D1F2D102D2D2D2D2D242D290083
:1061F0000846194601F00EF8B0BD08461946FFF7EB
:106200007DFBB0BD0846194601F00AF8B0BD08464E
:10621000194601F00BF8B0BD0846194601F00CF81C
:10622000B0BD0846194601F00DF8B0BD0846194644
:1062300001F00EF8B0BD000080B501F00FF801F0DC
:1062400013F801F017F8002800D080BD01F018F80D
:10625000054801F01BF8022000F0CCFD0B2001F0F6
:106260001BF8002080BDC04620F5010008490968E0
:106270000A4A1278824203D80020002907D105E09B
:106280003522D20042438818002900D108467047C1
:10629000688C0020014800787047C04632B3002067
:1062A000F0B581B0FFF7F6FF002827D0044600259F
:1062B0000126E8B2FFF7DAFF00280FD09930017805
:1062C000002907D04078002804D000203746002855
:1062D0000FD114E0304600280BD110E091200101CD
:1062E0001E202A46234600F00BFF002738460028D0
:1062F00005D06D1CAC42DCD1002700E00027012056
:10630000384001B0F0BD0000F0B581B0FFF7C2FF2A
:10631000002828D0044600250126E8B2FFF7A6FF92
:1063200000280DD08D30017B002905D0417B00294C
:1063300002D00078002811D0304600280AD115E09C
:106340001E200C492A46234600F0DAFE0027384674
:1063500000280BD06D1CAC42DFD106E00020374690
:106360000028F7D102E0002700E000270120384094
:1063700001B0F0BD26090000014800687047C04622
:106380006C8C002080B5FFF7F7FF002805D0332183
:10639000C900405C411E884180BD002080BD80B5A1
:1063A000FFF7EAFF0146002000290AD03322D2007D
:1063B0008A181278002A04D091310878411E484288
:1063C000484180BD014800687047C046708C00207D
:1063D00080B5FFF7F7FF002805D047218900405C12
:1063E000411E884180BD002080BD80B5FFF7EAFFD7
:1063F0000146002000290CD0472292008A1812780A
:10640000002A06D0A531097802220A43032A00D1C6
:10641000012080BD70477047704770471721817415
:106420007047704770477047FF217431826B642357
:1064300053548374501819214170704770B50A463F
:106440000446FF2108462030A36B1E18B9204000E7
:106450001D18185C002807D0FF2A00D8D1B2687830
:106460001A2200F036F868703078002801D0012038
:1064700000E00220285CA07470BDB0B50446FF2087
:10648000A16B024620328A5C002A08D074300D18B5
:10649000287801211A2200F01CF82870A074B0BDE1
:1064A000B0B50446FF20A16B024620328A5C002A68
:1064B00008D074300D1828783221642200F003F8D7
:1064C0002870A074B0BD4018904200D80246D0B2E7
:1064D00070475318834200D2421AD0B2704700006E
:1064E000F0B585B016460546EFF3058002AA957013
:1064F0001180D67000240394002800D1E443002EBC
:106500002DD0242E18D801932B480090006800212C
:1065100000F0C8FE0390002809D1264800900068CA
:106520000027394600F0BEFE0390002839D00098BD
:106530000068049003980EE0802E28D801931D482F
:1065400000680027394600F0ADFE0390002825D0F2
:1065500018490968049101993246FCF707FF144E67
:10656000F01C294600F08AFA1448006802A90025A8
:106570002A46234600F09CFE47424741002813D09C
:10658000321D81B2104600F079FA2F460CE008481F
:10659000801C314600F072FA002705E00448401CD8
:1065A00000E0034800F082FA384605B0F0BDC0466E
:1065B0000460000038C700203CC70020A075002000
:1065C00080B582B0019100900022EFF30580002891
:1065D00001D0134600E0D34304480068694600F048
:1065E00067FE4142484102B080BDC046CCB30020A6
:1065F000214800687047C04601480021017070477B
:1066000014F0022070B5002812D004461A4D2868F4
:10661000A04200D82C682E1F306800197D21C900C7
:10662000FCF7B6FE31602868001B2860204670BD6C
:10663000002070BDF0B581B005460020002D18D0B7
:106640000C46002915D00C4E3068A04200D83468A2
:10665000301F0168002C0BD000277018007CE85513
:10666000481C7D21C900FCF793FE7F1CBC42F4D17D
:10667000204601B0F0BDC04608F00220FEE7000051
:10668000F0B585B00446407D217D00290CD0EFF3A4
:106690001081EFF3108272B60022227562682260C8
:1066A000626A226281F3108800280AD0EFF3108119
:1066B000EFF3108272B600226275E27DA27581F35B
:1066C0001088A17D02291DD000294BD1EFF3108045
:1066D000EFF3108172B6E16A002901D0A26A8A62E2
:1066E000334A1368A34201D1A36A1360314A136885
:1066F000A34200D1116080F310880020A062E06204
:1067000005B0F0BD00280AD027690297266803A8C3
:1067100000F0D4FD0398012815D1224D16E0207E0B
:1067200001281DD100200290204802A900F04CF958
:1067300020680090029F04A800F0C0FD0498012882
:1067400012D1184D13E000F0BFFD05463046164942
:106750000E880D800197E7607D214A0300270FE036
:106760000120A07505B0F0BD00F0AEFD05460E4855
:10677000068805800197E7607D2042030027009886
:1067800039463B46FCF7DAFD002E01D07219550858
:106790002A463B46FCF7A2FD01990818A06005B007
:1067A000F0BDC046127A0000D6C700200030056058
:1067B000CCC70020D0C7002056480088401A42426B
:1067C000424135480088401A4342434113435248EE
:1067D0000088401A424242411A4301D002207047C9
:1067E0002E480088884201D1D72070472C48008865
:1067F000411A484248417047B0B50498022809D36D
:10680000002B07D0434C24888C4203D100205870C1
:1068100045480AE002280CD3002B0AD03E4C2488BD
:106820008C4206D1002058703E4800781870022033
:10683000B0BD022808D3002B06D0174C24888C4208
:1068400002D100205870F1E7144C24888C420FD1FB
:10685000D62A1ED814498918D724A21A94B2844281
:1068600000D3044618462246FCF780FD2046B0BD02
:106870000B4C258800248D4209D1002B07D0002A1B
:1068800005D1002803D0074800781870012420465D
:10689000B0BD0020B0BDC04632EB002036EB00207A
:1068A0002EEB0020087500203074002010B50B4638
:1068B00002460399029802290CD300280AD0154CED
:1068C00024889C4206D116490A80007801210140A3
:1068D00015480DE002290ED300280CD00E4C248858
:1068E0009C4208D10E490A800078012101400D48E0
:1068F0000170002010BD094C24889C4207D1084B30
:106900001A80002803D0002901D0FDF7F5FE0020F1
:1069100010BDC04634EB002030EB002038EB0020E7
:10692000B68300202CEB00203CEB002003B4014890
:10693000019001BD39C4010003B40148019001BDBB
:10694000F5C2010003B40148019001BD8DC10100F1
:1069500003B40148019001BDD1C3010003B4014853
:10696000019001BD79C3010003B40148019001BD4C
:1069700051F8020003B40148019001BDE9C30100D0
:1069800003B40148019001BD610E020003B4014847
:10699000019001BD45A3010003B40148019001BD70
:1069A000ADA0010003B40148019001BD65BF010025
:1069B00003B40148019001BDBDBD010003B401480D
:1069C000019001BD1DBF010003B40148019001BD4C
:1069D00045BF010003B40148019001BDCDBF0100D6
:1069E00003B40148019001BD5572010003B4014890
:1069F000019001BDADC3010003B40148019001BD88
:106A000043D7010003B40148019001BD41F90200E0
:106A100003B40148019001BD89C2010003B40148DB
:106A2000019001BDBD0D010003B40148019001BDFD
:106A30000510010003B40148019001BD29100100B7
:106A400003B40148019001BD79C0010003B40148BD
:106A5000019001BDBDBE010003B40148019001BD1C
:106A600081BE010003B40148019001BDF9BD0100E0
:106A700003B40148019001BDD9C0010003B401482D
:106A8000019001BDFDF6020003B40148019001BD73
:106A9000F912010003B40148019001BDB9A003003F
:106AA00003B40148019001BDA511010003B40148E0
:106AB000019001BDE9F6020003B40148019001BD57
:106AC0003594020003B40148019001BD25AA0200DB
:106AD00003B40148019001BD49A0020003B401487C
:106AE000019001BDCD39020003B40148019001BD00
:106AF0007DDC020003B40148019001BD11F40200E5
:106B000003B40148019001BD15D0020003B401484F
:106B1000019001BD192C020003B40148019001BD90
:106B20001959020003B40148019001BD5129020026
:106B300003B40148019001BD2982020003B4014859
:106B4000019001BD0114010003B40148019001BD91
:106B50001D23010003B40148019001BDC5DF0200FF
:106B600003B40148019001BD6118020003B401485B
:106B7000019001BD2D20020003B40148019001BD28
:106B8000FD23020003B40148019001BD69820200A7
:106B900003B40148019001BDB13C030003B40148B6
:106BA000019001BDC5F7020003B40148019001BD89
:106BB000C923030003B40148019001BD39F7020065
:106BC00003B40148019001BDD9F7020003B40148A4
:106BD000019001BD25F7020003B40148019001BDF9
:106BE00011F7020003B40148019001BD03F902004E
:106BF00003B40148019001BD61F7020003B40148EC
:106C0000019001BDD505030003B40148019001BD09
:106C10009D12010003B40148019001BD51EC030035
:106C200003B40148019001BDE105030003B401482C
:106C3000019001BD6D18030003B40148019001BD2E
:106C4000B95A030003B40148019001BDDD590300A6
:106C500003B40148019001BD8518030003B4014845
:106C6000019001BDAF28030003B40148019001BDAC
:106C7000FD05030003B40148019001BD05060300B2
:106C800003B40148019001BDF505030003B40148B8
:106C9000019001BDED05030003B40148019001BD61
:106CA00089A6010003B40148019001BD79230200C7
:106CB00003B40148019001BD7520020003B40148EE
:106CC000019001BD3920020003B40148019001BDCB
:106CD0004520020003B40148019001BD812002005B
:106CE00003B40148019001BD6920020003B40148CA
:106CF000019001BD5120020003B40148019001BD83
:106D00005D20020003B40148019001BD31E00200A2
:106D100003B40148019001BD19E0020003B4014829
:106D2000019001BD25E0020003B40148019001BDBE
:106D3000B9DF020003B40148019001BDD1DF0200B8
:106D400003B40148019001BDF5DF020003B401481E
:106D5000019001BDDDDF020003B40148019001BDD7
:106D600001E0020003B40148019001BDE9DF020027
:106D700003B40148019001BD0DE0020003B40148D5
:106D8000019001BD49E0020003B40148019001BD3A
:106D90003DE0020003B40148019001BDADDF0200F7
:106DA00003B40148019001BD5DE9030003B401484B
:106DB000019001BD75E9030003B40148019001BDD4
:106DC00069E9030003B40148019001BD51E90300E2
:106DD00003B40148019001BD45E9030003B4014833
:106DE000019001BD49E2030003B40148019001BDD7
:106DF00055E2030003B40148019001BD05590100AB
:106E000003B40148019001BDF57E010003B40148BF
:106E1000019001BD7927030003B40148019001BD31
:106E2000E523030003B40148019001BD8D23030055
:106E300003B40148019001BD5D28030003B401487B
:106E4000019001BD9F28030003B40148019001BDDA
:106E5000EB28030003B40148019001BD253D030068
:106E600003B40148019001BD513A030003B4014845
:106E7000019001BDA5BC020003B40148019001BD11
:106E80007D08010003B40148019001BD4D100100CF
:106E900003B40148019001BDE110010003B40148B1
:106EA000019001BDD952030003B40148019001BD16
:106EB0003930030003B40148019001BD29440300A7
:106EC00003B40148019001BDB105030003B40148BA
:106ED000019001BD99A7030003B40148019001BDD1
:106EE000A530030003B40148019001BD49460300E9
:106EF00003B40148019001BD8931030003B4014886
:106F0000019001BDED44030003B40148019001BDAF
:106F10000931030003B40148019001BDE1320300CF
:106F200003B40148019001BDA934030003B4014832
:106F3000019001BD3532030003B40148019001BD49
:106F4000814E030003B40148019001BD354903009F
:106F500003B40148019001BD6932030003B4014844
:106F6000019001BDB135030003B40148019001BD9A
:106F7000C331030003B40148019001BDDD300300BB
:106F800003B40148019001BD8D35030003B40148ED
:106F9000019001BD5935030003B40148019001BDC2
:106FA0000936030003B40148019001BDF50B03004D
:106FB00003B40148019001BD410C030003B4014832
:106FC000019001BDE10C030003B40148019001BD33
:106FD000F10C030003B40148019001BD910C0300C2
:106FE00003B40148019001BDA30C030003B40148A0
:106FF000019001BD110D030003B40148019001BDD2
:10700000C15D030003B40148019001BD3166030076
:1070100003B40148019001BDED16030003B401481B
:10702000019001BD190F030003B40148019001BD97
:107030008766030003B40148019001BD5766030051
:1070400003B40148019001BD4D17030003B401488A
:10705000019001BD7B66030003B40148019001BDAE
:107060006366030003B40148019001BD1D100300D5
:1070700003B40148019001BD1510030003B4014899
:10708000019001BDAF0F030003B40148019001BDA1
:107090002910030003B40148019001BDD1A70300EA
:1070A00003B40148019001BD4B66030003B40148DD
:1070B000019001BD6F66030003B40148019001BD5A
:1070C00057EF020003B40148019001BDDDE0030069
:1070D00003B40148019001BDFD7A020003B40148E8
:1070E000019001BDCD52020003B40148019001BDE1
:1070F0000552020003B40148019001BD4DF70200A2
:1071000003B40148019001BD6942010003B4014884
:10711000019001BD31EE020003B40148019001BDB0
:10712000A117020003B40148019001BDDD10020067
:1071300003B40148019001BDF115020003B40148F8
:10714000019001BD4917020003B40148019001BD3F
:107150004913020003B40148019001BD71150200FA
:1071600003B40148019001BD9D0F020003B4014822
:10717000019001BDE11A020003B40148019001BD74
:107180001D18020003B40148019001BD4D18020012
:1071900003B40148019001BD9112020003B40148FB
:1071A000019001BDF111020003B40148019001BD3D
:1071B0003512020003B40148019001BDD51302004D
:1071C00003B40148019001BD6114020003B40148F9
:1071D000019001BD1514020003B40148019001BDE6
:1071E0001124020003B40148019001BDE92202000C
:1071F00003B40148019001BD3D1E020003B40148E3
:10720000019001BD751E020003B40148019001BD4B
:10721000C91D020003B40148019001BD217802009C
:1072200003B40148019001BD8543020003B4014845
:10723000019001BDB12D020003B40148019001BDD0
:1072400011F1020003B40148019001BDC9610200BF
:1072500003B40148019001BDE9C0020003B4014834
:10726000019001BD5D52010003B40148019001BDD0
:107270005D58010003B40148019001BDD9530100DC
:1072800003B40148019001BDE955010003B4014870
:10729000019001BD195A010003B40148019001BDDC
:1072A00091B2010003B40148019001BD4D110100EC
:1072B00003B40148019001BD3514010003B4014835
:1072C000019001BDED72010003B40148019001BDC0
:1072D000BD720100A000A00000020000000000003C
:1072E00000070000C97300200100000050B3002017
:1072F00044000000D0B8002000080000200000007A
:107300000000000000000000B67300200000000034
:1073100098B3002034000000D0B300200005000026
:10732000ED3B0020193D00200000000059400020E6
:10733000654000201D410020FE006578706572697F
:107340006D656E74616C00004669726D776172657F
:10735000205265766973696F6E000000486172643F
:1073600077617265205265766973696F6E000000FF
:107370004D616E756661637475726572204E616DE4
:10738000650000004D6F64656C204E756D6265721E
:107390000000000053657269616C204E756D626576
:1073A00072000000536F66747761726520526576D3
:1073B0006973696F6E006C6C635F7461736B5F6D92
:1073C00073675F7175657565006C6C635F7461737D
:1073D0006B00626C65537461636B5F6D73675F71A3
:1073E0007565756500626C65537461636B54617398
:1073F0006B5F4D656D506F6F6C5F6C6F6E67006299
:107400006C65537461636B5461736B00626C65539C
:107410007461636B5461736B5F4D656D506F6F6C1E
:107420005F73686F7274006170705F6D61696E0088
:10743000555549443A203078464646342070726F9C
:1074400076696465732062617474657279206C6515
:1074500076656C2E0A555549443A203078464646A2
:10746000312070726F76696465732049434D323004
:1074700039343820444D50202F204149202F20649A
:1074800065627567206672616D65732C20333220EA
:10749000627974657320706572206672616D652E05
:1074A0000A555549443A2030784646463220707293
:1074B0006F76696465732075706C6F616420696EA6
:1074C000737472756374696F6E732E0A55554944EF
:1074D0003A203078464646332070726F766964658C
:1074E0007320726561642D6F6E6C7920736572769E
:1074F00069636520757361676520696E666F726D7B
:107500006174696F6E2E0A006401000000001001B2
:10751000B9670020F9670020AD6800200000000076
:040000052000326540
:00000001FF
