:020000041000EA
:100000004B2A110200000000A4030000EEC3A6E981
:100010007EEEE78880B500F087F90020002100F02F
:100020000DF8292000F00FF8202000F011F800F062
:1000300033F900F013F800F025F980BD4CF2B93C1B
:10004000C0F2000C604747F67D1CC0F2000C604710
:1000500047F6D12CC0F2000C6047000080B54FF08D
:10006000A040012100F075F900060BD1032000F03B
:1000700075F9000606D1012000F075F9000604BFED
:10008000002080BD00F074F94FF47A7000F075F92B
:10009000012080BD2DE9F04381B019B343F2B83897
:1000A0000F4606464FF0FF344FF00009C2F2000839
:1000B0003D46B7F5807F28BF4FF480754FF0A040D4
:1000C000314642462B46CDF8009000F05BF960B90E
:1000D00040462946224600F05AF904467F1B2E442A
:1000E000E6D103E04FF0FF3400E00124204601B0E8
:1000F000BDE8F08310B582B004464FF0000C4FF01D
:10010000A0404FF4805122462023CDF800C000F0DB
:1001100039F9000622D120461C214FF0FF3200F0B1
:1001200036F9E169814219D1E078112816D1A07819
:10013000022813D1E168B1F5002F0FD8606846F2AC
:100140007872C4F26A72904208D1A068FFF7A2FFE9
:100150002169401A18BF012002B010BD012002B071
:1001600010BD00002DE9F0410C4605460E184FF079
:100170000008B4F5803F07D3A8B228B94FF4803700
:100180000321102021E000BFB4F5004F08D328461A
:100190006FF3DF3020B94FF4004702210F2014E045
:1001A00029466FF31F31200BB1FA81F1B8EB143FF0
:1001B00018BF0120490901404FF008004FF4807733
:1001C00018BF0C2018BF4FF4805725FA00F082B2F8
:1001D0004FF0A04047F2305300F0DEF800060BD19C
:1001E0003D44B542A4EB070424BF0020BDE8F081E4
:1001F000B4F5803FC0D2C7E700F0BAF84FF47A7088
:1002000000F0BBF80120BDE8F08100002DE9F047C7
:1002100082B04FF000098AB343F2B83814460E4654
:100220000746C2F2000840F6B83A00BF2546B4F5CA
:10023000807F28BF4FF480754FF0A040394642467A
:100240002B46CDF8009000F09DF890B94FF0A040FB
:10025000314642462B46CDF80090CDF804A000F080
:10026000A0F848B92F44641B2E44DFD14FF0000999
:1002700004E04FF0010901E04FF00109484602B0E7
:10028000BDE8F08780B542F20400C1F200000068CA
:1002900000F08CF880BD0000B0B588B06846FFF76C
:1002A00029FF08B101243CE0DDE90501FFF75AFF11
:1002B00038B100F05DF84FF47A7000F05EF8012478
:1002C0002FE0DDE902020599FFF7A0FF38B100F049
:1002D0004FF84FF47A7000F050F8012421E00399B0
:1002E0000598FFF7D7FE0499884213D14FF0A0403C
:1002F0000021102247F23053002400F04DF805464B
:1003000000F036F828060CD04FF47A7000F035F87B
:10031000012406E000F02CF84FF47A7000F02DF87C
:100320000124204608B0B0BDEC20C6F205000168EB
:100330007F2221F002010160016821F004010160C7
:100340006FF0030143180431342943F8D82CF9D154
:10035000704748F6F57CC0F2000C604747F2613CFC
:10036000C0F2000C604747F21D3CC0F2000C604731
:1003700047F6717CC0F2000C604744F2717CC0F219
:10038000000C604748F69D2CC0F2000C604744F218
:10039000C17CC0F2000C604748F6A10CC0F2000C12
:1003A000604749F2D90CC0F2000C604744F62D0CAE
:1003B000C0F2000C604700000000000000000000D8
:1003C000000000000000000000000000000000002D
:1003D000000000000000000000000000000000001D
:1003E000000000000000000000000000000000000D
:1003F00000000000000000000000000000000000FD
:1020000000700220C13100102D3200103F3200104C
:102010005132001051320010513200100000000007
:10202000000000000000000000000000D1020000DD
:102030005132001000000000750300008103000011
:102040005132001051320010513200105132001044
:102050005132001051320010513200105132001034
:102060005132001051320010513200105132001024
:1020700051320010513200105D7E0010617E001060
:10208000657E00105132001051320010197301208A
:102090005132001051320010DD370010C1370010EE
:1020A00051320010513200105132001051320010E4
:1020B000513200105573012051320010513200107E
:1020C00051320010513200105132001051320010C4
:1020D000697E001051320010513200105132001050
:1020E00051320010513200105132001051320010A4
:1020F0005132001051320010513200105132001094
:102100005132001051320010513200105132001083
:102110005132001051320010513200105132001073
:0C212000513200105132001051320010FA
:10212C0010F8012B11F8013B012A28BF9A42F7D075
:10213C00D01A704781F0004102E000BF83F00043E9
:10214C0030B54FEA41044FEA430594EA050F08BF46
:10215C0090EA020F1FBF54EA000C55EA020C7FEA0A
:10216C00645C7FEA655C00F0E2804FEA5454D4EB87
:10217C005555B8BF6D420CDD2C4480EA020281EA51
:10218C00030382EA000083EA010180EA020281EA89
:10219C000303362D88BF30BD11F0004F4FEA0131DB
:1021AC004FF4801C4CEA113102D0404261EB4101EA
:1021BC0013F0004F4FEA03334CEA133302D0524270
:1021CC0063EB430394EA050F00F0A780A4F101042C
:1021DC00D5F1200E0DDB02FA0EFC22FA05F2801866
:1021EC0041F1000103FA0EF2801843FA05F359414C
:1021FC000EE0A5F120050EF1200E012A03FA0EFCCB
:10220C0028BF4CF0020C43FA05F3C01851EBE371F4
:10221C0001F0004507D54FF0000EDCF1000C7EEB11
:10222C0000006EEB0101B1F5801F1BD3B1F5001F4F
:10223C000CD349085FEA30004FEA3C0C04F101046E
:10224C004FEA445212F5800F80F09A80BCF1004F97
:10225C0008BF5FEA500C50F1000041EB045141EA19
:10226C00050130BD5FEA4C0C404141EB0101013CE2
:10227C0028BFB1F5801FE9D291F0000F04BF0146D1
:10228C000020B1FA81F308BF2033A3F10B03B3F1A3
:10229C0020020CDA0C3208DD02F1140CC2F10C0233
:1022AC0001FA0CF021FA02F10CE002F11402D8BF91
:1022BC00C2F1200C01FA02F120FA0CFCDCBF41EA5D
:1022CC000C019040E41AA2BF01EB0451294330BD2C
:1022DC006FEA04041F3C1CDA0C340EDC04F1140409
:1022EC00C4F1200220FA04F001FA02F340EA0300E0
:1022FC0021FA04F345EA030130BDC4F10C04C4F126
:10230C00200220FA02F001FA04F340EA0300294605
:10231C0030BD21FA04F0294630BD94F0000F83F44F
:10232C00801306BF81F480110134013D4EE77FEA32
:10233C00645C18BF7FEA655C29D094EA050F08BF7E
:10234C0090EA020F05D054EA000C04BF194610465F
:10235C0030BD91EA030F1EBF0021002030BD5FEAA3
:10236C00545C05D14000494128BF41F0004130BDCB
:10237C0014F580043CBF01F5801130BD01F000451F
:10238C0045F0FE4141F470014FF0000030BD7FEA92
:10239C00645C1ABF194610467FEA655C1CBF0B468D
:1023AC00024650EA013406BF52EA033591EA030FA4
:1023BC0041F4002130BD00BF90F0000F04BF00219C
:1023CC00704730B54FF4806404F132044FF00005CF
:1023DC004FF0000150E700BF90F0000F04BF002148
:1023EC00704730B54FF4806404F1320410F00045AE
:1023FC0048BF40424FF000013EE700BF42004FEAA9
:10240C00E2014FEA31014FEA02701FBF12F07F4325
:10241C0093F07F4F81F06051704732F07F4208BFDC
:10242C00704793F07F4F04BF41F40021704730B5E3
:10243C004FF4607401F0004521F000411CE700BF2F
:10244C0050EA010208BF704730B54FF000050AE0B2
:10245C0050EA010208BF704730B511F0004502D5B3
:10246C00404261EB41014FF4806404F132045FEAB5
:10247C00915C3FF4D8AE4FF003025FEADC0C18BF5E
:10248C0003325FEADC0C18BF033202EBDC02C2F150
:10249C00200300FA03FC20FA02F001FA03FE40EAE2
:1024AC000E0021FA02F11444BDE600BF70B54FF0E6
:1024BC00FF0C4CF4E06C1CEA11541DBF1CEA1355C4
:1024CC0094EA0C0F95EA0C0F00F0DEF82C4481EA2C
:1024DC00030621EA4C5123EA4C5350EA013518BF4C
:1024EC0052EA033541F4801143F4801338D0A0FB39
:1024FC0002CE4FF00005E1FB02E506F00042E0FBE6
:10250C0003E54FF00006E1FB03569CF0000F18BFEB
:10251C004EF0010EA4F1FF04B6F5007F64F5407493
:10252C0004D25FEA4E0E6D4146EB060642EAC62126
:10253C0041EA55514FEAC52040EA5E504FEACE2E93
:10254C00B4F1FD0C88BFBCF5E06F1ED8BEF1004F96
:10255C0008BF5FEA500E50F1000041EB045170BD12
:10256C0006F0004646EA010140EA020081EA030156
:10257C00B4EB5C04C2BFD4EB0C0541EA045170BD52
:10258C0041F480114FF0000E013C00F3AB8014F1CC
:10259C00360FDEBF002001F0004170BDC4F1000415
:1025AC00203C35DA0C341BDC04F11404C4F1200596
:1025BC0000FA05F320FA04F001FA05F240EA0200F1
:1025CC0001F0004221F0004110EBD37021FA04F627
:1025DC0042EB06015EEA430E08BF20EAD37070BDE1
:1025EC00C4F10C04C4F1200500FA04F320FA05F040
:1025FC0001FA04F240EA020001F0004110EBD37042
:10260C0041F100015EEA430E08BF20EAD37070BDB1
:10261C00C4F1200500FA05F24EEA020E20FA04F38A
:10262C0001FA05F243EA020321FA04F001F0004139
:10263C0021FA04F220EA020000EBD3705EEA430EAA
:10264C0008BF20EAD37070BD94F0000F0FD101F0D9
:10265C000046400041EB010111F4801F08BF013C12
:10266C00F7D041EA060195F0000F18BF704703F050
:10267C000046520043EB030313F4801F08BF013DD7
:10268C00F7D043EA0603704794EA0C0F0CEA135593
:10269C0018BF95EA0C0F0CD050EA410618BF52EA4D
:1026AC004306D1D181EA030101F000414FF0000053
:1026BC0070BD50EA410606BF1046194652EA430661
:1026CC0019D094EA0C0F02D150EA013613D195EAD5
:1026DC000C0F05D152EA03361CBF104619460AD11D
:1026EC0081EA030101F0004141F0FE4141F4700127
:1026FC004FF0000070BD41F0FE4141F4780170BD17
:10270C0070B54FF0FF0C4CF4E06C1CEA11541DBF7B
:10271C001CEA135594EA0C0F95EA0C0F00F0A7F87D
:10272C00A4EB050481EA030E52EA03354FEA0131AA
:10273C0000F088804FEA03334FF0805545EA1313BD
:10274C0043EA12634FEA022245EA111545EA106585
:10275C004FEA00260EF000419D4208BF964244F11C
:10276C00FD0404F5407402D25B084FEA3202B61A3B
:10277C0065EB03055B084FEA32024FF480104FF40F
:10278C00002CB6EB020E75EB030E22BFB61A754683
:10279C0040EA0C005B084FEA3202B6EB020E75EB16
:1027AC00030E22BFB61A754640EA5C005B084FEA7E
:1027BC003202B6EB020E75EB030E22BFB61A75464B
:1027CC0040EA9C005B084FEA3202B6EB020E75EB56
:1027DC00030E22BFB61A754640EADC0055EA060E17
:1027EC0018D04FEA051545EA16754FEA06164FEA5A
:1027FC00C30343EA52734FEAC2025FEA1C1CC0D106
:10280C0011F4801F0BD141EA00014FF000004FF092
:10281C00004CB6E711F4801F04BF01430020B4F153
:10282C00FD0C88BFBCF5E06F3FF6AFAEB5EB030C0B
:10283C0004BFB6EB020C5FEA500C50F1000041EB08
:10284C00045170BD0EF0004E4EEA113114EB5C04D5
:10285C00C2BFD4EB0C0541EA045170BD41F48011A8
:10286C004FF0000E013C90E645EA060E8DE60CEAB0
:10287C00135594EA0C0F08BF95EA0C0F3FF43BAFCD
:10288C0094EA0C0F0AD150EA01347FF434AF95EA84
:10289C000C0F7FF425AF104619462CE795EA0C0F68
:1028AC0006D152EA03353FF4FDAE1046194622E735
:1028BC0050EA410618BF52EA43067FF4C5AE50EA0F
:1028CC0041047FF40DAF52EA43057FF4EBAE12E7FF
:1028DC004FF0FF3C06E000BF4FF0010C02E000BFE0
:1028EC004FF0010C4DF804CD4FEA410C7FEA6C5CC3
:1028FC004FEA430C18BF7FEA6C5C1BD001B050EA66
:10290C00410C0CBF52EA430C91EA030F02BF90EA50
:10291C00020F0020704710F1000F91EA030F58BF0F
:10292C00994208BF90422CBFD8176FEAE37040F071
:10293C00010070474FEA410C7FEA6C5C02D150EA0F
:10294C00013C07D14FEA430C7FEA6C5CD6D152EACA
:10295C00033CD3D05DF8040B704700BF844610468F
:10296C0062468C461946634600E000BF01B5FFF78E
:10297C00B7FF002848BF10F1000F01BD4DF808ED5E
:10298C00FFF7F4FF0CBF012000205DF808FB00BF2F
:10299C004DF808EDFFF7EAFF34BF012000205DF889
:1029AC0008FB00BF4DF808EDFFF7E0FF94BF0120D6
:1029BC0000205DF808FB00BF4DF808EDFFF7CEFFD7
:1029CC0094BF012000205DF808FB00BF4DF808ED16
:1029DC00FFF7C4FF34BF012000205DF808FB00BFE7
:1029EC004FEA410212F5001215D211D56FF478732B
:1029FC00B3EB625212D94FEAC12343F0004343EACE
:102A0C00505311F0004F23FA02F018BF40427047A8
:102A1C004FF00000704750EA013005D111F0004032
:102A2C0008BF6FF0004070474FF00000704700BFC8
:102A3C0080F0004002E000BF81F0004142001FBF67
:102A4C005FEA410392EA030F7FEA226C7FEA236C70
:102A5C006AD04FEA1262D2EB1363C1BFD218414065
:102A6C0048404140B8BF5B42192B88BF704710F0FB
:102A7C00004F40F4000020F07F4018BF404211F09E
:102A8C00004F41F4000121F07F4118BF494292EA06
:102A9C00030F3FD0A2F1010241FA03FC10EB0C0032
:102AAC00C3F1200301FA03F100F0004302D54942BF
:102ABC0060EB4000B0F5000F13D3B0F1807F06D36C
:102ACC0040084FEA310102F10102FE2A51D2B1F164
:102ADC00004F40EBC25008BF20F0010040EA030059
:102AEC007047490040EB0000013A28BFB0F5000FD9
:102AFC00EDD2B0FA80FCACF1080CB2EB0C0200FA8F
:102B0C000CF0AABF00EBC25052421843BCBFD040DD
:102B1C001843704792F0000F81F4000106BF80F457
:102B2C0000000132013BB5E74FEA41037FEA226C1A
:102B3C0018BF7FEA236C21D092EA030F04D092F0E5
:102B4C00000F08BF0846704790EA010F1CBF002019
:102B5C00704712F07F4F04D1400028BF40F0004076
:102B6C00704712F100723CBF00F50000704700F096
:102B7C00004343F0FE4040F4000070477FEA2262BD
:102B8C0016BF08467FEA23630146420206BF5FEA8E
:102B9C00412390EA010F40F4800070474FF000038E
:102BAC0004E000BF10F0004348BF40425FEA000C55
:102BBC0008BF704743F0964301464FF000001CE0FD
:102BCC0050EA010208BF70474FF000030AE000BF53
:102BDC0050EA010208BF704711F0004302D5404291
:102BEC0061EB41015FEA010C02BF84460146002003
:102BFC0043F0B64308BFA3F18053A3F50003BCFA1E
:102C0C008CF2083AA3EBC25310DB01FA02FC6344CA
:102C1C0000FA02FCC2F12002BCF1004F20FA02F2D1
:102C2C0043EB020008BF20F00100704702F12002C4
:102C3C0001FA02FCC2F1200250EA4C0021FA02F225
:102C4C0043EB020008BF20EADC7070474FF0FF0C2A
:102C5C001CEAD0521EBF1CEAD15392EA0C0F93EA25
:102C6C000C0F6FD01A4480EA010C400218BF5FEAC7
:102C7C0041211ED04FF0006343EA501043EA51113A
:102C8C00A0FB01310CF00040B1F5000F3EBF490034
:102C9C0041EAD3715B0040EA010062F17F02FD2A38
:102CAC001DD8B3F1004F40EBC25008BF20F001001B
:102CBC00704790F0000F0CF0004C08BF49024CEA32
:102CCC00502040EA51207F3AC2BFD2F1FF0340EAC4
:102CDC00C250704740F400004FF00003013A5DDC35
:102CEC0012F1190FDCBF00F000407047C2F1000276
:102CFC00410021FA02F1C2F1200200FA02FC5FEA63
:102D0C00310040F1000053EA4C0308BF20EADC70AC
:102D1C00704792F0000F00F0004C02BF400010F41E
:102D2C00000F013AF9D040EA0C0093F0000F01F0CB
:102D3C00004C02BF490011F4000F013BF9D041EAED
:102D4C000C018FE70CEAD15392EA0C0F18BF93EAEF
:102D5C000C0F0AD030F0004C18BF31F0004CD8D119
:102D6C0080EA010000F00040704790F0000F17BFA0
:102D7C0090F0004F084691F0000F91F0004F14D0E6
:102D8C0092EA0C0F01D142020FD193EA0C0F03D13E
:102D9C004B0218BF084608D180EA010000F0004041
:102DAC0040F0FE4040F40000704740F0FE4040F41C
:102DBC00400070474FF0FF0C1CEAD0521EBF1CEABB
:102DCC00D15392EA0C0F93EA0C0F69D0A2EB0302D9
:102DDC0080EA010C49024FEA402037D04FF0805373
:102DEC0043EA111143EA10130CF000408B4238BF38
:102DFC005B0042F17D024FF4000C8B4224BF5B1A46
:102E0C0040EA0C00B3EB510F24BFA3EB510340EA93
:102E1C005C00B3EB910F24BFA3EB910340EA9C0041
:102E2C00B3EBD10F24BFA3EBD10340EADC001B01B1
:102E3C0018BF5FEA1C1CE0D1FD2A3FF650AF8B4255
:102E4C0040EBC25008BF20F0010070470CF0004C62
:102E5C004CEA50207F32C2BFD2F1FF0340EAC2508D
:102E6C00704740F400004FF00003013A37E792F04E
:102E7C00000F00F0004C02BF400010F4000F013AAC
:102E8C00F9D040EA0C0093F0000F01F0004C02BFA7
:102E9C00490011F4000F013BF9D041EA0C0195E710
:102EAC000CEAD15392EA0C0F08D142027FF47DAFA9
:102EBC0093EA0C0F7FF470AF084676E793EA0C0F99
:102ECC0004D14B023FF44CAF08466EE730F0004C97
:102EDC0018BF31F0004CCAD130F000427FF45CAF27
:102EEC0031F000437FF43CAF5FE700BF4FF0FF3C95
:102EFC0006E000BF4FF0010C02E000BF4FF0010CE8
:102F0C004DF804CD4FEA40024FEA41037FEA226CB0
:102F1C0018BF7FEA236C11D001B052EA530C18BFD2
:102F2C0090EA010F58BFB2EB030088BFC81738BF37
:102F3C006FEAE17018BF40F0010070477FEA226C25
:102F4C0002D15FEA402C05D17FEA236CE4D15FEA21
:102F5C00412CE1D05DF8040B704700BF8446084655
:102F6C006146FFE70FB5FFF7C9FF002848BF10F116
:102F7C00000F0FBD4DF808EDFFF7F4FF0CBF01205B
:102F8C0000205DF808FB00BF4DF808EDFFF7EAFFE5
:102F9C0034BF012000205DF808FB00BF4DF808EDA0
:102FAC00FFF7E0FF94BF012000205DF808FB00BF95
:102FBC004DF808EDFFF7D2FF94BF012000205DF81B
:102FCC0008FB00BF4DF808EDFFF7C8FF34BF012028
:102FDC0000205DF808FB00BF4FEA4002B2F1FE4F43
:102FEC000FD34FF09E03B3EB12620DD94FEA0023BF
:102FFC0043F0004310F0004F23FA02F018BF404298
:10300C0070474FF00000704712F1610F01D142027E
:10301C0005D110F0004008BF6FF0004070474FF032
:10302C000000704742000ED2B2F1FE4F0BD34FF0AE
:10303C009E03B3EB126209D44FEA002343F0004322
:10304C0023FA02F070474FF00000704712F1610F45
:10305C0001D1420202D14FF0FF3070474FF0000017
:10306C00704700BF7BB972B90029BEBF00204FF07A
:10307C00004106E008BF00281CBF6FF000414FF074
:10308C00FF3000F057B8ADF1080C6DE904CE002903
:10309C0009DB002B1ADB0DF02DF8DDF804E0DDE97F
:1030AC00022304B07047404261EB4101002B1BDB53
:1030BC000DF020F8DDF804E0DDE9022304B0404215
:1030CC0061EB4101524263EB43037047524263EBA5
:1030DC0043030DF00FF8DDF804E0DDE9022304B042
:1030EC00404261EB41017047524263EB43030DF0E8
:1030FC0001F8DDF804E0DDE9022304B0524263EB91
:10310C004303704753B94AB9002908BF00281CBFB4
:10311C004FF0FF314FF0FF3000F00CB8ADF1080C60
:10312C006DE904CE0CF0E6FFDDF804E0DDE90223E6
:10313C0004B07047704700BF4A0011D212F500125C
:10314C0011D20DD56FF47873B3EB62520ED44FEAF3
:10315C00C12343F0004343EA505323FA02F0704773
:10316C004FF00000704750EA013002D14FF0FF30B1
:10317C0070474FF0000070470A4B0B4A03F59670EE
:10318C0053F8041B834242F8041FF9D1074B084A39
:10319C009A605A6942F010025A615A6942F480727C
:1031AC005A61704700200010FC6F012000ED00E018
:1031BC0000700120244880F30888244880F30A8892
:1031CC0023488047002103E0224B5B5843500431D5
:1031DC002148224B42189A42F6D3002103E0204B9F
:1031EC005B58435004311F481F4B42189A42F6D388
:1031FC00002103E01D4B5B58435004311C481D4B10
:10320C0042189A42F6D31C4A02E00023136004329F
:10321C001A4B9A42F9D30BF063FF00F0E1FAFEE788
:10322C005FEA0E00EFF30881EFF30982144B984725
:10323C00FEE75FEA0E00EFF30881EFF30982114B12
:10324C009847FEE7FEE700000070022000600220B5
:10325C0085310010B80102100030002020750020CC
:10326C00D846021000720120787A0120504F0210CB
:10327C0000F0012000F4012000F401201CFE0120CC
:10328C0051330010553300102DE9F84F431C88467C
:10329C0034D00138012828D8002A2FDD4C1E4FF0DD
:1032AC00000BDFF860A0184DDFF86090A6180FE057
:1032BC00B5F800C002680CF1010302F80C1082880A
:1032CC009BB29A422B8098BFA5F800B0B44210D0A4
:1032DC00DAF80000274614F8011F0028E8D1D9F8C5
:1032EC0000000DF00FF90028F0D04FF0FF30BDE8D2
:1032FC00F88FB81CA0EB0800BDE8F88F0020BDE8E3
:10330C00F88F00BF00F4012008F4012004F4012020
:10331C00012070474FF0FF30704700BF002070470E
:10332C004FF4005300204B60704700BF00207047E3
:10333C00012070474FF0FF30704700BFFEE700BF21
:10334C00FEE700BFFEE700BF10F0040F18BF1146E8
:10335C008A69184B82B00192DA6ADA6ADA6A50002A
:10336C0026D59A6AD2B242B19A6A9A6A910748BF34
:10337C009B6A104B9A6A9A6A9B6A0E4B9A6A12F471
:10338C007F4F09D09A6A9A6A920548BF9B6A094B8B
:10339C009A6A9A6A9A6A9B6A064B9A6AB2F5803F55
:1033AC0006D39A6A9A6A9A6A9A6A9A6A9A6A9B6A1B
:1033BC00FEE700BF00ED00E003490448044B054A5A
:1033CC0008601A60704700BFE80000204933001005
:1033DC00EC0000204D330010F0B5484C484D2260F5
:1033EC00044685B0474B2960012202200DF10701EC
:1033FC001C700DF0ABF89DF80750C5F34115022D6C
:10340C0014D0032D1FD0042C07D8032C72D0042CFD
:10341C000CBF022000200DF035F809230B220321EC
:10342C00012005B0BDE8F0400DF024B84FF4504138
:10343C00012235480DF0EAF82A464FF4483132485B
:10344C000DF0E4F8DFE7012502A906223A200DF081
:10345C007DF89DF808002C4F2C4E00F01F012A46D9
:10346C0005FA01F11F2894BF384630460DF0CEF80E
:10347C009DF80900022200F01F0105FA01F11F2836
:10348C0094BF384630460DF0C1F89DF80A002A4624
:10349C0000F01F0105FA01F11F2894BF3846304691
:1034AC000DF0B4F89DF80B002A4600F01F0105FA48
:1034BC0001F11F2894BF384630460DF0A7F89DF84F
:1034CC000C00022200F01F0105FA01F11F2894BF25
:1034DC00384630460DF09AF89DF80D1002221F293F
:1034EC0094BF3846304601F01F0105FA01F10DF08A
:1034FC008DF888E701200CF0C5FF8EE70CF4012055
:10350C0010F401200AF4012000B0046080B00460C3
:10351C0000207047014B1878704700BF18F4012049
:10352C00704700BF002400B501224FF400616048D1
:10353C0083B00DF063F825465D4E01200CF062FF60
:10354C004FF48051304601AA01950CF0C3FF0134B1
:10355C0018B9019B0BB10446EFE71E2CEDD10022EC
:10356C004FF4001153480DF049F800224FF400714C
:10357C004F480DF01BF802224FF400714C480DF02F
:10358C0019F800224FF4007149480DF03FF8002261
:10359C00802147480DF00AF80222802144480DF0A2
:1035AC0009F80022802142480DF030F800224FF437
:1035BC0080613F480CF0FAFF02224FF480613C48D6
:1035CC000CF0F8FF00224FF4806139480DF01EF822
:1035DC0020200CF073FF2A200CF010FF29200CF097
:1035EC000DFF002108460CF025FF022132480CF09B
:1035FC00D9FF0122022130480CF008FF4FF40023C0
:10360C002E4CC4F88030BFF34F8FBFF36F8F172150
:10361C00C4F8803101200CF0A5FF00254FF4000305
:10362C00C4F8803184F817532360162101200CF064
:10363C0099FF042302224FF480511D480CF09EFF89
:10364C00012102200CF096FF2A464FF480511848B5
:10365C000CF0C0FF0B234FF48052012102200CF020
:10366C00D9FE4FF4805112480CF014FF4FF48051E6
:10367C000F480CF0B3FF4FF480036022C4F8803184
:10368C0084F8162323600CF069FF01220C4B1A708E
:10369C000CF0B8FFBFF34F8F0A490B4BCA6802F40A
:1036AC00E0621343CB60BFF34F8F00BFFDE700BF59
:1036BC0080B0046000B004600020036000E100E012
:1036CC0018F4012000ED00E00400FA05704700BF7B
:1036DC00704700BF014B1868704700BF28F40120E9
:1036EC00084B10B41A684FF40061002A0EBF012475
:1036FC00002401221C6008BF0022034810BC0CF0FF
:10370C007DBF00BF14F4012080B0046000224FF490
:10371C00006101480CF072BF80B00460002310B54A
:10372C001D4C82B04FF480511C4801AA24680193AF
:10373C000CF0D0FE88B9019B7BB1194B194A1B7850
:10374C00107043B1184B1A78EAB1184B1B68E31A86
:10375C00B3F5FA6F1DD202B010BD124B1A7862B1DC
:10376C00134B1B68E41A1D2CF5D9002001220E49BD
:10377C000B4B08701A7002B010BD01220C490C6082
:10378C001A7002B010BD012208490C601A7002B008
:10379C0010BDFFF7C7FE00BF28F4012080B0046005
:1037AC0026F4012024F4012025F4012020F401202A
:1037BC001CF40120002300B583B001A801930CF088
:1037CC002DFF01980CF052FE03B05DF804FB00BF16
:1037DC004FF4805101480CF05DBE00BF80B0046016
:1037EC0080B59A4884B00CF07DFE64200CF00AFE83
:1037FC0002200CF06BFE0CF025FE03200CF07EFE7C
:10380C0000200CF0C3FE00200CF088FE00200CF011
:10381C00E9FE002301AC012221460F208DF8043073
:10382C000CF094FE9DF80430002B00F0FD8001227A
:10383C00214610200CF08AFE9DF8040000B9A92046
:10384C000CF080FE00200CF019FE032164220846C7
:10385C000CF0A0FE40F6C41102200CF06FFE00220A
:10386C00012011460CF062FEFFF7A6FD04F07AFA77
:10387C002D200CF01FFE0C224FF0006174480CF050
:10388C0095FE02224FF0006171480CF0BFFE4FF420
:10389C0061234FF4002560266E4A21466E48CDE91F
:1038AC0001320CF03FFE0E216C4A6D4804F05EFBB9
:1038BC006C4B6D4A07CA84E80700C3F8805183F843
:1038CC0013631D60132101200CF04CFE22460221D3
:1038DC0066480CF0A7FD0122022164480CF0FEFDA5
:1038EC00022162480CF072FE0022012160480CF0AB
:1038FC008DFE4FF4887300250A225E484221C38056
:10390C005D4B02710360058185720AF059FEBD2082
:10391C000AF06AFE02205949594AFFF75DFD2A4612
:10392C004FF4805152480CF041FE02224FF480516A
:10393C004F480CF03FFE01224FF480514C480CF0E4
:10394C0065FE504A504B15705049514A1D70514BF1
:10395C000D7015604FF48051224645481D6001954D
:10396C000CF0B8FD0546C0B9019BB3B14A4EDFF867
:10397C000081376806E0019B6BB13368DB1BB3F544
:10398C00FA6F0AD222464FF48051404601950CF052
:10399C00A1FD0028EFD0FFF7C5FD20200CF08EFD17
:1039AC004FF480614FF480300CF0B4FD00283FD010
:1039BC0000224FF4001126480CF0F8FD00224FF4C1
:1039CC00001123480CF022FE01224FF40011204874
:1039DC000CF0F0FD01224FF400111D480CF00EFE0E
:1039EC0064200CF00FFD00224FF4006120480CF015
:1039FC00DDFD00224FF400611D480CF007FE032290
:103A0C004FF400611A480CF04DFD01224FF4006197
:103A1C0017480CF0CFFD00224FF4006114480CF055
:103A2C00EDFD01F061FDFEE756200CF017FDFEE602
:103A3C001A4B59680CF0FEFC29200CF03BFD2A2097
:103A4C000CF038FD20200CF0A9FDB1E700E004607B
:103A5C0000B0046021300101000800601D35001029
:103A6C0038F4012000E100E0300601100020036072
:103A7C0080B004602CF4012000000260213500109D
:103A8C002D35001026F4012025F4012024F401200A
:103A9C0020F401201CF4012028F401200030002027
:103AAC002DE9F84F0D461E4600EBC503D3F80C80EC
:103ABC0000EBC20204462F494046BDF82870D2F8EC
:103ACC000C90FFF761FA002841D149464046FEF7B9
:103ADC00B3FF29498146FFF757FA002837D14946E9
:103AEC004046FEF7ABFFDFF894A001465AF82500DC
:103AFC00FEF7A4FF224A4AF82500535DDFF884A0A4
:103B0C00FF2B5AF825B01CBF01335355414658467C
:103B1C00FFF73AFAE8B1DFF870B06FF003031C223C
:103B2C00204612FB0532194B4AF825804BF825909C
:103B3C001A4404F13801C3680830884242F8043F43
:103B4C00F9D1134A134B42F8256023F81570BDE8E0
:103B5C00F88F58464146FFF70DFA0028F7D0DFF8EA
:103B6C0028B049465BF82500FFF70EFA0028EED086
:103B7C00D3E700BF0AD7A33E0AD7233D94F5012013
:103B8C008CF5012074F501205CF50120B4F40120C2
:103B9C009CF4012090F4012003680868184700BFCA
:103BAC0010B40468086811681A68234610BC1847DA
:103BBC00034610B5104652B15A18C02A07D8054C06
:103BCC008A0004EB83010BF0C0FA002010BD4FF00B
:103BDC00FF3010BDB8F5012070B500241D491E4BF7
:103BEC001E4D1F4EA822C1E90044C1E90244C1E99F
:103BFC0004441C482146C3E90044C3E90244C3E918
:103C0C000444C5E90044C5E90244C5E904443460F0
:103C1C00B4800BF009FA144BFF20C3E90044C3E94C
:103C2C000244C3E904449C61104B114A1C60114BC3
:103C3C0011491C800023C2E90044C1E90044C2E9D7
:103C4C000244C2E904448C600C490D4A08701360AC
:103C5C0070BD00BF74F501205CF5012094F50120C6
:103C6C008CF50120B4F4012070F4012064F40120DF
:103C7C009CF4012060F4012090F4012000F001205C
:103C8C008CF401200BF034B808B528B130F8023CA4
:103C9C00C01AFFF7F7FF08BD6B21024B024A03481D
:103CAC000AF0E4FF3C060110400601106C060110FE
:103CBC002DE9F843D0F80CE01C469EF85460DDF872
:103CCC0020C0D3F8805066B100212F1D55F831006B
:103CDC0020B157F831309A4207D033B101318E42BE
:103CEC00F4D16FF02000BDE8F883BEF86270E7B144
:103CFC000568DEF86460013FDCF80080DCF80490B5
:103D0C002F44043E013D15F9010FFEF74BFF4146D0
:103D1C00FEF792FE4946FEF799FF56F8043FBD4266
:103D2C0004F1080423606060EDD10020BDE8F88345
:103D3C00012A02D1016000207047022A05D0032A13
:103D4C00F9D0002AF7D10260F5E70B680360F2E7BF
:103D5C00012A02D1016000207047022A05D0032AF3
:103D6C00F9D0002AF7D10260F5E70B680360F2E79F
:103D7C00012A02D1016000207047022A05D0032AD3
:103D8C00F9D0002AF7D10260F5E70B680360F2E77F
:103D9C002DE9F04F04680868A1681268B0FBF1F9CE
:103DAC00B2FBF1FAD3F80080E36887B01A6A02FB21
:103DBC0009F902FB0A9AD14538BF4FF0000B2CD2FF
:103DCC0039B30025012708EB8B06CDF8048006E0FB
:103DDC00A1686B1C8B4206F1040614D21D46D4E973
:103DEC0000035B5D82684B44CDE903370596C2B195
:103DFC00D0F80C8005AB04AA03A9C0470028E7D073
:103E0C0007B0BDE8F08F0BF1010BDDF80480E3681F
:103E1C00AB441A6A9144D145D2D3002007B0BDE817
:103E2C00F08F0AF00DFF00BF70B5D0E9001391F8C8
:103E3C003C20054682B10024264653F8240030B1BC
:103E4C000368DB689847D5E9001343F8246091F8C0
:103E5C003C2001349442F0D31846FFF713FF284658
:103E6C0070BD00BF2DE9F04F83B005460F464FF4EF
:103E7C007A79FFF72FFCA0FB0998002D5DD0EE6836
:103E8C00F36C2BB3002402E0F36CA34220D9D5F8D9
:103E9C0010E021463B462846BEF1000F01D05EF8EB
:103EAC0024E0326D02EB441CDCF81C20CDF804E05D
:103EBC00DCF818E00134CDF800E0DCF810A0D047B5
:103ECC0082460028E0D0FFF705FC4FF47A7328E017
:103EDC0096F85420FAB10024D7F88030A2460AE0B4
:103EEC002846FFF7CFFED7F8803043F80BA096F8A2
:103EFC005420A2420FD953F834504FEAC40B01346A
:103F0C00002DF6D028680028EAD02B7B002BE7D0B8
:103F1C00FFF7B8FEE4E7FFF7DDFB4FF0000A4FF4C4
:103F2C007A73A0FB0332B3EB090362EB0802C7E917
:103F3C001C32504603B0BDE8F08F6FF00A0AF8E768
:103F4C00002070472DE9F0430546C068984690F86C
:103F5C0044300E46174685B00BB3002404E0E868E5
:103F6C0090F84430A3421AD9826C04EB440302EB60
:103F7C00C30CDCF81030CDF80C80DCF80820CDE94F
:103F8C0001729CF8141022460091DCF80490314622
:103F9C00C84701340028E2D005B0BDE8F083FFF734
:103FAC00CFFF831C18BF002005B0BDE8F08300BF15
:103FBC000FB470B5C2B046AB53F8042B4FF48071FC
:103FCC0002A801930AF0F8FF00280DDD02ACFF28CF
:103FDC00D4BF251804F1FF05064E14F8011B30461A
:103FEC000CF090FAAC42F8D142B0BDE8704004B08D
:103FFC00704700BF000800600B4601782DE9F041C6
:10400C0003290446D3E9012002FB00F00AD0092958
:10401C002DD0012921D02B48FFF7CAFF6FF00D00DE
:10402C00BDE8F081A16981423BD199B165681E68F8
:10403C000139276905EB0108043E013D15F8010F14
:10404C00C01BFEF7AFFDE168FEF700FEA84546F881
:10405C00040FF3D10020BDE8F081A269B0EB920F00
:10406C0026D1616818680BF070F80020F3E7A1699D
:10407C00814216D10029EDD065681E680139276987
:10408C0005EB0108043E013D15F9010FC01BFEF7BD
:10409C0089FDE168FEF7DAFD454546F8040FF3D1DA
:1040AC00D8E702460848FFF783FF6FF01700B7E721
:1040BC00111EB8BF0331024689100348FFF778FF81
:1040CC00F3E700BF30070110EC0601102DE9F84FA3
:1040DC000A9B81461546002B00F088800026B346CB
:1040EC003746D9F800402978D4E9013202FB03F0B5
:1040FC00032907440AD009294DD0012933D041485E
:10410C00FFF756FF6FF00C00BDE8F88F4FF000087A
:10411C00D0B12368E96853F82800FEF74BFE0AF08B
:10412C004FFDFEF759FF2A696B68104480F30800B5
:10413C0003F80B00D4E9013202FB03F308F1010888
:10414C0043450BF1010BE4D80A9B0136B342C8D1AD
:10415C00A969B7EB910F03D0B94218BFBA464AD13F
:10416C000020BDE8F88F0028EED023686A680BF1B8
:10417C008041043B013902EB810203EB800453F8CC
:10418C00041F9C4242F8041FF9D10A9B0136B3422A
:10419C008344A6D1DCE70028D6D04FF0000A6FF09C
:1041AC007F082268E96852F82A00FEF703FE0AF03D
:1041BC0007FDFEF711FF29696A6808447F28A8BF2C
:1041CC007F204045B8BF404602F80B00D4E90121DE
:1041DC0001FB02F20AF1010A52450BF1010BE0D886
:1041EC000A9B0136B3427FF47CAFB1E791698B082F
:1041FC00B6D0DDF828A004485246FFF7D9FE6FF080
:10420C00170081E770070110940701102DE9F041A8
:10421C000C461E4690460546FFF75CFA4FF47A7C36
:10422C000346A3FB0C322F69366879681448C4E93D
:10423C00003288470146E0B941463B69984704463D
:10424C0080B92B7B93B1034602E02A7B9A420DD9AD
:10425C00AA6806EB8311D05C7B6998470134E3B202
:10426C000028F2D06FF00200BDE8F0810020BDE81C
:10427C00F0810448FFF79CFE6FF00500F7E700BFE4
:10428C00B1430010E4070110002370B586B08D68AF
:10429C0001934B68D66805FB03F305698268AB4252
:1042AC0028BF2B4602930B680C460493002A55D06A
:1042BC00C56804AB02AA01A9A8474FF07E5130464D
:1042CC00FEF758FE054610B1002006B070BD03463F
:1042DC00A288314662F30F03ADF80820228902A8A8
:1042EC0062F31F4304932368ADF80A2004AA0393D6
:1042FC00059303F06DFE0028E6D019491948FFF725
:10430C0057FE2B46A2883146ADF8082062F30F0306
:10431C00228902A862F31F4304932368ADF80A2094
:10432C0004AA0393059303F053FE01460E48FFF7CE
:10433C003FFEA38831462689ADF8083063F30F059C
:10434C00236804AA02A866F31F45CDE90335ADF82E
:10435C000A60059303F03CFE06B070BD0AF070FCD9
:10436C0014080110180801102008011030B58BB08A
:10437C00FEF744F804460D46064A2021CDE90045D7
:10438C0002A80AF0B9FD044802A9FFF711FE0BB010
:10439C0030BD00BF340801103C0801100AF0A0BC6D
:1043AC000AF082BC431E034210B5044613D180B1FF
:1043BC0079B1481C20440121FFF7F2FF024640B1BD
:1043CC00631C0344644203EA0400821A20F8022CA2
:1043DC0010BD002010BD4821024B034A03480AF0CF
:1043EC0045FC00BF400801105C0801106C06011070
:1043FC000B462DE9F04F8FB0099393680446049057
:10440C00544950690893FDF78BFE002814BF032311
:10441C000123D4F810900393B9F1000F00F09080B1
:10442C004FF0000B4E46DA464B4CCDF814B0B6F5B7
:10443C00806F354628BF4FF48065089B012105FB32
:10444C0003F080000295FFF7ABFF834600287BD07A
:10445C00059B0D90CDE90B35049B9B68002B77D009
:10446C00049A0DAB1046D5680BA90CAAA847002ED0
:10447C0058D0099B0027CDE9066BD3F80090ABF11F
:10448C00040820E0354901903046FEF7DFFB024678
:10449C00334928461546FEF7D9FB01462846FEF758
:1044AC00CDFA019B05462F491846FEF7CFFB014676
:1044BC002846FEF7C3FA029B0137BB420AF1010AF8
:1044CC0049F80B002CD958F8040FFEF7ABFD054644
:1044DC00C0F30740FEF762FB2146FEF76BFC064675
:1044EC00C5F30720FEF75AFB2146FEF763FC034693
:1044FC00E8B21D46FEF752FB2146FEF75BFC039922
:10450C004FEA8A0B032909EB8A02BBD1029B0137C4
:10451C00BB4249F82A60556090600AF1030AD2D870
:10452C00DDE9066B029B5846F61AFFF7ABFB049BC2
:10453C00059A1B6902F58062934205923FF677AFAC
:10454C0000200FB0BDE8F08F07480FB0BDE8F08F2A
:10455C000AF076FB9408011000007F438716993E01
:10456C00A245163FD578E93D16FCFFFF2DE9F04F2B
:10457C00A3B02E9C8146207B2569800117469B4663
:10458C0005950D46FFF70AFF04900890FFF7A2F877
:10459C0000217B4B12AE12937A4B139110937A4BF2
:1045AC000DF134080F931191324696E8030008ABD5
:1045BC0088E8030020460AA9FFF728FE8246B0B11E
:1045CC00119A0F9C42B10992002C00F0D680404603
:1045DC00109A09A990470F9C002211921CB103223A
:1045EC0041464046A047504623B0BDE8F08F2C9979
:1045FC005B46009199F844103246029199F83C10B0
:10460C00284601912D99D1F88010FFF75FFD824665
:10461C000028D5D1DDE90A69226992689047002803
:10462C0040F0A880FFF756F84FF47A72A0FB0221F5
:10463C002D9B921B61EB0901C3E91A21FFF780FC4A
:10464C00023008BF6FF0010A227B002A53D04FF0D2
:10465C000009FD00049E2D9FCDF81CA0B2681068C7
:10466C00002840F3848000234FF0010B52F8041F04
:10467C000133834201FB0BFBF8D196F800A0BAF191
:10468C00030F0CD0BAF1090F09D0BAF1010F54D0B5
:10469C0051463E48FFF78CFC6FF00D0A90E7237DE6
:1046AC00102083BBFFF77AFE012182465846FFF7A4
:1046BC0077FE0123CAF80000D7F880E0B269716870
:1046CC00CAF808B08AF80C30CAF804304EF805A0C5
:1046DC000AF03BFDD7F8803062682B444A445A609C
:1046EC00237B09F101094B4506F1400605F108054C
:1046FC00B4D8DDF81CA0059B2148DA6890470498D3
:10470C00FFF7C0FA5CE7FFF749FE012182464FEA4A
:10471C008B00FFF745FE0122D7F880C0CAF80000D5
:10472C00CAF808B08AF80C20CAF804205146304662
:10473C004CF805A0FFF760FCCCE71020FFF72EFE2D
:10474C00034651464FEA8B000693FFF729FE069B62
:10475C00D7F88020C3F808B0186083F80CA0C3F811
:10476C0004A071685351B2690AF0EFFCB2E74FF044
:10477C00010B82E76FF0020A66E70AF061FA00BFEC
:10478C00953C0010A53B00107D3D0010300701103A
:10479C002DE9F04FB5B03E9E0446307B3569800163
:1047AC00119507910F920D939DF8FCA0FFF7F6FD64
:1047BC00002305463E493F4A22913F4924922593C6
:1047CC0024AA23931FAB21910E9092E8030083E857
:1047DC000300304617AB1CA91795FFF717FD0746CA
:1047EC00002840F07C819DF89030092B02D0032BDF
:1047FC0040F04E83FEF76EFF259BA2690593159240
:10480C001290002B00F0398300231093236C28980E
:10481C00DD68FEF7C7F90346A26C6869D2682749C0
:10482C000C92AA6801930B92FDF77AFC079B002867
:10483C001D6914BF03230123DDF89C900693002D02
:10484C0000F0D5804FF000083E96CDF850A04646BB
:10485C00AB46CA461397BBF5806F5C4628BF4FF436
:10486C0080640B9B012103FB04F08000FFF798FD93
:10487C008146002800F0A182079BCDE918649B6853
:10488C001A90002B00F00A83079B19AA1846DD68C2
:10489C0018A91AABA847BBF1000F00F0988002943E
:1048AC000025CDE9089B0C9CA9F104070A9637E07A
:1048BC00A53B0010953C00107D3D001094080110A4
:1048CC00FEF758FB002800F021814FF0434101987E
:1048DC00FEF750FB002800F01981002C40F05781A6
:1048EC0049F2456044F68B4300FB0BF003FB0900D7
:1048FC0041F62F5303FB06000014FEF753F94FF05B
:10490C008641FEF799F8FEF767FB00F3070040B20B
:10491C00039B01351870029BDDF81080AB4252D915
:10492C0057F8040FFEF77EFB08F101030493059B77
:10493C00C0F3074943440393069BC0F3072B032B97
:10494C00C6B2A5495046BBD1FEF714FB002800F0B7
:10495C004F814FF043410198FEF70CFB002800F00B
:10496C0047814846002C40F08D81FEF71BF94FF033
:10497C008641FEF761F8FEF72FFB81465846FEF79D
:10498C0011F94FF08641FEF757F8FEF725FB034669
:10499C0030465EB2FEF706F94FF08641FEF74CF852
:1049AC00FEF71AFB4FFA89F940B2039B059A08F1FE
:1049BC00010183F8009056549870029B0135AB426C
:1049CC0008F10308ACD8DDE9089B1C460A9E484652
:1049DC00FFF758F9079B06F580661B69ABEB040BD8
:1049EC009E42FFF438AF139F3E9EDDF850A0FFF7B8
:1049FC00A7FA831C00F03F82FEF76CFE129BC01AD4
:104A0C0062EB0202510143011B1A41EAD06161EBD6
:104A1C000201890041EA93719B001B1842EB0102D1
:104A2C00D2000D9942EA5372DB004A660B66BAF16A
:104A3C00000F40F0FF81FEF74DFE4FF47A74A0FB9F
:104A4C0004953369CDE91C959B689847002840F084
:104A5C002282FEF73FFEA0FB04320D99B3EB090353
:104A6C0062EB0502C1E91A32FFF76AFA023008BF9D
:104A7C006FF00107337B002B00F0978100250F9B13
:104A8C000E9CDDF834804FEAC3090197A2681068C8
:104A9C00002840F3FA8100234FF0010A52F8041F5A
:104AAC000133834201FB0AFAF8D194F800B0BBF150
:104ABC00030F00F04D81BBF1090F00F04981BBF1F0
:104ACC00010F00F0818159464448FFF771FA6FF0ED
:104ADC000D07059B1BB1109B002B40F0A781239A5F
:104AEC00219B42B11B92002B00F0D881229B1FA866
:104AFC001BA99847219B002223921BB11FA90322BB
:104B0C0008469847384635B0BDE8F08F4846FEF762
:104B1C0045F880465846FEF741F881463046FEF788
:104B2C003DF80646002C3ED140462D49FEF742F991
:104B3C002B4980464846FEF73DF9294981463046C7
:104B4C00FEF738F9064640462649FEF77FF8264917
:104B5C0080464846FEF77AF801464046FDF76EFF60
:104B6C000346224930461E46FEF770F80146304691
:104B7C00FDF764FF5146FEF71DF90AF021F80146D6
:104B8C000198FDF75BFFFEF727FA40B2C0E64846F6
:104B9C00FEF704F880465846FEF700F8814630468A
:104BAC00FDF7FCFF0646022C00F08E80042CCAD1C7
:104BBC0040464FF08641FDF73FFF4FF0864180465F
:104BCC004846FDF739FF4FF0864181463046FDF7E8
:104BDC0033FF0646B7E700BF8180803B30070110EA
:104BEC0000007F438716993EA245163FD578E93DD4
:104BFC004846FDF7D3FF81465846FDF7CFFF834665
:104C0C003046FDF7CBFF0646002C46D14846A4495A
:104C1C00FEF7D0F8A24981465846FEF7CBF8A049DA
:104C2C0083463046FEF7C6F8064651464846FEF720
:104C3C00C1F809F0C5FF01460198FDF7FFFEFEF72C
:104C4C00CBF9514681465846FEF7B4F809F0B8FF47
:104C5C00DDF804B001465846FDF7F0FEFEF7BCF94E
:104C6C000346514630465EB2FEF7A4F809F0A8FFA1
:104C7C0001465846FDF7E2FEFEF7AEF94FFA89F908
:104C8C0040B292E6FDF78AFF81465846FDF786FF53
:104C9C0083463046FDF782FF0646022C36D0042CA4
:104CAC00C3D148464FF08641FDF7C6FE4FF0864112
:104CBC0081465846FDF7C0FE4FF08641834630468C
:104CCC00FDF7BAFE0646B0E740467549FEF772F8A6
:104CDC007449FDF7B1FE7449FEF76CF870498046D3
:104CEC004846FEF767F87149FDF7A6FE7049FEF7D6
:104CFC0061F86B4981463046FEF75CF86D49FDF76B
:104D0C009BFE6D49FEF756F806461CE7484664497B
:104D1C00FEF750F86349FDF78FFE6349FEF74AF83A
:104D2C005F4981465846FEF745F86049FDF784FE19
:104D3C005F49FEF73FF85A4983463046FEF73AF88A
:104D4C005C49FDF779FE5C49FEF734F806466CE7E2
:104D5C00337D1020002B50D0FFF720FB0121834620
:104D6C004FEA8A00FFF71CFB0123D8F88020CBF810
:104D7C000000CBF808A08BF80C30CBF80430594667
:104D8C00204642F809B0FFF737F9D8F8803072683E
:104D9C004B442A445A60337B0135AB4204F1400446
:104DAC0009F108093FF672AE019F119B4348DB687D
:104DBC0098470E98FEF766FF8BE641494148FFF78E
:104DCC00F7F86FF0040784E61020FFF7E7FA59466E
:104DDC0007464FEA8A00FFF7E3FAD8F88020C7F8B5
:104DEC0008A0386087F80CB0C7F804B0616842F8C6
:104DFC000970A2690AF0A9F9C7E7FFF7CFFA0121F8
:104E0C0083465046FFF7CCFA0123CBF80000D8F8C4
:104E1C0080C0A2696168CBF808A08BF80C30CBF885
:104E2C0004304CF809B00AF090F9AEE70598FEF79B
:104E3C0029FF54E6C96C2448FFF7BAF8159BB3B1A7
:104E4C00159B224D5C1E059B1C4403F1FF39289BCE
:104E5C0019F9010FC01AFDF7A5FE2799FDF7F6FE0B
:104E6C00FFF784FA2846FFF7A3F84C45EFD1184812
:104E7C00FFF79EF8DFE507462BE601211046FFF70A
:104E8C008FFA012305901093C0E44FF0010A0CE651
:104E9C006FF0080723E66FF00207EBE509F0D0FE90
:104EAC0000007F43EC51F83EFA7E6A3ED578E93E2D
:104EBC004260653E3BDFCF3E6666663E953C001029
:104ECC0016FCFFFFA0080110C8080110DC08011037
:104EDC00E40901102DE9F04FA3B0804691460691EC
:104EEC000B93002800F0D782C368002B00F0D3820C
:104EFC00002A00F0D082002900F0CD828822002107
:104F0C0048460AF091F8D8F80C3093F85440E40075
:104F1C002046FFF743FA22460021C9F880000C9086
:104F2C000AF082F8D8F80C0090F85530826C022BFD
:104F3C00D2E9014100F02A81053BDBB2092B06D8EE
:104F4C0040F2452222FA03F3DA0700F11F8190F8B0
:104F5C003C300A930A9BDC002046FFF71FFA82467E
:104F6C00002800F0C381224600210AF05DF80A9C5B
:104F7C00A31C9B0018460F9309F060FE04230360EA
:104F8C00034608330E9044600D932CB10A9B00210C
:104F9C000D989A000AF048F8FEF79CFBD8F80C30F4
:104FAC00119093F83C20002A00F0AA8000240E9A5D
:104FBC00029402F1040BCDF82490196C04EBC40399
:104FCC0001EB830251F823609B000893D2E9015353
:104FDC000793D36810200593136957690493D36919
:104FEC000393FFF7DBF901218146A800FFF7D8F9FD
:104FFC004FF0010389F80C3001235BF8041FC9E959
:10500C000135CBF80090C9F8000051B1086818B10F
:10501C000B7B002B40F018810846FEF733FED9F8C5
:10502C000000002800F06881029B0AF104022B4466
:10503C00D8F80C504AF8349042F83460AA690293BC
:10504C00934200F280810022049B1F92296A1A93DA
:10505C00069B8F421DAE1D92CDE91B7519932092B4
:10506C00726000F0BD801692BC4AB1461F92BC4AD9
:10507C0020921A6919ABB2FBF1F207FB02F21593FD
:10508C00219213AB15AA92E8030083E80300039B5B
:10509C0086E80300002B00F0A980B24D2B78002B82
:1050AC0000F0AC80D8F8045055F82400002800F02B
:1050BC00B680DDF824C0D8F80C7005685AF8342096
:1050CC00CDF804C0BF6B49460097059B6D68A84797
:1050DC00002840F05981FEF733FF831C00F06681F5
:1050EC001F9B1BB10322314630469847D8F80C3031
:1050FC00013493F83C20A2423FF65FAFDDF82490D8
:10510C00FEF7E8FA119BC01A62EB0202510143014F
:10511C001B1A41EAD06161EB0201890041EA9371EB
:10512C009B001B1842EB0102D20042EA5372DB00D7
:10513C00C9F860300B9BC9F86420002B40F08181CA
:10514C000B9B4A4651464046FEF7FCFE0F9B05461C
:10515C00A3F108040D9B1C44002800F029810D9B31
:10516C009C4276D00D9F04E03046FEF78BFDA742A3
:10517C006FD054F8046D002EF9D030680028F3D0AD
:10518C00337B002BF0D0FEF77DFDEDE790F83C5023
:10519C0090F861200A95002A7FF4DCAE724B9C4299
:1051AC007FF4D8AE4B7B002B3FF4D4AE012D7FF4B3
:1051BC00D1AE036C9C686D4B9C4240F06F810B9B95
:1051CC00CDE900134B460699FFF7E2FA0546002895
:1051DC0047D00C98FEF756FD284623B0BDE8F08F5B
:1051EC00039BDDF81890002B7FF457AFAB6B484650
:1051FC00059A5AF83410079DA84769E75C495D4841
:10520C00FEF7D6FE5C48FEF7D3FE4FF001032B7081
:10521C00D8F8045055F8240000287FF44AAFD8F889
:10522C00003008991A6C0A44D068996BD369984776
:10523C00D8F8043045F8240053F8240000287FF4F3
:10524C0038AF6FF00A05A5E01091FEF71BFD109921
:10525C00E2E6DDE90E0109F0DEFC5046FEF712FD38
:10526C00B7E749464046FEF7FDFD0546D9E918016A
:10527C0010F5FA704FF47A724FF0000341F100010F
:10528C00FDF7F0FE0346D9F86800D9F86C1010F55C
:10529C00FA704FF47A7241F10001C9F84C300023D6
:1052AC00FDF7E0FE0346D9F87800D9F87C1010F52C
:1052BC00FA704FF47A7241F10001C9F850300023B2
:1052CC00FDF7D0FE0346D9F87000D9F8741010F52C
:1052DC00FA70C9F858304FF47A724FF0000341F16C
:1052EC000001FDF7BFFEC9F8540072E72348FEF732
:1052FC005FFE6FF007056CE721462148FEF758FE6C
:10530C000F9BA3F108040D9B1C449C4214D0264611
:10531C000D9F04E02846FEF7B5FCBE420CD056F8B3
:10532C00045D002DF9D028680028F3D02B7B002BCE
:10533C00F0D0FEF7A7FCEDE7DDE90E0109F06BFC00
:10534C006FF007050BE70F48FEF732FE0F9B6FF06F
:10535C000405A3F108040D9B1C4400E73D3D00101F
:10536C009D3D0010B8F8012079450010FD43001058
:10537C0074090110180801107C090110E0080110D3
:10538C00100901104809011001465248FEF710FEA1
:10539C006FF004051F9B1BB1032231463046984722
:1053AC000F9BA3F108040D9B1C44D8E60546F1E7BE
:1053BC0040464946FEF756FD054600287FF4CFAE21
:1053CC00D9F86030D9F8641013F5FA704FF47A728A
:1053DC004FF0000341F10001FDF744FED9F86830AD
:1053EC00D9F86C10C9F84C0013F5FA704FF47A72B6
:1053FC004FF0000341F10001FDF734FED9F878308D
:10540C00D9F87C10C9F8500013F5FA704FF47A7281
:10541C004FF0000341F10001FDF724FED9F8703084
:10542C00D9F87410C9F8580013F5FA704FF47A7261
:10543C004FF0000341F10001FDF714FEC9F85400D0
:10544C008DE6D9F84C102448FEF7B2FD0A9BF3B157
:10545C000025224C224FDDF828B05AF835309BB18C
:10546C009A6800266AB11B6853F82600FEF77EFF87
:10547C002046FEF79DFD5AF8353001369A68B24247
:10548C00F1D83846FEF794FD01355D45E5D1154858
:10549C00FEF78EFD54E66FF015059DE6082002928E
:1054AC00FEF77CFF029A824600283FF41FAFCAF831
:1054BC000020CAF804200C2009F0C0FB04230C22A5
:1054CC0003600A9B0F92436000F108030E900D934A
:1054DC005CE500BFA0080110C8080110DC08011031
:1054EC00E4090110E80901102DE9F04FC1B001F0F9
:1054FC0073FE68B9FEF7F4F8C824FEF70FF9012023
:10550C000AF080FF013CF8D101F066FE0028F1D0D2
:10551C000024FEF7FBF84FF4407221469C4809F03A
:10552C0083FD9C4B9C4F1C609C4BDFF874A21C6051
:10553C009C4BDFF85CB21C709B4B1C70FEF74CFB59
:10554C009A4B9B4A1C609B4B14601C609A4B9B4A69
:10555C001C60012314709A4A137004231D460CA876
:10556C0001F010FE002863D03A68964B02F51C42FD
:10557C004032A3FB0213DAF8004009A804EB5304F1
:10558C005B0803EBC303D21A3A60CAF8004001F07F
:10559C00D3FD00284AD08A4B1B78002B46D0874A73
:1055AC001378002B47D101231370234645F6EA32BA
:1055BC001344814A136000227D4B1A60754B1E68A0
:1055CC0006F10608B8F1C00F88BF1A602ED8BDF9D5
:1055DC002400FDF7E7FA4BF82600BDF92600FDF78D
:1055EC00E1FA731C4BF82300BDF92800FDF7DAFA39
:1055FC00B31C4BF82300BDF92A00FDF7D3FAF31CBA
:10560C004BF82300BDF92C00FDF7CCFA331D4BF8F9
:10561C002300BDF92E00FDF7C5FA5E4B0536B8F137
:10562C00C00F4BF82600C3F800800FD0013D96D177
:10563C00FEF774F891E7604B1B68E21A002AF5DB61
:10564C005B4A126802F5B7426A32B1E700231F9336
:10565C005D4B88221E935D4BCDF8548013935C4BAD
:10566C0014931EAB93E8030016AB83E8030011AB55
:10567C0083E803001EA809F0D7FCFEF72BF80023E3
:10568C0081461EAA534811A9FFF724FC0646FEF7D3
:10569C0021F8002E5FD14FF6FF72A0EB0903934265
:1056AC0028BF13469BB20593FEF714F80346DDF8AA
:1056BC008C90DDF88480484641460493FDF782FCCB
:1056CC00002860D1C1464FF0010803960226CDE9AF
:1056DC0006451EAB03EBC603DC6849462046FDF7C6
:1056EC0071FC40AB03EBC801F5B2002846D1204653
:1056FC0051F87C1CFDF766FC002818BFA846013643
:10570C00062EE6D1DDE906452D9E49463046FDF7CD
:10571C0059FC002840F06E81CDF8189030462E4987
:10572C00FDF746FC1F4B1B7800285BD1002B40F08B
:10573C006681204B049A1B68D31A002B0BDB48465E
:10574C002649FDF735FC30B130462349FDF71CFCEA
:10575C00002840F0758122494FF41072A1F1C0006D
:10576C0009F048FC90230B4A1360139B002B3FF469
:10577C005DAF11A903220846984757E7DDF80C8066
:10578C00A1460395BBE70123B04603939EE700BFF8
:10579C00B8F50120B4F5012058F40120B0F5012032
:1057AC005CF40120ADF50120ACF501206CF4012076
:1057BC0050F4012068F4012054F401204CF4012031
:1057CC004DF40120398EE338BD3B00105D3D0010D7
:1057DC00AD3B0010BCF801209A99593F9A99993E1B
:1057EC0078F60120002BA4D0059B42460093039928
:1057FC0023461EA8FEF754F9A44B1B78FF2B08D0A8
:10580C00A24A0133DBB21370A14A012B126800F0DB
:10581C003281A04B5E681C6830462146FDF7D2FBF6
:10582C00002800F0088134464FF001084FF00009C1
:10583C0002262046984B05950393039B444653F848
:10584C00045F29460393FDF79FFBF2B248B134463F
:10585C000136062EC146904611D08E4B53F82400CB
:10586C00EBE78C4B284653F829100692FDF7AAFB60
:10587C00069A0136002818BF9146062EEDD1DDE9B7
:10588C00043503F5AF76854B1B5D002B00F0EC80E7
:10589C00804B002153F829904846FDF793FB7D4B34
:1058AC0053F8243048B149461846FDF7C5F87C49F1
:1058BC00FDF76AFB002840F0E1807A4BC4EBC40C86
:1058CC001E600026784B794A83F80080784BDFF80D
:1058DC00E4E103EB8C0C784B53F82490774BC3F832
:1058EC000090774B53F8243032F81440754A0393E8
:1058FC001360754B1C80754B1E70644B1E70BCE89E
:10590C000F00AEE80F009CE807008EE80700484641
:10591C006F49FDF74DFB00283FF41DAF039B6D4A0B
:10592C001893136800211793013313606A4B484690
:10593C008DF86480CDF86660CDF86A60CDF86E6045
:10594C00CDF87260ADF876601693FDF727FB88B939
:10595C004FF07E514846FDF72BFB002869D15F497B
:10596C004846FDF773F94FF07C51FDF767F8FDF7EA
:10597C0059FBC6B28DF86560DFF86491594E0DF194
:10598C006408039515E04FF07E512846FDF710FB97
:10599C0090BB49462846FDF759F94FF07C51FDF76D
:1059AC004DF8FDF73FFB83B228F8023F4E4BB34254
:1059BC000DD056F8045F00212846FDF7EFFA0028B9
:1059CC00E1D0002328F8023F474BB342F1D100222B
:1059DC00039DADF874400DF1570313F8011F0A44F1
:1059EC000DF175018B42F8D116A8ADF8762002F0B6
:1059FC00C5F9B0E6069691E642F21073D4E7059B22
:105A0C00039900931EA823464246FEF749F80698D0
:105A1C003649FDF7B9FA00287FF4EEAE1B4A1C4B51
:105A2C0010701B68049AD31AB3F5C86FBFF4F1AEAB
:105A3C0091E6FF269EE74FF000084FF00109F7E6CC
:105A4C00049A134B1A600123204A137000230F4A47
:105A5C001370FEF7C1F8059B424600930399234649
:105A6C001EA8FEF71DF876E60E4A1660174A13704C
:105A7C00064A13706FE6049B9B1AD5E7094B134A31
:105A8C001E6000231370014A137064E6ACF501200C
:105A9C006CF4012094F5012098F501208CF501207F
:105AAC00CDCC4C3D68F4012000F0012090F4012095
:105ABC00B4F4012070F4012074F501208CF4012061
:105ACC009CF4012064F4012060F40120ADF5012068
:105ADC003333B33EB0F50120AA55010200007F43D9
:105AEC0000401C466CF4012088F401209A99993EE0
:105AFC002DE9F04100270F4D0F4B95F83C600F4CF2
:105B0C001B684FEA860840462560EB662772FEF755
:105B1C0045FC60601EB14246394609F085FA002307
:105B2C00E560C4E90433BDE8F041054A0549034882
:105B3C0009F06AB804F00120D4F80120BCF8012067
:105B4C0048F40120353E001010B52C2200210446EB
:105B5C0009F06AFA0423A371002010BD034619B1A1
:105B6C0010B10020196070470320704730B40568ED
:105B7C0008462C6811461A461CB1A446AB6830BCCA
:105B8C006047022030BC704730B4056808466C682A
:105B9C0011461A461CB1A446AB6830BC60470220C3
:105BAC0030BC704710B5032982B014D883798B426E
:105BBC000ED0036881711C6809018DF807106CB157
:105BCC0001227F209B680DF10701A04702B010BD98
:105BDC00002002B010BD032002B010BD0220F5E77A
:105BEC00002230B5817983B0044603688DF8042017
:105BFC0041B182711D682DB19B6801227F2001A9E2
:105C0C00A84723685D68ADB1012206209B6801A9F5
:105C1C00A84768B925689DF804302C6843F08003C8
:105C2C008DF8043034B101220620AB6801A9A047DD
:105C3C0003B030BD022003B030BD00BF70B50022F0
:105C4C000446807982B00E4623688DF8042040B15A
:105C5C00A2711D682DB19B6801227F2001A9A84764
:105C6C0023685D68ADB1012206209B6801A9A84795
:105C7C0068B925689DF804302C6866F386138DF896
:105C8C00043034B101220620AB6801A9A04702B050
:105C9C0070BD022002B070BD70B500220446807940
:105CAC0082B00E4623688DF8042040B1A2711D68A5
:105CBC002DB19B6801227F2001A9A84723685D684C
:105CCC00ADB1012206209B6801A9A84768B92568D7
:105CDC009DF804302C6866F345138DF8043034B10C
:105CEC0001220620AB6801A9A04702B070BD0220BA
:105CFC0002B070BD002230B5817983B004460368D0
:105D0C008DF806208DF8072049B182711D6835B1D8
:105D1C009B6801227F200DF10701A84723685C686E
:105D2C0074B1012200209B680DF10601A04728B92F
:105D3C009DF80600EA3818BF0120800003B030BD82
:105D4C00022003B030BD00BF2DE9F04184B00192B8
:105D5C008A070C4606466BD011F0010505D1A30746
:105D6C003ED4284604B0BDE8F08102258279036850
:105D7C008DF80F50AA42BDF80470D3F800805CD0A7
:105D8C00202285718DF80F20B8F1000F57D09B6839
:105D9C0001227F200DF10F01C04705463368D3F86F
:105DAC0000808DF80F703F0A8DF80E70B8F1000F5F
:105DBC0045D09B68012210200DF10E01C0473368BD
:105DCC0005431F68EDB2002F42D09B6801221120C1
:105DDC000DF10F01B847A30745EA0005EDB2C0D598
:105DEC000223B27931688DF80F309A420C680ED0CC
:105DFC002022B3718DF80F202CB38B6801220DF18A
:105E0C000F017F20A047316828430C68C5B29DF86C
:105E1C0006308DF80F30CCB18B68012200200DF1CB
:105E2C000F01A0472843C5B2284604B0BDE8F08155
:105E3C000725284604B0BDE8F0810025B1E745F000
:105E4C000205EDB28BE718461D43EBE70220E9E7AC
:105E5C0045F0020583E700BF70B500220446807947
:105E6C0082B00D4623688DF8042058B1A2711E68CB
:105E7C000EB301227F209B6801A9B04708B102B084
:105E8C0070BD23685E68B6B1012203209B6801A92E
:105E9C00B0470028F3D126689DF80430346865F3C8
:105EAC0086138DF8043034B10122B36801A90320A4
:105EBC00A04702B070BD0220E1E700BF002230B560
:105ECC00817983B0044603688DF8042061B1827136
:105EDC001D68002D32D001227F209B6801A9A847A4
:105EEC0008B103B030BD23685D683DB30122682062
:105EFC009B6801A9A8470028F3D121689DF80430BC
:105F0C000D6843F01F038DF80430BDB18B6801227E
:105F1C00682001A9A8470028E3D11E2225689DF816
:105F2C0004302C6862F304038DF8043034B1012280
:105F3C00AB6801A96820A04703B030BD0220D0E7B0
:105F4C00002270B50D46817982B0044603688DF845
:105F5C00042059B182711E6856B301227F209B68C0
:105F6C0001A9B04708B102B070BD23685E68FEB1EC
:105F7C000122702069469B68B0470028F3D1216844
:105F8C009DF800304C6803F01F038DF800307CB195
:105F9C008B680122712001A9A0470028E3D19DF84C
:105FAC0000209DF8043043EA02232B8002B070BD20
:105FBC00022002B070BD00BF4FF0000CF0B50D46D2
:105FCC00817983B00446164603688DF807C069B121
:105FDC0080F806C01F68A7B101227F209B680DF1D5
:105FEC000701B84708B103B0F0BD23685C6844B141
:105FFC00324629467220A4469B6803B0BDE8F040A7
:10600C0060470220EFE700BF70B50022044680799C
:10601C0082B00D4623688DF8042058B1A2711E6819
:10602C000EB301227F209B6801A9B04708B102B0D2
:10603C0070BD23685E68B6B1012203209B6801A97C
:10604C00B0470028F3D126689DF80430346865F316
:10605C00C7138DF8043034B10122B36801A90320B1
:10606C00A04702B070BD0220E1E700BF002230B5AE
:10607C00817983B0044603688DF8042059B182718C
:10608C001D680DB301227F209B6801A9A84708B1A8
:10609C0003B030BD23685D68B5B1012203209B6855
:1060AC0001A9A8470028F3D125689DF804302C6875
:1060BC0043F008038DF8043034B10122AB6801A918
:1060CC000320A04703B030BD0220E1E730B50379CF
:1060DC00044683B003B38279036849BA022A1D6867
:1060EC00ADF804100FD00221202281718DF803200D
:1060FC00ADB101227F209B680DF10301A84708B1C7
:10610C0003B030BD23681C684CB102229B6801A906
:10611C005020A04703B030BD082003B030BD022092
:10612C00EEE700BF2DE9F04707460D46904699462D
:10613C0082B0002B53D0002382798DF807305AB1EE
:10614C00837103681C68002C37D001227F209B6868
:10615C000DF10701A04788BBFA792B0A9A428DF8FA
:10616C0006302ED10026B8F1000F1CD13BE00DF10A
:10617C00070101227C209B68D04709EB0601E8B996
:10618C003B68102CD3F800A028BF1024BAF1000FE4
:10619C0013D07D2022469B68D04725442644ADB2BF
:1061AC0060B9B0451FD93B688DF80750D3F800A0F3
:1061BC00A8EB0604BAF1000FD9D1022002B0BDE859
:1061CC00F087FB713B681C68002CF6D001227E2006
:1061DC009B680DF10601A0470028C3D0EEE706200E
:1061EC0002B0BDE8F087002002B0BDE8F08700BF28
:1061FC002DE9F04707460D469046994682B0002B94
:10620C0053D0002382798DF807305AB1837103681B
:10621C001C68002C37D001227F209B680DF10701F0
:10622C00A04788BBFA792B0A9A428DF806302ED1FA
:10623C000026B8F1000F1CD13BE00DF10701012243
:10624C007C209B68D04709EB0601E8B93B68102C11
:10625C00D3F804A028BF1024BAF1000F13D07D206E
:10626C0022469B68D04725442644ADB260B9B04560
:10627C001FD93B688DF80750D3F800A0A8EB060493
:10628C00BAF1000FD9D1022002B0BDE8F087FB7142
:10629C003B681C68002CF6D001227E209B680DF117
:1062AC000601A0470028C3D0EEE7062002B0BDE8E7
:1062BC00F087002002B0BDE8F08700BF2DE9F04F59
:1062CC001F46037904468846164689B0002B5FD0DA
:1062DC0043791BB1002009B0BDE8F08F81790268C9
:1062EC008DF8103041B1837115682DB193687F2002
:1062FC00012204A9A84722685568002D78D093681C
:10630C000620012204A9A8470028E4D122689DF8A0
:10631C001030156860F386138DF81030002D67D09F
:10632C0093680620012204A9A8470028D3D101466E
:10633C002046FFF7B1FC0028CDD1002E67D03546A2
:10634C00C246B94600E045B3102DAB4628BF4FF00E
:10635C00100B1FFA8BFB5BFA89F3B3F5807FC8BF78
:10636C00A3F5807B51465A4604A808F0EEFE494638
:10637C0004AB5A462046FFF7D5FE1FFA8BF3ED1AF5
:10638C004B44ADB2DA441FFA83F90028DBD0A2E704
:10639C00082009B0BDE8F08F66B3102EB14628BFB7
:1063AC004FF0100959FA87F2B2F5807FC8BFA2F5F9
:1063BC0080796B46394620464A46FFF719FF00B1F3
:1063CC00013541464A4604A808F0BFFE4A466846D5
:1063DC0004A908F0FFFDC8441FFA89F9A6EB0906C9
:1063EC00B944B6B21FFA89F70028D5D0092072E754
:1063FC00022070E701212046FFF74EFC00287FF4B5
:10640C006AAF002D7FF466AF0123637162E701214F
:10641C002046FFF741FC0028F6D05CE7902343F2BE
:10642C00DD720149FFF74ABFC00B011070B503794B
:10643C0005460E4682B0002B3FD0002152BAADF873
:10644C000020ADF80410FFF7F9FB044610B120460C
:10645C0002B070BD01462846FFF71EFC044600281A
:10646C00F5D1A03E1E2E1ED8DFE806F0391D1D1DED
:10647C00471D1D1D551D1D1D631D1D1D1D1D711D44
:10648C00101D7F1D8D1D9B1DA91D2B000222B421EB
:10649C006B462846FFF746FE02229421284601ABA4
:1064AC00FFF740FE044601212846FFF7F5FB0028C4
:1064BC0018BF0446204602B070BD0824204602B026
:1064CC0070BD0222BE216B462846FFF72BFE02222E
:1064DC009E21284601ABFFF725FE0446E3E7022286
:1064EC00A0216B462846FFF71DFE0222802128467C
:1064FC0001ABFFF717FE0446D5E70222A4216B4639
:10650C002846FFF70FFE02228421284601ABFFF735
:10651C0009FE0446C7E70222A8216B462846FFF76E
:10652C0001FE02228821284601ABFFF7FBFD044641
:10653C00B9E70222AC216B462846FFF7F3FD022295
:10654C008C21284601ABFFF7EDFD0446ABE7022298
:10655C00B2216B462846FFF7E5FD02229221284620
:10656C0001ABFFF7DFFD04469DE70222B6216B4627
:10657C002846FFF7D7FD02229621284601ABFFF7EC
:10658C00D1FD04468FE70222B8216B462846FFF75F
:10659C00C9FD02229821284601ABFFF7C3FD044632
:1065AC0081E70222BA216B462846FFF7BBFD022287
:1065BC009A21284601ABFFF7B5FD044673E702228A
:1065CC00BC216B462846FFF7ADFD02229C212846D4
:1065DC0001ABFFF7A7FD044665E700BF2DE9F04FBF
:1065EC00037985B004460190002B62D013295CD846
:1065FC007D4B5B5C2B2B58D84FF6FF717B4830F8EA
:10660C001300884251D0D4E904781F2B55D90121AD
:10661C00203B9940002A40F0E180019B28EA0108C8
:10662C00C3F8148000224FF0010916461546144693
:10663C006F48DFF8C0B1DFF8C0A122E0E1B1B0F8DB
:10664C0000C011F4DD6F46EA0C0601F0840C4AD050
:10665C0045F0020544F4007413EA0A0F43D045F0E8
:10666C00010544F4807403EA0B0353EA0C031CBFCA
:10667C0045F0080544F080040132202A00F10200A4
:10668C003CD009FA02F303EA08013B40D6D030F8BB
:10669C0040CCDFF868E146EA0C0603EA0E0EA9B915
:1066AC00BEF1000F25D08C46D2E7072005B0BDE81F
:1066BC00F08F082005B0BDE8F08F01219940002A29
:1066CC0040F0888027EA01072761ABE7B0F800C0EB
:1066DC0046EA0C0601F0840CBEF1000FB8D111F49F
:1066EC00DD6FB5D1B8E740F6180E11EA0E0FB6D132
:1066FC00B9E713EA0A0CB6D0F446B0E7019F0021C3
:10670C003846FFF79BFA0028D0D101463846FFF7F0
:10671C00C3FA0028CAD144F240031E4242F220536D
:10672C00DDF804804FEA560707F4804718BF47F49A
:10673C00005796FA96FC1E424FF002024FF04001B1
:10674C004046A8F8206003AB18BF47F48057ADF85B
:10675C000CC0FFF7E7FC0028A8D18DF80D00A8F8B5
:10676C00227002223F0A4221404603AB8DF80C7086
:10677C00FFF7D8FC002899D18DF80C0002228A2151
:10678C004046A8F8245003AB8DF80D50FFF7CAFC17
:10679C0000288BD1720548BF44F0400416F0170F47
:1067AC0018BF44F40054F30548BF44F00804019D9D
:1067BC0060BAADF80C0002224E21284603ABEC84E3
:1067CC00FFF7B0FC00287FF471AF01212846FFF7DA
:1067DC0063FA6BE7019B0F431F6123E7019B48EAB8
:1067EC000108C3F814801DE7BC0A0110D00A01107F
:1067FC00100B01100C481083188E01E60A8E9EE2D5
:10680C0070B5037905460C4686B0002B00F0F88174
:10681C000DF10601FFF794FB002840F0EF81BDF865
:10682C000660012E40F2028220800222284602A934
:10683C00FFF7C2FB002840F0E181BDF80830023EB2
:10684C005BBAB6B223809AB21B076080ADF80660C3
:10685C0000F1D981100400F1EC8151041BD50B2EF1
:10686C0040F22C820C22284602A9FFF7A5FB002837
:10687C0040F0C481B94A02A902F1300C52F8043B31
:10688C0011F8010B234462459872F7D10C3EB6B255
:10689C002288ADF80660930426D5052E40F2268298
:1068AC000622284602A9FFF787FB002840F0A681A4
:1068BC0003469DF80920063E62F307039DF8082065
:1068CC00B6B262F30F239DF80B20ADF8066062F3AD
:1068DC0017439DF80A2062F31F63C4F81630BDF805
:1068EC000C3022885BBA6383D00400F1C681110599
:1068FC001CD50B2E40F213820C22284602A9FFF75E
:10690C005BFB002840F07A81954A02A902F1300C19
:10691C0052F8043B11F8010B2344624583F8240020
:10692C00F6D10C3EB6B22288ADF8066053051DD5E3
:10693C000D2E40F201820E22284602A9FFF73CFBE5
:10694C00002840F05B81874A0DF1070102F1380CF9
:10695C0052F8043F11F8010F2344944583F830009A
:10696C00F6D10E3EB6B22288ADF80660900525D55C
:10697C00052E40F2EE810622284602A9FFF71CFBE9
:10698C00002840F03B819DF80930063E63F3070078
:10699C009DF80830B6B263F30F209DF80B302288B7
:1069AC0063F317409DF80A30ADF8066063F31F607F
:1069BC00BDF80C3020645BBAA4F84430D1051DD569
:1069CC000D2E40F2D3810E22284602A9FFF7F4FACD
:1069DC00002840F01381634A0DF1070102F1380CD5
:1069EC0052F8043F11F8010F2344944583F84800F2
:1069FC00F6D10E3EB6B22288ADF80660130615D558
:106A0C00052E40F2C0810622284602A9FFF7D4FACF
:106A1C00002840F0F3800298063EA065BDF80C30CB
:106A2C00B6B22288ADF80660A4F85C3090061CD58E
:106A3C000B2E40F2B5810C22284602A9FFF7BCFAB6
:106A4C00002840F0DB80464A02A902F1300C52F8D3
:106A5C00043B11F8010B2344624583F86C00F6D11A
:106A6C000C3EB6B22288ADF80660D10611D5032EC5
:106A7C0040F2A4810422284602A9FFF79DFA0028BF
:106A8C0040F0BC80029B043EB6B21BBAADF8066067
:106A9C00A36763885A0414D5012E40F29D8102220B
:106AAC00284602A9FFF788FA002840F0A780BDF815
:106ABC000830023E5BBAB6B2A4F87C306388ADF8FD
:106ACC000660980412D5012E40F2948102222846C9
:106ADC0002A9FFF771FA002840F09080BDF8083049
:106AEC00023E5BBAADF80660A4F87E306288BDF851
:106AFC000660D104334613D5012E40F2898102225F
:106B0C00284602A9FFF758FA002877D1BDF80820CB
:106B1C00023E52BAA4F880206288ADF80660B3B287
:106B2C0050051E4613D5012B40F28E8102222846B9
:106B3C0002A9FFF741FA002860D1BDF80820023EF7
:106B4C0052BAA4F884206288ADF80660B3B211067C
:106B5C001E462CD5052B40F2858105E0280B011033
:106B6C00580B0110840B01100622284602A9FFF7CE
:106B7C0023FA002842D19DF80820063E62F3070054
:106B8C009DF80920ADF8066062F30F209DF80D20EA
:106B9C00B3B262F31740BDF80A2052BAA4F88C20A5
:106BAC009DF80C2062F31F606288C4F888005206BE
:106BBC001E4611D5012B40F263810222284602A900
:106BCC00FFF7FAF9D0B9BDF80820023E52BAADF879
:106BDC000660B3B2A4F89020012B1E4640F2268129
:106BEC000222284602A9FFF7E7F938B9022E18BF8E
:106BFC000C20BDF808305BBAA4F8923006B070BD1A
:106C0C00082006B070BD012E64D90222284602A9C4
:106C1C00FFF7D2F90028F1D1BDF80830023EB6B228
:106C2C005BBA2288ADF80660638013E60A2006B0D2
:106C3C0070BD052E35D90622284602A9FFF7BCF9EE
:106C4C000028DBD19DF80930063E63F307009DF860
:106C5C000830B6B263F30F209DF80B30228863F333
:106C6C0017409DF80A30ADF8066063F31F60BDF85D
:106C7C000C3060605BBA2381EFE5072E42D9082205
:106C8C0028460DEB0201FFF797F90028B6D1083E14
:106C9C00B6B202AB03CB2288ADF80660E06121628C
:106CAC0025E628460DF10601FFF74AF90028A5D183
:106CBC00BDF80660052EBED80B209FE728460DF1C7
:106CCC000601FFF73DF9002898D1BDF806600B2EA0
:106CDC00F2D9C7E528460DF10601FFF731F9002876
:106CEC008CD1BDF80660012EE6D98EE728460DF151
:106CFC000601FFF725F9002880D1BDF80660052EA6
:106D0C00DAD9CDE528460DF10601FFF719F900286F
:106D1C007FF474AFBDF80660072ECDD9AFE72846D7
:106D2C000DF10601FFF70CF900287FF467AFBDF8F1
:106D3C0006600B2EC0D9DFE528460DF10601FFF7E2
:106D4C00FFF800287FF45AAFBDF806600D2EB3D9BA
:106D5C00F1E528460DF10601FFF7F2F800287FF463
:106D6C004DAFBDF80660052EA6D904E628460DF1F8
:106D7C000601FFF7E5F800287FF440AFBDF8066088
:106D8C000D2E99D91FE628460DF10601FFF7D8F80C
:106D9C0000287FF433AFBDF80660052E8CD932E69F
:106DAC0028460DF10601FFF7CBF800287FF426AF3B
:106DBC00BDF806600B2E7FF67FAF3CE628460DF142
:106DCC000601FFF7BDF800287FF418AFBDF8066088
:106DDC00032E7FF671AF4DE628460DF10601FFF745
:106DEC00AFF800287FF40AAFBDF80660012E7FF6DD
:106DFC0063AF54E628460DF10601FFF7A1F8002811
:106E0C007FF4FCAEBDF80660012E7FF655AF5DE653
:106E1C0028460DF10601FFF793F800287FF4EEAE3B
:106E2C00BDF80660012E7FF647AF68E628460DF1E7
:106E3C000601FFF785F800287FF4E0AEBDF8066088
:106E4C00012E7FF639AFCBE628460DF10601FFF790
:106E5C0077F800287FF4D2AEBDF80660012E7FF6DD
:106E6C002BAF63E628460DF10601FFF769F8002801
:106E7C007FF4C4AEBDF80660052E7FF61DAF73E639
:106E8C0028460DF10601FFF75BF800287FF4B6AE3B
:106E9C00BDF80660012E7FF60FAF8EE670B5037954
:106EAC0004460D4682B0002B4AD00122817903683A
:106EBC0091428DF804200AD0102182718DF80410B3
:106ECC001E6826B19B687F2001A9B04723685E68C5
:106EDC00002E38D0012228209B680DF10301B04709
:106EEC0060BB9DF90320194B1949681C002AA0FBB3
:106EFC00030305FB01112273BDBF02F07F02C2F533
:106F0C009E62063202F2F6421944D317FCF7FAF8E5
:106F1C000023104AFCF7F6F8B0F1004F71F10001B4
:106F2C0028BF6FF00040042205BAA0604FF498719E
:106F3C0020460DEB02030195FFF7F4F802B070BD8B
:106F4C00082002B070BD0220F8E700BFF05A676657
:106F5C0035080F00A086010030B50278002A52D007
:106F6C002D4C0023A44601E0462B45D00CF8012BF8
:106F7C0010F8012F9E460133002AF5D10EF10205BF
:106F8C000EF1030C0EF104000EF1050E2022E2545A
:106F9C0073226255742204F80C203D22632922547A
:106FAC0026DD1E4A0533A2FB01025209303204F8D9
:106FBC000E201B4A03F1010EA2FB0150C008A2FBDC
:106FCC000052D20802EB8202A0EB42003030E054B7
:106FDC000022134BA3FB0103DB0803EB8303A1EBA0
:106FEC004301303104EB0E0304F80E105A7030BD1F
:106FFC000929EDDD7346DCE74FF04A0E49204FF0CE
:10700C00480C4725C2E74FF0040E03204FF0020C4A
:10701C0013460125004CB9E7ECF001201F85EB511C
:10702C00CDCCCCCC10B50E4C1D2009F043FA1C2253
:10703C004FF40071204609F0B9FA1D228021204638
:10704C0009F0B4FA02224FF40071204609F0DEFA7E
:10705C002046BDE810400222802109F0D7BA00BFBB
:10706C0080B0046070B515461C4686B0E3B1D9B14A
:10707C00102A19D88DF804000DF1050008F065F8F8
:10708C000121206809F0EEF92179206809F052FA03
:10709C006A1C0123206801A992B207F0DFFB0546A8
:1070AC0030B9284606B070BD0325284606B070BD21
:1070BC00206807F0B3FA012DF6D00125F1E700BFE7
:1070CC00F0B583B00D4616461C468DF8070043B349
:1070DC0039B3102A25D81868012109F0C3F9217990
:1070EC00206809F027FA0023012220680DF107011E
:1070FC0007F0B4FB0746B8B90221206809F0B2F9D1
:10710C002179206809F016FA294601232068B2B2C9
:10711C0007F0BAFA054628B1206807F07FFA012D6E
:10712C0007D1032003B0F0BD206807F077FA012FD8
:10713C00F7D00120F6E700BF10B5044684B020B1AB
:10714C0000210F48FEF72EFD10B1002004B010BD39
:10715C000C232D210A4801AAFEF716FD0028F4D1B4
:10716C00A11E01AB0A3418785A78023342EA002285
:10717C0021F8022F8C42F6D1012004B010BD00BFC3
:10718C00DCF8012010B50446A6B058B100219422B9
:10719C0001A807F049FF0F4801A9FFF731FB20B107
:1071AC000C2802D0002026B010BDBDF8043003F42A
:1071BC000843B3F5084FF5D1DDE90B2301200A99FB
:1071CC006260A360029ABDF80C302160E2602382F9
:1071DC0026B010BDDCF801202DE9F04F764D774C30
:1071EC00DFF8DCA195E80700534603C4110C24F822
:1071FC00022B2170002495E8070003C3DFF8C4B10B
:10720C00DFF8C48191B023F8022B150C32201D70CD
:10721C008BF8004088F8004009F0F4F8FFF702FF03
:10722C004FF4007122466948CDE90C4409F0BEF9CF
:10723C0022468021654809F0B9F902224FF4007109
:10724C00624809F0E3F902228021604809F0DEF976
:10725C0002224FF400715D4809F0ACF90222802142
:10726C005A4809F0A7F9022009F0CCF84FF4007144
:10727C000CAA564809F02EF9802154480DAA09F0A1
:10728C0029F90C9B002B4AD00D9B002B56D00322C6
:10729C004F4B504E504F1A7006F1020916F8015B15
:1072AC004E4BCDE90D443B608DF82C408DF83040B1
:1072BC003D710F94FFF7B6FE4FF4C8730D939DF814
:1072CC003E300DA923F01F0343F0150343488DF8FE
:1072DC003E30ADF8385009F071F9404809F0A6F885
:1072EC0029463E4809F026F93B4601227F200BA98E
:1072FC00FFF7B8FE58B93B4601220CA9FFF7E0FE98
:10730C0028B99DF83030EA2B88F8003018D04E455B
:10731C00C4D198F800103248FFF71EFE07E00D9913
:10732C0049B90B462A4A2F481370FFF715FE002067
:10733C0011B0BDE8F08F01231946F3E70221F0E705
:10734C001023482205930A93E4238DF80A208DF824
:10735C000B304FF4807240232349CDE90623234B95
:10736C008BF80050CDE90B1303F1AB63134D204C9C
:10737C0003F56C33C533CDE908008DF807008DF8A3
:10738C000900ADF80C000D930FCC0FC594E8030069
:10739C004FF001092F46DFF85C80286040468DF8DD
:1073AC00089027F8041FFEF7CFFB044620B32146B4
:1073BC000248FFF7D1FDBAE7A04301103CF10120D0
:1073CC00ECF00120DAF80120D9F8012080B004603B
:1073DC00D8F80120F048011008F9012000340060B1
:1073EC00C8480110AC43011000E8BA2E3D27D27DED
:1073FC00D4430110DCF80120CE4CA5F110060FCCC3
:10740C000FC694E80300306039704046CA4988F8CA
:10741C000490FEF7A3FB04460028C8D1C74EA5F183
:10742C0010040FCE0FC433682646238040461B0C35
:10743C0006F8023FFEF7D4FB04460028B7D16420BF
:10744C0008F0E0FF4FF60473DFF8F4C2A5F1100466
:10745C00A8F80630BCE80F000FC4DCF8003040463A
:10746C0023801B0C3370FEF745FC044600289ED18C
:10747C00DFF8D0E2A5F1100CBEE80F00ACE80F006D
:10748C009EE80700ACE80300214640468CF800203B
:10749C00FEF788FB0446002889D1AB4CA5F1100CF3
:1074AC000FCCACE80F0094E803004B46CCF800007E
:1074BC0002AA398040460621FEF758FB04460028F4
:1074CC007FF475AF0A2008F09DFFDFF880C2103DF5
:1074DC00BCE80F000FC59CE8070085E807002146B3
:1074EC004046FEF7ABFB044600287FF460AF984C97
:1074FC00103D0FCC0FC594E80F0085E80F0000215C
:10750C004046FEF7C9FB044600287FF450AF0A2022
:10751C00904C08F077FF0FCCA5F1100CACE80F00E5
:10752C0094E803004B462860A980404607210DF1E2
:10753C000902FEF71BFB044600287FF438AF0A2033
:10754C0008F060FFDFF810C2A5F1100EBCE80F00C8
:10755C00AEE80F009CE80F0085E80F00214640467E
:10756C00FEF77AFC044600287FF421AFDFF8ECE14B
:10757C00A5F1100CBEE80F00ACE80F009EE80F0060
:10758C00ACE807002146ACF8003040461B0CAB734E
:10759C00FEF73AFD044600287FF409AFDFF8C0C1BE
:1075AC00A5F1100EBCE80F00AEE80F009CE803003C
:1075BC0085E8030021464046FEF7F4FA044600280D
:1075CC007FF4F5AE674CA5F1100C0FCCACE80F00B6
:1075DC0094E803004B4628600DF1070239704046D1
:1075EC006621FEF7C3FA044600287FF4E0AE5E4C39
:1075FC00A5F1100C0FCCACE80F0094E803004B463F
:10760C0028600DF10702397040466721FEF7AEFA8B
:10761C00044600287FF4CBAE544FA5F110040FCFD5
:10762C000FC497E8070003C440462270FEF746FCDF
:10763C00044600287FF4BBAE4D4FA5F110040FCFCC
:10764C000FC40FCF0FC43B684FF4805140462360EA
:10765C00FEF73CFD044600287FF4A9AE454CA5F18D
:10766C0010070FCC0FC794E8030085E803004046D1
:10767C00FEF7D4FE044600287FF499AE3E4C103D34
:10768C000FCC0FC594E80F0007C5002140462B70A6
:10769C00FEF7D4FA044600287FF489AEDFF8DCC08C
:1076AC00A5F11C07BCE80F000FC7BCE80F000FC703
:1076BC00DCF80030214640463B70FEF7EDFA0446FC
:1076CC0000287FF474AE0A202D4C08F09BFE0FCCE2
