:020000041000EA
:100000004B2A110200000000A4030000EEC3A6E981
:100010007EEEE78880B500F087F90020002100F02F
:100020000DF8292000F00FF8202000F011F800F062
:1000300033F900F013F800F025F980BD4CF2B93C1B
:10004000C0F2000C604747F67D1CC0F2000C604710
:1000500047F6D12CC0F2000C6047000080B54FF08D
:10006000A040012100F075F900060BD1032000F03B
:1000700075F9000606D1012000F075F9000604BFED
:10008000002080BD00F074F94FF47A7000F075F92B
:10009000012080BD2DE9F04381B019B343F2B83897
:1000A0000F4606464FF0FF344FF00009C2F2000839
:1000B0003D46B7F5807F28BF4FF480754FF0A040D4
:1000C000314642462B46CDF8009000F05BF960B90E
:1000D00040462946224600F05AF904467F1B2E442A
:1000E000E6D103E04FF0FF3400E00124204601B0E8
:1000F000BDE8F08310B582B004464FF0000C4FF01D
:10010000A0404FF4805122462023CDF800C000F0DB
:1001100039F9000622D120461C214FF0FF3200F0B1
:1001200036F9E169814219D1E078112816D1A07819
:10013000022813D1E168B1F5002F0FD8606846F2AC
:100140007872C4F26A72904208D1A068FFF7A2FFE9
:100150002169401A18BF012002B010BD012002B071
:1001600010BD00002DE9F0410C4605460E184FF079
:100170000008B4F5803F07D3A8B228B94FF4803700
:100180000321102021E000BFB4F5004F08D328461A
:100190006FF3DF3020B94FF4004702210F2014E045
:1001A00029466FF31F31200BB1FA81F1B8EB143FF0
:1001B00018BF0120490901404FF008004FF4807733
:1001C00018BF0C2018BF4FF4805725FA00F082B2F8
:1001D0004FF0A04047F2305300F0DEF800060BD19C
:1001E0003D44B542A4EB070424BF0020BDE8F081E4
:1001F000B4F5803FC0D2C7E700F0BAF84FF47A7088
:1002000000F0BBF80120BDE8F08100002DE9F047C7
:1002100082B04FF000098AB343F2B83814460E4654
:100220000746C2F2000840F6B83A00BF2546B4F5CA
:10023000807F28BF4FF480754FF0A040394642467A
:100240002B46CDF8009000F09DF890B94FF0A040FB
:10025000314642462B46CDF80090CDF804A000F080
:10026000A0F848B92F44641B2E44DFD14FF0000999
:1002700004E04FF0010901E04FF00109484602B0E7
:10028000BDE8F08780B542F20400C1F200000068CA
:1002900000F08CF880BD0000B0B588B06846FFF76C
:1002A00029FF08B101243CE0DDE90501FFF75AFF11
:1002B00038B100F05DF84FF47A7000F05EF8012478
:1002C0002FE0DDE902020599FFF7A0FF38B100F049
:1002D0004FF84FF47A7000F050F8012421E00399B0
:1002E0000598FFF7D7FE0499884213D14FF0A0403C
:1002F0000021102247F23053002400F04DF805464B
:1003000000F036F828060CD04FF47A7000F035F87B
:10031000012406E000F02CF84FF47A7000F02DF87C
:100320000124204608B0B0BDEC20C6F205000168EB
:100330007F2221F002010160016821F004010160C7
:100340006FF0030143180431342943F8D82CF9D154
:10035000704748F6F57CC0F2000C604747F2613CFC
:10036000C0F2000C604747F21D3CC0F2000C604731
:1003700047F6717CC0F2000C604744F2717CC0F219
:10038000000C604748F69D2CC0F2000C604744F218
:10039000C17CC0F2000C604748F6A10CC0F2000C12
:1003A000604749F2D90CC0F2000C604744F62D0CAE
:1003B000C0F2000C604700000000000000000000D8
:1003C000000000000000000000000000000000002D
:1003D000000000000000000000000000000000001D
:1003E000000000000000000000000000000000000D
:1003F00000000000000000000000000000000000FD
:1020000000700220993200100533001017330010C1
:10201000293300102933001029330010000000007C
:10202000000000000000000000000000D1020000DD
:102030002933001000000000750300008103000038
:1020400029330010293300102933001029330010E0
:1020500029330010293300102933001029330010D0
:1020600029330010293300102933001029330010C0
:10207000293300102933001085B6001089B60010EE
:102080008DB60010293300102933001029330010B9
:102090002933001029330010293300102933001090
:1020A0002933001029330010293300102933001080
:1020B0002933001029330010293300102933001070
:1020C0002933001029330010293300102933001060
:1020D00091B6001029330010293300102933001065
:1020E0002933001029330010293300102933001040
:1020F0002933001029330010293300102933001030
:10210000293300102933001029330010293300101F
:10211000293300102933001029330010293300100F
:0C2120002933001029330010293300106F
:10212C0010F8012B11F8013B012A28BF9A42F7D075
:10213C00D01A7047034613F8012B002AFBD1181A4A
:10214C000138704781F0004102E000BF83F000438A
:10215C0030B54FEA41044FEA430594EA050F08BF36
:10216C0090EA020F1FBF54EA000C55EA020C7FEAFA
:10217C00645C7FEA655C00F0E2804FEA5454D4EB77
:10218C005555B8BF6D420CDD2C4480EA020281EA41
:10219C00030382EA000083EA010180EA020281EA79
:1021AC000303362D88BF30BD11F0004F4FEA0131CB
:1021BC004FF4801C4CEA113102D0404261EB4101DA
:1021CC0013F0004F4FEA03334CEA133302D0524260
:1021DC0063EB430394EA050F00F0A780A4F101041C
:1021EC00D5F1200E0DDB02FA0EFC22FA05F2801856
:1021FC0041F1000103FA0EF2801843FA05F359413C
:10220C000EE0A5F120050EF1200E012A03FA0EFCBA
:10221C0028BF4CF0020C43FA05F3C01851EBE371E4
:10222C0001F0004507D54FF0000EDCF1000C7EEB01
:10223C0000006EEB0101B1F5801F1BD3B1F5001F3F
:10224C000CD349085FEA30004FEA3C0C04F101045E
:10225C004FEA445212F5800F80F09A80BCF1004F87
:10226C0008BF5FEA500C50F1000041EB045141EA09
:10227C00050130BD5FEA4C0C404141EB0101013CD2
:10228C0028BFB1F5801FE9D291F0000F04BF0146C1
:10229C000020B1FA81F308BF2033A3F10B03B3F193
:1022AC0020020CDA0C3208DD02F1140CC2F10C0223
:1022BC0001FA0CF021FA02F10CE002F11402D8BF81
:1022CC00C2F1200C01FA02F120FA0CFCDCBF41EA4D
:1022DC000C019040E41AA2BF01EB0451294330BD1C
:1022EC006FEA04041F3C1CDA0C340EDC04F11404F9
:1022FC00C4F1200220FA04F001FA02F340EA0300D0
:10230C0021FA04F345EA030130BDC4F10C04C4F115
:10231C00200220FA02F001FA04F340EA03002946F5
:10232C0030BD21FA04F0294630BD94F0000F83F43F
:10233C00801306BF81F480110134013D4EE77FEA22
:10234C00645C18BF7FEA655C29D094EA050F08BF6E
:10235C0090EA020F05D054EA000C04BF194610464F
:10236C0030BD91EA030F1EBF0021002030BD5FEA93
:10237C00545C05D14000494128BF41F0004130BDBB
:10238C0014F580043CBF01F5801130BD01F000450F
:10239C0045F0FE4141F470014FF0000030BD7FEA82
:1023AC00645C1ABF194610467FEA655C1CBF0B467D
:1023BC00024650EA013406BF52EA033591EA030F94
:1023CC0041F4002130BD00BF90F0000F04BF00218C
:1023DC00704730B54FF4806404F132044FF00005BF
:1023EC004FF0000150E700BF90F0000F04BF002138
:1023FC00704730B54FF4806404F1320410F000459E
:10240C0048BF40424FF000013EE700BF42004FEA98
:10241C00E2014FEA31014FEA02701FBF12F07F4315
:10242C0093F07F4F81F06051704732F07F4208BFCC
:10243C00704793F07F4F04BF41F40021704730B5D3
:10244C004FF4607401F0004521F000411CE700BF1F
:10245C0050EA010208BF704730B54FF000050AE0A2
:10246C0050EA010208BF704730B511F0004502D5A3
:10247C00404261EB41014FF4806404F132045FEAA5
:10248C00915C3FF4D8AE4FF003025FEADC0C18BF4E
:10249C0003325FEADC0C18BF033202EBDC02C2F140
:1024AC00200300FA03FC20FA02F001FA03FE40EAD2
:1024BC000E0021FA02F11444BDE600BF70B54FF0D6
:1024CC00FF0C4CF4E06C1CEA11541DBF1CEA1355B4
:1024DC0094EA0C0F95EA0C0F00F0DEF82C4481EA1C
:1024EC00030621EA4C5123EA4C5350EA013518BF3C
:1024FC0052EA033541F4801143F4801338D0A0FB29
:10250C0002CE4FF00005E1FB02E506F00042E0FBD5
:10251C0003E54FF00006E1FB03569CF0000F18BFDB
:10252C004EF0010EA4F1FF04B6F5007F64F5407483
:10253C0004D25FEA4E0E6D4146EB060642EAC62116
:10254C0041EA55514FEAC52040EA5E504FEACE2E83
:10255C00B4F1FD0C88BFBCF5E06F1ED8BEF1004F86
:10256C0008BF5FEA500E50F1000041EB045170BD02
:10257C0006F0004646EA010140EA020081EA030146
:10258C00B4EB5C04C2BFD4EB0C0541EA045170BD42
:10259C0041F480114FF0000E013C00F3AB8014F1BC
:1025AC00360FDEBF002001F0004170BDC4F1000405
:1025BC00203C35DA0C341BDC04F11404C4F1200586
:1025CC0000FA05F320FA04F001FA05F240EA0200E1
:1025DC0001F0004221F0004110EBD37021FA04F617
:1025EC0042EB06015EEA430E08BF20EAD37070BDD1
:1025FC00C4F10C04C4F1200500FA04F320FA05F030
:10260C0001FA04F240EA020001F0004110EBD37031
:10261C0041F100015EEA430E08BF20EAD37070BDA1
:10262C00C4F1200500FA05F24EEA020E20FA04F37A
:10263C0001FA05F243EA020321FA04F001F0004129
:10264C0021FA04F220EA020000EBD3705EEA430E9A
:10265C0008BF20EAD37070BD94F0000F0FD101F0C9
:10266C000046400041EB010111F4801F08BF013C02
:10267C00F7D041EA060195F0000F18BF704703F040
:10268C000046520043EB030313F4801F08BF013DC7
:10269C00F7D043EA0603704794EA0C0F0CEA135583
:1026AC0018BF95EA0C0F0CD050EA410618BF52EA3D
:1026BC004306D1D181EA030101F000414FF0000043
:1026CC0070BD50EA410606BF1046194652EA430651
:1026DC0019D094EA0C0F02D150EA013613D195EAC5
:1026EC000C0F05D152EA03361CBF104619460AD10D
:1026FC0081EA030101F0004141F0FE4141F4700117
:10270C004FF0000070BD41F0FE4141F4780170BD06
:10271C0070B54FF0FF0C4CF4E06C1CEA11541DBF6B
:10272C001CEA135594EA0C0F95EA0C0F00F0A7F86D
:10273C00A4EB050481EA030E52EA03354FEA01319A
:10274C0000F088804FEA03334FF0805545EA1313AD
:10275C0043EA12634FEA022245EA111545EA106575
:10276C004FEA00260EF000419D4208BF964244F10C
:10277C00FD0404F5407402D25B084FEA3202B61A2B
:10278C0065EB03055B084FEA32024FF480104FF4FF
:10279C00002CB6EB020E75EB030E22BFB61A754673
:1027AC0040EA0C005B084FEA3202B6EB020E75EB06
:1027BC00030E22BFB61A754640EA5C005B084FEA6E
:1027CC003202B6EB020E75EB030E22BFB61A75463B
:1027DC0040EA9C005B084FEA3202B6EB020E75EB46
:1027EC00030E22BFB61A754640EADC0055EA060E07
:1027FC0018D04FEA051545EA16754FEA06164FEA4A
:10280C00C30343EA52734FEAC2025FEA1C1CC0D1F5
:10281C0011F4801F0BD141EA00014FF000004FF082
:10282C00004CB6E711F4801F04BF01430020B4F143
:10283C00FD0C88BFBCF5E06F3FF6AFAEB5EB030CFB
:10284C0004BFB6EB020C5FEA500C50F1000041EBF8
:10285C00045170BD0EF0004E4EEA113114EB5C04C5
:10286C00C2BFD4EB0C0541EA045170BD41F4801198
:10287C004FF0000E013C90E645EA060E8DE60CEAA0
:10288C00135594EA0C0F08BF95EA0C0F3FF43BAFBD
:10289C0094EA0C0F0AD150EA01347FF434AF95EA74
:1028AC000C0F7FF425AF104619462CE795EA0C0F58
:1028BC0006D152EA03353FF4FDAE1046194622E725
:1028CC0050EA410618BF52EA43067FF4C5AE50EAFF
:1028DC0041047FF40DAF52EA43057FF4EBAE12E7EF
:1028EC004FF0FF3C06E000BF4FF0010C02E000BFD0
:1028FC004FF0010C4DF804CD4FEA410C7FEA6C5CB3
:10290C004FEA430C18BF7FEA6C5C1BD001B050EA55
:10291C00410C0CBF52EA430C91EA030F02BF90EA40
:10292C00020F0020704710F1000F91EA030F58BFFF
:10293C00994208BF90422CBFD8176FEAE37040F061
:10294C00010070474FEA410C7FEA6C5C02D150EAFF
:10295C00013C07D14FEA430C7FEA6C5CD6D152EABA
:10296C00033CD3D05DF8040B704700BF844610467F
:10297C0062468C461946634600E000BF01B5FFF77E
:10298C00B7FF002848BF10F1000F01BD4DF808ED4E
:10299C00FFF7F4FF0CBF012000205DF808FB00BF1F
:1029AC004DF808EDFFF7EAFF34BF012000205DF879
:1029BC0008FB00BF4DF808EDFFF7E0FF94BF0120C6
:1029CC0000205DF808FB00BF4DF808EDFFF7CEFFC7
:1029DC0094BF012000205DF808FB00BF4DF808ED06
:1029EC00FFF7C4FF34BF012000205DF808FB00BFD7
:1029FC004FEA410C7FEA6C5C02D150EA013C0AD1EF
:102A0C004FEA430C7FEA6C5C02D152EA033C02D1E0
:102A1C004FF0000070474FF0010070474FEA410241
:102A2C0012F5001215D211D56FF47873B3EB625214
:102A3C0012D94FEAC12343F0004343EA505311F03B
:102A4C00004F23FA02F018BF404270474FF00000CD
:102A5C00704750EA013005D111F0004008BF6FF00B
:102A6C00004070474FF00000704700BF4A0011D281
:102A7C0012F5001211D20DD56FF47873B3EB6252CC
:102A8C000ED44FEAC12343F0004343EA505323FAD8
:102A9C0002F070474FF00000704750EA013002D14D
:102AAC004FF0FF3070474FF0000070474FEA410283
:102ABC00B2F1E04324BFB3F5001CDCF1FE5C0DD990
:102ACC0001F0004C4FEAC0024CEA5070B2F1004FDA
:102ADC0040EB830008BF20F00100704711F0804FDD
:102AEC0021D113F13872BCBF01F00040704741F4A2
:102AFC0080114FEA5252C2F11802C2F1200C10FAA6
:102B0C000CF320FA02F018BF40F001004FEAC12389
:102B1C004FEAD32303FA0CFC40EA0C0023FA02F32D
:102B2C004FEA4303CCE77FEA625307D150EA013303
:102B3C001EBF4FF0FE4040F44000704701F00040D3
:102B4C0040F0FE4040F40000704700BF80F00040B1
:102B5C0002E000BF81F0004142001FBF5FEA410369
:102B6C0092EA030F7FEA226C7FEA236C6AD04FEA69
:102B7C001262D2EB1363C1BFD218414048404140AE
:102B8C00B8BF5B42192B88BF704710F0004F40F460
:102B9C00000020F07F4018BF404211F0004F41F47C
:102BAC00000121F07F4118BF494292EA030F3FD048
:102BBC00A2F1010241FA03FC10EB0C00C3F120035B
:102BCC0001FA03F100F0004302D5494260EB4000EA
:102BDC00B0F5000F13D3B0F1807F06D340084FEA55
:102BEC00310102F10102FE2A51D2B1F1004F40EB4A
:102BFC00C25008BF20F0010040EA030070474900B2
:102C0C0040EB0000013A28BFB0F5000FEDD2B0FA4E
:102C1C0080FCACF1080CB2EB0C0200FA0CF0AABF71
:102C2C0000EBC25052421843BCBFD040184370470F
:102C3C0092F0000F81F4000106BF80F40000013215
:102C4C00013BB5E74FEA41037FEA226C18BF7FEAEC
:102C5C00236C21D092EA030F04D092F0000F08BF2E
:102C6C000846704790EA010F1CBF0020704712F015
:102C7C007F4F04D1400028BF40F00040704712F154
:102C8C0000723CBF00F50000704700F0004343F0B9
:102C9C00FE4040F4000070477FEA226216BF0846EF
:102CAC007FEA23630146420206BF5FEA412390EAB2
:102CBC00010F40F4800070474FF0000304E000BFA8
:102CCC0010F0004348BF40425FEA000C08BF704759
:102CDC0043F0964301464FF000001CE050EA01021D
:102CEC0008BF70474FF000030AE000BF50EA010232
:102CFC0008BF704711F0004302D5404261EB41011F
:102D0C005FEA010C02BF84460146002043F0B64343
:102D1C0008BFA3F18053A3F50003BCFA8CF2083A68
:102D2C00A3EBC25310DB01FA02FC634400FA02FC71
:102D3C00C2F12002BCF1004F20FA02F243EB020078
:102D4C0008BF20F00100704702F1200201FA02FCDA
:102D5C00C2F1200250EA4C0021FA02F243EB0200CD
:102D6C0008BF20EADC7070474FF0FF0C1CEAD05211
:102D7C001EBF1CEAD15392EA0C0F93EA0C0F6FD0D2
:102D8C001A4480EA010C400218BF5FEA41211ED0B0
:102D9C004FF0006343EA501043EA5111A0FB01319C
:102DAC000CF00040B1F5000F3EBF490041EAD37171
:102DBC005B0040EA010062F17F02FD2A1DD8B3F1ED
:102DCC00004F40EBC25008BF20F00100704790F05C
:102DDC00000F0CF0004C08BF49024CEA502040EAAE
:102DEC0051207F3AC2BFD2F1FF0340EAC250704774
:102DFC0040F400004FF00003013A5DDC12F1190FB2
:102E0C00DCBF00F000407047C2F10002410021FA23
:102E1C0002F1C2F1200200FA02FC5FEA310040F13B
:102E2C00000053EA4C0308BF20EADC70704792F0B4
:102E3C00000F00F0004C02BF400010F4000F013AEC
:102E4C00F9D040EA0C0093F0000F01F0004C02BFE7
:102E5C00490011F4000F013BF9D041EA0C018FE756
:102E6C000CEAD15392EA0C0F18BF93EA0C0F0AD05C
:102E7C0030F0004C18BF31F0004CD8D180EA010082
:102E8C0000F00040704790F0000F17BF90F0004F1B
:102E9C00084691F0000F91F0004F14D092EA0C0FFD
:102EAC0001D142020FD193EA0C0F03D14B0218BF90
:102EBC00084608D180EA010000F0004040F0FE40D6
:102ECC0040F40000704740F0FE4040F44000704772
:102EDC004FF0FF0C1CEAD0521EBF1CEAD15392EAF1
:102EEC000C0F93EA0C0F69D0A2EB030280EA010CE1
:102EFC0049024FEA402037D04FF0805343EA11117A
:102F0C0043EA10130CF000408B4238BF5B0042F1D7
:102F1C007D024FF4000C8B4224BF5B1A40EA0C007C
:102F2C00B3EB510F24BFA3EB510340EA5C00B3EBAE
:102F3C00910F24BFA3EB910340EA9C00B3EBD10F9C
:102F4C0024BFA3EBD10340EADC001B0118BF5FEAEE
:102F5C001C1CE0D1FD2A3FF650AF8B4240EBC25017
:102F6C0008BF20F0010070470CF0004C4CEA5020D8
:102F7C007F32C2BFD2F1FF0340EAC250704740F427
:102F8C0000004FF00003013A37E792F0000F00F019
:102F9C00004C02BF400010F4000F013AF9D040EA97
:102FAC000C0093F0000F01F0004C02BF490011F42B
:102FBC00000F013BF9D041EA0C0195E70CEAD15323
:102FCC0092EA0C0F08D142027FF47DAF93EA0C0F0A
:102FDC007FF470AF084676E793EA0C0F04D14B02EE
:102FEC003FF44CAF08466EE730F0004C18BF31F0A0
:102FFC00004CCAD130F000427FF45CAF31F000439A
:10300C007FF43CAF5FE700BF4FF0FF3C06E000BF32
:10301C004FF0010C02E000BF4FF0010C4DF804CD55
:10302C004FEA40024FEA41037FEA226C18BF7FEA65
:10303C00236C11D001B052EA530C18BF90EA010F67
:10304C0058BFB2EB030088BFC81738BF6FEAE170F6
:10305C0018BF40F0010070477FEA226C02D15FEA92
:10306C00402C05D17FEA236CE4D15FEA412CE1D0FE
:10307C005DF8040B704700BF844608466146FFE7C5
:10308C000FB5FFF7C9FF002848BF10F1000F0FBDA7
:10309C004DF808EDFFF7F4FF0CBF012000205DF8A0
:1030AC0008FB00BF4DF808EDFFF7EAFF34BF012025
:1030BC0000205DF808FB00BF4DF808EDFFF7E0FFBE
:1030CC0094BF012000205DF808FB00BF4DF808ED0F
:1030DC00FFF7D2FF94BF012000205DF808FB00BF72
:1030EC004DF808EDFFF7C8FF34BF012000205DF854
:1030FC0008FB00BF4FEA40024FEA41037FEA226C13
:10310C0002D15FEA402C08D17FEA236C02D15FEA3E
:10311C00412C02D14FF0000070474FF00100704776
:10312C004FEA4002B2F1FE4F0FD34FF09E03B3EBC8
:10313C0012620DD94FEA002343F0004310F0004F08
:10314C0023FA02F018BF404270474FF0000070475E
:10315C0012F1610F01D1420205D110F0004008BFFD
:10316C006FF0004070474FF00000704742000ED2E5
:10317C00B2F1FE4F0BD34FF09E03B3EB126209D4A6
:10318C004FEA002343F0004323FA02F070474FF05C
:10319C000000704712F1610F01D1420202D14FF0D1
:1031AC00FF3070474FF00000704700BF7BB972B919
:1031BC000029BEBF00204FF0004106E008BF0028E8
:1031CC001CBF6FF000414FF0FF3000F03FB8ADF185
:1031DC00080C6DE904CE002909DB002B1ADB12F078
:1031EC0031FADDF804E0DDE9022304B07047404217
:1031FC0061EB4101002B1BDB12F024FADDF804E03B
:10320C00DDE9022304B0404261EB4101524263EB21
:10321C0043037047524263EB430312F013FADDF899
:10322C0004E0DDE9022304B0404261EB4101704748
:10323C00524263EB430312F005FADDF804E0DDE9DA
:10324C00022304B0524263EB43037047704700BF44
:10325C000A4B0B4A03F5967053F8041B834242F851
:10326C00041FF9D1074B084A9A605A6942F01002C0
:10327C005A615A6942F480725A61704700200010FA
:10328C00FC6F012000ED00E000700120244880F369
:10329C000888244880F30A8823488047002103E0EB
:1032AC00224B5B58435004312148224B42189A421E
:1032BC00F6D3002103E0204B5B58435004311F48E8
:1032CC001F4B42189A42F6D3002103E01D4B5B586A
:1032DC00435004311C481D4B42189A42F6D31C4AE9
:1032EC0002E00023136004321A4B9A42F9D310F017
:1032FC00FFF900F0B7FAFEE75FEA0E00EFF3088182
:10330C00EFF30982144B9847FEE75FEA0E00EFF3E8
:10331C000881EFF30982114B9847FEE7FEE70000A6
:10332C0000700220006002205D320010A09A011093
:10333C0000300020988B002038F60110007201201C
:10334C0068790120A0FD011000F001207CF501201E
:10335C007CF5012068FB0120793500109D350010AB
:10336C0070B51F4D82B02B68B3F1C04F2CD01D4AE5
:10337C0093421ED01C4E1D4C2D2012F053FB0C22E0
:10338C003168206812F06AFB08B102B070BD0222ED
:10339C003168206812F02EFB0028F6D1144A154B28
:1033AC00126869462868CDE9002312F063FB02B06D
:1033BC0070BD0D4E0D4C2C2012F034FB08223168E0
:1033CC00206812F04BFBDFE7074E084C2B2012F065
:1033DC0029FB04223168206812F040FBD4E700BFBF
:1033EC0084F501200004006090F5012080F5012097
:1033FC008CF501202130010130B4B2F1C04F029C98
:10340C0006D0114DAA4203D005F58065AA4218D109
:10341C000E4DA84202D08035A84212D10C4D2C6022
:10342C0024B100240B4D2C800B4D2C800B4C2260B6
:10343C000B4A0C4C10600C4A216030BC1360FFF737
:10344C008FBF102030BC70470004006000B00460D7
:10345C007CF501208AF5012088F5012084F50120F6
:10346C0080F5012090F501208CF50120F8B50E4D6A
:10347C002B68BBB10D4C0E4E23880E4F0FE02A6803
:10348C0038681268D15C12F095FA23882A680133E7
:10349C0092889BB29A4223809CBF0023238032885F
:1034AC009A42ECD1F8BD00BF7CF501208AF50120D1
:1034BC0088F5012084F501202DE9F84F431C88463E
:1034CC0034D00138012828D8002A2FDD4C1E4FF0AB
:1034DC00000BDFF860A0184DDFF86090A6180FE025
:1034EC00B5F800C002680CF1010302F80C108288D8
:1034FC009BB29A422B8098BFA5F800B0B44210D072
:10350C00DAF80000274614F8011F0028E8D1D9F892
:10351C00000012F04FFA0028F0D04FF0FF30BDE859
:10352C00F88FB81CA0EB0800BDE8F88F0020BDE8B0
:10353C00F88F00BF7CF5012088F5012084F501206F
:10354C00012070474FF0FF30704700BF00207047DC
:10355C004FF4005300204B60704700BF00207047B1
:10356C00012070474FF0FF30704700BF0D461646E4
:10357C00044608B5FFF7F4FE33462A4621460348B5
:10358C000FF0D0FEFFF772FFFEE700BF085B0110E3
:10359C0070B582B004460D461646FFF7E1FEEFF318
:1035AC00088183480FF0BEFE23074CBF8148824838
:1035BC000FF028FF600737D580480FF023FF354602
:1035CC007F480FF01FFF29687E480FF0ABFE69683B
:1035DC007D480FF0A7FEA9687C480FF0A3FEE968B0
:1035EC007B480FF09FFE29697A480FF09BFE6969B2
:1035FC0079480FF097FEA96978480FF093FEE969B6
:10360C0077480FF08FFEAA69764B0192DB6A990717
:10361C000ED4744BDB6A002B41DB724CE36A5A000C
:10362C000AD4FFF723FFFEE76F480FF0EBFEC7E766
:10363C006E480FF0E7FEECE76D480FF0E3FEA36A6F
:10364C00DBB2002B4DD1674CA36A13F47F4F2AD108
:10365C00644CA36AB3F5803FE3D366480FF0D2FE07
:10366C00A36ADE036FD45F4B9B6A9D0367D45D4BEB
:10367C009B6A5C035FD45B4B9B6A180357D4594B12
:10368C009B6AD9024FD4574B9B6ADA0147D4554BEE
:10369C009B6A9B01C5D558480FF0B4FEC1E757484B
:1036AC000FF0B0FEB9E756480FF0ACFEA36ADB058D
:1036BC0031D44C4CA36A9E056ED44A4B9B6A580578
:1036CC0066D4484B9B6A19055ED4464B9B6ADA0458
:1036DC0056D4444B9B6A9B04BAD54A480FF092FED1
:1036EC00B6E749480FF08EFEA36ADB0733D43D4C96
:1036FC00A36A9E0738D43B4B9B6A180730D4394BCE
:10370C009B6AD90623D4374B9B6A9A069BD53F48B4
:10371C000FF078FE97E73E480FF074FEC9E73D487E
:10372C000FF070FEB3E73C480FF06CFEABE73B4884
:10373C000FF068FEA3E73A480FF064FE9BE73948A8
:10374C000FF060FE93E738480FF05CFE8BE73748CC
:10375C000FF058FED7E7019935480FF0E3FDC6E7A7
:10376C0034480FF04FFECAE7019933480FF0DAFDE9
:10377C00A36A1D06BFD5616B30480FF0D3FDBAE7C5
:10378C002F480FF03FFEA4E72E480FF03BFE9CE7BE
:10379C002D480FF037FE94E701992C480FF0C2FD2D
:1037AC00A36A1D0489D5A16B24480FF0BBFD84E7E7
:1037BC00285B0110505B0110645B01107C5B0110F5
:1037CC009C5B0110AC5B0110BC5B0110CC5B01106D
:1037DC00DC5B0110EC5B0110FC5B01100C5C01105C
:1037EC001C5C011000ED00E08C5B01102C5C0110E6
:1037FC00505C011004600110606101103C5C011010
:10380C00745E0110B85F0110645C0110205E011041
:10381C00805E01102C61011000610110C06001106C
:10382C00906001105060011014600110CC5D01100B
:10383C00785C0110745D0110F05C0110645D011086
:10384C006C5F0110205F0110E85E0110B05E01108A
:10385C00704700BF704700BF014B1868704700BF2E
:10386C00A0F5012008B5164812F02CF9642012F0CE
:10387C0009F907F0ADFE012007F0BAFE07F0E6FEED
:10388C0007F0A4FF08F022F8202012F02FF94FF4D3
:10389C0080614FF4803012F021F910B104F032F94C
:1038AC00FEE7084B596812F091F8292012F0BAF88B
:1038BC002A2012F0B7F8202012F094F8EEE700BF9F
:1038CC0000E004600030002003680868184700BF5F
:1038DC0010B40468086811681A68234610BC1847AD
:1038EC00034610465A18362A10B507D8054C8A00DC
:1038FC0004EB83010FF031FF002010BD4FF0FF30BF
:10390C0010BD00BFA8F501200EF004BE08B5086874
:10391C00FFF7FAFF08BD00BF30B587B00DF11602F6
:10392C0005ABCDE9003204460DF1120304AA0DF1EA
:10393C000E0103A807F0A6FF054610BBBDF90C004D
:10394C00FFF7BEF90346BDF90E002360FFF7B8F987
:10395C000346BDF910006360FFF7B2F90346BDF9E9
:10396C001200A360FFF7ACF90346BDF91400E36045
:10397C00FFF7A6F90346BDF916002361FFF7A0F97E
:10398C006061284607B030BD08B528B130F8023C5C
:10399C00C01AFFF7B9FF08BD6B21024B024A03485E
:1039AC000EF072FD9C610110A0610110CC61011040
:1039BC002DE9F8431F46C368DDF820E093F8546006
:1039CC00BD6D6EB1002105F1040C55F8314024B1E8
:1039DC005CF83100824207D030B101318E42F4D113
:1039EC006FF02000BDE8F883B3F8625015B3D4F83B
:1039FC000090DEF80080DEF8046099F900005C6E3F
:103A0C00FFF75EF94146FFF7A5F83146FFF7ACF931
:103A1C002368012DF860BB600CD099F90100FFF709
:103A2C004FF94146FFF796F83146FFF79DF9636869
:103A3C0078613B610020BDE8F88300BF82B02DE9BE
:103A4C00F04F8B4685B0511E0F9301EBD1710F9B3C
:103A5C00BBEB610F92468146109F00934FEA6108C1
:103A6C0002F001025CDA5E46CDE9022A019700E021
:103A7C002E46741C65006F1E09EB041409EBC70A73
:103A8C006168DAF80400FFF70DFB00281CBF3D4607
:103A9C00544609EBC606454594E8030086E8030046
:103AAC00E6DBDDE9022A019F2AB36E1E06EBD67611
:103ABC0076105D4508DC16E0B3459AE80300354600
:103ACC0084E803002ADA1E4609EBC60A3946DAF8FE
:103ADC000400FFF705FB731E03EBD37309EBC5045E
:103AEC005B100028E8D1009B6760236005B0BDE83F
:103AFC00F04F02B07047AAF1020A0AEBDA7AB5EB82
:103B0C006A0FD2D16B00013309EBC3022E4692E847
:103B1C0003001D4684E803001446CAE75446E2E756
:103B2C0000EBCB04002ADED1AAF1020A0AEBDA7A06
:103B3C00BBEB6A0FD7D15D46E4E700BF2DE9F04F30
:103B4C001646013A02EBD272B1EB620F1F468B465E
:103B5C00044687B04FEA620306F0010861DACDE94A
:103B6C000316CDE901380E46059700E02E4606F106
:103B7C0001094FEA490505F1FF3854F8397054F83A
:103B8C0028A03946504604EBC90904EB880BFFF713
:103B9C00A7FA10B145465746D946019B44F8267002
:103BAC00AB42E3DCDDE9028B049E059FB8F1000F0C
:103BBC0022D06E1E06EBD6765D454FEA660606DC15
:103BCC0015E0B34544F825A0354624DA1E4654F8D2
:103BDC0026A038465146FFF783FA731E03EBD373C6
:103BEC0004EB860804EB85095B100028E9D1C9F8C1
:103BFC00007007B0BDE8F08F023E06EBD676B5EB51
:103C0C00660FD6D16D00013554F82530C9F8003057
:103C1C0004EB8509CDE7C146C9F8007007B0BDE8D3
:103C2C00F08F00EB8109B8F1000FE0D1023E06EBFA
:103C3C00D676B1EB660FDAD15D46E3E7012A02D105
:103C4C00016000207047022A05D0032AF9D0002A0F
:103C5C00F7D10260F5E70B680360F2E7012A02D1A5
:103C6C00016000207047022A05D0032AF9D0002AEF
:103C7C00F7D10260F5E70B680360F2E788422DE9A3
:103C8C00F04781468A4632D000F1040841450ED1F6
:103C9C002DE0A7EB0902042A2BDDC2F104004946F2
:103CAC0038440FF085FCD045C9F800601FD047465A
:103CBC00D9F8004058F8046B21463046FFF7F2F96A
:103CCC000028E6D158F8085C304629463C1FFFF71F
:103CDC00E9F948B12746656054F8045D3046294639
:103CEC00FFF7E0F90028F5D1D0453E60DFD1BDE803
:103CFC00F08708BF48F8044CD5E700BF012A02D171
:103D0C00016000207047022A05D0032AF9D0002A4E
:103D1C00F7D10260F5E70B680360F2E7012A02D1E4
:103D2C00016000207047022A05D0032AF9D0002A2E
:103D3C00F7D10260F5E70B680360F2E72DE9F04F6D
:103D4C00A1EB0009B9F1400F07468846924683B0B3
:103D5C0040F38F804FEAA9054FEAE909BAF1000F49
:103D6C0066D07D6857F829B058F8043C5946284667
:103D7C000193FFF797F93E6801990AF1FF3A3C1D50
:103D8C00002879D05846FFF78DF9002840F086803E
:103D9C00DDF8049028464946FFF784F9002830D016
:103DAC00C7F8009048F8046CB3463D687E68C1467D
:103DBC0031462846FFF794F938B154F8046F294678
:103DCC003046FFF76FF90028F7D159462846A9F17C
:103DDC000409FFF767F938B159F804BD294658466C
:103DEC00FFF77EF90028F7D14C450FD2234643F854
:103DFC0004BBC9F8006066683D681C4659F804BCF1
:103E0C00D6E73D607E6058F804BCD0E75246414688
:103E1C002046A4EB0709FFF791FFB9F1400F28DD0D
:103E2C004FEAA905A0464FEAE909BAF1000F98D16B
:103E3C0009F1FF3407EB890900E0013C2A462146D1
:103E4C00384659F8043DFFF779FE002CF5D1A8EB64
:103E5C000703042B0DDD58F8043D3A68A8EB070462
:103E6C00C8F8002000213846A210FFF767FE042C8A
:103E7C00F1DC03B0BDE8F08F2846FFF713F90028FA
:103E8C00BFD1019D58462946FFF70CF930B13D6072
:103E9C0048F8046CB3463D687E6888E7C7F800B004
:103EAC0047F829607E683D6858F804BC7FE700BF7E
:103EBC002DE9F04F8BB08DF81F300B1A802B064676
:103ECC008B4640F3CA80174600F108014FEAE3081D
:103EDC001B1106910393002F00F09180039BD6F8E1
:103EEC000CA006EBC308D8F804905BF8043C3268CD
:103EFC0049465046069C75680493013F0592FFF7AE
:103F0C00EFF800284CD048460499FFF7E9F8002850
:103F1C0040F0A68050460499FFF7E2F800284BD1F8
:103F2C00069B93E8030086E80300059BF5605BF8AD
:103F3C00048CB360DA460397D6F8049028464946B9
:103F4C00FFF7CEF850B104F108073C467D684946AE
:103F5C0028460837FFF7C4F80028F6D149464046F2
:103F6C00FFF7A0F8002833D0AAF11008C246494642
:103F7C00D8F80400A8F10808FFF794F80028F5D148
:103F8C00544529D29AE80300236884E80300CAF850
:103F9C000450E5685AF8048CCAF800300834CBE7B2
:103FAC0050460499FFF79CF80028B9D1484604996B
:103FBC00FFF796F8002853D01BE90300059B86E811
:103FCC0003004BF8045CA8464BF8083CF568B1E7D5
:103FDC00AAF1080A5445D5D3039F9DF81F303A46E1
:103FEC0059462046FFF764FFA31B802B35DD4FEAB3
:103FFC00E3081B11A3460393002F7FF46FAF5C1EE5
:10400C0008AF00E0013C06EBC40393E8030087E82B
:10401C000300099D424621463046089B0095FFF758
:10402C000DFD002CEED1ABEB0603082BC8BF5C4694
:10403C0013DD083C94E8030087E8030096E80300CE
:10404C00099AA51B84E80300089B009200213046C6
:10405C00EA10FFF7F3FC082DEBDC0BB0BDE8F08F9A
:10406C0098E80300039B86E80300059A46F8332082
:10407C00C8F80450F5685BF8048C5BE788422DE9BE
:10408C00F04707463BD000F10803994237D006466B
:10409C00A1F108090DE0F21B082A32DDC2F108007B
:1040AC00394630440FF084FAB145C7F800807D6082
:1040BC0025D03446E568083628467968B246D4F8E7
:1040CC000880FFF70DF80028E5D128466168FFF756
:1040DC0007F870B194E8030004F1080383E80300C7
:1040EC00A246284654F8041C083CFEF7F9FF0028A9
:1040FC00F0D1B145CAF80080CAF80450D9D1BDE856
:10410C00F087D1D197E80300083484E80300CBE7AB
:10411C002DE9F04F04680868A1681268B0FBF1F94A
:10412C00B2FBF1FA1F68E36887B01A6A02FB09F95F
:10413C0002FB0A9AD1452CD24FF0000B019721B308
:10414C00019B0026012703EB8B0506E0A168731C7D
:10415C008B4205F1040514D21E46D4E900039B5D85
:10416C0082684B44CDE903370595B2B1D0F80C8089
:10417C0005AB04AA03A9C0470028E7D007B0BDE8E7
:10418C00F08F0BF1010BE368B3441A6A9144CA45F2
:10419C00D5D8002007B0BDE8F08F0EF060F900BF55
:1041AC0070B5D0E9001391F83C20054682B100248B
:1041BC00264653F8240030B10368DB689847D5E9EC
:1041CC00001343F8246091F83C2001349442F0D35E
:1041DC001846FFF799FB284670BD00BF2DE9F04744
:1041EC0082B005460F46FFF737FB4FF47A7303FB9B
:1041FC0000F8002D5BD0EE68F36C2BB3002402E0CA
:10420C00F36CA34220D9D5F810E03B462146284652
:10421C00BEF1000F01D05EF824E0326D02EB441CBD
:10422C00DCF81C20CDF804E0DCF818E00134CDF803
:10423C0000E0DCF81090C84781460028E0D0FFF77A
:10424C000BFB4FF47A7326E096F85420EAB1002465
:10425C00BB6DA1460AE02846FFF756FBBB6D43F841
:10426C000A9096F854200134A2420ED953F83450D7
:10427C004FEAC40A002DF6D028680028EBD02B7B1F
:10428C00002BE8D0FFF740FBE5E7FFF7E5FA4FF02E
:10429C0000094FF47A7303FB00F0B0EB080063EBFA
:1042AC000303C7E91203484602B0BDE8F0876FF07C
:1042BC000A09F8E7002070472DE9F0430546C0686D
:1042CC00984690F844300E46174685B00BB3002440
:1042DC0004E0E86890F84430A3421AD9826C04EBED
:1042EC00440302EBC30CDCF81030CDF80C80DCF886
:1042FC0008203146CDE901729CF814200092DCF8BC
:10430C0004902246C84701340028E2D005B0BDE82D
:10431C00F083FFF7CFFF831C18BF002005B0BDE86A
:10432C00F08300BF0FB430B5ADF20C4D0DF58364C6
:10433C0054F8045B4FF48062002102A80FF051F98D
:10434C004FF480612A46234602A801940FF090F89E
:10435C00002809DD02AC251814F8011B4FF0C040F1
:10436C0011F028FBAC42F7D10DF20C4DBDE83040FA
:10437C0004B070472DE9F04F83B00C9B15460190AB
:10438C00002B00F08C8000273E46B846019B297814
:10439C001C680329D4E9013202FB03F080440BD0E2
:1043AC00092950D0012936D04348FFF7BBFF6FF0E5
:1043BC000C0003B0BDE8F08F4FF00009D8B12368B2
:1043CC00E96853F82900FEF783FD0BF00DFEFEF7AC
:1043DC00A7FE2969D5F804B0084480F308000BF84F
:1043EC000600D4E9013202FB03F309F101094B4544
:1043FC0006F10106E3D80C9B0137BB42C6D1A96973
:10440C00B8EB910F03D0414518BFC3464CD10020E7
:10441C0003B0BDE8F08F0028EDD023686A6806F180
:10442C008041043B013902EB810203EB800453F819
:10443C00041F9C4242F8041FF9D10C9B0137BB426C
:10444C000644A3D1DBE74FF0000B0028D3D0226841
:10445C00E96852F82B00FEF73BFD0BF0C5FDFEF7AB
:10446C005FFE2B69D5F804A018446FF07F039842C7
:10447C00B8BF18467F28A8BF7F200AF80600D4E9E9
:10448C00012101FB02F20BF1010B5A4506F1010669
:10449C00DDD80C9B0137BB427FF478AFAFE7916955
:1044AC008B08B4D0DDF830B004485A46FFF73AFF19
:1044BC006FF017007DE700BF4C62011070620110B5
:1044CC000B4601782DE9F04103290446D3E901207C
:1044DC0002FB00F028D009290CD001293ED1A26999
:1044EC00B0EB920F41D1616818680FF036F90020DB
:1044FC00BDE8F081A169814242D10029F7D06568FD
:10450C001E680139276905EB0108043E013D15F9C8
:10451C00010FC01BFEF7D4FBE168FEF725FC4545F7
:10452C0046F8040FF3D1E2E7A169814228D10029B2
:10453C00DDD065681E680139276905EB0108043E6A
:10454C00013D15F8010FC01BFEF7BAFBE168FEF741
:10455C000BFCA84546F8040FF3D1C8E70B48FFF74E
:10456C00E1FE6FF00D00BDE8F081111EB8BF033104
:10457C00024689100648FFF7D5FE6FF01700B7E723
:10458C0002460348FFF7CEFEF7E700BF04630110B5
:10459C00C06201102DE9F0410C461D4606469046BE
:1045AC00FFF75AF94FF47A73002203FB00F03769D6
:1045BC002D687B6820606260124898470146D8B924
:1045CC0041463B699847044678B9337B1BB910E0E8
:1045DC00327B9A420DD9B26829467B69105D9847A7
:1045EC000134E3B240350028F2D06FF00200BDE890
:1045FC00F0810020BDE8F0810348FFF793FE6FF0D7
:10460C000500F7E7A54F0010446301102DE9F04FAA
:10461C0000218BB00546FEF73BFD002840F083805F
:10462C0028460021FEF73EFD002859D128460BF004
:10463C0029FA02AEFEF774FDB3464FF0000A20EAE9
:10464C00E07401962846FDF7E1FE3AA3D3E9002376
:10465C0080468946FEF7C2F908B9002C59DB204682
:10466C00FDF7C2FE02460B46002034490BF066F8FB
:10467C000022002306460F46FEF7B0F968B34FF050
:10468C00FF32304639462E4BFEF7B2F938B94FF0AF
:10469C00FF32304639462A4BFEF78CF9E8B13246E8
:1046AC003B4640464946FEF733F80BF0CBFBFEF792
:1046BC00B5F90546FDF798FE32463B46FDF7FEFE82
:1046CC000B46024649464046FDF740FDFEF7EEF923
:1046DC0005F1300305460BF8013B7CB1013CB1E719
:1046EC0005F1004528460BF0CDF9FEF719FD2D22FA
:1046FC000DF1090B8DF8082002AE9EE751462846B5
:10470C00FEF7EEFC0028E9D04FF02E030BF8013B2E
:10471C00E4E7019E8BF8000031460A48FFF702FEE1
:10472C000BB0BDE8F08F302302AEADF80830F3E7E4
:10473C00AFF30080F168E388B5F8E43E0000244054
:10474C00FFFFEF7F746301100DF0DCBE2DE9F84321
:10475C00D0E90182B8F1010F044601D0012A03D13E
:10476C00C4E90128BDE8F88302FB08F56E1E002D94
:10477C0067D10127BC4620683B4650F827E002E091
:10478C00CE46D4E90182B3FBF2F102FB113208FBF5
:10479C00021303F01F084146002B1A4650F82390D1
:1047AC00B8BF03F11F0240F823E0D3F1000E0EF066
:1047BC001F0E58BFCEF10001002901F1200EA8BF39
:1047CC008E464FEA621205EB8202B8BF043A1168BA
:1047DC000CFA0EFE41EA0E019F421160D0D104E0AA
:1047EC00B34224D2134602F01F08002B1A46B8BF5E
:1047FC0003F11F02594201F01F0158BFC1F100081B
:10480C00B8F1000F08F12001A8BF41464FEA62122F
:10481C0005EB8202B8BF043A12680CFA01F111429E
:10482C0003F10102DCD11F46D4E90182A4E715B1E2
:10483C002846FFF769F8D4E90182C4E90128BDE8EC
:10484C00F88305F11F077F09BF003846FFF77CFF8F
:10485C00054618B13A4600210EF0C3FED4E9018298
:10486C0087E700BF2DE9F843D0E901539D42044688
:10487C000E4605D00A6845F8042B4560BDE8F88360
:10488C006FF06041D0F80080A5EB0809B1EBA90FDF
:10489C004FEAA9032DD0012B1A4638BF01229F18CD
:1048AC0025D28F4228BF0F46BF003846FFF74CFF7A
:1048BC0033684545064640F8093016D04246034653
:1048CC0000EB090552F8041B43F8041BAB42F9D169
:1048DC001D1DB8F1000F02D04046FFF715F8374404
:1048EC00C4E90065A760BDE8F8830346F0E7024F12
:1048FC00DBE702480DF0B0FDFCFFFF7F7863011091
:10490C00642938B50D4604464ED015DC4B1E1D2BC4
:10491C0054D81D2B52D8DFE803F0265126515151A3
:10492C005151512651515151515151515151515196
:10493C005151515151515134B1F57A7F3ED100232F
:10494C000C20C4E90033A360FFF7FEFE03461F4DA5
:10495C00236007CD03F10C05A560186059609A60BF
:10496C002046656038BD00230420C4E90033A360F1
:10497C00FFF7EAFE031D2060A3600560204663601C
:10498C0038BD00230820C4E90033A360FFF7DCFE28
:10499C0003460F4A03CA03F108022360A2601860A1
:1049AC0059602046626038BD00230820C4E90033FA
:1049BC00A360FFF7C9FE074A0346EBE74FF4037108
:1049CC00054B064A06480DF05FFD00BF78780110D4
:1049DC008C78011084780110AC640110D86301103C
:1049EC001C6401102DE9F04F032A91B096468446C1
:1049FC00069100F04F810A2A40F05681DFF8BCA2E4
:104A0C00AF49DCE90126731E7344B3FBFEF7002AA1
:104A1C0000F03C810B1F0C93002304934FEA8E0390
:104A2C00CDE90E37CDF814C0CDF834E0059B0699CE
:104A3C00049A1F688B68202003FB02F309930B6810
:104A4C0002FB06F60893FFF77FFE0C9A03460290D2
:104A5C0007EB860B203052F8041F43F8041B8342EB
:104A6C00F9D14FF00008059B029C9B6857F8267003
:104A7C000193069B261D9B68079354F83800394612
:104A8C00FEF772F944F8380056F838003946FEF74C
:104A9C006BF946F8380008F10108B8F1040FECD1B5
:104AAC00019BB3F1005F80F00681019B002B00F0AD
:104ABC00E9809C002046FFF747FE22460021054670
:104ACC0003900EF08EFD4FF07E50DAF80C10FEF7CE
:104ADC00FFF9A4F10408029BD844ABF1040B009439
:104AEC0081465C46C34698461E682F1F54F8045FE7
:104AFC00DAF800102846FEF737F93146FEF72CF8A5
:104B0C004946FEF731F9064647F8046FDAF8041007
:104B1C002846FEF729F90246DAF8101030461646F8
:104B2C00FEF722F901463046FEF714F8D8F80410C7
:104B3C00FEF712F80646C8F80060DAF808102846A6
:104B4C00FEF712F939680546DAF81400FEF70CF98D
:104B5C0001462846FDF7FEFF5C45C8F80400C5D1A8
:104B6C00009C039D019BA4F10409D3462C46029F93
:104B7C00A9440AF14806002B50D0043D4FF07E505A
:104B8C00DAF82410FEF7A4F92B460B94554604468C
:104B9C009B46CDF828A00096DA46BE685AF8048FDA
:104BAC00A9694046FEF7E0F83146FDF7D5FF2146EE
:104BBC00FEF7DAF80646CAF80060E9694046FEF7E7
:104BCC00D3F80346A96A30461E46FEF7CDF80146D7
:104BDC003046FDF7BFFFF968FDF7BEFF0646BE6025
:104BEC00296A4046FEF7C0F8DAF800108046E86AF9
:104BFC00FEF7BAF801464046FDF7ACFFD145F86028
:104C0C00CCD1009B1835AB4207F1080737D04FF0D9
:104C1C007E50696AFEF75CF90446BDE70BF1180B90
:104C2C005E45FBD1019B0D9A013BD318B3FBF2F20D
:104C3C0007992CBF0123002391422FD373B90999F3
:104C4C00089801F1804101390E9D00EB810120682B
:104C5C0001339A4241F8040F2C44F8D8039B13B14A
:104C6C000398FEF751FE0298FEF74EFE0599049A42
:104C7C004B6801329342049207D98E68D6E6DDE97F
:104C8C000AA4CFE7019C03946BE70F9F384611B041
:104C9C00BDE8F08FDFF82CA00B49B2E6B6210B4B28
:104CAC000B4A0C480DF0F0FB4FF40E710A4B0B4AFB
:104CBC000B480DF0E9FB0B480DF0CEFB28F1012061
:104CCC0008F10120A8F1012088F1012008650110EC
:104CDC00286501108865011094640110B0640110FE
:104CEC001C640110946301100DF0F0BB2DE9F04F22
:104CFC001C4643680746012B0D46164689B040F00A
:104D0C00BD804B68012B40F0B9809368012B40F0BB
:104D1C00B58053686068013B984240F0AF80D4F88E
:104D2C000880B8F1010F40F0A980BA688B689A42EC
:104D3C0040F0A48041468000FFF7D6FF0290002887
:104D4C0000F0958073684146013B9800FFF7CCFF5B
:104D5C008146002800F090807268AB68069203933D
:104D6C0002F1FF38002B4FD04FF0000B3B682A6844
:104D7C000593069B5D46012B049266D052F82B706E
:104D8C0007943C463668AD004FF0000A0195574633
:104D9C002546294656F82700FEF78EF9BC00344408
:104DAC0020B129466068FEF79BF998B90AF1010A0F
:104DBC001FFA8AFAC2455746EBD3039B0BF1010B42
:104DCC001FFA8BFB9B451ED2049B4FEA8B0553F8B5
:104DDC002B40D9E7059B029C019D54F8270059599B
:104DEC00FDF7BAFE44F8270059F827004FF07E5122
:104DFC00FDF7B2FE0BF1010B039B1FFA8BFB9B45DE
:104E0C0049F82700E0D3079C069B012B24D00025F2
:104E1C00D4F800A000272C460CE0029B594653F80E
:104E2C002400FEF755F80135ADB245452C464AF83D
:104E3C00060011D259F824B039465846A600FEF7A0
:104E4C0027F90028E9D03846EDE7039B0BF1010B5D
:104E5C001FFA8BFB9B45F9D34846FEF755FD002402
:104E6C000298FEF751FD204609B0BDE8F08F064CC4
:104E7C00204609B0BDE8F08F034CF1E7034C204607
:104E8C0009B0BDE8F08F00BF16FCFFFF14FCFFFF5C
:104E9C002DE9F04184B00A9D07464FEA550C0CF100
:104EAC00010C9C450C46164664D10121A800FFF765
:104EBC001BFF8046002858D0AC4228BF2C463946F0
:104ECC00A7003A462C1B0EF048FCA200002108EB70
:104EDC0007000EF086FB294B202D1A7839D0402D77
:104EEC0037D0802D35D0B5F5807F32D0B5F5007F29
:104EFC002FD0B5F5806F2CD0B5F5006F29D0B5F556
:104F0C00805F26D062B100221D491E481A70FFF73F
:104F1C0009FA2B464FF4805220211B48FFF702FA66
:104F2C00002303AA009228461A46194608F02AFDC7
:104F3C00044608B33246414608F0F0FD2046FEF721
:104F4C00E3FC00244046FEF7DFFC204604B0BDE83D
:104F5C00F081002AE4D0002209490A481A70FFF7B0
:104F6C00E1F90A48FFF7DEF9DAE7094C204604B00C
:104F7C00BDE8F081074CE8E7054CE3E708F20120B7
:104F8C0000660110086601103466011010660110ED
:104F9C0016FCFFFF11FCFFFF431E034210B5044635
:104FAC0013D180B179B1481C20440121FFF79CFE3C
:104FBC00024640B1631C0344644203EA0400821AB3
:104FCC0020F8022C10BD002010BD4821024B034AD2
:104FDC0003480DF059FA00BF94660110B066011039
:104FEC00CC6101102DE9F04F064697B010460D9399
:104FFC0073100F460593FDF709FABCA3D3E9002300
:10500C00FDF75CFA804638468946FDF7FFF9024603
:10501C000B4640464946FDF77BFB0AF0DBFCFDF7EF
:10502C0045FD0746FDF7F2F982468B463846394670
:10503C00FDF79AFE771004210C903846FFF754FECA
:10504C00042181463846FFF74FFE04211090384664
:10505C00FFF74AFE042111903846FFF745FE042164
:10506C0080463846FFF740FE042112903846FFF781
:10507C003BFE1390002F00F08D803046FDF7B4F905
:10508C0002460B46FDF764F852465B46CDE9060135
:10509C0050465946FDF75CF802460B460C9E4FF005
:1050AC007E503146CDE90823FDF754FDFDF7AEF9EE
:1050BC000B460246FDF74CF8CDE90A013046FDF7E8
:1050CC00A5F90026109BCDE90001A3F1040ACDE956
:1050DC000E98119BA9F1040B1F1F3046FDF784F9A4
:1050EC0002460B46FDF734F80022824BFDF730F8F0
:1050FC007EA3D3E90023FDF7E1F9DDE90623FDF7F3
:10510C0007FB0AF021FCFDF7D1FCFDF77FF9DDE987
:10511C000823FDF7D3F902460B46CDE90223DDE95E
:10512C000023FDF715F80022724BFDF711F8FDF77F
:10513C00BDFC80460C984146FDF7CAFE4BF8040FA7
:10514C004046FDF763F980468946DDE90A0142468F
:10515C004B46FDF7DDFAFDF7A9FCDDE902234AF821
:10516C00040FDDE90001FCF7F1FF0022614BFCF7B5
:10517C00EFFF01F100454B4642462946FDF7C8FAC0
:10518C00FDF794FC059B0136B34247F8040FA4D1FC
:10519C00DDE90E98219B9BB10D9B109805991A1F68
:1051AC0000EB810C219B209802EB8303ACF1040CE7
:1051BC00061F52F8047F46F8047FB1B99342F8D128
:1051CC004846FEF7A1FB1098FEF79EFB1198FEF7E0
:1051DC009BFB4046FEF798FB1298FEF795FB139845
:1051EC00FEF792FB17B0BDE8F08FA9F104010C910A
:1051FC001099CDE914980439069111990F9304393B
:10520C0008911299009604390D911399CDF808C0A4
:10521C0004390E91A8F104010A91089EDDF818B02A
:10522C00B1460D9C0E9DDDF82880DDF830A005926E
:10523C0000E0176854F8041F5BF8040FFDF794FDA9
:10524C0055F8041F064659F8040FFDF78DFD01466D
:10525C003046FDF781FC3946FDF77EFC48F8040F1B
:10526C0007462068FDF7D2F80B460246FCF770FFA4
:10527C000246384616460F46FDF7C8F802460B465E
:10528C0030463946FCF764FF064628680F46FDF7A2
:10529C00BDF802460B4630463946FCF759FF064628
:1052AC005AF8040F0F46FDF7B1F802460B4630468C
:1052BC003946FDF703F9FDF7F9FB009A10602368F6
:1052CC002B60D8F800302360029B5B45B1D1059A66
:1052DC000F9B9A4206D0009B52F8047F43F8047F40
:1052EC0000939AE7DDE914986AE700BF182D44543F
:1052FC00FB2109400000F03F000000002DE9F04FB9
:10530C00064697B010460C9373100F460593FDF7A5
:10531C007DF8BAA3D3E90023FDF7D0F8044638464C
:10532C000D46FDF773F802460B4620462946FDF75D
:10533C00EFF90AF04FFBFDF7B9FB0446FDF766F8F1
:10534C0082468B4620462146FDF70EFD7710042140
:10535C0004463846FFF7C8FC042111903846FFF785
:10536C00C3FC042110903846FFF7BEFC04211290B8
:10537C003846FFF7B9FC042105463846FFF7B4FC64
:10538C00042113903846FFF7AFFC1490002F00F067
:10539C008E803046FDF728F802460B46FCF7D8FE07
:1053AC0052465B46CDE9060150465946FCF7D0FE05
:1053BC0002460B464FF07E502146CDE90823FDF7FF
:1053CC00C9FBFDF723F802460B46FCF7C1FE02466B
:1053DC000B462046CDE90A23FDF718F80026119B51
:1053EC00CDE90001A3F1040B109B0D95A3F1040A68
:1053FC00129B1F1F3046FCF7F7FF02460B46FCF7CB
:10540C00A7FE00227F4BFCF7A3FE7CA3D3E900236D
:10541C00FDF754F8DDE90623FDF77AF90AF094FA62
:10542C00FDF744FBFCF7F2FFDDE90823FDF746F836
:10543C0002460B46CDE90223DDE90023FCF788FE8A
:10544C000022704BFCF784FEFDF730FB04464FF056
:10545C007E502146FDF73CFD4BF8040F2046FCF72F
:10546C00D5FF04460D46DDE90A0122462B46FDF721
:10547C004FF9FDF71BFBDDE902234AF8040FDDE9C8
:10548C000001FCF763FE00225E4BFCF761FE01F1AC
:10549C0000492B4622464946FDF73AF9FDF706FB33
:1054AC00059B0136B34247F8040FA3D10D9D219BF8
:1054BC009BB10C9B109805991A1F00EB810C219B3A
:1054CC00209802EB8303ACF1040C061F52F8047F06
:1054DC0046F8047FB1B99342F8D11198FEF714FA4B
:1054EC001098FEF711FA1298FEF70EFA2846FEF7FE
:1054FC000BFA1398FEF708FA1498FEF705FA17B092
:10550C00BDE8F08F11990F930439069110991595F8
:10551C00043908911299009604390A911399CDF81F
:10552C0008C004390D91149904390E91291F0C915E
:10553C000A9EDDF820B0B1460D9C0E9DDDF8308042
:10554C00DDF818A0059200E0176854F8041F5BF80A
:10555C00040FFDF709FC55F8041F064659F8040F13
:10556C00FDF702FC01463046FDF7F6FA3946FDF729
:10557C00F3FA48F8040FFCF749FF064620680F467B
:10558C00FCF744FF02460B46FCF7E2FD02460B46D5
:10559C0030463946FCF7DAFD064628680F46FCF71C
:1055AC0035FF02460B4630463946FCF7D1FD064620
:1055BC005AF8040F0F46FCF729FF02460B463046FB
:1055CC003946FCF77BFFFDF771FA009A10602368EF
:1055DC002B60D8F800302360029B5B45B4D1059A50
:1055EC000F9B9A4206D0009B52F8047F43F8047F2D
:1055FC0000939DE7159D70E7AFF30080182D445480
:10560C00FB2109400000F03F0B462DE9F04F8FB015
:10561C000993936804460646564950690893FCF76B
:10562C007FFD002814BF0323012322690393002A62
:10563C0000F095804FF0000A17465446B3464E4D85
:10564C00CDF810A0B7F5806F3E4628BF4FF48066AA
:10565C00089B012103FB06F080000296FFF744FB38
:10566C00059000287FD0049ADBF80830CDE90B2692
:10567C000D90002B7BD05846DBF80C600DAB0CAAC0
:10568C000BA9B047002F5CD0099B4FF00008D3F852
:10569C0000A0059BCDE9067BA3F1040921E0374965
:1056AC0058460193FDF760FB0246354938461746CC
:1056BC00FDF75AFB01463846FDF74EFA02463149D2
:1056CC0030461646FDF750FB01463046FDF744FACE
:1056DC00019B08F101084AF80300029B0134434581
:1056EC002DD959F8040FFDF741FD0646C0F30740CC
:1056FC00FDF7E2FA2946FDF7EBFB8346C6F30720DC
:10570C00FDF7DAFA2946FDF7E3FB0746F0B2FDF7A1
:10571C00D3FA2946FDF7DCFB0399064603294FEA29
:10572C0084030AEB8402BAD1029B08F101084345B9
:10573C004AF824B05760906004F10304D1D8DDE935
:10574C00067B029B0598FF1AFEF7DEF8049ADBF83D
:10575C00103002F58062934204923FF673AF002042
:10576C000FB0BDE8F08F08480FB0BDE8F08F0CF01B
:10577C0076FE00BFE866011000007F438716993E55
:10578C00A245163FD578E93D16FCFFFF2DE9F04FF9
:10579C00A3B0DDE92DB48046207B256980018946C4
:1057AC00924604930595FEF7CFFF06460890FEF748
:1057BC0053F800237D4A1193CDE912237C4B12AD93
:1057CC0010937C4B0DAF95E803000F9387E8030013
:1057DC0008AB2A4620460AA9FEF7DCFE0346D0B1E8
:1057EC00119A52B10F990992002900F0DC803846C9
:1057FC00109A09A904939047049B00220F9C1192C4
:10580C002CB10322394638460493A047049B184612
:10581C0023B0BDE8F08F2C99049B009198F84410AC
:10582C002A46029198F83C1048460191DBF8581032
:10583C00FEF7A0FD03460028D2D1DDE90A982269C3
:10584C00049092689047002840F0AA80FEF704F874
:10585C004FF47A7202FB00F0B0EB090068EB4802DF
:10586C00CBF84000CBF84420FEF724FD0230049B1B
:10587C0008BF6FF00103227B002A54D0B0464FF0D2
:10588C000009CDE906634FEACA05D8F808100A6882
:10589C00002A40F3828000234FF0010A51F8040FD4
:1058AC000133934200FB0AFAF8D198F80060032EFA
:1058BC000AD0092E08D0012E56D031463E48FEF7AC
:1058CC0031FD6FF00D038BE7237D1020002B34D1BD
:1058DC00FEF73AFF012104905046FFF705FA4FF00E
:1058EC00010C049B1860DBF85860D8F81820D8F825
:1058FC000410C3F808A083F80CC0C3F804C073519B
:10590C000DF02BFFDBF8583062682B444A445A6088
:10591C00237B09F101094B4508F1400805F1080505
:10592C00B3D8DDE906630493059B2048DA689047F9
:10593C003046FDF7E9FF049B52E7FEF705FF012116
:10594C0004904FEA8A00FFF7CFF90122049BDBF8A1
:10595C0058601860C3F808A01A735A60194640467C
:10596C007351FEF7ADFDCDE71020FEF7EDFE31468D
:10597C0004904FEA8A00FFF7B7F9049BDBF8582034
:10598C00C3F808A018601E735E60D8F80410535159
:10599C00D8F818200DF0E1FEB4E74FF0010A84E7C7
:1059AC006FF0020367E70CF05AFD00BF9539001049
:1059BC00D5380010293D0010046301102DE9F04F7B
:1059CC009F4DA9B000242195339DCDE911326D086E
:1059DC006E1C15959B4D9DF8D03020950D4624944A
:1059EC002294B40023940B9323AB0391089093E877
:1059FC0003001EAB83E80300339B0496AB4200F21A
:105A0C0044810122089B0C920993234453F8043CD3
:105A1C001793329B119A00219A1A129892000DF04A
:105A2C00E0FD039B002B40F3DF800025099A043C2A
:105A3C0004EB020B4FF0000AD946A846119B03F168
:105A4C008043013B02EB83031493339BC3F34E035C
:105A5C0001330A93329B02EB8307339B043F9BB2C7
:105A6C001393049BDB000593089B23441693339BF1
:105A7C00039A434493420793089B88BFA2EB080503
:105A8C0003EB88040A9A049B98BF339D934240F021
:105A9C00F9800598FEF758FE002306461B936A4BC7
:105AAC0026936A4B1A936A4B25931AAB93E803001F
:105ABC0023AB83E803002796002E00F0CD80339BA8
:105ACC00294600932046049B3246FFF7E1F9259BBB
:105ADC0027990690002840F0A2803446099ACDE917
:105AEC000D91151F2E460F952546059A109304EB24
:105AFC00020B29686C680846FDF736F92146814689
:105B0C002046FDF731F901464846FDF725F8514688
:105B1C008146FDF7DBFA002800F0A680484609F024
:105B2C00DBFF0835AB4546F8040FE2D1DDE90D91FA
:105B3C00DDE90F5300297CD0259B1991002B00F037
:105B4C00B880269B23A819A9984700232793259B47
:105B5C001BB123A9032208469847069B002B40F053
:105B6C008580099B1D1F1398FDF7A6F8FCF74EFCCA
:105B7C0002460B4600203749FCF7CAFD2E46044668
:105B8C000D4656F8041F0846FDF7EEF8FCF73EFCF0
:105B9C0022462B46FCF792FCFCF788FFB14530609F
:105BAC00EFD1329B119A93420FD9129B149D1C1F5B
:105BBC0054F8046F55F804BF31465846FDF790FA77
:105BCC0000B15E46BD422660F2D10B9B23B30C9B09
:105BDC0013B1169B179A1A60159B984400230C93CB
:105BEC00039B43453FF743AF4FF00008229B3BB16B
:105BFC00209A1A93002A5CD0219B1EA81AA99847B8
:105C0C000022209B22921BB11EA903220846984712
:105C1C00404629B0BDE8F08FDDF81C80E0E7002994
:105C2C008BD18046002BE1D023A90322084698474C
:105C3C00DCE7002B97D023A903220846984792E76C
:105C4C0019390010093D0010D53800101539001015
:105C5C00293D00100000F03F1748FEF763FB279921
:105C6C0039B1164B069367E750465AE7DDF81880B2
:105C7C00BCE7259B1BB123A9032208469847DFF8F4
:105C8C003C80B3E7DFF83880B0E704213046FFF7FB
:105C9C002BF8229B0990229033B11893209B43B18F
:105CAC00219B1EA818A9984700230C930023179337
:105CBC00AFE60CF0D4FB00BFF466011016FCFFFF3E
:105CCC0014FCFFFF2DE9F04FB5B03E9E0446307B2F
:105CDC003569800189469A4611950F929DF8FC8092
:105CEC00FEF732FD00230546259323933E4B3F4A96
:105CFC0022933F4B2492219324AA1FAB0E9092E83F
:105D0C00030083E80300304617AB1CA91795FEF778
:105D1C0041FC0D90002840F0CB829DF89030092B6F
:105D2C0002D0032B40F04883FDF796FD259BA2691A
:105D3C00129004931592002B00F0348300231093DF
:105D4C00236C2898DD68279B0093FCF7B9FFA36CA4
:105D5C000290DB6868690193AB6826490C93FCF7E9
:105D6C00DFF9002814BF03230123D9F81050059341
:105D7C00002D00F0DE800027BB46CDF84CA0DDF8EE
:105D8C0000A008953E96CDF85080089B0C9AB3F570
:105D9C00806F28BF4FF4806302FB03F00121800069
:105DAC000393FEF7A1FF0990002800F07582039B76
:105DBC00CDF860B01993099B1A93D9F80830002BD1
:105DCC0000F002831AAB4846D9F80C4019AA18A95E
:105DDC00A047089B002B00F09980099B0025CDE97A
:105DEC000AB9A3F104083AE0D5380010953900102F
:105DFC00293D0010E86601105046B549FDF748F9F9
:105E0C00002800F023814FF043410298FDF740F940
:105E1C00002800F01B81019B002B40F0658149F2AA
:105E2C00456244F68B4341F62F5002FB09F2009970
:105E3C0011FB032314FB00300014FCF741FF4FF05F
:105E4C008641FCF787FEFDF76BF900F3070040B2C3
:105E5C00039B0135AB4237468BF8000054D958F8F8
:105E6C00040FFDF783F9049B7E1C03EB070BC0F3B7
:105E7C0007430093059BC0F30729032BC4B2BBD186
:105E8C00049A504693190693BB1CD3189049079358
:105E9C000337FDF7FDF8002800F04C814FF043412B
:105EAC000298FDF7F5F8002800F04481DDE90003C5
:105EBC00002B40F08981FCF703FF4FF08641FCF783
:105ECC0049FEFDF72DF906464846FCF7F9FE4FF062
:105EDC008641FCF73FFEFDF723F9034620465CB2F2
:105EEC00FCF7EEFE4FF08641FCF734FEFDF718F997
:105EFC0076B240B2069B8BF800601C70079B013594
:105F0C001870039BAB42AAD8DDE90AB9089B039A27
:105F1C0009989B1A0893FDF7F7FCD9F810300BF58C
:105F2C00806B9B45FFF431AFDDF84CA03E9EDDF855
:105F3C005080FEF7BFF9831C00F03282FDF78CFC19
:105F4C004FF47A72129902FB00F302FB01F15B1A17
:105F5C00CAF8383063EB0303CAF83C30B8F1000FD1
:105F6C0040F0FE81FDF778FC4FF47A75002305FBB9
:105F7C0000F41D9333691C949B689847002840F0EB
:105F8C001F82FDF769FC05FB00F31B1BCAF84030B0
:105F9C0063EB0303CAF84430FEF78CF902300D9B17
:105FAC0008BF6FF001030D93337B002B46D0002507
:105FBC000F9B0E9C4FEAC308A2681068002840F3A0
:105FCC00F9810023012752F8041F0133834201FB9E
:105FDC0007F7F8D194F80090B9F1030F00F07F8126
:105FEC00B9F1090F00F07B81B9F1010F40F09381F9
:105FFC001020FEF7A9FB49468346B800FEF774FE55
:10600C00DAF85830CBF80870CBF800008BF80C900D
:10601C00CBF80490A269616843F808B00DF09DFBC1
:10602C00DAF85830726843442A445A60337B01359D
:10603C00AB4204F1400408F10808BDD8119B254877
:10604C00DB6898470E98FDF75FFC2CE10098FCF795
:10605C0033FE07464846FCF72FFE81462046FCF7E8
:10606C002BFE019B0446002B4AD138461A49FCF7FB
:10607C002FFF194907464846FCF72AFF1649814667
:10608C002046FCF725FF044638461449FCF76CFE05
:10609C00134907464846FCF767FE01463846FCF7AD
:1060AC005BFD03460F4920461C46FCF75DFE01468E
:1060BC002046FCF751FD5146FCF70AFF09F094FF0E
:1060CC0001460298FCF748FDFDF72AF840B2BFE6FE
:1060DC008180803B9539001000007F438716993EE4
:1060EC00A245163FD578E93D0098FCF7E5FD07463B
:1060FC004846FCF7E1FD81462046FCF7DDFD0446F1
:10610C00019B022B00F08480019B042BBCD13846F0
:10611C004FF08641FCF71EFD4FF08641074648467E
:10612C00FCF718FD4FF0864181462046FCF712FD26
:10613C000446A9E70098FCF7BFFD06464846FCF765
:10614C00BBFD81462046FCF7B7FD019B0446002BA6
:10615C0045D130469D49FCF7BBFE9C490646484656
:10616C00FCF7B6FE994981462046FCF7B1FE044681
:10617C0051463046FCF7ACFE09F036FF014602985A
:10618C00FCF7EAFCFCF7CCFF514606464846FCF708
:10619C009FFE09F029FFDDF8089001464846FCF700
:1061AC00DBFCFCF7BDFF0346514620465CB2FCF716
:1061BC008FFE09F019FF01464846FCF7CDFCFCF7B1
:1061CC00AFFF76B240B295E6FCF776FD0646484640
:1061DC00FCF772FD81462046FCF76EFD0446019BE0
:1061EC00022B37D0019B042BC2D130464FF0864195
:1061FC00FCF7B0FC4FF0864106464846FCF7AAFC7B
:10620C004FF0864181462046FCF7A4FC0446AFE7DC
:10621C0038466E49FCF75CFE6D49FCF79BFC6D49FA
:10622C00FCF756FE694907464846FCF751FE6A4999
:10623C00FCF790FC6949FCF74BFE6449814620460B
:10624C00FCF746FE6649FCF785FC6649FCF740FE08
:10625C00044619E730465D49FCF73AFE5C49FCF709
:10626C0079FC5C49FCF734FE584906464846FCF775
:10627C002FFE5949FCF76EFC5849FCF729FE53498F
:10628C0081462046FCF724FE5549FCF763FC554932
:10629C00FCF71EFE04466BE753495448FEF742F8E0
:1062AC006FF004030D93049B13B1109B002B53D17F
:1062BC00239B43B1219A1B93002A00F08580229BDB
:1062CC001FA81BA998470022219B23921BB11FA931
:1062DC000322084698470D9835B0BDE8F08F337D02
:1062EC00102003B3FEF730FA01218146B800FEF707
:1062FC00FBFC0123DAF85820C9F80000C9F8087033
:10630C0089F80C30C9F804304946204642F8089008
:10631C00FEF7D6F884E649463548FEF703F86FF0E9
:10632C000D030D93BFE7FEF70FFA012181463846A6
:10633C00FEF7DAFC0123C9F80000C9F80870DAF896
:10634C005870A269616889F80C30C9F8043047F8B4
:10635C0008900DF002FA63E60498FDF7D5FAA7E76A
:10636C00DAF824102348FDF7DDFF159BA3B1159B2C
:10637C005C1E049B1C445D1E289B15F9010FC01A62
:10638C00FCF79EFC2799FCF7EFFCFEF73FF91A4847
:10639C00FDF7C8FFAC42EFD11848FDF7C3FFE1E5AC
:1063AC000D9080E701211046FEF79EFC012304901E
:1063BC001093C5E401270DE66FF008030D9377E702
:1063CC006FF002030D93EFE50CF049F800007F43EA
:1063DC00EC51F83EFA7E6A3ED578E93E4260653E65
:1063EC003BDFCF3E6666663E16FCFFFF2067011062
:1063FC000463011048670110986F011020690110A7
:10640C002DE9F04FA3B082460F469046994606916F
:10641C000D93002800F0BD82C368002B00F0B982F8
:10642C00002A00F0B682002900F0B382602200211D
:10643C0040460DF0D6F8DAF80C3093F85440E400EE
:10644C002046FEF781F922460021C8F8580006467E
:10645C000DF0C7F8DAF80C0090F85520836C0E2A72
:10646C0090F83C40D3E9015126D844F6A403D3401C
:10647C00DB0721D590F86130F3B99E4B9D421BD1BF
:10648C004B7BCBB1012C17D1036C9A689A4B9A4277
:10649C0040F08282CDE90019434639460022FFF7CD
:1064AC0011FC0546002800F074813046FDF72CFAEB
:1064BC00284623B0BDE8F08F0B94E4002046FEF78D
:1064CC0043F98346002800F0A881224600210DF0F4
:1064DC0088F80B9CA31C9F0038460BF0BBFF0423D1
:1064EC000360034608330C9044600A93002C00F0C0
:1064FC004E82DDE90A0300219A000DF072F8FDF7D7
:10650C00ABF9DAF80C30119093F83C20002A00F02B
:10651C00A9800024CDF82480A0460C9ACDE90F76F2
:10652C0002F10409196C04EBC40201EB820351F86B
:10653C00221092000892D3E901520792DA685E6940
:10654C0005921A69DB691020039302910492FEF7FD
:10655C00FBF801210746A800FEF7C6FB4FF001032C
:10656C003B73012359F8041FC7E90135C9F80070C2
:10657C00386049B1086818B10B7B002B40F0F680ED
:10658C000846FDF7C1F93868002800F04C81029AE2
:10659C00DAF80CC00BF104034BF8347043F83420D8
:1065AC00DCF81830A844984500F25F81049B069AE9
:1065BC00199300231E93DCF82010CDE91A6C8E423F
:1065CC0018921C931F931D9300F0878015934B4BCF
:1065DC001CAD1E934A4B1F93136914AAB3FBF1F322
:1065EC0006FB03F3209318AB149312AB92E8030051
:1065FC0083E80300039BC5E90001002B71D0414ED9
:10660C003378002B00F08080DAF8046056F8240010
:10661C00002800F08A80099FDAF80C605BF83420BF
:10662C00294605680197B66B059B00966D68A847CF
:10663C00002840F02681FDF73DFE821C1E9B00F0D9
:10664C002A811BB11CA9032208469847DAF80C30A2
:10665C00013493F83C20A2423FF664AFDDF824806D
:10666C00DDE90F76FDF7F8F84FF47A73119A03FB16
:10667C0000F003FB02F2801A63EB0303C8F83C3012
:10668C000D9BC8F83800002B40F059810D9B4246F9
:10669C0059465046FDF710FE0A9BA7F10804054623
:1066AC001C44002800F002810A9B9C4269D0A04641
:1066BC00DDF8289004E02046FDF726F9C14560D0AE
:1066CC0058F8044D002CF9D020680028F3D0237B17
:1066DC00002BF0D0FDF718F9EDE7039B069D002B7E
:1066EC008DD12846059ADCF838305BF83410079DBC
:1066FC00A8479DE79957001015560010493C00100B
:10670C001D41001080F60120B049B148FDF70AFE8A
:10671C00B048FDF707FE4FF001033370DAF8046060
:10672C0056F8240000287FF476AFDAF80030089988
:10673C001A6C0A44D068996BD3699847DAF804301C
:10674C0046F8240053F8240000287FF464AF6FF05F
:10675C000A05DDE90F761E9B1BB11CA90322084616
:10676C0098470A9BA7F108041C449DE70E91FDF77E
:10677C00CBF80E9904E708210C980BF058FE6FF03B
:10678C0007050C9839460BF052FE5846FDF7BCF83D
:10679C008BE641465046FDF721FD0546D8E90E0132
:1067AC0010F5FA704FF47A724FF0000341F10001CA
:1067BC00FCF7FCFCC8F82400D8F84000D8F84410CA
:1067CC0010F5FA704FF47A724FF0000341F10001AA
:1067DC00FCF7ECFCC8F82800D8F85000D8F8541096
:1067EC0010F5FA704FF47A724FF0000341F100018A
:1067FC00FCF7DCFCC8F83000D8F84800D8F84C108E
:10680C0010F5FA704FF47A724FF0000341F1000169
:10681C00FCF7CCFCC8F82C0047E66F48FDF782FD6E
:10682C006FF0070541E62146DDE90F766B48FDF771
:10683C0079FD0A9BA7F108041C449C429BD0A046FE
:10684C00DDF8289004E02846FDF75EF8C84526D010
:10685C0058F8045D002DF9D028680028F3D02B7B64
:10686C00002BF0D0FDF750F8EDE75D48DDE90F7631
:10687C00FDF758FD0A9BA7F108046FF004051C44B2
:10688C0012E70146DDE90F765648FDF74BFD6FF038
:10689C0004051E9B60E70546DDE90F765CE739468B
:1068AC000C980BF0C4FD6FF00705FDE65046414611
:1068BC00FDF794FC054600287FF4F6AED8F8383086
:1068CC00D8F83C1013F5FA704FF47A724FF00003BD
:1068DC0041F10001FCF76AFCD8F84030D8F84410BC
:1068EC00C8F8240013F5FA704FF47A724FF00003D5
:1068FC0041F10001FCF75AFCD8F85030D8F854108C
:10690C00C8F8280013F5FA704FF47A724FF00003B0
:10691C0041F10001FCF74AFCD8F84830D8F84C108B
:10692C00C8F8300013F5FA704FF47A724FF0000388
:10693C0041F10001FCF73AFCC8F82C00B4E6D8F899
:10694C0024102948FDF7EEFC0B9BE3B10024DDF885
:10695C002C905BF834309BB19A6800256AB11B68A7
:10696C0053F82500FDF752FE2048FDF7DBFC5BF8E1
:10697C00343001359A68AA42F1D81D48FDF7D2FC93
:10698C000134A145E5D11B48FDF7CCFC7EE6082778
:10699C00B5E56FF015058BE50820FDF7D5FE8346B0
:1069AC0000283FF43AAF00230C20CBF80030CBF892
:1069BC0004300BF04FFD0123042243600B9300F1D4
:1069CC0008030C270C9002600A9392E500660110F4
:1069DC0008660110F06701105C6701108C670110EC
:1069EC00C46701102067011048670110986F0110EF
:1069FC00206901105C6801102DE9F04F1C464368BA
:106A0C008BB0012B0E469346BDF8509040F0F380AE
:106A1C004B68012B40F0EF804FEA59028B68571CF2
:106A2C00BB42049240F0E780DBF80430012B40F0CD
:106A3C00E280DBF808309F4240F0DD80D0F8008027
:106A4C00B8F1000F00F0D1800B68002B00F0CD8066
:106A5C00DBF80030002B00F0C88085684D45C0F095
:106A6C00BD8048464D46CA4601218000FEF73CF9E0
:106A7C000390002800F0B980BAF1000F09D04FF054
:106A8C007E51039A134602EB8A0243F8041B93428D
:106A9C00FBD15046FCF714F92146FCF765F9014689
:106AAC004FF07E50FCF714FA07904846FCF708F9B3
:106ABC00034621464FF07E501C46FCF709FA01466E
:106ACC002046FCF751F901464FF07E50FCF700FAD6
:106ADC000024DBF800308346A3F1040AA0B2FCF7D3
:106AEC00EBF85946FCF740F923460134A7424AF823
:106AFC00040FF3D1012104209B46FEF7F5F807465D
:106B0C0000286FD02946404609AA04F03DFFDDF865
:106B1C0024A000215046C7F800A0FCF7B9FA30B900
:106B2C002B46424640460AF1004104F0E9FE0121A1
:106B3C00E000FEF7D9F8CDF8009081462346404698
:106B4C0029464A46FEF7A4F98046002839D109F1B6
:106B5C0004052B46D6F800A0B8465D4657460446B9
:106B6C0000269B4682460AE0FBF7F6FFA54249F851
:106B7C00340004F1010147F8040B3FD00C4659F8DE
:106B8C0034105BF8343008464BF834600593FCF74E
:106B9C00EBF8059906900846FCF7E6F801460698CE
:106BAC00FBF7DAFF0799FCF7DFF8049B01469C42E0
:106BBC0049F83400D8D15346BA4647469846CAF8E5
:106BCC0000004846FCF7A0FE3846FCF79DFE0398F3
:106BDC00FCF79AFE40460BB0BDE8F08F28461FFA32
:106BEC0085FA41E7DFF81C80F1E7DFF818804046B2
:106BFC000BB0BDE8F08FDFF81080EBE74746D046CE
:106C0C00DFE700BF16FCFFFF14FCFFFF2DE9F04F80
:106C1C00D0F8048085B0012107464FEA8800FEF7C2
:106C2C0063F80190002800F082807B68984579D148
:106C3C00B8F1000F55D00025061FB9683B6805FB5D
:106C4C0001F003AA03EB800004F09EFE7C68039B1A
:106C5C000135A54246F8043FEFD3A04562D14FF071
:106C6C000009DDF804A00DE043463246304605F13C
:106C7C00004104F045FE7C6809F10109A1450AF1C7
:106C8C00040A2ED2D7F808803E684FEA880B09FB1D
:106C9C000B6676B3DAF8005000212846FCF7F8F9B9
:106CAC000028E9D1B8F5803FDED38046ABF104046F
:106CBC003444A6F1040B5BF8040F2946FBF74AFF9A
:106CCC005C45CBF80000F6D1B8F1000F02D030468D
:106CDC00FCF71AFE7C6809F10109A1450AF1040AC6
:106CEC00D0D300240198FCF70FFE204605B0BDE878
:106CFC00F08F01215846FDF7F7FF064690B1DAF800
:106D0C00005000212846FCF7C3F90028DFD1B8F564
:106D1C00803F09D243463246304605F1004104F02B
:106D2C00EFFDD4E7034CDDE74FF00108BEE7024C62
:106D3C00DBE700BF14FCFFFF16FCFFFF2DE9F04F53
:106D4C00A1B09DF8AC400F461E469DF8A880169049
:106D5C000A92002C40F0D3840A9D9D496C69204610
:106D6C00FBF7DEF9002831D1EB69002B40F02586CA
:106D7C00B8F1000F40F0C5850A9B4FF07C513046AE
:106D8C009C69FBF7F1FF21460546FCF78BF90028BF
:106D9C0040F0B4850A9B586AFBF78EFF01462046EB
:106DAC00FBF7E2FF3146FCF793F8169B5C68FBF7A8
:106DBC002DFB884B0022FBF7CBF9FBF757FE012389
:106DCC001193034601331B90109316E02046824921
:106DDC00FBF7A6F9002800F03785B8F1000F40F05A
:106DEC0098850A9B5B6A03EBD3735B105A1C1B934D
:106DFC0001231193169B10925C68D7F80090002C1D
:106E0C0000F03684119B169A03F18043013B9B00E2
:106E1C0019931B9BD2F808809B001793109B126848
:106E2C009B000B9218934FEA8806002A00F0EC8521
:106E3C0000230B9ACDF8149013931493059B1446CE
:106E4C001EAA0992002B40F0328101210420FDF78B
:106E5C004BFF01230E901293CDF868900025374616
:106E6C00A1464146099A0B9804F0ACFD1E9B0E9A64
:106E7C0029461360059B1C682046FCF709F900287D
:106E8C0040F09B8021462046FBF76EFF2146FBF726
:106E9C006BFF834620465946FBF766FF0490B8F11A
:106EAC00000F00F09280043F4F44A9F1040ACDF882
:106EBC001880CDF81CB02C46CB46B846D146AA4615
:106ECC0059F8047F39463846FBF74EFF3946FBF735
:106EDC004BFF064650463146FBF73EFE3146824696
:106EEC003846FBF741FF01462046FBF735FEC84507
:106EFC000446E5D15646D946DDF81880DDF81CB0BD
:106F0C004046FBF7D9FE0346304619461E46FBF7B2
:106F1C00DFFF5946FBF7DCFF059B314658602046E6
:106F2C001E4603F10C04FBF7D3FF0499FBF7D0FFCB
:106F3C002A49FBF70FFE0A9BB0609E885B6A042E01
:106F4C0000F0C6800193109B414600930A9B484673
:106F5C0093F8353022460293119BFEF72FFD002843
:106F6C0040F0A9840A9B93F83430002B3CD1179B3A
:106F7C00E3180593129B002B40F081800B9B13B1FF
:106F8C00149B002B7FD11699139A4B6801329342B4
:106F9C00139240F26783D1F808800B684FEA880798
:106FAC0007FB0239B9F1000F71D00023059A149335
:106FBC00CDF82C900E92129353E7094BDFF824B0C6
:106FCC000493B8F1000F7FF46EAF0024264697E7C8
:106FDC00706801100000E03F746801100000404030
:106FEC00C21601006142A20D1B9B002BBFD0A4F165
:106FFC00040AD1460027179BDFF8BC801E1F2644CD
:10700C00394659F8040FFCF743F808B1C9F8008069
:10701C004E45F5D104945446B246DFF8A0B0DFF8E3
:10702C00A090DFF8A080284F54F8040F099920F0A5
:10703C00004008F06DFD59460646FBF795FE2349C6
:10704C00FBF788FD01463046FBF78EFE4946FBF701
:10705C0083FD01463046FBF787FE4146FBF77AFD80
:10706C0006461E98FBF72CFE3146FBF775FD39469C
:10707C00FBF77AFEA2452060D6D1049C77E70E98E8
:10708C00FCF742FC7AE70B98FCF73EFC7BE73E46AC
:10709C00DDF8689001213046FDF726FE00231C46E2
:1070AC0001231493059B0B90002B3FF4CEAE059B54
:1070BC000E9300231293CFE6FFE6DB2EA8A19D3F93
:1070CC00FBB3C040E09248409B209A3EF5CA8340F7
:1070DC0003EBD37464100134B4F1005F80F00A85C3
:1070EC00002C00F0E782A30018469A460F93FDF798
:1070FC002BFB07460021524604900CF072FA0A9AB8
:10710C00009492F8353041460293536A48460193F5
:10711C003A460023B846FEF751FC002840F0838421
:10712C0053469B10304601211E460D931C469F086A
:10713C0003F003030693FDF7D7FD31460C90099A33
:10714C00404604F021FC1E9E002F00F09582049B0B
:10715C00BB4603F1100AD0462C46314658F8100CA9
:10716C00FBF7F8FC81460146FBF7FEFD4946FBF7B1
:10717C00FBFD2146FBF7F0FC3146814658F80C0C20
:10718C00FBF7E8FC04460146FBF7EEFD2146FBF756
:10719C00EBFD4946FBF7E0FC3146814658F8080CFC
:1071AC00FBF7D8FC04460146FBF7DEFD2146FBF756
:1071BC00DBFD4946FBF7D0FC3146814658F8040C00
:1071CC00FBF7C8FC04460146FBF7CEFD2146FBF756
:1071DC00CBFD4946FBF7C0FCBBF1010B044608F1A3
:1071EC001008BAD17B1E0D9808930AEB0319FBF714
:1071FC0063FD069B0790002B00F01E82069B0897F0
:10720C004FEA830A09EB83034F469846314657F8F9
:10721C00040BFBF79FFC83460146FBF7A5FD594683
:10722C00FBF7A2FD01462046FBF796FC47450446BA
:10723C00ECD10F9B089F042B40F2F0810799FBF7D0
:10724C0047FE1590002F00F02F82049B03F1100ACB
:10725C007B1E089354463E462B46184654F8101C89
:10726C00FBF77AFC54F80C1CFBF776FC54F8081C62
:10727C00FBF772FC54F8041CFBF76EFC013E034652
:10728C0004F11004E9D1089A0AEB0216069A002AB6
:10729C0000F0DD814FEA820A06EB0A04184656F824
:1072AC00041BFBF759FCA6420346F7D10799FBF7E1
:1072BC000FFE8346002F00F0F381049B03F1100AAC
:1072CC007B1E08935446B8462E46594654F8100C6B
:1072DC00FBF740FC0146FBF747FD3146FBF73CFC56
:1072EC005946064654F80C0CFBF734FC0146FBF7E8
:1072FC003BFD3146FBF730FC5946064654F8080C6A
:10730C00FBF728FC0146FBF72FFD3146FBF724FC6D
:10731C005946064654F8040CFBF71CFC0146FBF7D7
:10732C0023FD3146FBF718FCB8F10108064604F1C1
:10733C001004CAD1089B0AEB0318069B8BB14FEAC9
:10734C00830AC244594658F8040BFBF703FC014668
:10735C00FBF70AFD01463046FBF7FEFBD04506461F
:10736C00F0D107993046FBF7B3FD04460146FBF715
:10737C00FBFC2146FBF7F8FC29460446FBF7A6FE6E
:10738C00002800F04B81204608F0A6FB2946044655
:10739C00FBF77EFE002840F0418121461598FBF753
:1073AC0097FD0C9B0D991860059B099AD860049861
:1073BC0004F0EAFA1E9E002F00F04E81049BBB469F
:1073CC0003F1100AD0462C46314658F8100CFBF746
:1073DC00C1FB0146FBF7C8FC0146FBF7C5FC214687
:1073EC00FBF7BAFB3146044658F80C0CFBF7B2FB22
:1073FC000146FBF7B9FC0146FBF7B6FC2146FBF74F
:10740C00ABFB3146044658F8080CFBF7A3FB0146CE
:10741C00FBF7AAFC0146FBF7A7FC2146FBF79CFBFC
:10742C003146044658F8040CFBF794FB0146FBF775
:10743C009BFC0146FBF798FC2146FBF78DFBBBF14F
:10744C00010B044608F11008BED1069B002B00F07E
:10745C00EB80069B4FEA830A09EB8308314659F807
:10746C00040BFBF777FB0146FBF77EFC0146FBF7B1
:10747C007BFC01462046FBF76FFBC1450446EDD172
:10748C000F9B042B40F2CC800799FBF721FD834620
:10749C00002F00F00C81049B03F1100A54463E4669
:1074AC002B46184654F8101CFBF756FB54F80C1CD2
:1074BC00FBF752FB54F8081CFBF74EFB54F8041C6A
:1074CC00FBF74AFB013E034604F11004E9D17A1E96
:1074DC0008920AEB0216069A002A00F0B3804FEAD3
:1074EC00820A06EB0A04184656F8041BFBF734FB19
:1074FC00A6420346F7D10799FBF7EAFC0446002F96
:10750C0000F0CA80049B03F1100A7B1E0893D1463D
:10751C002E46214659F8100CFBF71CFB0146FBF7D5
:10752C0023FC3146FBF718FB2146064659F80C0C98
:10753C00FBF710FB0146FBF717FC3146FBF70CFB86
:10754C002146064659F8080CFBF704FB0146FBF7ED
:10755C000BFC3146FBF700FB2146064659F8040CA0
:10756C00FBF7F8FA0146FBF7FFFB3146FBF7F4FAA1
:10757C00013F064609F11009CBD1089B0AEB031811
:10758C00069B8BB14FEA830AC244214658F8040B80
:10759C00FBF7E0FA0146FBF7E7FB01463046FBF749
:1075AC00DBFAD0450646F0D130460799FBF790FC44
:1075BC000146FBF7D9FB29460446FBF769FD064655
:1075CC0000282DD121465846FBF782FC9949FBF740
:1075DC00C1FA049F0C9B1860059B1861DDE9102310
:1075EC0093420DD2189B19991A1F049B1A440B44F1
:1075FC000599103153F8040F9A4241F8040FF9D150
:10760C000C98FCF781F90FB1002E74D1049B13B1C7
:10761C001846FCF779F9059C1434A3E42846C0E617
:10762C000026049F8448D5E70F9B042B30D907997B
:10763C00FBF74EFC834631E720460799FBF748FCE5
:10764C00159007E60799FBF743FC04465FE707999B
:10765C00FBF73EFC834635E6069B002B00F0B5801D
:10766C000024F6E6DDF86890059BA3EB0904A41052
:10767C00204621B0BDE8F08F0D98FBF71DFB069B53
:10768C000790002B00F0C8800024DDF81090B5E5C1
:10769C00069E049F68489DE70026DDF8108073E77E
:1076AC000026DDF810804CE60023049EF4E5002350
:1076BC00049E16E701930A9B009493F835304146DB
:1076CC000293484623462246FEF778F9002800F03C
