:020000040800F2
:100000003007002065020008950800088D080008E8
:10001000910800087D0800080D090008FFFFFFFF98
:10002000FFFFFFFFFFFFFFFFFFFFFFFF9D0800082F
:1000300089080008FFFFFFFF99080008A1080008D1
:100040007F0200087F0200087F0200087F0200088C
:100050007F0200087F0200087F0200087F0200087C
:100060007F0200087F0200087F0200087F0200086C
:100070007F02000881080008850800087F02000848
:100080007F0200087F0200087F0200087F0200084C
:100090007F0200087F0200087F0200087F0200083C
:1000A0007F0200087F0200087F0200087F0200082C
:1000B0007F0200087F0200087F0200087F0200081C
:1000C0007F0200087F0200087F0200087F0200080C
:1000D0007F0200087F0200087F0200087F020008FC
:1000E0007F0200087F0200087F0200087F020008EC
:1000F0007F0200087F0200087F0200087F020008DC
:100100007F0200087F0200087F0200087F020008CB
:100110007F0200087F0200087F0200087F020008BB
:100120007F0200087F0200087F0200087F020008AB
:100130007F0200087F0200087F0200087F0200089B
:10014000FFFFFFFFFFFFFFFFFFFFFFFFFFFFFFFFBF
:100150007F0200087F0200087F0200087F0200087B
:100160007F0200087F0200087F0200087F0200086B
:100170007F0200087F0200087F02000800F002F8FA
:1001800000F060F814A696E8000CB244B344DA45D7
:1001900001D100F057F8BAE80F000FA696E830003A
:1001A000A5EB040504EB0607AAEB0704A7F101077A
:1001B0004FEA15154FEA3414A4F10104AC4201D3FF
:1001C00000F040F813F0010F18BFFB1A43F00103D1
:1001D00000F001F8DBE71847DC1B0000FC1B000007
:1001E000103A24BF78C878C1FAD8520724BF30C863
:1001F00030C144BF04680C607047000070470000C5
:100200000023002400250026103A28BF78C1FBD81F
:10021000520728BF30C148BF0B607047642900F007
:100220001781752900F01481782900F04D81732918
:1002300000F0BF82002070471FB501F0CFFC1FBD4A
:1002400010B510BD00F0E8FA1146FFF7F5FF01F018
:1002500013F900F006FB03B4FFF7F2FF03BC00F054
:1002600057FB00000948804709480047FEE7FEE7C2
:10027000FEE7FEE7FEE7FEE7FEE7FEE7FEE7FEE756
:1002800004480549054A064B70470000B1080008BC
:100290007D010008300100203007002030030020DD
:1002A00030030020704753EA020C00F069802DE90A
:1002B000F04B4FF00006002B1FBFB3FA83F503FA93
:1002C00005F424FA05F65E4012BF1643B2FA82F531
:1002D00002FA05F4C5F120051EBF22FA05FC44EA26
:1002E0000C04203556EA044C4FEA144418BF641C31
:1002F0004FF000084FF00009904271EB030C39D326
:10030000002919BFB1FA81F701FA07F6B0FA80F7B0
:1003100000FA07F6C7F120071EBF20FA07FC46EADD
:100320000C062037B6FBF4FCA7EB0507103F07F0DF
:100330001F0BCBF120062CFA06F60CFA0BFB44BF80
:10034000B3460026202FA4BF5E464FF0000B5BEAA9
:10035000060C08BF4FF0010B19EB0B0948EB060820
:10036000ABFB027C06FB02CC0BFB03CCC01B71EB8E
:100370000C01C1E70B46024641464846BDE8F08BFA
:1003800013B5084318BF4FF0FF300146AFF30080AC
:10039000BDE81C40704700000FB4044910B503AA23
:1003A000029800F00BFA10BC5DF814FB88000020E6
:1003B00070B5044685690068C10601D5302600E0A5
:1003C0002026C00707D070BDD4E9012130469047F0
:1003D000206A401C20626D1EF6D570BD70B50446C3
:1003E00085690078C00707D170BDD4E901212020BC
:1003F0009047206A401C20626D1EF6D570BD70B516
:100400000C460546012A05D02878800600D5EA6901
:10041000002302E0012305E05B1C934202D2E05C72
:100420000028F9D1A869E618C01AA861286A1844FA
:1004300028622846FFF7BCFF04E0D5E9012114F843
:10044000010B9047B442F8D32846FFF7C7FF70BDB1
:100450002DE9F0410646002410687529314616A59D
:1004600010D0AFF30080002802DA404213A507E065
:1004700031688A0701D512A502E0490704D511A504
:10048000012401E0AFF3008000210A2206F12407D5
:1004900009E0B0FBF2FCB0FBF2F302FB1C003030D1
:1004A00078541846491C0028F3D123462A46304682
:1004B000BDE8F04100F012B9000000002D0000007E
:1004C0002B0000002000000070B504460D462146B8
:1004D0001068AFF300802188090502D50F4A7A44DD
:1004E00002E00E4A7A440E32002104F1240305E0B2
:1004F00000F00F060009965D5E54491C0028F7D1F4
:1005000020780023000704D5702D02D009B1022302
:1005100011322046BDE8704000F0E0B8141700002A
:100520002DE9F05F894604464FF0000ADFF874B108
:10053000FB44C0F820A02046E1688847002874D01A
:10054000252806D0D4E901219047206A401C20626A
:10055000F1E700265F462046E168884720280546E7
:1005600007DB312D05D2781910F8200C08B10643AD
:10057000F1E7B00701D526F00406C4F81CA0002757
:10058000C4F818A02A2D09D0284601F020FB38B362
:1005900004EB8708303DC8F8185019E059F8041BDF
:1005A000204604EB87029161E1688847012F0546E8
:1005B00018D1E069002820DA26F020061DE0D8F8DE
:1005C000180000EB800005EB40003038C8F8180038
:1005D0002046E1688847054601F0F9FA0028EED187
:1005E000012F0AD02E2D08D12046E16888477F1CB4
:1005F0000546022F46F02006C4DBA069002803DA76
:10060000404246F00106A061F00701D026F0100636
:100610006C2D0BD0682D09D04C2D39D06A2D35D0DA
:10062000742D35D07A2D33D016E038E0E1682F46AE
:1006300020468847B842054609D16C2F26D04FF492
:100640008060E168064320468847054604E06C2F39
:100650001AD04FF4807006430DB3A5F1410019285C
:1006600002D8203546F400664A46294620462660D0
:100670004E46FFF7D3FD80B101280BD0F61D26F0C2
:10068000070000F1080956E74020E4E78020D8E79A
:100690000020D6E706F104094DE7284652E7206A14
:1006A000BDE8F09FEA16000010B5044603E000F034
:1006B00039FB401C09D014F8010B05490028F6D17C
:1006C000BDE810400A2000F02DBB4FF0FF3010BDF8
:1006D0008800002070477047704770472DE9F04749
:1006E0000D4699469246044600F1240801688806A2
:1006F00004D5E06921F01001216000E00120A8424A
:1007000001DD471B00E00027A1697A1902EB09000F
:10071000081AA0612078C00602D42046FFF748FEE0
:10072000002608E0D4E901211AF806009047206A63
:10073000401C761C20624E45F4DB2078C0060AD5AA
:100740002046FFF735FE06E0D4E90121302090472E
:10075000206A401C2062381EA7F10107F4DC07E084
:10076000D4E9012118F805009047206A401C206256
:10077000281EA5F10105F3DC2046FFF72FFE2078A7
:10078000000602D50220BDE8F0870120FBE710B586
:10079000436913B1AFF3008001E0FFF730FE0120A1
:1007A00010BD127800F124010A7000224A70012263
:1007B000EDE711684FF0FF32E9E70000074B70B535
:1007C0000D467B4400F011F80446284600F020F85E
:1007D00010B14FF0FF3070BD204670BD5F050000C6
:1007E00001694A1C02610878704700B58FB0CDE9F5
:1007F00001310021059105497944CDE903101146E5
:100800006846FFF78DFE0FB000BD0000E5FFFFFF5B
:10081000007B00F080007047754600F02BF8AE4674
:1008200005006946534620F00700854618B020B5FC
:10083000FFF726FDBDE820404FF000064FF000070F
:100840004FF000084FF0000BAC46ACE8C009ACE834
:10085000C009ACE8C009ACE8C00921F007018D4629
:10086000704710B50446AFF300802046BDE8104045
:10087000FFF7F1BC0048704728000020FEE70000A9
:1008800000F078BC00F0B2BC70470000FEE700004A
:10089000FEE700007047000070470000704700004E
:1008A00040F22C10C2F20000016801310160704773
:1008B0004EF68850CEF20000026841F2000142F488
:1008C0007002C4F2020102600A6842F001020A608A
:1008D0000A689207FCD54A6822F003024A6000BF0A
:1008E0004A6812F00C0FFBD10A684FF6FF73CFF67F
:1008F000F2631A400A6000224A600A634FF41F0242
:100900008A604FF0006140F8801C7047FEE70000ED
:100910007047000041F20401C4F202010A6800F0CD
:100920000F0022F0F00242EA001008607047000059
:1009300041F20401C4F202010A6800F0070022F447
:10094000E06242EA002008607047000041F20401C2
:10095000C4F202010A6800F0070022F4605242EA81
:10096000C02008607047000041F25401C4F2020147
:100970000A68012822F0300208BF30320A6070474E
:10098000042888BF7047DFE800F0032B15220C0015
:1009900041F20000C4F20200026861F3000202604A
:1009A000704741F20000C4F20200426A61F30002A3
:1009B0004262704741F20000C4F20200026801F096
:1009C000010122F0807242EA01610160704741F248
:1009D0000000C4F20200026A61F300020262704782
:1009E00041F20000C4F20200026801F0010122F4A9
:1009F000803242EA014101607047000041F2040187
:100A0000C4F202010B6841F2002CC0F27A0CC3F36D
:100A10008103B0B5DFE803F02C023702C0F800C054
:100A20000A682FA3C2F303129A5C036841F62F45AC
:100A300023FA02F242600B68C0F60005C3F30223FA
:100A4000EB5C22FA03F3C3600B68C3F3C223EB5CD5
:100A50000425DA4082600B68096805EA9363C1F3F4
:100A60008131194422A3595CB2FBF1F10161B0BD9F
:100A70000A6D9205D2D5CA6A920144BF46F6004C6F
:100A8000C0F2DC2CCAE7D1F800E00B680A689B0CC6
:100A9000C2F34172140103F00F0301340F2B2546FA
:100AA00018BF0225002A18BF25465FEACE322B4424
:100AB00006D440F60012C0F23D0203FB02FCADE793
:100AC0000A68920302D403FB0CFCA7E70A6DC2F389
:100AD00001320232BCFBF2F202FB03FC9EE700BFD4
:100AE00000000000000000000102030406070809DE
:100AF00002040608020C081041F20002010CC4F2C4
:100B00000202895800F01F0021FA00F000F00100F5
:100B10007047000041F25401C4F202010A6800F07B
:100B2000030022F4405242EA00300860704700009F
:100B300041F200000021C4F2020000BF02689203EB
:100B400004D4B1F5405F01F10101F7D30068C0F3AF
:100B50004040704741F2000200F01F034FF0010CCB
:100B6000C4F2020201290CFA03F14FEA1040835843
:100B700014BF23EA010119438150704780B541F247
:100B8000040EC4F2020EDEF800C070B14CF48033E3
:100B9000CEF80030DEF800C0012814BF4CF400305D
:100BA0002CF40030CEF8000009E02CF48030CEF8B0
:100BB0000000DEF82C0040F00070CEF82C00DEF8CB
:100BC000000061F39540CEF80000DEF8000009094E
:100BD00061F35E70CEF80000DEF8000020F0004007
:100BE00040EAC270CEF8000080BD000041F2000073
:100BF000C4F20200016841F0010101600168890747
:100C0000FCD5416821F00301416000BF416811F04B
:100C10000C0FFBD101684FF6FF72CFF6F262114064
:100C200001600021416001634FF41F018160704742
:100C300041F20401C4F202010A6860F301020A6091
:100C400000BF00BF00BF00BF00BF00BF00BF00BFAC
:100C500000BF00BF00BF00BF00BF00BF00BF00BF9C
:100C600000BF00BF00BF00BF7047000041F204009A
:100C7000C4F202000068C0F381007047002808BF7A
:100C8000704780B54EF2100140F2DC0ECEF200014A
:100C9000C2F2000E4FF0320C002300BF82B2332AA2
:100CA00006D3DEF80020323802FB0CF24A6004E082
:100CB000DEF800005043486000208B600A6842F074
:100CC00001020A600A6802F00112012AFAD00A68D9
:100CD00022F001020A6002048B60DFD1BDE880408F
:100CE00070470000026861F3000202607047000074
:100CF0000421B0F1805FC4F2020192BF086020F0CD
:100D00007040C1F8000470470021C4F20201B0F144
:100D1000805F88BF01F580610968084018BF012025
:100D200070470000B0B543F600050446C4F2010563
:100D30002846802100F0E4FE0028F9D0A1B2284620
:100D400000F0D0FE2846402100F0DAFE0028F9D05D
:100D50002046B0BD416170470161704740F20042DA
:100D60004FF6FF71C0F20012C0E900127047000098
:100D7000B0B58B790A88032B0BD07BB94979282928
:100D800001F00F0E18D0182908BF0261110616D104
:100D90002EE04FF0000E110611D129E003F0080CEF
:100DA0000B79C97903F00403634401F0030103EBF9
:100DB000010E110603D11BE04261110618D0002379
:100DC0004FF00F0C002104E00131082903F1040366
:100DD0000ED022FA01F4E407F6D004680CFA03F509
:100DE000AC43046004680EFA03F52C430460EBE79F
:100DF000B2F5807F38BFB0BD120A00234FF00F0C50
:100E0000002104E00131082903F104030ED022FA85
:100E100001F4E407F6D044680CFA03F5AC434460EF
:100E200044680EFA03F52C434460EBE7B0BD0000C4
:100E3000B0B5C0F3074353FA90F2C2F120024FF06D
:100E4000FF3E2EFA02F40EFA03F240F2000E4FEAD1
:100E5000106CC4F2010E5CF80E50224025EA02022A
:100E6000C0B29840002918BF02434CF80E20B0BD14
:100E70002DE9F04182B0042000F0F4FD40F22000A2
:100E8000C2F2000000684DF68361C4F21B31A0FB82
:100E90000101880C40F2E001C2F20001086008681C
:100EA0004FF47A71484340F2DC01C2F2000140F293
:100EB00000080860C2F20008D8F800000121FFF71E
:100EC00049FE6C462046FFF749FF40F20C06C2F28D
:100ED000000640F214053188C2F2000540F20047D6
:100EE0002868C0F21017009121460197FFF740FFD4
:100EF000D8F804000121FFF72DFE6C462046FFF7CD
:100F00002DFF71886868009121460197FFF730FF37
:100F1000D8F808000121FFF71DFE6C462046FFF7B8
:100F20001DFFB188A868009121460197FFF720FFB7
:100F3000308800281CBF29680861708800281CBF01
:100F400069680861B08800281CBFA9680861022090
:100F5000C0F2180001210125FFF7FCFD6C46204678
:100F6000FFF7FCFE42F60000C0F20010CDE9005091
:100F700040F60000C4F201002146FFF7F9FE02B07E
:100F8000BDE8F08170B543F60045C4F2000505F5F3
:100F90005C44064620462021FFF7DCFE284602215D
:100FA00000F050FC0028F9D046F08001284600F0FF
:100FB00037FC00BF2846012100F044FC0028F9D08E
:100FC000284600F029FC00BF2846022100F03AFC28
:100FD0000028F9D02846002100F022FC28460121F3
:100FE00000F030FC0028F9D0284600F015FC064639
:100FF0002846802100F026FC0028F9D12046202137
:10100000FFF7AAFEF0B270BDF0B581B043F600451F
:10101000C4F2000505F55C440E4607462046202133
:10102000FFF798FE2846022100F00CFC0028F9D0BA
:101030002846394600F0F4FB2846012100F002FC66
:101040000028F9D0284600F0E7FB00BF284602211F
:1010500000F0F8FB0028F9D02846314600F0E0FB0C
:101060002846012100F0EEFB0028F9D0284600F0C8
:10107000D3FB00BF2846802100F0E4FB0028F9D113
:101080002046202101B0BDE8F040FFF765BE00001A
:1010900040F2E400C2F20000007800281CBF0020EB
:1010A000704780B51E20FFF76DFF00F00300033886
:1010B000B0FA80F0400980BD10B540F20011C2F2D4
:1010C00000010020C1E90000886040F2F001C2F296
:1010D0000001C1E90000886040F21011C2F2000175
:1010E000C1E90000886040F21C11C2F20001C1E9B0
:1010F0000000886040F2E401C2F20001087040F292
:10110000FC01C2F20001087040F20C11C2F20001B1
:10111000087040F2E501C2F20001087040F22811A7
:10112000C2F20001087040F2EC01C2F20001086056
:1011300040F2E801C2F2000108604FF4A010012162
:10114000FFF708FD0D200021002200F007FB0E2014
:101150000021002200F002FB43F60044C4F2000428
:101160002046002100F05EFB20460021BDE8104033
:1011700000F05EBB10B530244FF40070C4F20204DE
:10118000FFF7C2FDA0B14FF40070FFF7B1FD20469C
:101190000021FFF7A7FD40F2FC00C2F20000012190
:1011A000017040F2EC00C2F2000001680131016000
:1011B0004FF40060FFF7A8FD002808BF10BD4FF4F2
:1011C0000060FFF795FD20460021FFF78BFD40F200
:1011D000E500C2F200000121017040F2E800C2F215
:1011E000000001680131016010BD000010B5442409
:1011F0004FF40050C4F20204FFF786FDA0B14FF493
:101200000050FFF775FD20460021FFF76BFD40F20F
:101210000C10C2F200000121017040F2EC00C2F299
:1012200000000168013101604FF40040FFF76CFDE0
:10123000002808BF10BD4FF40040FFF759FD2046BD
:101240000021FFF74FFD40F2E500C2F2000001214E
:10125000017040F2E800C2F2000001680131016053
:1012600010BD000040F2E800C2F2000000687047C4
:1012700070B582B00424C0F2180420460121FFF7A3
:1012800069FCA01C0121FFF765FC4FF4C01001218F
:10129000FFF760FC40F20140C2F618000121FFF7A1
:1012A000C7FD6D462846FFF759FD41F2000441F69F
:1012B00000064FF48060C4F20104C0F208160090EA
:1012C000204629460196FFF753FD1820ADF805008A
:1012D0004FF40060009020462946FFF749FD4FF487
:1012E00080500090204629460196FFF741FD41F6C7
:1012F0000000C0F210100190202004F5006600905C
:1013000030462946FFF734FD30462021FFF724FD03
:101310000F20C0F21C000121FFF71CFC6D4628467F
:1013200000F068FA40F20010C0F20500009040F2B0
:101330000010C0F20110A4F5544401902046294643
:1013400000F086FA2046012100F05CFA6420FFF7E5
:1013500095FC0F20FFF716FE6A2817D112204421B2
:10136000FFF752FE10204421FFF74EFE11204C21C2
:10137000FFF74AFE1420FFF781FC0F20FFF702FE63
:101380006A38B0FA80F0400902B070BD002002B0A7
:1013900070BD000028B140F2E401C2F200010978FA
:1013A00009B1002070472DE9F04184B043F60045B3
:1013B000C4F2000505F55C44804620462021FFF775
:1013C000C9FC00BF2846022100F03CFA0028F9D0F1
:1013D0002846A22100F024FA2846012100F032FA22
:1013E0000028F9D0284600F017FA002701AE00BF08
:1013F0002846022100F026FA0028F9D028460021CC
:1014000000F00EFA2846012100F01CFA0028F9D05D
:10141000284600F001FAF05501370C2FE8D100BF43
:101420002846802100F00EFA0028F9D1204620211C
:10143000FFF792FC40F210100399019A029FC2F24A
:101440000000C0E900278160BDF80400DDF8063027
:10145000DDF80A10A8F80600BDF80E00C8F808303C
:10146000C8F80010A8F80400012004B0BDE8F0811D
:101470000F20FFF787BD00008AB000F05FFAFFF78A
:10148000F7FC4FF4E13000F0F9FAFFF7F1FE002825
:1014900000F00D81FFF7ECFF01468DA0FEF77CFF09
:1014A00041F66840C0F600004421FEF775FF41F6A2
:1014B0003740C0F600004C21FEF76EFF41F6345075
:1014C000C0F60000FFF7F0F841F67150C0F60000DA
:1014D000FFF7EAF8032000F07DF9FFF7EDFD85A0A6
:1014E0008CA18FA2FEF758FF90A0FFF7DDF840F225
:1014F0002C19C2F20009002040F22001C9F80000B6
:10150000C2F20001096844F6D352C1F26202A1FBA3
:1015100002124FF0FF3101EB9211B0EB116F40F06E
:10152000CE804EF2140BCEF2000BCBF800104EF62C
:101530002351CEF20001F0220A70CBF804000720FC
:101540004BF8040CD9F80000DBF80410D9F800209F
:101550009042F7D140F22003C2F20003DBF80020F2
:101560001B684DF68367C4F21B37A3FB0737511A7C
:10157000BA0CB1FBF2F14FF47A7244F23F2500FB52
:101580000216C0F20F050024FFF76CFE80463746B6
:101590004FF0000A23E000BF0599BDF92220BDF9F4
:1015A0002450481CBDF91C30BDF91EE0BDF9204097
:1015B000BDF926C0069041F69A40CDE9022544F2D5
:1015C0003F25C0F600003A46CDE900E4C0F20F0521
:1015D000CDF810C0FEF7E0FE069C0AF1010A059462
:1015E0003C46069402E0381BC8284AD2D9F80000CD
:1015F000DBF80410D9F800209042F7D140F2200324
:10160000C2F20003DBF800201B684DF68367C4F2CA
:101610001B37A3FB0737511ABA0CB1FBF2F14FF499
:101620007A7200FB0217BA1BAA42DCD949F2806326
:1016300050080021C0F29803EAFB03010023FEF7E3
:1016400032FE0646FFF70EFE4CF6CD41CCF6CC41FD
:10165000A6FB0112D108054601EB8100A6EB400272
:1016600041F6BB40A5EB0803C0F60000FEF794FE70
:10167000A84644F23F253E464FF0000AC0F20F054F
:10168000B1E7FFF705FD30B107A8FFF783FE00289B
:101690003C46ABD080E706983C46381AA842A5D90C
:1016A00041F6D740C0F60000FEF7FEFF98E741F68E
:1016B000FF40C0F60000FEF7F7FF00BFFEE741F66F
:1016C0001850C0F60000FEF7EFFF00BFFEE700BFB6
:1016D0004C534D3644533320496E6974204F4B3A76
:1016E0002057484F5F414D5F493D30782530325893
:1016F0000D0A00002346572C50494E504F4E5F4371
:101700005F464153543130345F56322C25732C25BB
:10171000730D0A004F6374202031203230323600BE
:1017200031363A31303A32380000000023535452F7
:1017300045414D2C313034487A2C313135323030FE
:10174000626175642C494D55312C7265636F72640A
:10175000696E672D6F6E6C790D000000B0B54EF6A6
:101760000C5ECEF2000EDEF800304FF0FF35C3F312
:10177000022383F00704042C28BF0424033B05FA4A
:1017800004F438BF0023A143994005FA03F39A43B8
:1017900000F00F03043B4EF2001C7344CEF2000C29
:1017A00011430C33B0F1FF3F4FEA011100EB0C0283
:1017B000C8BF02F540730028197048BFB0BD00F0E3
:1017C0001F01012202FA01F1C0F342104CF820106F
:1017D000B0BD00004EF60C51CEF200010A684FF683
:1017E000FF031A4060F30A2242F0806040F0FD706F
:1017F000086070470021C0F8031001600121C17129
:1018000070470000026801F0010122F0400242EA44
:101810008111016070470000C06880B2704700000D
:10182000C1607047426861F3000242607047000087
:10183000426801F0010122F0020242EA41014160E6
:10184000704700008068084018BF01207047000002
:10185000C26922F40062C2610A78032A27D8DFE84D
:1018600002F0021A060E026822F4004202E0026848
:1018700042F400420260026822F4804206E00268FC
:1018800042F400420260026842F480420260026850
:1018900022F480620AE0026822F4004202600268D8
:1018A00022F480420260026842F480620260CA79D7
:1018B000036802F0010223F4007343EA422202604B
:1018C0004A78012A06D1CA79012A03D1026842F472
:1018D000807202E0026822F4807202604A78036833
:1018E00062F3820303608A784368072A23F48073D3
:1018F00088BF03F5807343608A78036862F3C50389
:101900000360CA78036802F0010223F0800343EA0F
:10191000C21202600A79036802F0010223F4006334
:1019200043EAC22202604A79036862F3410303601A
:101930008979026861F300020260704780B5FFF7A1
:1019400055F901200121FFF71BF800BFFFF7F0F860
:101950000028FBD002203B210122FFF70FF90020D5
:10196000FFF7D8F802200121FFF70AF81920FFF746
:10197000C3F80128FAD10020FEF7CCFF0420FEF7BF
:10198000E5FF0420FEF7D4FF0120FEF7EDFF022063
:10199000FFF74EF9FFF76AF90228FBD10020FEF7A6
:1019A000E3FFBDE8804000F001B80000B0B541F2AF
:1019B000040441F20025C4F20204C0F27A05FFF7E4
:1019C00055F902280BD0A8BB206D800532D5E06AFE
:1019D000800144BF46F60045C0F2DC252AE0D4F879
:1019E00000C021682268890CC2F34172130101F022
:1019F0000F01581C0F29034618BF0223002A18BFE5
:101A000003465FEACC3003EB010006D440F6001138
:101A1000C0F23D0100FB01F50CE02168890301D40F
:101A2000454307E0216DC1F301310231B5FBF1F10E
:101A300001FB00F540F22000C2F2000005602168C1
:101A400004A2C1F30311515C026822FA01F10160A2
:101A5000B0BD00BF00000000000000000102030450
:101A6000060708094EF21001CEF200010A680428A8
:101A700022F0040208BF04320A60704770B582B0D9
:101A80000225C0F21805044605F10C000121FFF7FC
:101A900061F828460121FFF75DF86D462846FFF7FB
:101AA0005DF940F20040C0F2081043F600060190D4
:101AB0004FF40070C4F201060090A6F5405029468C
:101AC000FFF756F9304621460022002300F01EF8A9
:101AD0003046012100F072F83046012100F006F88E
:101AE00002B070BD6FF35F2141607047C26801F0C2
:101AF000010122F4005242EA4131C1607047000006
:101B00000068084018BF0120704700002DE9F0412F
:101B100086B001AD04462846984616460F46FEF7A5
:101B20006DFF46F2FF30C4F20100844205F1080067
:101B300008DC43F60001C4F201018C4210D046F2E9
:101B4000000107E046F20041C4F201018C4207D0D7
:101B500046F60001C4F201018C4218BF05F10C00E9
:101B600000684CF6CD4100EB80004000B0FBF7F080
:101B7000CCF6CC41A0FB0112D10801EB8103A0EB14
:101B800043000428A0684FF0010388BF03EBD20193
:101B9000C1EA0000A060E06806F0010120F4805076
:101BA00040EA0130E060206908F0030120F4405071
:101BB00040EA0130206106B0BDE8F081C26801F062
:101BC000010122F0080242EAC101C16070473038C9
:101BD0000A2801D20120704700207047F1EE100A58
:101BE0004FF6FF71C0F2C03120EA010040F04070B2
:101BF000E1EE100A70473031323334353637383938
:101C00004142434445464030580030313233343548
:101C100036373839616263646566403078000400A5
:101C20000008000000000000000200010000100099
:101C3000000000010203044779726F73636F7065DF
:101C40003A2031303420487A2C202B2F2D3230305E
:101C500030206470732C204354524C325F473D3027
:101C600078253032580D0A00416363656C65726FE8
:101C70006D657465723A2031303420487A2C202BFF
:101C80002F2D313620672C204354524C315F584C55
:101C90003D3078253032580D0A00494D55312C25FC
:101CA0006C752C256C752C25642C25642C25642CD6
:101CB00025642C25642C25640D0A002352415445CB
:101CC0002C256C752E256C75206670732C657272D0
:101CD0003D256C750D0A00494D5520776169746981
:101CE0006E6720666F722066726573682061636339
:101CF000656C2F6779726F20646174612E0D004CE2
:101D0000534D3644533320436F6E6E6563742046E3
:101D100061696C65642E0D00436170747572652095
:101D2000636C6F636B20696E6974206661696C65B2
:101D3000642E0D00494D55313A207365712C726542
:101D400061645F75732C41785F7261772C41795FB4
:101D50007261772C417A5F7261772C47785F72618C
:101D6000772C47795F7261772C477A5F7261770DC4
:101D700000436F6C6C6563746F723A204163633D1E
:101D80007261772A302E30303034383820673B206B
:101D90004779726F3D7261772A302E303730206478
:101DA00070733B206E6F6D696E616C203130342032
:101DB000487A0D00D81D000800000020280000000F
:101DC000E0010008001E00082800002008070000AD
:101DD00000020008000000000500180005001800BF
:101DE00005001800002000400080000000140140A1
:101DF000001401400014014000127A0000000000AD
:040000050800017D71
:00000001FF
