:020000041000EA
:100000004B2A110200000000A4030000EEC3A6E981
:100010007EEEE78880B500F087F90020002100F02F
:100020000DF8292000F00FF8202000F011F800F062
:1000300033F900F013F800F025F980BD4CF2B93C1B
:10004000C0F2000C604747F67D1CC0F2000C604710
:1000500047F6D12CC0F2000C6047000080B54FF08D
:10006000A040012100F075F900060BD1032000F03B
:1000700075F9000606D1012000F075F9000604BFED
:10008000002080BD00F074F94FF47A7000F075F92B
:10009000012080BD2DE9F04381B019B343F2B83897
:1000A0000F4606464FF0FF344FF00009C2F2000839
:1000B0003D46B7F5807F28BF4FF480754FF0A040D4
:1000C000314642462B46CDF8009000F05BF960B90E
:1000D00040462946224600F05AF904467F1B2E442A
:1000E000E6D103E04FF0FF3400E00124204601B0E8
:1000F000BDE8F08310B582B004464FF0000C4FF01D
:10010000A0404FF4805122462023CDF800C000F0DB
:1001100039F9000622D120461C214FF0FF3200F0B1
:1001200036F9E169814219D1E078112816D1A07819
:10013000022813D1E168B1F5002F0FD8606846F2AC
:100140007872C4F26A72904208D1A068FFF7A2FFE9
:100150002169401A18BF012002B010BD012002B071
:1001600010BD00002DE9F0410C4605460E184FF079
:100170000008B4F5803F07D3A8B228B94FF4803700
:100180000321102021E000BFB4F5004F08D328461A
:100190006FF3DF3020B94FF4004702210F2014E045
:1001A00029466FF31F31200BB1FA81F1B8EB143FF0
:1001B00018BF0120490901404FF008004FF4807733
:1001C00018BF0C2018BF4FF4805725FA00F082B2F8
:1001D0004FF0A04047F2305300F0DEF800060BD19C
:1001E0003D44B542A4EB070424BF0020BDE8F081E4
:1001F000B4F5803FC0D2C7E700F0BAF84FF47A7088
:1002000000F0BBF80120BDE8F08100002DE9F047C7
:1002100082B04FF000098AB343F2B83814460E4654
:100220000746C2F2000840F6B83A00BF2546B4F5CA
:10023000807F28BF4FF480754FF0A040394642467A
:100240002B46CDF8009000F09DF890B94FF0A040FB
:10025000314642462B46CDF80090CDF804A000F080
:10026000A0F848B92F44641B2E44DFD14FF0000999
:1002700004E04FF0010901E04FF00109484602B0E7
:10028000BDE8F08780B542F20400C1F200000068CA
:1002900000F08CF880BD0000B0B588B06846FFF76C
:1002A00029FF08B101243CE0DDE90501FFF75AFF11
:1002B00038B100F05DF84FF47A7000F05EF8012478
:1002C0002FE0DDE902020599FFF7A0FF38B100F049
:1002D0004FF84FF47A7000F050F8012421E00399B0
:1002E0000598FFF7D7FE0499884213D14FF0A0403C
:1002F0000021102247F23053002400F04DF805464B
:1003000000F036F828060CD04FF47A7000F035F87B
:10031000012406E000F02CF84FF47A7000F02DF87C
:100320000124204608B0B0BDEC20C6F205000168EB
:100330007F2221F002010160016821F004010160C7
:100340006FF0030143180431342943F8D82CF9D154
:10035000704748F6F57CC0F2000C604747F2613CFC
:10036000C0F2000C604747F21D3CC0F2000C604731
:1003700047F6717CC0F2000C604744F2717CC0F219
:10038000000C604748F69D2CC0F2000C604744F218
:10039000C17CC0F2000C604748F6A10CC0F2000C12
:1003A000604749F2D90CC0F2000C604744F62D0CAE
:1003B000C0F2000C604700000000000000000000D8
:1003C000000000000000000000000000000000002D
:1003D000000000000000000000000000000000001D
:1003E000000000000000000000000000000000000D
:1003F00000000000000000000000000000000000FD
:1020000000700220ED310010593200106B320010C8
:102010007D3200107D3200107D3200100000000083
:10202000000000000000000000000000D1020000DD
:102030007D320010000000007503000081030000E5
:102040007D3200107D3200107D3200107D32001094
:102050007D3200107D3200107D3200107D32001084
:102060007D3200107D3200107D3200107D32001074
:102070007D3200107D320010F95E0010FD5E001010
:10208000015F00107D3200107D3200107D320010A3
:102090007D3200107D3200107D3200107D32001044
:1020A0007D3200107D3200107D3200107D32001034
:1020B0007D3200107D3200107D3200107D32001024
:1020C0007D3200107D3200107D3200107D32001014
:1020D000055F00107D3200107D3200107D3200104F
:1020E0007D3200107D3200107D3200107D320010F4
:1020F0007D3200107D3200107D3200107D320010E4
:102100007D3200107D3200107D3200107D320010D3
:102110007D3200107D3200107D3200107D320010C3
:0C2120007D3200107D3200107D32001076
:10212C0010F8012B11F8013B012A28BF9A42F7D075
:10213C00D01A704781F0004102E000BF83F00043E9
:10214C0030B54FEA41044FEA430594EA050F08BF46
:10215C0090EA020F1FBF54EA000C55EA020C7FEA0A
:10216C00645C7FEA655C00F0E2804FEA5454D4EB87
:10217C005555B8BF6D420CDD2C4480EA020281EA51
:10218C00030382EA000083EA010180EA020281EA89
:10219C000303362D88BF30BD11F0004F4FEA0131DB
:1021AC004FF4801C4CEA113102D0404261EB4101EA
:1021BC0013F0004F4FEA03334CEA133302D0524270
:1021CC0063EB430394EA050F00F0A780A4F101042C
:1021DC00D5F1200E0DDB02FA0EFC22FA05F2801866
:1021EC0041F1000103FA0EF2801843FA05F359414C
:1021FC000EE0A5F120050EF1200E012A03FA0EFCCB
:10220C0028BF4CF0020C43FA05F3C01851EBE371F4
:10221C0001F0004507D54FF0000EDCF1000C7EEB11
:10222C0000006EEB0101B1F5801F1BD3B1F5001F4F
:10223C000CD349085FEA30004FEA3C0C04F101046E
:10224C004FEA445212F5800F80F09A80BCF1004F97
:10225C0008BF5FEA500C50F1000041EB045141EA19
:10226C00050130BD5FEA4C0C404141EB0101013CE2
:10227C0028BFB1F5801FE9D291F0000F04BF0146D1
:10228C000020B1FA81F308BF2033A3F10B03B3F1A3
:10229C0020020CDA0C3208DD02F1140CC2F10C0233
:1022AC0001FA0CF021FA02F10CE002F11402D8BF91
:1022BC00C2F1200C01FA02F120FA0CFCDCBF41EA5D
:1022CC000C019040E41AA2BF01EB0451294330BD2C
:1022DC006FEA04041F3C1CDA0C340EDC04F1140409
:1022EC00C4F1200220FA04F001FA02F340EA0300E0
:1022FC0021FA04F345EA030130BDC4F10C04C4F126
:10230C00200220FA02F001FA04F340EA0300294605
:10231C0030BD21FA04F0294630BD94F0000F83F44F
:10232C00801306BF81F480110134013D4EE77FEA32
:10233C00645C18BF7FEA655C29D094EA050F08BF7E
:10234C0090EA020F05D054EA000C04BF194610465F
:10235C0030BD91EA030F1EBF0021002030BD5FEAA3
:10236C00545C05D14000494128BF41F0004130BDCB
:10237C0014F580043CBF01F5801130BD01F000451F
:10238C0045F0FE4141F470014FF0000030BD7FEA92
:10239C00645C1ABF194610467FEA655C1CBF0B468D
:1023AC00024650EA013406BF52EA033591EA030FA4
:1023BC0041F4002130BD00BF90F0000F04BF00219C
:1023CC00704730B54FF4806404F132044FF00005CF
:1023DC004FF0000150E700BF90F0000F04BF002148
:1023EC00704730B54FF4806404F1320410F00045AE
:1023FC0048BF40424FF000013EE700BF42004FEAA9
:10240C00E2014FEA31014FEA02701FBF12F07F4325
:10241C0093F07F4F81F06051704732F07F4208BFDC
:10242C00704793F07F4F04BF41F40021704730B5E3
:10243C004FF4607401F0004521F000411CE700BF2F
:10244C0050EA010208BF704730B54FF000050AE0B2
:10245C0050EA010208BF704730B511F0004502D5B3
:10246C00404261EB41014FF4806404F132045FEAB5
:10247C00915C3FF4D8AE4FF003025FEADC0C18BF5E
:10248C0003325FEADC0C18BF033202EBDC02C2F150
:10249C00200300FA03FC20FA02F001FA03FE40EAE2
:1024AC000E0021FA02F11444BDE600BF70B54FF0E6
:1024BC00FF0C4CF4E06C1CEA11541DBF1CEA1355C4
:1024CC0094EA0C0F95EA0C0F00F0DEF82C4481EA2C
:1024DC00030621EA4C5123EA4C5350EA013518BF4C
:1024EC0052EA033541F4801143F4801338D0A0FB39
:1024FC0002CE4FF00005E1FB02E506F00042E0FBE6
:10250C0003E54FF00006E1FB03569CF0000F18BFEB
:10251C004EF0010EA4F1FF04B6F5007F64F5407493
:10252C0004D25FEA4E0E6D4146EB060642EAC62126
:10253C0041EA55514FEAC52040EA5E504FEACE2E93
:10254C00B4F1FD0C88BFBCF5E06F1ED8BEF1004F96
:10255C0008BF5FEA500E50F1000041EB045170BD12
:10256C0006F0004646EA010140EA020081EA030156
:10257C00B4EB5C04C2BFD4EB0C0541EA045170BD52
:10258C0041F480114FF0000E013C00F3AB8014F1CC
:10259C00360FDEBF002001F0004170BDC4F1000415
:1025AC00203C35DA0C341BDC04F11404C4F1200596
:1025BC0000FA05F320FA04F001FA05F240EA0200F1
:1025CC0001F0004221F0004110EBD37021FA04F627
:1025DC0042EB06015EEA430E08BF20EAD37070BDE1
:1025EC00C4F10C04C4F1200500FA04F320FA05F040
:1025FC0001FA04F240EA020001F0004110EBD37042
:10260C0041F100015EEA430E08BF20EAD37070BDB1
:10261C00C4F1200500FA05F24EEA020E20FA04F38A
:10262C0001FA05F243EA020321FA04F001F0004139
:10263C0021FA04F220EA020000EBD3705EEA430EAA
:10264C0008BF20EAD37070BD94F0000F0FD101F0D9
:10265C000046400041EB010111F4801F08BF013C12
:10266C00F7D041EA060195F0000F18BF704703F050
:10267C000046520043EB030313F4801F08BF013DD7
:10268C00F7D043EA0603704794EA0C0F0CEA135593
:10269C0018BF95EA0C0F0CD050EA410618BF52EA4D
:1026AC004306D1D181EA030101F000414FF0000053
:1026BC0070BD50EA410606BF1046194652EA430661
:1026CC0019D094EA0C0F02D150EA013613D195EAD5
:1026DC000C0F05D152EA03361CBF104619460AD11D
:1026EC0081EA030101F0004141F0FE4141F4700127
:1026FC004FF0000070BD41F0FE4141F4780170BD17
:10270C0070B54FF0FF0C4CF4E06C1CEA11541DBF7B
:10271C001CEA135594EA0C0F95EA0C0F00F0A7F87D
:10272C00A4EB050481EA030E52EA03354FEA0131AA
:10273C0000F088804FEA03334FF0805545EA1313BD
:10274C0043EA12634FEA022245EA111545EA106585
:10275C004FEA00260EF000419D4208BF964244F11C
:10276C00FD0404F5407402D25B084FEA3202B61A3B
:10277C0065EB03055B084FEA32024FF480104FF40F
:10278C00002CB6EB020E75EB030E22BFB61A754683
:10279C0040EA0C005B084FEA3202B6EB020E75EB16
:1027AC00030E22BFB61A754640EA5C005B084FEA7E
:1027BC003202B6EB020E75EB030E22BFB61A75464B
:1027CC0040EA9C005B084FEA3202B6EB020E75EB56
:1027DC00030E22BFB61A754640EADC0055EA060E17
:1027EC0018D04FEA051545EA16754FEA06164FEA5A
:1027FC00C30343EA52734FEAC2025FEA1C1CC0D106
:10280C0011F4801F0BD141EA00014FF000004FF092
:10281C00004CB6E711F4801F04BF01430020B4F153
:10282C00FD0C88BFBCF5E06F3FF6AFAEB5EB030C0B
:10283C0004BFB6EB020C5FEA500C50F1000041EB08
:10284C00045170BD0EF0004E4EEA113114EB5C04D5
:10285C00C2BFD4EB0C0541EA045170BD41F48011A8
:10286C004FF0000E013C90E645EA060E8DE60CEAB0
:10287C00135594EA0C0F08BF95EA0C0F3FF43BAFCD
:10288C0094EA0C0F0AD150EA01347FF434AF95EA84
:10289C000C0F7FF425AF104619462CE795EA0C0F68
:1028AC0006D152EA03353FF4FDAE1046194622E735
:1028BC0050EA410618BF52EA43067FF4C5AE50EA0F
:1028CC0041047FF40DAF52EA43057FF4EBAE12E7FF
:1028DC004FF0FF3C06E000BF4FF0010C02E000BFE0
:1028EC004FF0010C4DF804CD4FEA410C7FEA6C5CC3
:1028FC004FEA430C18BF7FEA6C5C1BD001B050EA66
:10290C00410C0CBF52EA430C91EA030F02BF90EA50
:10291C00020F0020704710F1000F91EA030F58BF0F
:10292C00994208BF90422CBFD8176FEAE37040F071
:10293C00010070474FEA410C7FEA6C5C02D150EA0F
:10294C00013C07D14FEA430C7FEA6C5CD6D152EACA
:10295C00033CD3D05DF8040B704700BF844610468F
:10296C0062468C461946634600E000BF01B5FFF78E
:10297C00B7FF002848BF10F1000F01BD4DF808ED5E
:10298C00FFF7F4FF0CBF012000205DF808FB00BF2F
:10299C004DF808EDFFF7EAFF34BF012000205DF889
:1029AC0008FB00BF4DF808EDFFF7E0FF94BF0120D6
:1029BC0000205DF808FB00BF4DF808EDFFF7CEFFD7
:1029CC0094BF012000205DF808FB00BF4DF808ED16
:1029DC00FFF7C4FF34BF012000205DF808FB00BFE7
:1029EC004FEA410212F5001215D211D56FF478732B
:1029FC00B3EB625212D94FEAC12343F0004343EACE
:102A0C00505311F0004F23FA02F018BF40427047A8
:102A1C004FF00000704750EA013005D111F0004032
:102A2C0008BF6FF0004070474FF00000704700BFC8
:102A3C0080F0004002E000BF81F0004142001FBF67
:102A4C005FEA410392EA030F7FEA226C7FEA236C70
:102A5C006AD04FEA1262D2EB1363C1BFD218414065
:102A6C0048404140B8BF5B42192B88BF704710F0FB
:102A7C00004F40F4000020F07F4018BF404211F09E
:102A8C00004F41F4000121F07F4118BF494292EA06
:102A9C00030F3FD0A2F1010241FA03FC10EB0C0032
:102AAC00C3F1200301FA03F100F0004302D54942BF
:102ABC0060EB4000B0F5000F13D3B0F1807F06D36C
:102ACC0040084FEA310102F10102FE2A51D2B1F164
:102ADC00004F40EBC25008BF20F0010040EA030059
:102AEC007047490040EB0000013A28BFB0F5000FD9
:102AFC00EDD2B0FA80FCACF1080CB2EB0C0200FA8F
:102B0C000CF0AABF00EBC25052421843BCBFD040DD
:102B1C001843704792F0000F81F4000106BF80F457
:102B2C0000000132013BB5E74FEA41037FEA226C1A
:102B3C0018BF7FEA236C21D092EA030F04D092F0E5
:102B4C00000F08BF0846704790EA010F1CBF002019
:102B5C00704712F07F4F04D1400028BF40F0004076
:102B6C00704712F100723CBF00F50000704700F096
:102B7C00004343F0FE4040F4000070477FEA2262BD
:102B8C0016BF08467FEA23630146420206BF5FEA8E
:102B9C00412390EA010F40F4800070474FF000038E
:102BAC0004E000BF10F0004348BF40425FEA000C55
:102BBC0008BF704743F0964301464FF000001CE0FD
:102BCC0050EA010208BF70474FF000030AE000BF53
:102BDC0050EA010208BF704711F0004302D5404291
:102BEC0061EB41015FEA010C02BF84460146002003
:102BFC0043F0B64308BFA3F18053A3F50003BCFA1E
:102C0C008CF2083AA3EBC25310DB01FA02FC6344CA
:102C1C0000FA02FCC2F12002BCF1004F20FA02F2D1
:102C2C0043EB020008BF20F00100704702F12002C4
:102C3C0001FA02FCC2F1200250EA4C0021FA02F225
:102C4C0043EB020008BF20EADC7070474FF0FF0C2A
:102C5C001CEAD0521EBF1CEAD15392EA0C0F93EA25
:102C6C000C0F6FD01A4480EA010C400218BF5FEAC7
:102C7C0041211ED04FF0006343EA501043EA51113A
:102C8C00A0FB01310CF00040B1F5000F3EBF490034
:102C9C0041EAD3715B0040EA010062F17F02FD2A38
:102CAC001DD8B3F1004F40EBC25008BF20F001001B
:102CBC00704790F0000F0CF0004C08BF49024CEA32
:102CCC00502040EA51207F3AC2BFD2F1FF0340EAC4
:102CDC00C250704740F400004FF00003013A5DDC35
:102CEC0012F1190FDCBF00F000407047C2F1000276
:102CFC00410021FA02F1C2F1200200FA02FC5FEA63
:102D0C00310040F1000053EA4C0308BF20EADC70AC
:102D1C00704792F0000F00F0004C02BF400010F41E
:102D2C00000F013AF9D040EA0C0093F0000F01F0CB
:102D3C00004C02BF490011F4000F013BF9D041EAED
:102D4C000C018FE70CEAD15392EA0C0F18BF93EAEF
:102D5C000C0F0AD030F0004C18BF31F0004CD8D119
:102D6C0080EA010000F00040704790F0000F17BFA0
:102D7C0090F0004F084691F0000F91F0004F14D0E6
:102D8C0092EA0C0F01D142020FD193EA0C0F03D13E
:102D9C004B0218BF084608D180EA010000F0004041
:102DAC0040F0FE4040F40000704740F0FE4040F41C
:102DBC00400070474FF0FF0C1CEAD0521EBF1CEABB
:102DCC00D15392EA0C0F93EA0C0F69D0A2EB0302D9
:102DDC0080EA010C49024FEA402037D04FF0805373
:102DEC0043EA111143EA10130CF000408B4238BF38
:102DFC005B0042F17D024FF4000C8B4224BF5B1A46
:102E0C0040EA0C00B3EB510F24BFA3EB510340EA93
:102E1C005C00B3EB910F24BFA3EB910340EA9C0041
:102E2C00B3EBD10F24BFA3EBD10340EADC001B01B1
:102E3C0018BF5FEA1C1CE0D1FD2A3FF650AF8B4255
:102E4C0040EBC25008BF20F0010070470CF0004C62
:102E5C004CEA50207F32C2BFD2F1FF0340EAC2508D
:102E6C00704740F400004FF00003013A37E792F04E
:102E7C00000F00F0004C02BF400010F4000F013AAC
:102E8C00F9D040EA0C0093F0000F01F0004C02BFA7
:102E9C00490011F4000F013BF9D041EA0C0195E710
:102EAC000CEAD15392EA0C0F08D142027FF47DAFA9
:102EBC0093EA0C0F7FF470AF084676E793EA0C0F99
:102ECC0004D14B023FF44CAF08466EE730F0004C97
:102EDC0018BF31F0004CCAD130F000427FF45CAF27
:102EEC0031F000437FF43CAF5FE700BF4FF0FF3C95
:102EFC0006E000BF4FF0010C02E000BF4FF0010CE8
:102F0C004DF804CD4FEA40024FEA41037FEA226CB0
:102F1C0018BF7FEA236C11D001B052EA530C18BFD2
:102F2C0090EA010F58BFB2EB030088BFC81738BF37
:102F3C006FEAE17018BF40F0010070477FEA226C25
:102F4C0002D15FEA402C05D17FEA236CE4D15FEA21
:102F5C00412CE1D05DF8040B704700BF8446084655
:102F6C006146FFE70FB5FFF7C9FF002848BF10F116
:102F7C00000F0FBD4DF808EDFFF7F4FF0CBF01205B
:102F8C0000205DF808FB00BF4DF808EDFFF7EAFFE5
:102F9C0034BF012000205DF808FB00BF4DF808EDA0
:102FAC00FFF7E0FF94BF012000205DF808FB00BF95
:102FBC004DF808EDFFF7D2FF94BF012000205DF81B
:102FCC0008FB00BF4DF808EDFFF7C8FF34BF012028
:102FDC0000205DF808FB00BF4FEA40024FEA4103B6
:102FEC007FEA226C02D15FEA402C08D17FEA236C85
:102FFC0002D15FEA412C02D14FF0000070474FF034
:10300C00010070474FEA4002B2F1FE4F0FD34FF070
:10301C009E03B3EB12620DD94FEA002343F0004339
:10302C0010F0004F23FA02F018BF404270474FF0E7
:10303C000000704712F1610F01D1420205D110F06E
:10304C00004008BF6FF0004070474FF00000704721
:10305C0042000ED2B2F1FE4F0BD34FF09E03B3EBF6
:10306C00126209D44FEA002343F0004323FA02F022
:10307C0070474FF00000704712F1610F01D142020E
:10308C0002D14FF0FF3070474FF00000704700BF87
:10309C007BB972B90029BEBF00204FF0004106E099
:1030AC0008BF00281CBF6FF000414FF0FF3000F04C
:1030BC0057B8ADF1080C6DE904CE002909DB002BE3
:1030CC001ADB0BF033FBDDF804E0DDE9022304B07E
:1030DC007047404261EB4101002B1BDB0BF026FBE0
:1030EC00DDF804E0DDE9022304B0404261EB41016C
:1030FC00524263EB43037047524263EB43030BF0C2
:10310C0015FBDDF804E0DDE9022304B0404261EB7D
:10311C0041017047524263EB43030BF007FBDDF8B0
:10312C0004E0DDE9022304B0524263EB4303704731
:10313C0053B94AB9002908BF00281CBF4FF0FF3112
:10314C004FF0FF3000F00CB8ADF1080C6DE904CE77
:10315C000BF0ECFADDF804E0DDE9022304B0704773
:10316C00704700BF4A0011D212F5001211D20DD5D2
:10317C006FF47873B3EB62520ED44FEAC12343F071
:10318C00004343EA505323FA02F070474FF000001B
:10319C00704750EA013002D14FF0FF3070474FF0CA
:1031AC00000070470A4B0B4A03F5967053F8041B4A
:1031BC00834242F8041FF9D1074B084A9A605A69B6
:1031CC0042F010025A615A6942F480725A61704797
:1031DC0000200010FC6F012000ED00E000700120C9
:1031EC00244880F30888244880F30A8823488047C1
:1031FC00002103E0224B5B58435004312148224B01
:10320C0042189A42F6D3002103E0204B5B584350FE
:10321C0004311F481F4B42189A42F6D3002103E099
:10322C001D4B5B58435004311C481D4B42189A42AD
:10323C00F6D31C4A02E00023136004321A4B9A4264
:10324C00F9D30AF0D5FA00F0F9FAFEE75FEA0E00BE
:10325C00EFF30881EFF30982144B9847FEE75FEA1E
:10326C000E00EFF30881EFF30982114B9847FEE74C
:10327C00FEE700000070022000600220B131001057
:10328C000029011000300020C0840020C07D0110F6
:10329C0000720120687901202885011000F00120BE
:1032AC0054F5012054F50120D0040220CD34001037
:1032BC00F134001070B51F4D82B02B68B3F1C04FC4
:1032CC002CD01D4A93421ED01C4E1D4C2D200BF0B1
:1032DC0041FC0C22316820680BF074FC08B102B080
:1032EC0070BD0222316820680BF0F4FB0028F6D187
:1032FC00144A154B126869462868CDE900230BF077
:10330C0011FC02B070BD0D4E0D4C2C200BF022FCAC
:10331C000822316820680BF055FCDFE7074E084C9B
:10332C002B200BF017FC0422316820680BF04AFCB0
:10333C00D4E700BF5CF501200004006068F50120B3
:10334C0058F5012064F501202130010130B4B2F1AF
:10335C00C04F029C06D0114DAA4203D005F58065E2
:10336C00AA4218D10E4DA84202D08035A84212D1E3
:10337C000C4D2C6024B100240B4D2C800B4D2C805B
:10338C000B4C22600B4A0C4C10600C4A216030BC78
:10339C001360FFF78FBF102030BC70470004006033
:1033AC0000B0046054F5012062F5012060F50120A5
:1033BC005CF5012058F5012068F5012064F5012029
:1033CC00F8B50E4D2B68BBB10D4C0E4E23880E4F2D
:1033DC000FE02A6838681268D15C0BF0F7FB238881
:1033EC002A68013392889BB29A4223809CBF0023A7
:1033FC00238032889A42ECD1F8BD00BF54F50120ED
:10340C0062F5012060F501205CF501202DE9F84FF3
:10341C00431C884634D00138012828D8002A2FDDD7
:10342C004C1E4FF0000BDFF860A0184DDFF86090D9
:10343C00A6180FE0B5F800C002680CF1010302F801
:10344C000C1082889BB29A422B8098BFA5F800B0D2
:10345C00B44210D0DAF80000274614F8011F0028F7
:10346C00E8D1D9F800000BF0B1FB0028F0D04FF0F8
:10347C00FF30BDE8F88FB81CA0EB0800BDE8F88F52
:10348C000020BDE8F88F00BF54F5012060F5012045
:10349C005CF50120012070474FF0FF30704700BFF2
:1034AC00002070474FF4005300204B60704700BF62
:1034BC0000207047012070474FF0FF30704700BF6D
:1034CC000D461646044608B5FFF7F4FE33462A4669
:1034DC002146034809F0B8FFFFF772FFFEE700BF73
:1034EC00F8EB001070B582B004460D461646FFF797
:1034FC00E1FEEFF30881834809F0A6FF23074CBFD8
:10350C00814882480AF010F8600737D580480AF0E5
:10351C000BF835467F480AF007F829687E4809F011
:10352C0093FF69687D4809F08FFFA9687C4809F012
:10353C008BFFE9687B4809F087FF29697A4809F015
:10354C0083FF6969794809F07FFFA969784809F018
:10355C007BFFE969774809F077FFAA69764B0192FE
:10356C00DB6A99070ED4744BDB6A002B41DB724C7F
:10357C00E36A5A000AD4FFF723FFFEE76F4809F00D
:10358C00D3FFC7E76E4809F0CFFFECE76D4809F0B1
:10359C00CBFFA36ADBB2002B4DD1674CA36A13F4AB
:1035AC007F4F2AD1644CA36AB3F5803FE3D36648BE
:1035BC0009F0BAFFA36ADE036FD45F4B9B6A9D03CD
:1035CC0067D45D4B9B6A5C035FD45B4B9B6A1803AF
:1035DC0057D4594B9B6AD9024FD4574B9B6ADA018B
:1035EC0047D4554B9B6A9B01C5D5584809F09CFFA5
:1035FC00C1E7574809F098FFB9E7564809F094FF1E
:10360C00A36ADB0531D44C4CA36A9E056ED44A4B9D
:10361C009B6A580566D4484B9B6A19055ED4464B89
:10362C009B6ADA0456D4444B9B6A9B04BAD54A482D
:10363C0009F07AFFB6E7494809F076FFA36ADB0781
:10364C0033D43D4CA36A9E0738D43B4B9B6A180776
:10365C0030D4394B9B6AD90623D4374B9B6A9A06D4
:10366C009BD53F4809F060FF97E73E4809F05CFFA7
:10367C00C9E73D4809F058FFB3E73C4809F054FF4F
:10368C00ABE73B4809F050FFA3E73A4809F04CFF81
:10369C009BE7394809F048FF93E7384809F044FFA5
:1036AC008BE7374809F040FFD7E70199354809F017
:1036BC00CBFEC6E7344809F037FFCAE70199334817
:1036CC0009F0C2FEA36A1D06BFD5616B304809F034
:1036DC00BBFEBAE72F4809F027FFA4E72E4809F0F4
:1036EC0023FF9CE72D4809F01FFF94E701992C4814
:1036FC0009F0AAFEA36A1D0489D5A16B244809F020
:10370C00A3FE84E718EC001040EC001054EC001001
:10371C006CEC00108CEC00109CEC0010ACEC00106D
:10372C00BCEC0010CCEC0010DCEC0010ECEC00104D
:10373C00FCEC00100CED001000ED00E07CEC001037
:10374C001CED001040ED0010F4F0001050F20010D1
:10375C002CED001064EF0010A8F0001054ED0010D8
:10376C0010EF001070EF00101CF20010F0F10010C0
:10377C00B0F1001080F1001040F1001004F10010C5
:10378C00BCEE001068ED001064EE0010E0ED0010CF
:10379C0054EE00105CF0001010F00010D8EF001088
:1037AC00A0EF001010B4054CD4E90023501C43F1D9
:1037BC000001C4E9000110BC704700BF78F501207E
:1037CC00704700BF704700BF70B5EFF3108C72B636
:1037DC004FF0E023174AD2E90045174A9869596916
:1037EC0056684A1C760105D5661C986945F100039C
:1037FC0034461D468CF31088091A4FF47A70002356
:10380C00A1FB0001FFF794FC6B016201121B43EA60
:10381C00D46363EB05039B0043EA92739200121985
:10382C0043EB0503D400DB00001943EA527343EB6E
:10383C00010170BD78F5012000ED00E008B52848C5
:10384C000BF0BCF9274C64200BF08CF902F0FAFA5F
:10385C00012002F007FB02F033FB234AA368DA6372
:10386C00BFF34F8FBFF34F8FBFF36F8F0BF02EF95A
:10387C001E4BA3FB00239B09013BB3F1807F2BD292
:10388C004FF0E02207214FF0E00C0020536184F848
:10389C0023C09061116102F0D3FB02F091FD202056
:1038AC000BF01CF94FF480614FF480300BF07EF973
:1038BC0020B102F067F802F065F8FAE70C4B596892
:1038CC000BF064F929200BF045F92A200BF042F992
:1038DC0020200BF037F9ECE7064809F025FEFEE74F
:1038EC0000E0046000ED00E0B1370010D34D621031
:1038FC00003000208CF2001003680868184700BFE5
:10390C0010B40468086811681A68234610BC18477C
:10391C00034610B5104672B1B3F59C7F0BD8C3F5B6
:10392C009C728A4207D3054C8A0004EB830109F090
:10393C0094FF002010BD4FF0FF3010BD90FA012015
:10394C0009F07EBC08B528B130F8023CC01AFFF76C
:10395C00F7FF08BD6B21024B024A034809F02EFC0D
:10396C00B0F20010B4F20010E0F200102DE9F843B0
:10397C00D0F80CE01C469EF85460DDF820C0D3F85B
:10398C00805066B100212F1D55F8310020B157F839
:10399C0031309A4207D033B101318E42F4D16FF0FD
:1039AC002000BDE8F883BEF86270E7B10568DEF868
:1039BC006460013FDCF80080DCF804902F44043E86
:1039CC00013D15F9010FFFF7EDF84146FFF734F80B
:1039DC004946FFF73BF956F8043FBD4204F1080491
:1039EC0023606060EDD10020BDE8F883012A02D18C
:1039FC00016000207047022A05D0032AF9D0002A62
:103A0C00F7D10260F5E70B680360F2E7012A02D1F7
:103A1C00016000207047022A05D0032AF9D0002A41
:103A2C00F7D10260F5E70B680360F2E7012A02D1D7
:103A3C00016000207047022A05D0032AF9D0002A21
:103A4C00F7D10260F5E70B680360F2E72DE9F04F60
:103A5C0004680868A1681268B0FBF1F9B2FBF1FACE
:103A6C001F68E36887B01A6A02FB09F902FB0A9A1D
:103A7C00D1452CD24FF0000B019721B3019B0026AE
:103A8C00012703EB8B0506E0A168731C8B4205F143
:103A9C00040514D21E46D4E900039B5D82684B4496
:103AAC00CDE903370595B2B1D0F80C8005AB04AA6B
:103ABC0003A9C0470028E7D007B0BDE8F08F0BF191
:103ACC00010BE368B3441A6A9144CA45D5D8002067
:103ADC0007B0BDE8F08F09F05BFB00BF70B5D0E913
:103AEC00001391F83C20054682B10024264653F879
:103AFC00240030B10368DB689847D5E9001343F81C
:103B0C00246091F83C2001349442F0D31846FFF71E
:103B1C0017FF284670BD00BF2DE9F04F83B0054656
:103B2C000F46FFF751FE80468946002D60D0EE68A7
:103B3C00F36C63B3002402E0F36CA34227D9D5F8ED
:103B4C0010E03B4621462846BEF1000F01D05EF83E
:103B5C0024E0326D02EB441CDCF81C20CDF804E0B0
:103B6C00DCF818E00134CDF800E0DCF810A0D04708
:103B7C0082460028E0D0FFF727FEB0EB080061EB8F
:103B8C000901C7E91C01504603B0BDE8F08F96F857
:103B9C005420FAB10024D7F88030A2460BE0284616
:103BAC00FFF7CEFED7F8803043F80BA096F85420E0
:103BBC000134A2420ED953F834504FEAC40B002DF5
:103BCC00F6D028680028EAD02B7B002BE7D0FFF733
:103BDC00B7FEE4E7FFF7F8FD4FF0000AB0EB080082
:103BEC0061EB0901C7E91C01504603B0BDE8F08F39
:103BFC006FF00A0AF8E700BFF8B507460D46F0B1BA
:103C0C00C668002496F83C20BAB1336C04EBC400AF
:103C1C0003EB80031B6A800063B1196851B15B69C7
:103C2C0043B1FA6855F83410126C1044984728B90F
:103C3C0096F83C200134A242E7D80020F8BD6FF082
:103C4C000A00F8BD002070472DE9F0430546C06816
:103C5C00984690F844300E46174685B00BB30024B6
:103C6C0004E0E86890F84430A3421AD9826C04EB63
:103C7C00440302EBC30CDCF81030CDF80C80DCF8FC
:103C8C0008203146CDE901729CF814200092DCF832
:103C9C0004902246C84701340028E2D005B0BDE8A4
:103CAC00F083FFF7CFFF831C18BF002005B0BDE8E1
:103CBC00F08300BF0FB430B5E3B066AC54F8045BCE
:103CCC004FF4C072002102A809F01DFD4FF4C07121
:103CDC002A46234602A8019409F05CFC002810DD5A
:103CEC00002302AC0DF287158DF8873105E04FF0FB
:103CFC00C0400AF06BFFAC4203D014F8011B002942
:103D0C00F5D163B0BDE8304004B070472DE9F04FF9
:103D1C0083B00C9B15460190002B00F08C80002783
:103D2C003E46B846019B29781C680329D4E9013228
:103D3C0002FB03F080440BD0092950D0012936D066
:103D4C004348FFF7B7FF6FF00C0003B0BDE8F08FEE
:103D5C004FF00009D8B12368E96853F82900FFF740
:103D6C0029F809F0D5F9FFF74DF92969D5F804B010
:103D7C00084480F308000BF80600D4E9013202FB7A
:103D8C0003F309F101094B4506F10106E3D80C9B3D
:103D9C000137BB42C6D1A969B8EB910F03D041459D
:103DAC0018BFC3464CD1002003B0BDE8F08F0028EB
:103DBC00EDD023686A6806F18041043B013902EBBF
:103DCC00810203EB800453F8041F9C4242F8041F49
:103DDC00F9D10C9B0137BB420644A3D1DBE74FF072
:103DEC00000B0028D3D02268E96852F82B00FEF7AC
:103DFC00E1FF09F08DF9FFF705F92B69D5F804A05F
:103E0C0018446FF07F039842B8BF18467F28A8BFAC
:103E1C007F200AF80600D4E9012101FB02F20BF124
:103E2C00010B5A4506F10106DDD80C9B0137BB424C
:103E3C007FF478AFAFE791698B08B4D0DDF830B080
:103E4C0004485A46FFF736FF6FF017007DE700BFB6
:103E5C0060F3001084F300100B4601782DE9F0415B
:103E6C0003290446D3E9012002FB00F028D00929DC
:103E7C000CD001293ED1A269B0EB920F41D16168FF
:103E8C00186809F0EAFC0020BDE8F081A1698142C4
:103E9C0042D10029F7D065681E680139276905EB06
:103EAC000108043E013D15F9010FC01BFEF77AFE17
:103EBC00E168FEF7CBFE454546F8040FF3D1E2E787
:103ECC00A169814228D10029DDD065681E680139BD
:103EDC00276905EB0108043E013D15F8010FC01BD5
:103EEC00FEF760FEE168FEF7B1FEA84546F8040F48
:103EFC00F3D1C8E70B48FFF7DDFE6FF00D00BDE80E
:103F0C00F081111EB8BF0331024689100648FFF735
:103F1C00D1FE6FF01700B7E702460348FFF7CAFE61
:103F2C00F7E700BF18F40010D4F30010F8B50F46F3
:103F3C001D4606461446FFF747FCC7E900013769E2
:103F4C0012487B682D6898470146C8B921463B69E1
:103F5C009847044678B9337B1BB90FE0327B9A4201
:103F6C000CD9B26829467B69105D98470134E3B2DD
:103F7C0040350028F2D06FF00200F8BD0020F8BDEB
:103F8C000348FFF797FE6FF00500F8BD9541001050
:103F9C0058F4001070B50C46002586B0D668019513
:103FAC004A68A568816805FB02F20569AA4228BF28
:103FBC002A46029222680492002955D0C56804ABA7
:103FCC0002AA01A9A8474FF07E513046FEF7D2FF56
:103FDC00054610B1002006B070BD0346A2883146DC
:103FEC0062F30F03ADF80820228902A862F31F4385
:103FFC0004932368ADF80A2004AA0393059302F0F6
:10400C0009FA0028E6D019491948FFF753FE2B4648
:10401C00A2883146ADF8082062F30F03228902A86A
:10402C0062F31F4304932368ADF80A2004AA039398
:10403C00059302F0EFF901460E48FFF73BFEA3880B
:10404C0031462689ADF8083063F30F05236804AABE
:10405C0002A866F31F45CDE90335ADF80A60059358
:10406C0002F0D8F906B070BD09F092F888F400108F
:10407C008CF4001094F4001010B51A49FEF7E6FD0C
:10408C0019490446FEF79EFF40B320461749FEF738
:10409C007BFF18B320460021FEF776FFD8B94FF00E
:1040AC007C512046FEF7CAFCFEF7ACFF4FF47A7445
:1040BC0080EAE0730E4AA3EBE0730028A2FB030234
:1040CC004FEA921204FB1233B4BF0A490A490B4857
:1040DC00FFF7F0FD10BD4FF03F41E2E70848FFF756
:1040EC00E9FD10BD00007A44FBFFFFCEFBFFFF4E45
:1040FC00D34D6210A8F4001098F70010B4F400101F
:10410C00ACF40010F8B506460F46E1B1002556F8A0
:10411C003530ABB1012F1AD19A6812B300241B6849
:10412C0053F82400FFF7A8FF1148FFF7C3FD56F81A
:10413C00353001349A68A242F1D80E48FFF7BAFD27
:10414C000135AF42E3D10C48FFF7B4FDF8BD294669
:10415C000A48FFF7AFFD56F835309A68002ADDD1D2
:10416C00EBE70448FFF7A6FD0348FFF7A3FDF8BDF6
:10417C007CFA0010C0F40010E8FA0010C4F400102F
:10418C0009F056B809F038B8431E034210B504467E
:10419C0013D180B179B1481C20440121FFF7F2FF03
:1041AC00024640B1631C0344644203EA0400821AD1
:1041BC0020F8022C10BD002010BD4821024B034AF0
:1041CC00034808F0FBFF00BFD4F40010F0F400101B
:1041DC00E0F200100B462DE9F04F8FB00993936875
:1041EC0004460646564950690893FDF799FF002886
:1041FC0014BF0323012322690393002A00F0958046
:10420C004FF0000A17465446B3464E4DCDF810A059
:10421C00B7F5806F3E4628BF4FF48066089B01219E
:10422C0003FB06F080000296FFF7ACFF0590002818
:10423C007FD0049ADBF80830CDE90B260D90002BCB
:10424C007BD05846DBF80C600DAB0CAA0BA9B04721
:10425C00002F5CD0099B4FF00008D3F800A0059B01
:10426C00CDE9067BA3F1040921E0374958460193B7
:10427C00FEF7ECFC0246354938461746FEF7E6FCDD
:10428C0001463846FEF7DAFB0246314930461646FF
:10429C00FEF7DCFC01463046FEF7D0FB019B08F133
:1042AC0001084AF80300029B013443452DD959F803
:1042BC00040FFEF7CDFE0646C0F30740FEF76EFC7A
:1042CC002946FEF777FD8346C6F30720FEF766FC0A
:1042DC002946FEF76FFD0746F0B2FEF75FFC294654
:1042EC00FEF768FD0399064603294FEA84030AEB9F
:1042FC008402BAD1029B08F1010843454AF824B064
:10430C005760906004F10304D1D8DDE9067B029B71
:10431C000598FF1AFFF714FB049ADBF8103002F52E
:10432C008062934204923FF673AF00200FB0BDE859
:10433C00F08F08480FB0BDE8F08F08F029FF00BFE0
:10434C0028F5001000007F438716993EA245163FC2
:10435C00D578E93D16FCFFFF2DE9F04FA3B0DDE960
:10436C002DB48046207B25698001924604938946B2
:10437C000595FFF705FF06460890FFF725FA002381
:10438C007A4A1193CDE91223794B12AD1093794BE4
:10439C000DAF95E803000F9387E8030008AB2A469E
:1043AC0020460AA9FFF7C2FD0346D0B1119A52B1BB
:1043BC000F990992002900F0D6803846109A09A965
:1043CC0004939047049B00220F9C11922CB1032262
:1043DC00394638460493A047049B184623B0BDE8E1
:1043EC00F08F2C99049B009198F844102A46029166
:1043FC0098F83C1048460191DBF88010FFF786FCDA
:10440C0003460028D2D1DDE90A892269049092681A
:10441C009047002840F0A480FFF7D6F9B0EB0800D5
:10442C0061EB0901CBE91A01FFF70CFC0230049B8C
:10443C0008BF6FF00103227B002A54D0B0464FF026
:10444C000009CDE906634FEACA05D8F808100A68D6
:10445C00002A40F3828000234FF0010A51F8040F28
:10446C000133934200FB0AFAF8D198F80060032E4E
:10447C000AD0092E08D0012E56D031463E48FFF7FF
:10448C0019FC6FF00D0391E7237D1020002B34D124
:10449C00FFF776FE012104905046FFF773FE4FF0B4
:1044AC00010C049B1860DBF88060D8F81820D8F851
:1044BC000410C3F808A083F80CC0C3F804C07351EF
:1044CC0009F0CBF9DBF8803062682B444A445A601F
:1044DC00237B09F101094B4508F1400805F108055A
:1044EC00B3D8DDE906630493059B2048DA6890474E
:1044FC003046FFF725FA049B58E7FFF741FE0121F0
:10450C0004904FEA8A00FFF73DFE0122049BDBF882
:10451C0080601860C3F808A01A735A6019464046A8
:10452C007351FFF799FCCDE71020FFF729FE3146B8
:10453C0004904FEA8A00FFF725FE049BDBF88020ED
:10454C00C3F808A018601E735E60D8F804105351AD
:10455C00D8F8182009F081F9B4E74FF0010A84E784
:10456C006FF0020367E708F013FE00BF513900102B
:10457C0005390010393A001018F400102DE9F04FED
:10458C00B7B0409E0446307B3569800189469A4617
:10459C00129510929DF80481FFF7F2FD0023054659
:1045AC00279325933F4B404A2493404B26922393C9
:1045BC0026AA21AB0F9092E8030083E80300304653
:1045CC0019AB1EA91995FFF7B1FC0E90002840F00D
:1045DC00BF829DF89830092B02D0032B40F03C830E
:1045EC00FFF7F2F8279BA269139005931792149189
:1045FC00002B00F0278300231193236C2A98DD688D
:10460C00299B0193FEF7CEFAA36C0390DB686869D3
:10461C000293AB6826490D93FDF782FD002814BF69
:10462C0003230123D9F810500693002D00F0DF80EE
:10463C000027BB46CDF854A0DDF804A009954096A0
:10464C00CDF85880099B0D9AB3F5806F28BF4FF4B5
:10465C00806302FB03F0012180000493FFF792FDBD
:10466C000A90002800F06882049BCDF868B01B9378
:10467C000A9B1C93D9F80830002B00F0F5821CAB78
:10468C004846D9F80C401BAA1AA9A047099B002B35
:10469C0000F09A800A9B0025CDE90BB9A3F1040820
:1046AC003BE000BF0539001051390010393A0010B9
:1046BC0028F500105046AE49FEF75CFC002800F0CF
:1046CC0015814FF043410398FEF754FC002800F08D
:1046DC000D81029B002B40F0578149F2456244F654
:1046EC008B4341F62F5002FB09F2019911FB032376
:1046FC0014FB00300014FEF755FA4FF08641FEF71C
:10470C009BF9FEF77FFC00F3070040B2049B0135D8
:10471C00AB4237468BF8000054D958F8040FFEF71B
:10472C0097FC059B7E1C03EB070BC0F3074301931F
:10473C00069BC0F30729032BC4B2BBD1059A504684
:10474C0093190793BB1CD318894908930337FEF7B9
:10475C0011FC002800F03E814FF043410398FEF716
:10476C0009FC002800F03681DDE90103002B40F044
:10477C007B81FEF717FA4FF08641FEF75DF9FEF7E5
:10478C0041FC06464846FEF70DFA4FF08641FEF70F
:10479C0053F9FEF737FC034620465CB2FEF702FAEB
:1047AC004FF08641FEF748F9FEF72CFC76B240B28A
:1047BC00079B8BF800601C70089B01351870049BDC
:1047CC00AB42AAD8DDE90BB9099B049A0A989B1A4B
:1047DC000993FFF7B5F8D9F810300BF5806B9B45B2
:1047EC00FFF430AFDDF854A0409EDDF85880FFF7A1
:1047FC0029FA831C00F02482FEF7E6FF139BC01AF3
:10480C00149B61EB0301CAE91801B8F1000F40F0E9
:10481C00F781FEF7D9FF336904469B680D46CDE955
:10482C001E019847002840F01B82FEF7CDFF001BAD
:10483C0061EB0501CAE91A01FFF704FA02300E9B7D
:10484C0008BF6FF001030E93337B002B46D000257D
:10485C00109B0F9C4FEAC308A2681068002840F315
:10486C00F9810023012752F8041F0133834201FB15
:10487C0007F7F8D194F80090B9F1030F00F07F819D
:10488C00B9F1090F00F07B81B9F1010F40F0938170
:10489C001020FFF775FC49468346B800FFF772FC01
:1048AC00DAF88030CBF80870CBF800008BF80C905D
:1048BC00CBF80490A269616843F808B008F0CDFF0A
:1048CC00DAF88030726843442A445A60337B0135ED
:1048DC00AB4204F1400408F10808BDD8129B2548EE
:1048EC00DB6898470F98FFF72BF82CE10198FEF73F
:1048FC0055F907464846FEF751F981462046FEF722
:10490C004DF9029B0446002B4AD138461A49FEF752
:10491C0051FA194907464846FEF74CFA16498146A2
:10492C002046FEF747FA044638461449FEF78EF93E
:10493C00134907464846FEF789F901463846FEF703
:10494C007DF803460F4920461C46FEF77FF90146C9
:10495C002046FEF773F85146FEF72CFA08F0D8FB08
:10496C0001460398FEF76AF8FEF74CFB40B2CDE621
:10497C008180803B5139001000007F438716993E9F
:10498C00A245163FD578E93D0198FEF707F9074691
:10499C004846FEF703F981462046FEF7FFF8044629
:1049AC00029B022B00F08480029B042BBCD1384666
:1049BC004FF08641FEF740F84FF0864107464846D7
:1049CC00FEF73AF84FF0864181462046FEF734F860
:1049DC000446A9E70198FEF7E1F806464846FEF7BB
:1049EC00DDF881462046FEF7D9F8029B0446002BE1
:1049FC0045D130469D49FEF7DDF99C4906464846AF
:104A0C00FEF7D8F9994981462046FEF7D3F90446BA
:104A1C0051463046FEF7CEF908F07AFB0146039872
:104A2C00FEF70CF8FEF7EEFA514606464846FEF73E
:104A3C00C1F908F06DFBDDF80C9001464846FDF716
:104A4C00FDFFFEF7DFFA0346514620465CB2FEF747
:104A5C00B1F908F05DFB01464846FDF7EFFFFEF7A4
:104A6C00D1FA76B240B2A3E6FEF798F8064648466D
:104A7C00FEF794F881462046FEF790F80446029B18
:104A8C00022B37D0029B042BC2D130464FF086410B
:104A9C00FDF7D2FF4FF0864106464846FDF7CCFFA6
:104AAC004FF0864181462046FDF7C6FF0446AFE72E
:104ABC0038466E49FEF77EF96D49FDF7BDFF6D492D
:104ACC00FEF778F9694907464846FEF773F96A49D3
:104ADC00FDF7B2FF6949FEF76DF96449814620463E
:104AEC00FEF768F96649FDF7A7FF6649FEF762F91C
:104AFC00044619E730465D49FEF75CF95C49FDF761
:104B0C009BFF5C49FEF756F9584906464846FEF7A6
:104B1C0051F95949FDF790FF5849FEF74BF95349A4
:104B2C0081462046FEF746F95549FDF785FF554964
:104B3C00FEF740F904466BE753495448FFF7BAF8BF
:104B4C006FF004030E93059B13B1119B002B53D1F3
:104B5C00259B43B1239A1D93002A00F08580249B4A
:104B6C0021A81DA998470022239B25921BB121A99E
:104B7C000322084698470E9837B0BDE8F08F337D76
:104B8C00102003B3FFF7FCFA01218146B800FFF7B0
:104B9C00F9FA0123DAF88020C9F80000C9F8087086
:104BAC0089F80C30C9F804304946204642F8089080
:104BBC00FFF752F984E649463548FFF77BF86FF06A
:104BCC000D030E93BFE7FFF7DBFA01218146384650
:104BDC00FFF7D8FA0123C9F80000C9F80870DAF811
:104BEC008070A269616889F80C30C9F8043047F804
:104BFC00089008F032FE63E60598FEF7A1FEA7E7E1
:104C0C00DAF84C102348FFF755F8179BA3B1179B04
:104C1C005C1E059B1C445D1E2A9B15F9010FC01AD6
:104C2C00FDF7C0FF2999FEF711F8FFF725FA1A488E
:104C3C00FFF740F8AC42EFD11848FFF73BF8E8E536
:104C4C000E9080E701211046FFF79CFA0123059096
:104C5C001193D2E401270DE66FF008030E9377E76A
:104C6C006FF002030E93EFE508F092FA00007F4319
:104C7C00EC51F83EFA7E6A3ED578E93E4260653EDC
:104C8C003BDFCF3E6666663E16FCFFFF34F5001038
:104C9C0018F400105CF500107CFA0010E8FA001013
:104CAC002DE9F04F8246A5B08946104698460A92E7
:104CBC000E93BAF1000F00F0C882DAF80C30002B1A
:104CCC0000F0C3821746002A00F0BF82002900F0D2
:104CDC00BC828822002108F016FDDAF80C3093F81B
:104CEC005440E4002046FFF74BFA22460021C7F857
:104CFC008000064608F007FDDAF80C0090F8552005
:104D0C00836C0E2A90F83C40D3E9015126D844F626
:104D1C00A403D340DB0721D590F86130F3B9B94B2C
:104D2C009D421BD14B7BCBB1012C17D1036C9A68E4
:104D3C00B54B9A4240F08C82CDE900183B4649466F
:104D4C000022FFF71BFC0546002800F09C81304632
:104D5C00FEF7F6FD284625B0BDE8F08F0C94E40074
:104D6C002046FFF70DFA8346002800F0C781224643
:104D7C00002108F0C8FC0C9CA31C9F00384608F0CE
:104D8C0005FA04230360034608330D9044600B932B
:104D9C00002C00F05882DDE90B0300219A0008F08A
:104DAC00B2FCFEF711FDDAF80C30129093F83C20AF
:104DBC001391002A00F0A8800024CDF81C90A14685
:104DCC000D9ACDE9107602F10408196C04EBC402BB
:104DDC0001EB820351F8221092000992D3E901529F
:104DEC000892DA685E6906921A69DB6910200493EE
:104DFC0003910592FFF7C4F901210746A800FFF7BC
:104E0C00C1F94FF001033B73012358F8041FC7E9A4
:104E1C000135C8F80070386049B1086818B10B7BCF
:104E2C00002B40F02B810846FEF78AFD38680028DD
:104E3C0000F06A81039ADAF80CC00BF104034BF80A
:104E4C00347043F83420DCF81830A944994500F24A
:104E5C007D81059B079A1B9300232093DCF820107F
:104E6C00CDE91C6C8E421A921E9321931F9300F075
:104E7C00BA801793654B1EAD2093654B2193136934
:104E8C0016AAB3FBF1F306FB03F322931AAB1693AA
:104E9C0014AB92E8030083E80300049BC5E900010E
:104EAC00002B00F0A5805B4E3378002B00F0B48013
:104EBC00DAF8046056F82400002800F0BE800A9F3F
:104ECC00DAF80C605BF83420294605680197B66B5C
:104EDC00069B00966D68A847002840F06981FEF794
:104EEC00B1FE821C209B00F06D811BB11EA9032218
:104EFC0008469847DAF80C30013493F83C20A2426B
:104F0C003FF663AFDDE910760E9B002B40F0658118
:104F1C0059465046FEF770FE0546002840F0B28117
:104F2C00FEF752FC129BC01A139B61EB03010A9B08
:104F3C00C3E91801DDF828800E9B424659465046BD
:104F4C00FEF782FE0B9BA7F1080405461C440028C3
:104F5C0040F0078150464146FEF7DEFD054600282D
:104F6C0040F0FF80D8F86030D8F8641013F5FA7070
:104F7C004FF47A724FF0000341F10001FEF788F80C
:104F8C00D8F86830D8F86C10C8F84C0013F5FA70E3
:104F9C004FF47A724FF0000341F10001FEF778F8FC
:104FAC00D8F87830D8F87C10C8F8500013F5FA709F
:104FBC004FF47A724FF0000341F10001FEF768F8EC
:104FCC00D8F87030D8F87410C8F8580013F5FA7087
:104FDC004FF47A724FF0000341F10001FEF758F8DC
:104FEC00C8F85400BDE0049B079D002B7FF45BAF19
:104FFC002846069ADCF838305BF83410089DA84730
:10500C006AE700BF65430010E1410010F939001058
:10501C00593A001070FF01209D499E48FEF74AFE48
:10502C009D48FEF747FE4FF001033370DAF8046039
:10503C0056F8240000287FF442AFDAF800300999C2
:10504C001A6C0A44D068996BD3699847DAF8043023
:10505C0046F8240053F8240000287FF430AF6FF09A
:10506C000A05DDE91076209B1BB11EA90322084618
:10507C0098470B9BA7F108041C4472E00F91FEF7B4
:10508C005FFC0F99CFE60A9C50462146FEF744FD83
:10509C000546D4E9180110F5FA704FF47A724FF006
:1050AC00000341F10001FDF7F3FFE064A06EE16E37
:1050BC0010F5FA704FF47A724FF0000341F10001D1
:1050CC00FDF7E6FF2065A06FE16F10F5FA704FF465
:1050DC007A724FF0000341F10001FDF7D9FFA06592
:1050EC00206F616F10F5FA704FF47A724FF0000375
:1050FC0041F10001FDF7CCFF606528E66748FEF73B
:10510C00D9FD6FF0070522E62146DDE910766448EB
:10511C00FEF7D0FD0B9BA7F108041C449C4239D030
:10512C00A146DDF82C8004E02846FEF709FCC145B9
:10513C004CD059F8045D002DF9D028680028F3D024
:10514C002B7B002BF0D0FEF7FBFBEDE76FF004059B
:10515C00DDE910765348FEF7ADFD0B9BA7F1080473
:10516C001C440B9BA3421BD0A046DDF82C9004E002
:10517C002046FEF7E5FBC14512D058F8044D002C33
:10518C00F9D020680028F3D0237B002BF0D0FEF759
:10519C00D7FBEDE708210D9807F0E5FF6FF0070549
:1051AC000D98394607F0DFFF5846FEF7C9FBCEE5F0
:1051BC000146DDE910763C48FEF77CFD6FF00405F6
:1051CC00209B51E70546DDE910764DE739460D98F1
:1051DC0007F0C9FF6FF00705C3E7FEF7F5FA0346C2
:1051EC00324898460391FEF765FD58460C99FEF738
:1051FC0089FFFEF7E9FA0C46814659465046FEF700
:10520C00FBFC054600283DD1FEF7DEFA129A139DF1
:10521C00B8EB0203039A62EB0502B3EB090362EBF2
:10522C0004021B1842EB01020A992148C1E9183209
:10523C001946FEF73FFD58460C99FEF763FF1D48D3
:10524C00FEF738FD76E60827ABE56FF0150581E52E
:10525C000820FEF795FF834600283FF44FAF00234C
:10526C000C20CBF80030CBF8043007F08FFF012373
:10527C00042243600C9300F108030C270D9002608C
:10528C000B9388E529460C48FEF714FDF1E600BFA8
:10529C0004F600108CF400100CF6001070F50010E1
:1052AC00A0F50010D8F5001034F5001078F60010B9
:1052BC00D0F60010E8F600109CF600102DE9F04F27
:1052CC00411C3329C9B040F229814FF03408984B66
:1052DC00DFF860925A689B68DFF85CE2DFF85CC22A
:1052EC0009920293A0F1330609F59C674D46ACFB7D
:1052FC000634240908FB146404EB44040EEBC404C8
:10530C000FCC0FC594E8030009F11809B94585E8DD
:10531C00030006F10106E9D10323DFF82482C8F863
:10532C002C3CBFF35F8F00254FF49C73854A26AC51
:10533C002692854A27950C92844A0AAFCDE90D2313
:10534C0094E803001CAB83E80300882287E8030081
:10535C00204608F0D8F9FEF737FA02462B46CDE97D
:10536C0005217B4822463946FFF79AFC0546FEF795
:10537C002BFACDE90301002D40F0A481D8F8343C80
:10538C0014AE0133C8F8343C35464FF000084FF0EA
:10539C007E59DFF8C0B10DF16C0ADBF800300896CD
:1053AC0001330793CBF80030E6684146304645F8A8
:1053BC00046FFDF7FDFD002800F0A1804946304642
:1053CC00FDF7ECFD0834002800F099805545EBD131
:1053DC0015991698FDF7F6FD041E18BF01244FF021
:1053EC000209089E0DF1580884F0010558F804AF25
:1053FC000DEB8403596D5046FDF7E4FD48AB03EB10
:10540C008503002878D1504653F8CC1CFDF7DAFD03
:10541C00002818BF4D4609F10109B9F1070FE5D174
:10542C00DDE903014FF47A720023FDF781FE4FF49E
:10543C007A7280468946DDE905010023FDF778FE86
:10544C00B8EB000869EB0109B8F5803F79F1000968
:10545C0028BF4FF6FF78062C00F03D8148AB03EBDC
:10546C00840353F8CC2C03933B4B10463B4953F825
:10547C0024A0A30005930492FDF79AFD039B81469B
:10548C0000287DD1049A36491046FDF7DFFB4FF01A
:10549C007C51FDF7D3FAFDF7DBFD0546314C4FF09F
:1054AC007C510298FDF7CAFAFDF7D2FDCDE9005404
:1054BC000246534607992C48FEF7FCFB4FF07C5AEA
:1054CC002A4CDFF89CB004F11C05594656F8040F21
:1054DC00FDF7BCFB5146FDF7B1FAFDF7B9FD54F8E9
:1054EC00041F02462248FEF7E5FBAC42EDD14146D3
:1054FC002048FEF7DFFB07E025464C468BE71E48AD
:10550C00FEF7D8FB4FF000090C9B1BB10322394668
:10551C0038469847484649B0BDE8F08F4FF000092F
:10552C001648FEF7C7FB484649B0BDE8F08F00BFF0
:10553C0098F5012090FA0120B0F501204FECC44EF3
:10554C00005001201D390010193A00100D390010BF
:10555C0074FF0120A8F50120FCF001203333333F08
:10556C0000401C4604F700109CF70010F8F00120D6
:10557C00C8F70010D0F7001074F700101CF70010DB
:10558C00002251460DF13C0A8DF84F20CDF84320F6
:10559C00CDF84720CDF84B2050460722039308F056
:1055AC00BAF8564B072253F8251012A808F0B3F896
:1055BC00039B0DEB850553F8CC3C514911936B6D56
:1055CC00504A1493099BDFF84091A3FB0101030E91
:1055DC0043EA012320F07F4523F07F432B4403EB68
:1055EC001143A2FB0352920802EB420502EB850227
:1055FC009B1A464AC31A02FB03F261F1000109FB34
:10560C000122A3FB09390DF1700C4A440DF1540E23
:10561C00DD0845EA4275BEE80F00ACE80F009EE8D5
:10562C0007008CE80700CDE92358394AD2F8281C2A
:10563C00013141F00103C2F8283C21F00101BFF314
:10564C005F8F344D0DF13B03A5EB0A050DF1530CA7
:10565C00EA1813F8010F63451070F9D12E481CABF2
:10566C00C01A0DF193050DF16F03C21813F801CF99
:10567C009D4282F800C0F8D1BFF35F8F023108BFA2
:10568C000221234BC3F8281CBFF35F8F1B4B23490C
:10569C0053F824A0059B4FF001090DEB0302099B65
:1056AC00506D2F33CB60DBF800301D490793FDF7AD
:1056BC00CDFA4FF07C51FDF7C1F9FDF7C9FC194C3F
:1056CC000546ECE629461848FEF7F4FA6FF0040993
:1056DC00C8F8385C18E7094B11491B98D3F818A087
:1056EC00FDF7B4FA4FF07C51FDF7A8F9FDF7B0FCCB
:1056FC004FF0000905460D4CD1E600BFFCF001202F
:10570C0040420F004FECC44EC54EECC44EECC44EA0
:10571C0000500120115C0120415C012098F5012012
:10572C0000401C46FCF6001058F7001014F700104F
:10573C002DE9F04F0E4689B0002800F0E280036A94
:10574C001D68002D00F0DD80D5F80080B8F1000F49
:10575C0000F0D780AB68002B00F0D3802A69002AB8
:10576C0000F0CF806C68002C00F0CB80EA68002A37
:10577C0000F0C7806969002900F0C38071680129B5
:10578C0073D14168B7688F4266D1BC4240F0BE808D
:10579C00A2426ED13268002A00F0D4804FF0000B88
:1057AC004446154600264FF00009CDE9012303922B
:1057BC00002D63D0D4F8008049464046FDF7DAFB53
:1057CC0008F1004120B901232A46284600F012FEB8
:1057DC000136B74205F1040504F10404E8D8DDF8FC
:1057EC000C80DDE9012300251C4643464FF07E5A10
:1057FC00A046A9461C46CDE9022B002C00F08C805B
:10580C00D8F800B051465846FDF7B4FB98B9254678
:10581C0001904FF00116594606AA04A80595079564
:10582C000496069600F0F6FD00283FD1019B13B1BB
:10583C002846FEF785F809F101094F4504F10404E7
:10584C0008F10408D9D8DDE9022B1AB1BBF1000F1D
:10585C0040F08580002005E03A464348FEF72AFADE
:10586C006FF0170009B0BDE8F08F4048FEF722FA40
:10587C00F6E721463E48FEF71DFAF1E70121042028
:10588C00FEF780FC8246002836D02068494600F19D
:10589C000048FDF76FFB28B901234146524650469C
:1058AC0000F0A8FD5046FEF74BF891E7314932481D
:1058BC00FEF700FA06AA594604A8CDE90465CDE91D
:1058CC00066500F0A7FD01462C48FEF7F3F9594692
:1058DC0006AA04A8CDE905560496079500F09AFD92
:1058EC000028A3D0019B2E46029ADDF80CB023B100
:1058FC0030460192FEF724F8019A12B1BBF1000F69
:10590C001CD16FF01D0009B0BDE8F08F224639465E
:10591C001B48FEF7CFF9A3E701210420FEF732FC68
:10592C000546C8B1D8F800B051465846FDF722FBE1
:10593C0000287FF47DAF012301936AE71046FDF741
:10594C00FFFFDEE70121B8000193FEF71BFC4FF0CF
:10595C00010B0246019B23E7DDE9022BCDE7104644
:10596C00FDF7EEFF76E700BF38F80010E4F7001003
:10597C00C8F8001088F400108CF4001094F4001097
:10598C0080F80010002201232DE9F04FBA4C91B0A1
:10599C00C4F8282CC4F82C3CBFF35F8F00F026FC15
:1059AC00002800F03081B54CB54D04F11C0655F8BB
:1059BC00041F54F8040FFCF7B3FB002840F03681A9
:1059CC00A642F4D100F040FC002840F04281AD4CDE
:1059DC002378002B00F06C8100230221AA4FA64AE9
:1059EC00DFF8A8A2C7E90033CAF80030C2F8383C87
:1059FC00C7E90233C2F82C1CFDF7E6FE4FF47A72AD
:105A0C000023FDF795FB9C4D0646884614E0012CBF
:105A1C006DD0FDF7D9FE4FF47A720023FDF788FBA9
:105A2C00801B61EB0801B0F5FA7F71F1000180F089
:105A3C00CE80012009F096F807A800F055FC04462A
:105A4C0000F0FCFB002CC5F83C0CE0DAA51C002295
:105A5C00894BC3F8282CBFF35F8F621D4FF00502F2
:105A6C0018BFC3F8384C844B894EC3F82C2C3368C0
:105A7C00DFF8208201333360FDF7A6FE4FF47A7213
:105A8C000023FDF755FBD6F800C00F46BCF1010F03
:105A9C00064614D0D8F80020831AD8F8042061EBFD
:105AAC000202B3F57A7F72F1000208D2012D1BD9E4
:105ABC00642009F057F8012011B0BDE8F08F6E4B4F
:105ACC002146D3F83C2CD3F8303C7348CDE901C3C4
:105ADC00130E0093C2F30933C2F30A02FEF7EAF87D
:105AEC00012DC8E90067E3D800F016FBE0E707A832
:105AFC000AA900F081FB3421D5F8302C674B013218
:105B0C00C5F8302CDAF80060654A0DF1280CA2FBC0
:105B1C000602120901FB126202EB420203EBC20EF7
:105B2C000F9B06F101090593BCE80F00AEE80F00CE
:105B3C009CE803008EE803000D99CAF80090084613
:105B4C00FDF784F8DDF838B0804659465846FDF725
:105B5C007DF801464046FCF771FF059980460846E2
:105B6C00FDF774F801464046FCF768FF07F06CF946
:105B7C007B788046EBB1B968FDF724FA0346A8BBE5
:105B8C007A68B21A132A0AD930463B80FFF796FB83
:105B9C000028C0F29D8001282CD0DAF80090B9F1D1
:105BAC00330F19D97B7863B10722334BC3F82C2CF4
:105BBC0022E73C49FDF7E8F980B13C70B9F1330FAD
:105BCC000AD9FB68F31A002B1BDB0622EDE76FF0FA
:105BDC0001056FF003043AE70222E6E73B78002B5D
:105BEC00ECD0FB68F31A002B08DB7C70C7F808803C
:105BFC007E60D4E70423C5F82C3CFDE6B9F1330FE5
:105C0C00EAD90822D1E700F087FA00F0EFFA002871
:105C1C007FF4C9AE6FF001020523C4F8382C4FF4A1
:105C2C00FA70C4F82C3C08F09DFF44E76FF00501B6
:105C3C000522114B1C48C3F8381CC3F82C2CFEF75A
:105C4C0039F84FF4FA7008F08DFF012011B0BDE85F
:105C5C00F08F0522084B0146C3F8380CC3F82C2CE6
:105C6C001248FEF727F800F057FA642008F07AFF84
:105C7C00012011B0BDE8F08F00500120F8F0012098
:105C8C00600A011094F5012098F50120ACF5012073
:105C9C0090F5012088F50120A8F90010B0F501203D
:105CAC004FECC44E00007A43FCF9001010F90010C0
:105CBC0041F658372F26FA251F2334220A21CDE925
:105CCC00016706480095FDF7F5FF0123237083E675
:105CDC006FF002056FF00404B9E600BF30F9001054
:105CEC002DE9F04100270F4D0F4B95F83C600F4C00
:105CFC001B684FEA860840462560EB662772FEF764
:105D0C003FFA60601EB14246394607F0FCFC0023A6
:105D1C00E560C4E90433BDE8F041054A0549034890
:105D2C0007F01ABA00F001208CFF012074FF01204B
:105D3C0080F50120E93A001030B5154C83B00DF117
:105D4C000601204608F036FFBDF806100B0618D5E4
:105D5C00636BB3B10F4D01232A4602E00133212BB3
:105D6C0014D0616802F8011B616B0029F6D15C1933
:105D7C0015F8011B084807F067FBA542F8D1BDF8E0
:105D8C000610034808F00EFF03B030BD2023EEE7E9
:105D9C000034006090FF012078FA001010B51D202F
:105DAC0084B008F0D7FE1C224FF40071224808F092
:105DBC0009FF1D228021204808F004FF00224FF427
:105DCC0000711D4808F086FE002280211A4808F058
:105DDC0081FE00224FF48061174808F0F3FE012287
:105DEC004FF48061144808F06DFE01224FF480617D
:105DFC00114808F05FFE01224FF480610E4808F054
:105E0C00B9FE64246A229DF80E300C4823F01F035F
:105E1C0043F0190301A9ADF808208DF80E30019458
:105E2C0008F04CFE0023064A02F8013F0133202BF8
:105E3C00FAD104B010BD00BF80B004600034006023
:105E4C00CFFF012008B5022008F088FE002008F0E2
:105E5C0099FE002008F052FEBDE80840002008F032
:105E6C0085BE00BF002310B582B0044601220F206E
:105E7C000DF107018DF8073008F0ACFE9DF80730E6
:105E8C00D3B1012210200DF1070108F0A3FE9DF8FB
:105E9C00070000B9A92008F051FE002008F0FEFD13
:105EAC0003216422084608F041FE40F6C411204646
:105EBC0008F030FE02B010BD562008F0F3FDE0E70C
:105ECC00002210B5002482B01146012008F00AFE11
:105EDC004FF4E1234FF0C0424FF0005100940248C0
:105EEC00FDF734FA02B010BD00B00460FFF724BF18
:105EFC00FFF722BFFFF720BF70B582B00DF105018F
:105F0C00454808F023FE44489DF8051008F012FEA1
:105F1C009DF805309A0712D400230DF105013F4876
:105F2C008DF8053008F012FE3C489DF8051008F07D
:105F3C0001FE9DF805309B0743D402B070BD0DF1F6
:105F4C000601354808F04AFE334808F017FE34487D
:105F5C0007F0EAFABDF80630324E5BB10024354644
:105F6C00314815F8011B07F06FFABDF80630013403
:105F7C00A342F5DC0A2007F079FA2C4A2C4B0121BC
:105F8C00C2F89430C2F89860D2F88C3029486FF37C
:105F9C000F0343F02003C2F88C3008F0FBFD0028FF
:105FAC00BAD13F211C4808F0C5FD0028B4D102210C
:105FBC00194808F09BFD0028AED1174808F0A2FD47
:105FCC00AAE7164808F0DAFD1B4807F0ADFA174AA5
:105FDC001A49184BC2F8D410C2F8D830D2F8CC30C9
:105FEC003F216FF30F0343F020030C48C2F8CC3071
:105FFC0008F0A0FD0028A0D10221084808F076FD89
:10600C0000289AD10146054808F088FD002894D153
:10601C00024808F077FD90E780810050C081005065
:10602C0080FA001090FF012078FA001000810050D7
:10603C00043400600034006088FA0010B0FF0120C6
:10604C0008B5FFF7ABFE322008F08CFDBDE8084028
:10605C0000F062B8831D02390C301A88023321F823
:10606C00022F33F8082C8342CA80F6D1704700BF48
:10607C0038B58C4604460B491546002301220A48C4
:10608C000C70644606F002FE00B138BD03462A4689
:10609C002146054806F010FD0028F6D1024806F00E
:1060AC00D5FC38BDFCFF012000340060042230B563
:1060BC0083B004460D463A200DEB0201FFF7D8FFE2
:1060CC0008BB9DF805109DF804204FEA012C9DF8A3
:1060DC0007300CF4E06C42EA0C0222801B029DF8A3
:1060EC00062003F440731A432A802388094D43EA9F
:1060FC00016343EA02334A062B6007D4CB0600D572
:10610C00208003B030BD4FF0FF30FAE76FF00A008B
:10611C00F7E700BFF4FF012000232DE9F0412A4EE0
:10612C0082B00DF1030101220F208DF80330336092
:10613C00FFF79EFF9DF8031060BB6A292AD1234C00
:10614C00234D04F11007B4F800C0012302222946A4
:10615C00204814F8028BA5F800C006F097FDF8B99A
:10616C00BC42F0D10322102001A9FFF781FF58B9DE
:10617C009DF80430442B07D19DF805304C2B03D1EE
:10618C009DF80630442B12D0134807F0CDF902B01D
:10619C00BDE8F081114807F057F902B0BDE8F08175
:1061AC0041460F4807F050F902B0BDE8F0813220AB
:1061BC0008F0D8FC01230B48336007F0B5F90A4806
:1061CC0007F0B2F9E9E700BFF8FF012078190110D8
:1061DC00FCFF012000340060ECFA001090FA001073
:1061EC00BCFA001014FB001060FB0010014B186887
:1061FC00704700BFF8FF01202DE9F041DFF8348033
:10620C000D4F0D1F841E061D34F9020FFCF7CAFC3E
:10621C004146FCF71BFD0346B4F9060045F8043F64
:10622C00FCF7C0FC3946FCF711FDA642E860EBD147
:10623C00BDE8F08140DAFF39295C8F3D014B1868CD
:10624C00704700BFF4FF0120002300B5214A22480B
:10625C002249126883B003600B60BAB34FF00A0C8A
:10626C001F49012302221F48A1F800C006F00EFDB1
:10627C0030BB42F20A6C1A49012302221948A1F8D8
:10628C0000C006F003FDD8B9052206206946FFF7C9
:10629C00EFFEA8B99DF802209DF80030092A9DF860
:1062AC00011010D19DF803200B431A430BD19DF81C
:1062BC000430262B18BF6FF0090003B05DF804FB07
:1062CC004FF0FF30F9E76FF00900F6E76FF00100CF
:1062DC00F3E700BFF8FF0120F0FF0120F4FF0120DD
:1062EC00FCFF01200034006070B5334B06461B6880
:1062FC0086B0002B5DD00DF10A0102A8FFF7D6FE87
:10630C00054630BBBDF808300B2B22D9BDF80A402E
:10631C00052C1CD804B3294B1B68C3B902223E20A0
:10632C0001A9FFF7A5FE0134A4B200283AD1062C2E
:10633C00F4D10DF10A0102A8FFF7B8FE002836D1FE
:10634C00BDF808300B2B04D9BDF80A3023B16FF01F
:10635C000B05284606B070BD03AC214602223E2038
:10636C00FFF786FE0234E8B906AB9C42F5D10DF17D
:10637C000A0102A8FFF79AFE05460028E9D1BDF8EC
:10638C000830052B03D9BDF80A30002BDFD103A848
:10639C003146FFF75FFE01231D462846074A13606E
:1063AC0006B070BD4FF0FF35284606B070BD0546EF
:1063BC00CFE76FF00105CCE7F8FF0120F0FF0120DB
:1063CC0000221346104609490A604A608A60CA6076
:1063DC00CA180133B3F57A6F1074F9D1BFF35F8F1C
:1063EC00034B0B60BFF35F8F704700BF005C012055
:1063FC0044524853F8B506460F4615461C4643B161
:10640C0056F8040B3946FCF719FB013C45F8040B14
:10641C00F6D1F8BDF8B5048843880F4603FB04F4A5
:10642C005668456844B155F8040B3946FCF70EFC28
:10643C00013C46F8040BF6D10020F8BD2DE9F047DD
:10644C005D68DDF838A0012DDDE90867DDE90AE8B3
:10645C00DDE90C9410D1A568AD070DD18D69012D26
:10646C000AD1CDE90D4ACDE90B89CDE9097E089613
:10647C00BDE8F04700F0CABC4FF0FF30BDE8F08734
:10648C0000F0F2BE2DE9F04F90460A6993B00C462D
:10649C00DDE92106002A6DD14A69002A6AD1C96852
:1064AC009D68D3F800C001FB05F9D0E90217D0F8BC
:1064BC0004B0D868BCF1000F00FB09F90A9007FB87
:1064CC0001FAA0680B9751DD96460D9159460A9A30
:1064DC00D34602FB00F2CA460C92CDF844C0724679
:1064EC009C46894602FB05F5DCF804001C9BB9F1BF
:1064FC00000F00FB05352FDD0027CDE90E2ECDF862
:10650C0040C001E0B94523D00C9B626A09930A9BF9
:10651C00089204930B9B284603930D9B1E990293A0
:10652C00226A334607926268013706922268554404
:10653C000592D8F804205E440192D8F8002000920D
:10654C00209A01F05BFD0028DCD013B0BDE8F08F81
:10655C00DDF840C0DDE90E2E0A9B0EF1010E1A4447
:10656C00119B734502D0DCF80850BBE7002013B038
:10657C00BDE8F08F4FF0FF30E7E700BF10B58C4659
:10658C0009698AB0002932D1DCF81440002C2ED1D4
:10659C00DCF8081001292AD1DCF80C10012926D1CD
:1065AC00D968099104911199C9680391D3E9010142
:1065BC0000FB01F11B6803FB01F1D2E900230291FE
:1065CC0001930092DCF82400129B0890DCF8200068
:1065DC00109A0790DCF804000E990690DCF8000085
:1065EC0005900C9801F00AFD20460AB010BD4FF042
:1065FC00FF30FAE7002070472DE9F04FADB0DDF821
:10660C00DC809946D8F80840D8F80450DB6805FBC4
:10661C0004FC03FB0CFCBCF5007F0B940E9582462E
:10662C00DDE93B750C46164680F216820268149220
:10663C00002A00F0FF81D9F80820D9F80000069252
:10664C00BA6800280F927A68D9F804A01992FA68EF
:10665C00179222691E9262691F92A2681092E268D8
:10666C002092B4F920201A92B4F924201B9232689B
:10667C001C9272681D924DDD069C1F9A1E9902FB9E
:10668C0004F25242521A03FB02F20E9E5200259261
:10669C0006FB03F2DDF82CC04FEA43090CFB02F7B2
:1066AC0013FB06F212FB0CF202F00302229204FB23
:1066BC000AF203FB02F25200199E16920F9A1897D7
:1066CC0006FB02F2179E06FB02F24FEA420E209ADC
:1066DC0002FB04F203FB02F252002492109A02FB1A
:1066EC0003F25200129204FB03F2002453000993AC
:1066FC00149B03EB870311934B4223937300219359
:10670C00369B199A002A09DC169A0134A0421344CC
:10671C007544F6D100202DB0BDE8F08F0146D3466C
:10672C001846F24636930F9B002B40F309814FF02D
:10673C00000C1F9B0E9E149FF61A08960B9B1E9E18
:10674C00CDF898A09E1BBA466346B446259A15957B
:10675C0082182791289436903C95D04665460024A3
:10676C00924623990E9807910899CDE92A2C091A7B
:10677C00139129930E9B002B16DD079B05F1FF3E11
:10678C00AEEB030EAB42A8BF4FF0000E564609FB12
:10679C000EFE139F0B9B002B00F3DA80099B013735
:1067AC001E44089B9F42F5DB119B434500F0FF8084
:1067BC00079B109A013413440793129B15449A4477
:1067CC000F9BA342D6D1DDE92932249920980A44A3
:1067DC0008990133014408911999C2469942DDF890
:1067EC00ACC0BAD1DDE926A1149B289C98453698FB
:1067FC003C9D00F0A580179B002B40F3A180CDF8A9
:10680C0034A0CA46189BDDF8E8E0C3F38F077B1E63
:10681C009BB25A1C92000A92149ADDF8E0C008321E
:10682C0002EBC3030C931C9B219A043B08931D9B06
:10683C001391043B0793159B269003EB0208002F42
:10684C0000F0F5800A9BE1469C440023CDE927AE7D
:10685C00149E59F8042B2FFA92F1D6F800A0706808
:10686C002FFA82F2E145C2EA014E2EFB0A33C1EA4D
:10687C00224106F1080621FB0033EAD1DDE927AEFF
:10688C00CC460C99229848B16246844412F9010B0B
:10689C0031F8026B944516FB0033F7D1089A52F885
:1068AC00041F0892079A52F8049F07923A9A002AFA
:1068BC0000F09E806A4A914200F3968001F50041F7
:1068CC000E14C917DEF800209A1802FB01F0DEF84E
:1068DC00041041EBE37106FB0101A2FB06628B186D
:1068EC00C9F10E0209F11209D64003FA09F9203A4E
:1068FC0046EA09065CBF43FA02F21643731C5B10AE
:10690C001A9A0EF1080E9342B8BF13461B9A934283
:10691C00A8BF1346159A22F8023B904515928ED1CA
:10692C001399D1462698DDF834A0169B01348C427D
:10693C00184455443FF4EEAE0F9B002B3FF7F7AED7
:10694C00169B0134A142184455447FF4ECAEE1E6A9
:10695C00CDE90C4AB2463E464F46CDF828E0D1462A
:10696C004346079CB34505DD54EA060202D4069A59
:10697C00A24232DC18463A46002106F0C4FE034619
:10698C000134AC423B44B944ECDB0A9B08EB0700F6
:10699C0000EB0308099B01369A44089B9E42DEDB00
:1069AC00DDE90C4A119BB94643457FF401AF159BB9
:1069BC00DDF8508005933A9B41460493189B179A37
:1069CC0003931B9B389802931A9B01931C9B009377
:1069DC001D9B00F0F5FF1590EAE618463A4649462D
:1069EC0006F03BFF0346CBE747F6FF76002169E74D
:1069FC004FF0804629EAE97293403A9AC9F10009AE
:106A0C00C3FB0162F30F43EA4203012229EAE9794D
:106A1C0002FA09F2013A03EA020153FA09F34FEAC6
:106A2C00620248BF01329142C8BF013368E73B465E
:106A3C00149927E74146484600F016FC00280BDC69
:106A4C00D8F80820DAF800300B92D8F80420149308
:106A5C000E92D9F80C30EEE54FF0FF305BE600BF3C
:106A6C00FFFFFE7FC068D1E9013202FB00F003FB9F
:106A7C0000F08000704700BF2DE9F04FBBB0499C7F
:106A8C00DDE944A5A768D5F80880D5F80490E66838
:106A9C0065681C460B460B95256861689646D4F8CC
:106AAC000CB0A268D3F81CC09C69002D4698CDF898
:106ABC004880CDF85C901397119216910C94CDF8F8
:106ACC0034C040F37481144601FB02F239460BFBCF
:106ADC0002F24FEA420C0B9A002E02FB07F206FB65
:106AEC0002F24FEA420708FB09F20BFB02F2249276
:106AFC0006FB01F24FEA420223920BFB04F20D99C2
:106B0C000C9C01FB02F208FB0BF107920BFB04F24D
:106B1C0008914FEA4601229100924FEA420140F35C
:106B2C004681DEE9002ED3F81080CDF874E0CDF864
:106B3C006080D3F80880A2F1040ECDF86480D3F8FD
:106B4C000C802A46CDF86880D3F820800024CDF83C
:106B5C006C803546D0468A46D3F814905B6A01386F
:106B6C001C930290C9F100034846DDF8009029936C
:106B7C004FEA4B030021CDE92BC7CDE92D24CDE9FC
:106B8C002FE303EB08060F91CDF854E00996159A04
:106B9C0052F8043F15929B4A9342CEBF47F6FF73BF
:106BAC0003F500431B140A930B9B002B40F3E98065
:106BBC000D9B189A013B1C1853421F934A9B03EBE5
:106BCC00410E489B03EBC1032593139B002B40F311
:106BDC00D880299B0A9E0E93002326961093F617B5
:106BEC001D9B2A960C9E53F8213032442792C3F1F8
:106BFC000E02123328934B46D1469A461E9231957B
:106C0C00169B0D9A234493FBF2F31F9E94FBF2F513
:106C1C000096179E25EAE575B342A8BF3346069346
:106C2C000E9B002705FB0233119A2E4602FB03F341
:106C3C002093129BF44603FB05F32193009B1497BE
:106C4C001D46279FCDE93201CDE934E4013F119B6C
:106C5C000C9903EB070E9EFBF1FE97FBF1F3129AD6
:106C6C009645A8BF964623EAE372069B00929E4285
:106C7C0080F2C380209B3446EB1802FB0133219930
:106C8C0000200A440F990BFB03F30BFB02120021AB
:106C9C00CDE93665CDE9387C009D75450FDA944613
:106CAC001F46099E009D06EB4306BBF1000F00F347
:106CBC0082800135AE455744DC444E44F5D1079DE6
:106CCC0001342B44089D2A44069DA542E4D1DDE9FC
:106CDC003665DDE9387CCDE90001489B4BB1259A3E
:106CEC00009913685268CB18019942EB0102CDE967
:106CFC000032DDE900012A9B0A9A00FB03F301999B
:106D0C001E9802FB0131269B009AA2FB03230B4425
:106D1C002899C24003FA01F10A43B0F120015CBF8B
:106D2C0043FA01F10A43531C1B9A5B109342B8BF00
:106D3C0013461999149A0D447F1A1C9901328B42EF
:106D4C00A8BF0B46ACF80030229B14929C44139BBA
:106D5C0093427FF47CAFDDE934E4DDE932011A9A29
:106D6C000E9D109B1544A41A0B9A01330E95239D6E
:106D7C0093421093AE447FF443AF5346CA469946B0
:106D8C00319D0F9B249A013113448D420F937FF454
:106D9C00FEAEDDE92D24DDE92BC7DDE92FE34A99B1
:106DAC0001343944A242E0444A917FF4E3AE00201E
:106DBC003BB0BDE8F08FCDE903340592CDF81081DE
:106DCC00029AE0466244AC46449B03EB470333F91A
:106DDC00025B12F9014FB342C5FB8401F7D1654642
:106DEC00C4460135AE455744DC444E44E8D1DDE998
:106DFC000334059ADDF8108161E700230024CDE906
:106E0C0000346AE7FFFFFE7F002070472DE9F04F4A
:106E1C00B9B0439C00689E46D4E901460D46DDF8A6
:106E2C001CC1DB681D90002800F014822969DCF875
:106E3C000C702E916969DEF800B02F91D5E902A192
:106E4C0030912968CDF87CB00A916968A0B2219183
:106E5C00296ADEE901E92291696ADCE901C823911A
:106E6C001168526824912592B2B20992BAB22B924F
:106E7C005A46002A99B246DDB2B212FB00F21FFA52
:106E8C0086FBA6B212FB01F299B20BFB06F31FFABA
:106E9C008CF01FFA8EFC1FFA89F401FB03F90CFB32
:106EAC0001F304FB03F31FFA88FE20930EFB00F39F
:106EBC00BFB207FB03F31FFA8AF826934FEA410A85
:106ECC000BF1FF330AFB03F3139308FB01F31C9341
:106EDC001D9B109603EB89031A9393B22A9302F02D
:106EEC00030300261491CDF824C0CDF858E00B9480
:106EFC003397CDF86C80CDF8C490329338B91F9B82
:106F0C000136B342FBD1002039B0BDE8F08FD84632
:106F1C00D346BDF928308446159304FB01F34298FF
:106F2C0048993793D5E906321FFA83FA379B92B208
:106F3C0002FB03F31193149B00240AFB03F30A9343
:106F4C00169B12922BB901346445FCDB8E461D9ABC
:106F5C0052E0BDF8B8302D953493BDF8C0300D46D5
:106F6C003693BDF8BC3086463593234644461D9A6D
:106F7C002C9648913699359803FB01F1A1EB000949
:106F8C000B99349809FB01F1149E091A06FB01E7D1
:106F9C0000262793109B4142B846CDE928CE3746B0
:106FAC000C912E46002B00F02A811E964E46DDF8E1
:106FBC0030E0B146C4460020002C40F0C080109B4D
:106FCC0001309842FCD11A9B934200F0EF801C9B3D
:106FDC00013798441B9B9E44169B9F42E9D1DDE9E7
:106FEC0028CE279B1E9D01336345C3DBA04670460C
:106FFC002C9EAE4648992D9DDDF874A0924500F06C
:10700C009280339C002C00F08E80CDE911B6E346C3
:10701C00319BDDF81891C3F38F030F93013B9BB2A7
:10702C005A1C92000D920AF1080202EBC3030E9354
:10703C00249B449FA3F1040A259B043B0A930EEB6B
:10704C0004030C93469B002B00F0FD800F9AD9F89B
:10705C000030002A00F0FC800D9ACDE9179A1D9E95
:10706C00BC46CDF8648017445CF8042B2FFA92F4DC
:10707C00D6F800A0D6F804902FFA82F26745C2EA3F
:10708C00044828FB0A38C4EA224406F1080624FB0B
:10709C000983E9D1DDE9179ADDF864800E9C329EF4
:1070AC0056B13A46374412F9016B34F802CBBA4266
:1070BC001CFB0633F7D117460A9A4FF0804C52F856
:1070CC00044F5AF8046F0A9224EAE47293400022A7
:1070DC00C3FB06C24FEADC7343EA4203012264425B
:1070EC0024EAE474A240013A03EA020623414FEA7F
:1070FC00620248BF01329642219AC8BF0133134441
:10710C00229A09F104099342B8BF1346239A934279
:10711C00A8BF13460EF8013B0C9B734592D1DC467D
:10712C00129EDDF844B0209B01361844269B19446E
:10713C001F9BB3423FF4E7AED5E90632F4E6CDE946
:10714C001787CDF83CE01996E04616460025CDE9A8
:10715C000CC00F9F0E92099B4B4504D9002F02DBEC
:10716C000B9BBB4260DC5A460021304606F0CBFA42
:10717C000A9B0135AC425E4498445744EBD1DDE99F
:10718C000CC00E9A139B5A441A44119B01309C4418
:10719C00129B9944109B9842D6D1DDE917871A9B14
:1071AC00DDF83CE09342199E7FF411AFB1461E9E70
:1071BC00CDF830E0469B2B9A05932A9B06960493B8
:1071CC00219B1D990193249B44980093BDF98C300D
:1071DC0001370393BDF988300293259B00F052F9D7
:1071EC001C9B1B9A98440C9B064613440C93169BB1
:1071FC009F4222D0109B1D9A002B7FF4D6AE0C9B85
:10720C001A99914217D01C99013788441B990B4449
:10721C0016998F42F4D1DDE928CE3546279B0133F0
:10722C009C453FF7A7AEE1E63146DDE91423404625
:10723C0001F0EEFC9CE70C93BCE70546DDE928CE9B
:10724C00279B1D9AEBE70F9A469B002A7FF404AF0D
:10725C001D9C24E706FB03F104FB01F100297FF7D9
:10726C00E5AD4FF0FF304FE6C068D1E9013202FBCB
:10727C0000F003FB00F08000704700BF2DE9F04FD9
:10728C0085B0DDE90E54D4E9017607FB06FADDE999
:10729C00106B0195DDE913750295DD68804605FBE1
:1072AC000AFABAF5007F9E468C46DDF848900392A8
:1072BC0005DA8D69012D02D1CD69012D11D0029B0A
:1072CC006146CDE9137340467346CDE90F46039AE8
:1072DC00019CCDE911B90E9405B0BDE8F04FFFF754
:1072EC00CBBBCDE90F46029D019CCDE91375CDE9D1
:1072FC0011B90E9405B0BDE8F04FFFF77DB900BF92
:10730C008C46D2E9011301FB03F3DCF80C1001FBF2
:10731C0003F3B3F5007F02DA8369012B03D0114626
:10732C006046FFF771BDC369012BF8D11146604669
:10733C00FFF798BB2DE9F04F83B00C9C8046DDE93C
:10734C000D7BDDE90FA9DDE9116500940C698C4614
:10735C009E4601920CB94C69F4B1DEF80430012B55
:10736C0009D1B3689B0706D1DCF81830012B02D188
:10737C007B68012B33D0734661464046009C019AD2
:10738C00CDE91165CDE90FA9CDE90D7B0C9403B0C6
:10739C00BDE8F04FFFF73ABDBC68012CDDD17C682D
:1073AC00012CDAD18C69012CD7D1CC69012CD4D128
:1073BC008C68012C02D1CC68012C21D0734661461B
:1073CC004046009C019ACDE91165CDE90FA9CDE9A4
:1073DC000D7B0C9403B0BDE8F04FFFF753B8734628
:1073EC0061464046009C019ACDE91165CDE90FA993
:1073FC00CDE90D7B0C9403B0BDE8F04FFFF71EB840
:10740C00009CCDE91165CDE90FA9CDE90D7B0C945C
:10741C0003B0BDE8F04FFFF7B1B800BF8446084693
:10742C001146DCF8102012B9DCF8142072B1426855
:10743C00012A09D19B689B0706D1DCF81830012B77
:10744C0002D14B68012B19D0FFF70EBF8A68012AB5
:10745C00EDD14A68012AEAD1DCF81820012AE6D1DC
:10746C00DCF81C20012AE2D1DCF80830012B03D116
:10747C00DCF80C30012B03D000207047FFF700B86C
:10748C00FFF7B8B82DE9F04F93469BB0BDF9984083
:10749C002A9E0394BDF99C401A460494BDF8A04062
:1074AC005FEA5B0307940C910C46DDF890A006EBA9
:1074BC000B0100F076810AF10807A24606F10209D9
:1074CC0001F1020C02F10806CDE915BCCDF818C08B
:1074DC00BE46B446013B9DB2079A0B1D03EB450318
:1074EC000E9393080F93013B9BB204EB42045A1C7E
:1074FC000D94940008940D9C0AF1080202EBC30A47
:10750C00079A04EBC3030833129302F0030310939E
:10751C006B00CDE91335CDE91769CDF81490CDF892
:10752C0044A01997079BC118299B002B00F00082DF
:10753C00D3E9004B083329930F9B002B00F0FF81FC
:10754C00DDE90C56DA4623460746089ACDE909CE02
:10755C008218019102920B912868D6F8008057F896
:10756C0004CB2FFA9CF2DDF804E02FFA8CFC5EF8C9
:10757C00041BC2EA2C49CDF804E0CCEA024C2FFAE9
:10758C0091F2D5F804E02CFB00442CFB0833D6F820
:10759C0004C02FFA81F129FB0E4429FB0C33C1EAFC
:1075AC00024929FB00B029FB08A9C2EA214222FBAF
:1075BC000E0B22FB0C9A029A0835974206F108062C
:1075CC00CAD1DDE909CEDDE9118938460B99089A53
:1075DC001144109DA5B10246471912F9016B38F9F7
:1075EC00025B11F9010B05FB064405FB00BB39F9E5
:1075FC00025BBA4205FB063305FB00AAEDD110462F
:10760C005CF8085C002625EAE5718C404FF080415F
:10761C005EF8082C6D42C4FB0216012225EAE575C2
:10762C00AA40C90F41EA4601013A01EA0204294184
:10763C004FEA620248BF01329442259AC8BF013119
:10764C001144039A00259142B8BF1146049A0EF1D9
:10765C00080E9142A8BF1146059A0CF1080C02F8CD
:10766C00021C5CF8101C5EF8102C21EAE17403FA81
:10767C0004F44FF08043C4FB02350122494221EA55
:10768C00E1718A40DB0F43EA4503013A03EA020445
:10769C000B414FEA620248BF01329442259AC8BF9F
:1076AC0001331344039A00259342B8BF1346049A3E
:1076BC009342A8BF1346069A02F8023C4FF0804250
:1076CC005CF80C1C5EF80C3C21EAE1740BFA04F437
