:020000042000DA
:1030000000700120BD310020C5310020D5310020E5
:1030100000000000000000000000000000000000B0
:103020000000000000000000000000001905010081
:1030300000000000000000009D050100A90501003E
:10304000E5310020E731002061350020EB31002020
:10305000ED310020EF310020F1310020F33100206C
:10306000F5310020F7310020F9310020FB3100203C
:10307000FD310020FF31002001320020033200200A
:103080000532002007320020093200200B320020D8
:103090000D3200200F32002011320020A535002013
:1030A0001532002017320020193200201B32002078
:1030B0001D3200201F32002021320020C5350020A3
:1030C0000348854600F006F800480047E14C002020
:1030D000007001201CB50948009009480190054680
:1030E0000126009C05E0E36807CC33430C3C98477D
:1030F0001034AC42F7D3FFF7E7FF00002431002083
:103100003431002002E008C8121F08C1002AFAD199
:1031100070477047002001E001C1121F002AFBD157
:1031200070470000988B0020988B0020BC75000031
:103130001431002070B51D4E3078002834D0EFF3E4
:103140001085EFF3108072B619480068002802D08D
:103150008047002813D03078811E032912D2012421
:103160002046214604F0B6FB1248016804220A43B7
:10317000026030BF0021204604F0ACFB0AE085F37A
:10318000108870BD012805D10A48016804229143C6
:10319000016030BF08480068002803D03178022958
:1031A00000D1804785F3108870BDC046E4CC002074
:1031B000B4F8002010ED00E0B0F800201948804776
:1031C000194800477046EFF30881EFF30982174B67
:1031D0009847FEE77046EFF30881EFF30982144B3E
:1031E0009847FEE7FEE7FEE7FEE7FEE7FEE7FEE7BD
:1031F000FEE7FEE7FEE7FEE7FEE7FEE7FEE7FEE7A7
:10320000FEE7FEE7FEE7FEE7FEE7FEE7FEE7FEE796
:10321000FEE7FEE7FEE7FEE7FEE7FEE7FEE7FEE786
:10322000FEE7FEE7C9360020C130002069350020E6
:1032300069330020F0B51FB40646002082B0054671
:103240004024019100901BE0019922460F46304630
:1032500000F079F8049A059B801A994110D3104622
:103260001946224600F05FF8361A8F410197224630
:1032700001200021009F00F056F838184D410090C1
:103280002046641E0028DFDC019B00982946324658
:1032900007B0F0BD30B5434351435C18010C130C2B
:1032A0000D465D432C1980B292B2054655435143F9
:1032B0000A0C09044D1962415843010C00044019DD
:1032C000514130BD03460B439B0703D009E008C9B9
:1032D000121F08C0042AFAD203E00B780370401CC6
:1032E000491C521EF9D2704770B50446002903D01C
:1032F00000202022012310E0002801D00020C0433C
:10330000C046C0460DE02546D5408D4205D30D464A
:103310009540641B1D46954040191546521E002DD0
:10332000F1DC214670BD10B5202A04DB0146203AAD
:103330009140002010BD914020239C1A0346E34099
:103340001943904010BD10B5202A04DB0846203AEE
:10335000D040002110BD0B46D340D0402024A21AFB
:1033600091400843194610BD82B001920F460646AF
:1033700000F038FAEFF30881414804F0A9FF08246F
:10338000344001D0404800E03E4805F0EBF9042508
:10339000354001D03EA000E03C4805F0E3F940A0F4
:1033A00005F0E0F9002D009700D0019F396840A09A
:1033B00004F08EFF796842A004F08AFFB96844A047
:1033C00004F086FFF96846A004F082FF396948A03E
:1033D00004F07EFF79694AA004F07AFFB9694CA035
:1033E00004F076FFF9694EA004F072FF00F0CEF908
:1033F00002F0E4F8EFF308810120C00304F070FA52
:103400004B48314604F06CFA4A48009904F068FAD7
:103410004948019904F064FA484E002C01D0F01C90
:1034200000E0301D80B204F061FA002D01D0701D63
:1034300000E0B01D80B204F059FA3968404804F049
:103440004FFA79683F4804F04BFAB9683E4804F0F7
:1034500047FAF9683D4804F043FA39693C4804F0FA
:103460003FFA79693B4804F03BFAB9693A4804F0FD
:1034700037FAF969394804F033FA02F09FF8FEE7A9
:1034800066880020AD8800208E8800209F8800205C
:103490005573696E67207533325073702E000000CB
:1034A000537461636B206672616D653A00000000C1
:1034B000523020203A203078253038580A00000059
:1034C000523120203A203078253038580A00000048
:1034D000523220203A203078253038580A00000037
:1034E000523320203A203078253038580A00000026
:1034F000523132203A203078253038580A00000006
:103500004C5220203A203078253038580A000000EC
:10351000504320203A203078253038580A000000E7
:10352000785053523A203078253038580A0000003D
:103530000180000002800000038000000180FFFF86
:1035400008800000098000000A8000000B80000055
:103550000C8000000D8000000E8000000F80000035
:1035600080B504F0C9F980BD14460D46064600F04A
:1035700039F904A031462A46234604F0A9FE00F09A
:1035800005F9FEE74E4D495F48616E646C65723A1D
:1035900020253038582C20253038582C202530381C
:1035A000580A000010B582B001AC204604F0AAF918
:1035B000019804F0ADF96078000601D501F06AF9D0
:1035C00002B010BDF0B585B0002503953B4C04AEAC
:1035D0002046314604F0A2F930880821014001203C
:1035E0000190C607002907D0204604F09DF9642009
:1035F00004F0A0F932480660032103AA204604F033
:103600009FF93048046803E004F0C8F82C480660CD
:10361000002C25D02046A46A017D0029F4D1417DEB
:103620000129F1D0817D0229F2D102A90746234860
:1036300004F08CF93846BA68FB6802999A4204D2C1
:103640009142E5D3994204D3E2E7994201D39142F2
:10365000DED3C1690029D7D0006A88473846D3E74E
:10366000009618480668002E18D00021029A0D46D0
:10367000124804E01D461148B66A002E10D0B37DF2
:10368000022BF9D1B368CC0705D0AC1A9F1AA74218
:10369000F0D32B46EEE71D460199EDE72946074892
:1036A000C90709D003998D4206D003212A4604F0A8
:1036B00053F900980249086005B0F0BD003005607C
:1036C00000E200E090CD002001480249016070470F
:1036D00008ED00E00030002070B55D4D29685B4EBC
:1036E00030680024224604F03DF9306829682246FB
:1036F00004F03EF954480168C348814201D02D20AE
:1037000000E02C2003225207914200D12B2004F02C
:1037100035F970BD70B5032465071024AA4205D0A1
:10372000104DAA4202D0B84DAA4219D180250543B6
:103730000D4EB54214D1049C274D2C60002C04D0B2
:10374000274C00252580254C2580404C20603E4894
:1037500002603F4801604048036000F043F80446BF
:10376000204670BD0008006080B004601C480088DE
:1037700080B21A49098889B2081A41424141164863
:1037800002685042504108437047C046F0B581B0CE
:10379000114C2068002805D0104D2888104E318823
:1037A000884201D101B0F0BD274F04E0288081B2EA
:1037B00032889142F6D080B221680968095C386885
:1037C00004F0E2F8206881882888401C82B28A428E
:1037D000ECD30020EAE7C046F4CC00209CCD0020CA
:1037E0009ACD0020F0B583B0174D28680321490712
:1037F000884205D08449884205D108242C2004E061
:1038000004242B2001E00C242D2004F0C3F80F4EDB
:1038100030680F4F3968224604F0C2F8002801D002
:1038200003B0F0BD39683068022204F0A1F8002826
:10383000F6D108480290084800680190286801A95C
:1038400004F0B4F803B0F0BDFCCC0020F8CC0020AC
:10385000A4CD002021300101A8CD0020F0B58DB00D
:10386000282004F097F80A2004F094F80B2004F0C4
:1038700091F80C2004F08EF80D2004F08BF80E2047
:1038800004F088F80F2004F085F8102004F082F886
:10389000352004F07FF8112004F07CF8122003900A
:1038A00004F078F8002420462146224604F084F8EB
:1038B00004F088F804F08CF800F05AF901200103B4
:1038C000074602904D4881804D4A026000904D4D60
:1038D00028468030E122D6024B4A3346FFF71AFFD2
:1038E0004AA057A159A204F0F3FC032040077A072D
:1038F0002946334601F088FF574803F0F7FF574841
:10390000574F394604F06AF85648574E314603F08F
:10391000E7FF56483422039904F066F85448554DA1
:1039200039462A4604F066F85348544A314604F0B2
:1039300067F85348534A314604F068F85248562213
:103940007823394604F068F85048514B39462A46E6
:1039500004F068F84F48AB22CD23314604F068F8F4
:103960004D484E4A4E4B314604F068F804A9902069
:1039700008714C4804904C48052204F065F801F0A9
:1039800005F900F035FF00F0E3FD01F011F847A064
:103990000399224600F0F6FD00F0FAFA01F0BCF8B7
:1039A00001F02AF91721204604F054F80298C005C6
:1039B00043490860FF210906424A13688B4313609C
:1039C0004149086002204149414A01F06FF9C8208D
:1039D00004F046F83FA004AA114668C868C168C848
:1039E00068C168C868C14448214604F03FF804F043
:1039F00043F804F047F80DB0F0BDC04608CD0020F4
:103A000018D7002000B00460000400605B2573201C
:103A1000542025735D626C652070657269706865FD
:103A200072616C2070726F6A6563742863702920FC
:103A3000737461727420746F20776F726B2E0A003A
:103A400053657020313220323032360031343A3111
:103A5000363A333700000000C0800000C18000000B
:103A600034120000C280000078563412C380000077
:103A7000C480000078560000C5800000214300008B
:103A8000C680000021436587C7800000C880000011
:103A9000CDAB0000C9800000CA800000BBAA0000B6
:103AA000DDCC000012345678CB8000005375706571
:103AB000725F536D6172745F5261636B6574000075
:103AC00080E200E014E400E000E100E0854C00202A
:103AD000754C00206C8B0020000000006CF800206A
:103AE00044000000B0D100200004000018000000D5
:103AF0000100000000000000954A0020B0B5034618
:103B00001020002B22D0012920D8EFF31084EFF3EE
:103B1000108572B69D7D002D02D084F31088B0BD53
:103B200000209862DA611976012199752D490A6899
:103B3000002A02D10B600021D9622B490A68002AB1
:103B400001D09362DA620B6084F31088B0BDC04686
:103B500001461020002909D08A7D002A06D00122C2
:103B60004A750020C875D107374A11607047C046B2
:103B7000F0B581B0052003F00DFF2A4D0024284642
:103B8000214603F085FF0127F80713490860FF2647
:103B90003106124A13688B430321890759181160B3
:103BA0000F4908601F21204603F054FF7902284680
:103BB00003F074FF0821284603F076FF28463146BB
:103BC00003F078FF284603F07BFF064804600648B0
:103BD0000460204601B0F0BD80E200E01CE400E09B
:103BE00000E100E090CD002094CD002010B510231E
:103BF000002815D0847D002C12D04262416001461D
:103C00001031084A0446104603F0A0FE0220E07579
:103C1000FF200230A0820120C0070B49086000236A
:103C2000184610BD0030056001461020002909D05B
:103C30008A7D002A06D001204875C875C007024950
:103C4000086000207047C04600E200E084B0104CDD
:103C5000104D04E0621C81B2104603F0BFFE2868DC
:103C60000022D34301A903F031FF0028F2D101A8BB
:103C700003F032FF02990029F1D00398002802D006
:103C800003F030FFEBE7204603F030FEE7E7C046E5
:103C900002600000148C002080B50A460021FFF766
:103CA0002DFF4142484180BD80B5FFF751FF4142A1
:103CB000484180BD80B5FFF799FF4142484180BD32
:103CC00080B5FFF7B1FF4142484180BDF0B593B0E8
:103CD0007E48012103F00CFF0026002800D1D9E026
:103CE0007B4803F00BFF002800D1D3E0794803F0B4
:103CF0000BFF002800D1CDE077480124214603F0D6
:103D000009FF002800D1C5E0042000907348744AE0
:103D100010210B4603F004FF002800D1BAE07148DF
:103D2000062103F003FF002800D1B3E06E48022112
:103D300003F002FF002800D1ACE0250200206B490F
:103D40006B4A131859601D8149191C307028F8D12D
:103D500000206849684A1318596028261E812831B6
:103D60001C307028F7D165480D9064A041688268C6
:103D7000C06810900F920E910DA803F0E3FE00288A
:103D800000D186E001940020604A614B1918CA6096
:103D90000D8241218900521830303028F6D0039529
:103DA000BF20C5435B4F28465B4A1418CC22A7505E
:103DB000D023E6522C373030F6D102920024574FF0
:103DC00057480019C7600A46039901821146BF1877
:103DD0003034302CF4D05349534C029A601981503E
:103DE000C6522C313035F9D150A104A8024678C909
:103DF00078C278C978C203F0ABFE0028039C48D093
:103E000000205249524A13189C81996009192030A8
:103E10002028F8D04E480222214603F09FFE0028B9
:103E200037D000204B494C4A115013189C80091977
:103E300010301028F8D048480222214603F094FEA2
:103E40000026002826D045480DAA114638C838C19A
:103E500038C838C14020082103F08CFE4049086072
:103E600000281AD03F4804AA114638C838C138C8BB
:103E700038C138C838C13C480026314603F0F6FD49
:103E800007463A480760002F0BD0394803F078FE08
:103E90000AE00026304613B0F0BD384804F062FC5A
:103EA000F8E7344804F05EFC019C002FF2D003F0E8
:103EB0006DFE0398F43003F06FFE7D2040012E4923
:103EC00003F070FE03F074FE2646E3E7509F0020E7
:103ED00020A20020E8A00020C09A002098A4002082
:103EE000A8A40020A8A6002038A40020D8AA00205A
:103EF00008A30020E8B60020B8A4002008A30020F2
:103F000000010400B8A4002028000400E0B0002054
:103F1000D8A3002038B80020E8A50020D8AE0020A3
:103F200078A3002088B7002028A50020D8A300206F
:103F300000010200E8A500202800040078A300206A
:103F40000001020028A5002028000400D8A60020B7
:103F50007C9A0020D8A80020309F0020B88700203D
:103F60007CB9002094870020294C002044B900200F
:103F700085760020F9880020AC0D0000E288002042
:103F80005A480088081A41424141C8007047C0465B
:103F9000F0B583B03B4900253B4B28462A4601F04B
:103FA00045FF002867D00095019581204300374CDC
:103FB000284621462A4601F0CDFE00285BD04B4919
:103FC00008800D20019032480090611C00200223DF
:103FD000024601F0BFFE00284DD00E2601962D4866
:103FE0000090A11C0025022328462A4601F0B2FEBB
:103FF000002840D01227019727480090E11C029624
:10400000022628462A46334601F0A4FE019723489B
:104010000090211D28462A46334601F09BFE019759
:104020001F480090611D28462A46334601F092FE43
:1040300001971C480090A11D28462A46334601F0EE
:1040400089FE0298019018480090E11D28462A46F2
:10405000334601F07FFE07200190144800902D3474
:10406000284621462A46334601F074FE01F0A4FE9C
:1040700003F0A4FD03E00E4804F074FB012528467C
:1040800003B0F0BD0A180000D0870020232A0000EA
:104090003488002044880020F88700200C88002005
:1040A0005488002020880020E8870020848B00208E
:1040B000C388002010B50D480088814214D1082023
:1040C000002B10D00A490A68496819711A700C0E41
:1040D000DC710C0C9C71090A5971110ED970110C0C
:1040E0009970110A597010BD002010BDA0CD00209C
:1040F000D8F7002070B5401E622800D9A6E14D1CFB
:104100004000C04678448088400087446200DA005E
:104110009D0022014801B800EE0003017001570123
:104120009F019F019F019F019F019F019F019F018F
:104130009F019F019F019F019F019F019F019F017F
:104140009F019F019F019F019F018200C8008B007A
:1041500079009F011301190188019F019F019F01AF
:104160009F019F019F019F019F019F019F019F014F
:104170009F019F019F019F019F019F019F019F013F
:104180009F019F019F019F019F017F019F019F014F
:1041900073009A009501760088007F00D7007C00AC
:1041A0009B019F0198019F019F019F019F019F011A
:1041B0009F019F019F019F019F019F0185009F011A
:1041C0009F019F019F019F019F019F019F01B500DA
:1041D0001F018878CA7812021218DB480C46114673
:1041E00003F0FCFBA078E17809020918D74804F035
:1041F0006FF870BD09789F4826E109789A4823E155
:104200000988A34820E1097893481DE1097894487A
:104210001AE10988A14817E10978974814E109785B
:10422000904811E1881C00220C46114603F0CCFC9A
:1042300001462078627812021218964803F0E0FBDB
:1042400070BD09788A48FFE008794A79120214188B
:10425000CB782A78B4480E46214603F0DDFB30794E
:1042600071790902091828786A7812021218F3780D
:10427000AE4804F02DF870BD09788048E4E0287855
:10428000697809020918A878EA7812021218A87940
:10429000EB791B021B18944803F0C4FB70BD881C0B
:1042A00000220C46114603F08FFC0146207862780C
:1042B00012021218784803F0A3FB70BD0978674812
:1042C000C2E0CA782B789E480C46194603F08CFB56
:1042D0002878697809020918E2789A4803F0F8FF0B
:1042E0000020012103F076FC70BD8878CA781202A4
:1042F00014184B790A797A480D46214603F08CFB55
:10430000A878E978090209186B792A79754803F0C9
:10431000DFFF70BDCA782B7887480C46194603F03A
:1043200063FB2878697809020918E278834803F06A
:10433000CFFF70BD0878497809020918534883E017
:104340008A780978504803F04FFB70BD09785448CB
:104350007AE008794A791202121866480C4611462A
:1043600003F03CFB211D6448082203F06DFB20791B
:10437000617909020818A1790904E2791206511835
:104380000A18207A617A09020818A17A0904E37AE6
:104390001B0659180B1859A003F09AFF70BD0B8922
:1043A000CA888C8851480D46214603F03BFB2B8977
:1043B000EA88A9884E4803F08BFF70BD08784A78D8
:1043C000120213188878CA781202121835480C465F
:1043D000194603F00FFB2078617809020918A078CC
:1043E000E2781202121830A003F072FF70BD287834
:1043F0006978090209184E4803F0F0FA28786978BC
:10440000090209184B4803F063FF70BD0B78C878A8
:104410004042C2B21A48194603F0E6FA70BD087865
:104420004A7812021318887AC97A09020A181548BC
:10443000194603F0DFFA70BD09780C4804E00978EA
:10444000034801E00978034803F0C8FA70BDC0468C
:104450002BA000002AA0000029A0000028A0000036
:1044600027A0000026A0000025A0000024A0000036
:1044700023A0000022A000002CA0000033A0000018
:1044800021A0000016A0000015A0000014A000004C
:1044900013A0000012A0000011A0000010A0000056
:1044A00034A000000FA000005B4D53475F424C4515
:1044B0005F4D54555F45584348414E4745445F4919
:1044C0004E445D2048616E646C65203D2030782547
:1044D000582C206D7475203D2025640A00000000D2
:1044E0000EA00000798900200DA000000CA00000A3
:1044F000CC8A00200AA000000BA000005B4D5347AF
:104500005F424C455F4C4C5F464541545255455FB8
:10451000494E445D2048616E646C65203D203078D2
:10452000254C580A0000000009A00000418A002024
:1045300008A00000128A002007A00000C8890020FF
:1045400005A00000938A002003A000003B8B002000
:1045500080B5024803F044FB80BDC046F540002012
:104560002F480088411A4842484170472C4800882B
:10457000884205D10120002B01D00021197070471D
:1045800000207047F0B583B014460D460146202D3B
:1045900000D320251F4F38462A46FEF793FE200AF7
:1045A0001D4E707034700320C10200201B4B024668
:1045B00001F03CFC0124002828D00097019515202B
:1045C000450200200227294602463B4601F0C2FB75
:1045D00000281BD000960197691C00263046324601
:1045E0003B4601F0B7FB002810D000960196A63597
:1045F0008120430030462946324601F0ABFB0028BB
:1046000004D00749088001F0D7FB3446204603B0A8
:10461000F0BDC046C4CC0020C0CC0020DC87002008
:1046200098CD002000207047F0B597B00124A1027A
:104630004548464A10252B4601F056FC44A00BA9DC
:104640004CC84CC14CC84CC147A002AA1146C8C8AE
:10465000C8C1C8C8C8C12421284603F0C7FA4849C0
:104660000860002812D047A011AA114668C868C186
:1046700068C868C10820802103F0B8FA474908607B
:10468000002807D103204003401C01E00320400321
:1046900003F02CF940200C210BAA03F06BFA4049DF
:1046A000086000281CD03FA002AA114668C868C153
:1046B00068C868C168C868C14348002103F0D6F9DA
:1046C00042490860411E05468D41002833D08020B4
:1046D00003F092FA3E4803F095FA002D03D127E04B
:1046E0000025002D24D02602009610212822082320
:1046F000204603F08DFA68363648314603F08EFACC
:1047000033208101344803F08FFA344802213022EB
:1047100003F090FA03F094FA314803F097FA314825
:1047200003F09AFA304803F09DFA304803F0A0FAFB
:10473000284617B0F0BD03204003093003F0D6F837
:10474000002DD0D1F4E7C04618E7002010CD00209E
:104750002489002000000000E08B002034000000CD
:10476000188C0020000600005E8900200000000078
:10477000E0F700202400000080CA00204002000072
:10478000F0CC0020378900200000000004F8002051
:104790002400000080C6002000040000ECCC0020B3
:1047A000148C00205189002001000000988B00200B
:1047B00044000000189200200008000020000000C3
:1047C00000000000000000004D3C0020DC8B0020B9
:1047D000AD750020B0D5002018EB0020189A0020FD
:1047E000993C0020B53C0020C13C0020A93C0020A1
:1047F00010B502F087FD00240221204603F02AF9BB
:10480000124804220260FF20000411490B68834310
:104810000B60104802600F200321072303F02EFADB
:1048200000F03CF8FFF752FA002807D0FFF7FCFE33
:10483000002805D001F03CFA204610BD06A000E09B
:104840000CA003F08FFF012010BDC04680E200E005
:1048500000E400E000E100E0626C655F636F6E748D
:10486000726F6C6C65725F696E6974206572726FCD
:10487000722E0000626C655F686F73745F696E69A9
:1048800074206572726F722E0000000080B503F014
:10489000FBF980BD80B503F0FDF980BD10B52B4854
:1048A00003F0FEF92A4803F001FA2A4803F004FA5B
:1048B000294803F007FA294803F00AFA284803F0C8
:1048C0000DFA284803F010FA274803F013FA274896
:1048D00003F016FA264803F019FA264803F01CFAEA
:1048E000254803F01FFA254803F022FA244803F074
:1048F00025FA244803F028FA234803F02BFA23482A
:1049000003F02EFA224803F031FA224803F034FA79
:10491000214803F037FA214803F03AFA204803F01F
:104920003DFA204803F040FA1F4803F043FA1F48BD
:1049300003F046FA0020C4432046214603F046FA1D
:104940002046214603F048FA10BDC046D3BC020001
:10495000B3BC0200BBBC0200CBBC0200C3BC020063
:10496000B9550100695601006127020001270200C4
:1049700015270200710B02005D240200312602009F
:104980009D2502008D260200F9250200C5260200A1
:104990007D270200752702007D0B0200D9E9030084
:1049A00001E803003DE70300C5EA03009DEA0300B8
:1049B000F0B58DB0022003F015FA092401AE0625EA
:1049C000204631462A4603F013FA317870780A46B9
:1049D0000243120605D10BA82649818026480B9078
:1049E00012E0C2B20BA8C27001AA53794371937846
:1049F00083700B090901C9180171D1783F2319404F
:104A000041701179194001700BA803F0F7F91B48A8
:104A100007A90A46C8C8C8C2038813808078907066
:104A20000026304603F0F0F906A98D708120400081
:104A30000880032530462A4603F0ECF901AF7C706C
:104A400013203870B81C0EA11222FEF73BFC142272
:104A50003046394603F0E4F9304603F0E7F9052122
:104A60001022284603F0E8F90121304603F0B2F89D
:104A70000DB0F0BD03BA000055404D0384870020FF
:104A800053757065725F536D6172745F5261636BD1
:104A900065740000F0B581B0F720400069460880D9
:104AA000114D124E124C06E001206946022200F020
:104AB00021F8B74215D12F68B742F5D10020291847
:104AC000097C2154401C1828F9D1BFF35F8F0120C5
:104AD0001822214600F00EF8C82002F0C1FFB742AC
:104AE000E9D001B0F0BDC046005C012044524853FB
:104AF000B800012010B504460120002C0AD013464E
:104B00000A46002906D0002B04D01E480188204602
:104B100003F098F910BDC04670B582B00124E102DF
:104B20001448154A102301F0DFF9144E0025144BE8
:104B3000284631462A4601F079F9002816D000951A
:104B4000019511200301701C81B228462A4601F00C
:104B500001F900280AD00B49088003F079F90A49C5
:104B60000880002802D001F027F92C46204602B028
:104B700070BDC046B8F80020D0000120F0FF000052
:104B80008C8B002052010120500101200348044970
:104B900001600448044901607047C046300B0020A2
:104BA000ED7600202C0B0020E958002010B582B0D3
:104BB0000E490A68002A0CD00D490B881468E0548D
:104BC00094885A1C93B2A34200D300220A8002B0F8
:104BD00010BD01A90870074A13680122044618464F
:104BE00003F03CF9204602B010BDC046F4CC0020D2
:104BF0009ACD0020FCCC002001480249016070479A
:104C0000280B0020094C002080B5FEF7BFFD7D2059
:104C1000800002F08FFE00F013FE962002F08AFE64
:104C2000FEF788FA80BD000082B00A4D0AA403E0B6
:104C30000146204603F04CFB28680022D343694616
:104C400002F044FF0028F3D10199009803F00CF919
:104C5000F2E7C0467CB900206C6C635F7461736BD3
:104C600020676574206D7367206661696C65643ABE
:104C700025750A0080B5FEF7B5FD00F0EDFD03F0E7
:104C8000F9F880BD10B50024FFF700FE00280AD017
:104C9000FEF76CFD002806D0FEF71EFD00F09AFD21
:104CA00003F0EEF80124204610BD000010B5094BBA
:104CB0001960094908700948026001200024214652
:104CC00002F008FE03210A220523204602F0D6FF47
:104CD00010BDC046B4F80020E4CC0020B0F800209D
:104CE0008AB009A001AC21462CC82CC12CC82CC10B
:104CF0002CC82CC103F0CAF80C480021224602F04F
:104D0000B5FE03F0C9F8FEE7638B00200100000048
:104D100028F8002044000000B0CD0020000400006E
:104D20001800000000000000000000005D380020B6
:104D3000F0B583B0EFF31083EFF3108172B6E14961
:104D40000D88E14AE14C2188A94202D3AD186D1AC1
:104D500001E0CE43AD19ADB2052D0FD92688B61DA1
:104D600026802688964203D92688D94FF6192680B0
:104D700083F31088062D05D203B0F0BD83F31088AD
:104D8000062DF9D301AB00245C711C71D870C624C8
:104D90005C70FE241C70000A9870501A401C84B28B
:104DA000062C0BD2CB4D681801AE31462246FEF7D9
:104DB00089FA31190620021B284603E0C54840182D
:104DC00001A90622FEF77EFA03B0F0BDF0B583B06C
:104DD000EFF31084EFF3108272B6BA4A1688BA4B1A
:104DE000BA4D2A88B24202D3F618B61A01E0D74368
:104DF000F619B6B2052E10D92F88BF1D2F802F8827
:104E00009F4204D92F88E84BFB182B80E44B84F396
:104E10001088062E05D203B0F0BD84F31088062E4C
:104E2000F9D31D4601AB5971D870C6245C70FE24BD
:104E30001C70090A1971000A9870A81A401C84B2E3
:104E4000062C0BD2DA4DA81801AE31462246FEF7E9
:104E500039FA31190620021B284603E0D44880188D
:104E600001A90622FEF72EFA03B0F0BDF0B587B017
:104E700002910390EFF31081EFF3108372B6C74BEA
:104E80001F88C74CC74E3388BB4203D325463C1905
:104E9000E71A02E02546DC433F19BFB2072F11D9BC
:104EA0003488083434803488AC4205D93088019085
:104EB000F14C01980419348081F31088082F05D231
:104EC00007B0F0BD81F31088082FF9D32E4604AC4B
:104ED000E271029961710398E070B44D2580120A65
:104EE000A271090A2171000AA070F01A401C84B254
:104EF000082C0ED2E24DE81804AE31462246FEF7E9
:104F0000E1F931190820021B2846FEF7DBF907B04A
:104F1000F0BDDB480499C154C018059A130EC37143
:104F2000130C8371130A437102710A0EC2700A0CCA
:104F30008270090A417007B0F0BDC046F0B587B075
:104F4000019202910390EFF31082EFF3108472B696
:104F5000C64C2488C64DC74F3E88A64202D364196A
:104F6000A41B03E02846F54364190546A4B2092CA6
:104F700014D928463D880A353D803D88854205463E
:104F800006D939880091F44D00994D193D800546A8
:104F900082F310880A2C05D207B0F0BD82F3108886
:104FA0000A2CF9D304A84372019AC2710299417183
:104FB0002F46039DC570B14C04801B0A0372120A70
:104FC0008271090A0171290A8170B81B401C84B2E0
:104FD0000A2C0BD2E14DA81904AE31462246FEF749
:104FE00071F931190A20021B284603E0DB488019B9
:104FF00004A90A22FEF766F907B0F0BDF0B585B046
:1050000000930192EFF31082EFF3108472B6CF4C4D
:105010002488CF4BCF4F3E88A64202D3E418A41B6E
:1050200001E0F5436419A4B2072C10D93D88083576
:105030003D803D889D4204D93B88FD4D5B193B80F6
:10504000F94B82F31088082C05D205B0F0BD82F32D
:105050001088082CF9D302AA009CD471019C947189
:105060005171D0701C46514B1380090A1171000A0E
:105070009070A01B401C84B2082C0ED2EE4DA819D3
:1050800002AE31462246FEF71DF931190820021BF7
:105090002846FEF717F905B0F0BDE748029981559B
:1050A0008019039A130EC371130C8371130A437191
:1050B00002710A0EC2700A0C8270090A417005B0B2
:1050C000F0BDC046E8B80020FF030000EAB80020A9
:1050D00000FCFFFFE8B20020F0B583B0EFF31084CE
:1050E000EFF3108272B6CF4A1688CF4BCF4D2A8885
:1050F000B24202D3F618B61A01E0D743F619B6B297
:10510000072E10D92F8808372F802F889F4204D967
:105110002F88F74BFB182B80F44B84F31088082E54
:1051200005D203B0F0BD84F31088082EF9D31D46D4
:105130006B46D971D8701D4C1C800C0A9C710C0CEC
:105140005C71090E1971000A9870A81A401C84B28B
:10515000082C0ED2E84DA8186E4631462246FEF7BE
:10516000B1F831190820021B2846FEF7ABF803B04E
:10517000F0BDE148009981548018019A130EC37163
:10518000130C8371130A437102710A0EC2700A0C68
:105190008270090A417003B0F0BDC046E8B8002033
:1051A000FF030000EAB8002000FCFFFFFEC800007B
:1051B000E8B20020F0B587B002920390EFF31082BE
:1051C000EFF3108372B6F94B1F88F94CF94E338810
:1051D000BB4203D325463C19E71A02E02546DC43CF
:1051E0003F19BFB2092F11D934880A34348034886A
:1051F000AC4205D930880190EF4C019804193480F5
:1052000082F310880A2F05D207B0F0BD82F3108810
:105210000A2FF9D32E4604AC029A6272E171039808
:10522000E070B44D2580120A22720A0AA2710A0C9B
:105230006271090E2171000AA070F01A401C84B23C
:105240000A2C0BD2EE4DE81804AE31462246FEF78A
:1052500039F831190A20021B284603E0E848C01833
:1052600004A90A22FEF72EF807B0F0BDE8B8002026
:10527000FF030000EAB8002000FCFFFFFECA0000A8
:10528000E8B20020F0B587B0019302920390EFF3EB
:105290001083EFF3108472B6D74C2488C44DD74FD7
:1052A0003E88A64202D36419A41B03E02846F543B6
:1052B00064190546A4B20B2C14D928463D880C3538
:1052C0003D803D888542054606D93A880092BA4D10
:1052D000009A55193D80054683F310880C2C05D2A1
:1052E00007B0F0BD83F310880C2CF9D304AC019BFC
:1052F000E372029F6772E1712A46039DE5704D4893
:105300002080180AA072380A2072080AA071080CBE
:105310006071080E2071280AA070901B401C84B296
:105320000C2C0BD2B64DA81904AE31462246FDF71F
:10533000C9FF31190C20021B284603E0B048801930
:1053400004A90C22FDF7BEFF07B0F0BDE8B80020AD
:10535000FF030000EAB8002000FCFFFFE8B20020D5
:10536000F0B585B00190EFF31080EFF3108372B6C3
:10537000A14B1F888E4CA14E3388BB4203D32546D8
:105380003C19E71A02E02546DC433F19BFB20B2F58
:1053900013D934880C3434803488AC422C4606D976
:1053A00034880094844C009D2C193480804C80F308
:1053B00010880C2F06D205B0F0BD80F310882C4663
:1053C0000C2FF8D302ADEA72E9710198E870264615
:1053D000184C2C80140AAC72140C6C72120E2A72C7
:1053E0000A0AAA710A0C6A71090E2971000AA870CA
:1053F000F01A401C84B20C2C0BD2F54DE81802AE0A
:1054000031462246FDF75EFF31190C20021B28466B
:1054100003E0EF48C01802A90C22FDF753FF05B0C6
:10542000F0BDC046E8B80020FF030000EAB8002045
:1054300000FCFFFFFECC0000E8B20020F0B585B014
:1054400000930192EFF31082EFF3108472B6DC4CFC
:105450002488DC4BDC4F3E88A64202D3E418A41B10
:1054600001E0F5436419A4B2092C10D93D880A352E
:105470003D803D889D4204D93B88D44D5B193B80DB
:10548000D04B82F310880A2C05D205B0F0BD82F310
:1054900010880A2CF9D302AA009C5472019C147241
:1054A000D171D0701C46134B13800B0A93710B0CF7
:1054B0005371090E1171000A9070A01B401C84B238
:1054C0000A2C0BD2C24DA81902AE31462246FDF776
:1054D000F9FE31190A20021B284603E0BC48801956
:1054E00002A90A22FDF7EEFE05B0F0BDFF030000A1
:1054F00000FCFFFFFECA0000E8B200207047000079
:10550000F0B585B001920291EFF31082EFF31083B2
:1055100072B6AB4B1F88AB4CAB4E3388BB4203D348
:1055200025463C19E71A02E02546DC433F19BFB285
:10553000052F11D93488A41D34803488AC4205D994
:1055400031880091A14C00990C19348082F31088A5
:10555000062F05D205B0F0BD82F31088062FF9D3CF
:1055600003AC0199617102992171E070C6216170EB
:10557000FE212170000AA070E81A401C84B2062C9B
:105580000BD2934DE81803AE31462246FDF79AFE42
:1055900031190620021B284603E08D48C01803A9D4
:1055A0000622FDF78FFE05B0F0BDC046E8B800202A
:1055B000FF030000EAB8002000FCFFFFB0B5284D53
:1055C0002A68002A16D07E4801887F4B1C888C42AE
:1055D00010D004807E4840188C4202D9611A89B2EA
:1055E00007E001239B02591A89B290472A6878483C
:1055F00021469047B0BDC046E8B80020EAB8002078
:10560000E8B200201449154A0A6015490860154897
:105610001549016015481649016016481649016090
:10562000164817490160174817490160174818497B
:105630000160184818490160184819490160194863
:105640001949016019481A4901601A481A4901604C
:105650001A481B4901607047C40D0020314D0020DD
:10566000789A0020C80D0020CD4D0020D80D0020D4
:10567000D9500020EC0D0020FD540020F00D00203A
:1056800001550020CC0D00206D4E0020DC0D0020C7
:10569000B5510020E40D002061530020D40D0020FE
:1056A000FD4F0020D00D00203D4F0020E80D0020D0
:1056B0003D540020E00D002085520020F40D002014
:1056C000C5560020F0B583B0144601910090EFF369
:1056D0001080EFF3108372B6394B1D88394A3A4B6C
:1056E0001E88AE4202D3AD18AD1B01E0F743ED19A1
:1056F000AFB2142C00D31424651C3E222A40151D81
:10570000AF4205D280F31088AF4210D203B0F0BD93
:105710001A8852191A801A882A498A4203D9198884
:105720002A4A8A181A8080F31088AF42EED302A961
:105730000098C870FE220A70000A8870C0200543D5
:105740004D70204FB81B401C85B22148042D0DD24E
:10575000801902AF39462A46FDF7B4FD7919194F71
:105760000420421B1A48FDF7ADFD08E0029981555F
:1057700080190A0EC2700A0C8270090A4170321D2B
:1057800090B2B84202D911483018021D90B2B91A2D
:10579000491C8DB2A5420AD20D4E3018019F3946E0
:1057A0002A46FDF78FFD7919621B304603E0084950
:1057B000081801992246FDF785FD03B0F0BDC046EB
:1057C000E8B80020FF030000EAB8002000FCFFFF5B
:1057D000E8B2002010B500242046FFF713FF3E4832
:1057E00001683C480068224602F0BCF803204007EC
:1057F00037490968814203D02C2002F0BFF810BD60
:105800002B2002F0BBF810BD10B503246407A042A2
:1058100005D0094CA04202D0084CA0420AD1304C1D
:1058200023602D4B1A602A4A10602A48016000F05C
:1058300013F810BD002010BD0008006000040060D7
:1058400080B5FFF7BBFE80BD80B50A460146204803
:10585000006802F003FB80BDF0B583B0032045076C
:105860001B4C2668AE4201D02C2000E02B2002F019
:1058700091F8AE4201D0082200E00422154E3068B3
:10588000154F396802F08CF801460120002901D03B
:1058900003B0F0BD054639683068022202F068F8AE
:1058A000002802D0284603B0F0BD0C4802900C48F6
:1058B00000680190206801A902F078F8002802D061
:1058C000002003B0F0BD0748FFF79CFEEAE7C046A2
:1058D00004CD002000CD0020E8CC002021300101C3
:1058E000ACCD0020495800200C460546FDF77AFF54
:1058F0000EA002F037FF11A0294602F0E9FC14A027
:10590000214602F0E5FCFDF741FFFFF757FE154881
:1059100001F0ECFF1448294601F0E2FF134821464C
:1059200001F0DEFFFFF74AFEFEE7C0466F73206519
:105930007272206F6363757273000000636F646539
:1059400020202020203A203078253038580A0000C6
:105950006F626A6563745F69643A20307825303815
:10596000580A000010800000118000001280000022
:10597000F0B583B01C4616460F46029009891348BD
:10598000089D2A4602F036F8F888C00513D4029420
:105990003C8A0E48401C2146324602F02BF8A01BE0
:1059A00081B2A94200D80546AAB278698119029845
:1059B000FDF788FC07E039890095029832462346B6
:1059C00000F0E4FD0546A8B203B0F0BD155100009B
:1059D000F0B585B01D4616460F46012101701478BA
:1059E000384602F05FFA002800D16EE0009701957A
:1059F0000746C8379D490546481C214601F0EEFF81
:105A0000D8350295601E512800D9D9E04000C04623
:105A1000784480884000874451005D006F00950005
:105A20009A00A100A700AE00B400BB00C000C700F0
:105A3000CC00D300D300D900DF00E600EC00D30097
:105A4000D300F300F90000010501D3000C01D300DD
:105A500013011A01D300D300D300D300D300D30025
:105A6000D300D300D300D300D300D300D300D3009E
:105A7000D300D300D300D300D300D300D300D3008E
:105A8000D300D300D300D300D300D300D300D3007E
:105A9000D300D300D300D300D300D300D300D3006E
:105AA000D300D300D300D300D300D300D300D3005E
:105AB000D300D300D300D300D3001E01029C2046A4
:105AC0003146019A02F0F4F9CBE0684801F00EFF8C
:105AD00005B0F0BD3846314602F0F0F90028029CCE
:105AE00000D0BEE004A900980880388848800A20C9
:105AF000042202F0E9F9B4E00121304602F0EAF9AB
:105B00007A889042014600D311463A88914202D2E7
:105B1000172900D339803A7854498B1CC1B21846F2
:105B200001F062FF0220B8713988009C204602F023
:105B3000D7F903A90C80388848800A20042202F093
:105B4000C3F98DE03846314602F0D0F988E0029C76
:105B500020463146019A02F0CFF982E038463146BC
:105B6000019A02F0CFF97BE0029C20463146019A6F
:105B700002F0CEF975E038463146019A00F0ECFAB1
:105B80006EE0029C20463146019A02F0C7F968E0B7
:105B90003846314600F0D6FB62E0029C2046314692
:105BA000019A02F0C1F95CE03846314600F066FA2D
:105BB00056E0029C20463146019A02F0BBF950E0C3
:105BC00006223846214602F0BBF949E03846314604
:105BD000019A02F0BBF943E0029C20463146019A4B
:105BE00002F0BAF93DE038463146019A00F042FC35
:105BF00036E0029C20463146019A02F0B3F930E0CB
:105C000038463146019A00F0D1F929E0029C20463D
:105C10003146019A02F0ACF923E03846314600F0F3
:105C200093F91DE0029C20463146019A02F0A6F944
:105C300017E0029C20463146019A02F0A5F910E0D7
:105C4000029C20463146019A02F0A4F909E0384648
:105C500000F0D4FB04E038463146019A00F0DDFB49
:105C6000029C204602F09CF905B0F0BD14520000E1
:105C70000148024941607047BC0A0020D159002008
:105C800010B50C46C988C90503D5218900F066FC0A
:105C9000208210BD0148024901617047640900205B
:105CA000A55C00200121017000487047FFFF000043
:105CB00080B5114802F036F8104802F039F8104863
:105CC00002F03CF80F4802F03FF80F4802F042F8AB
:105CD00001F01AFA01F04AF801F032F800F09CFCE9
:105CE00001F034F801F012F800F09CFCFFF7D2FF4D
:105CF000FFF7BEFF80BDC04621710020ED7100207E
:105D00005971002049720020B5710020B0B50146DC
:105D10008B4A1088002810D013888A4A1468002201
:105D200004E00834521C9A42184608D225888D4255
:105D3000F7D865888D42F4D302E0002200E01846CF
:105D4000D100804B1B6859184968002900D01046C3
:105D5000B0BDC046F0B581B01C4617460D4615498A
:105D6000079B069A00280DD00D46002F1BD0384601
:105D7000214602F01BF90646681C1022394601F044
:105D800063FE0AE028460F46214602F015F9064652
:105D9000B81C294601F022FE3D46E81C3146224649
:105DA00001F028FE03E0284601F0A0FD0026304661
:105DB00001B0F0BDA5520000F0B581B06048018887
:105DC000002912D002885F480368002004E00833ED
:105DD000401C9042114606D25C88002CF7D11C88EA
:105DE000002CF4D002E0114600E000200E4C884266
:105DF00006D181B2204601F0F1FD002001B0F0BDD6
:105E0000C60002F0DFF805464E4F3868801945801D
:105E100002F0DEF80246601C294601F0EBFD38680E
:105E20008019408801B0F0BDA3520000F0B583B0E6
:105E300001920E46424D29880024002902930FD07A
:105E4000404A12681788002F0AD029880832012397
:105E50001C468B4204D2631C17880832002FF7D1EE
:105E60008C4205D1A1B21F4801F0B8FD002735E0F2
:105E70001C4D002813D02E46019D002D2AD0052050
:105E8000C102284602F0AAF80746B01C1022294693
:105E9000354601F0D9FD002F0DD100271EE0052069
:105EA000C102304602F0A0F80746E81C314601F076
:105EB00095FD002FF1D0E000224909680F52081823
:105EC0000299416000214180281DA2B2394601F0AB
:105ED00091FD03E0701C01F009FD0027384603B076
:105EE000F0BDC04699520000F0B581B0134D0028B6
:105EF0001FD0002A1DD00C4600291AD0002B18D024
:105F00000F490B800F490A6000210F460E46FF0023
:105F1000D151761CF7B29F42F9D30022009221465C
:105F2000134602F067F8681C214601F057FD01B0E6
:105F3000F0BD284601F0DAFC01B0F0BD9752000038
:105F4000ECB80020F0B8002070B582B00E460446D0
:105F5000102002F055F800280AD005466189A08873
:105F60007278002300930193012A06D0032205E0F2
:105F70000D4801F0BBFC02B070BD022200F026FB10
:105F8000010607D0C3B218210022284602F03EF8CD
:105F9000024602E0192028700122A088294602F05A
:105FA0003BF802B070BDC04623510000F0B58BB085
:105FB00004920C4605460121204601F08BFF07465E
:105FC0000321204601F086FF03902E462888001DFD
:105FD00080B202F015F8002813D0054605A839460E
:105FE00002F020F8002811D005A8C088010701D5CB
:105FF000C00512D4162128463A4602F019F8024686
:1060000028E01D4801F072FC0BB0F0BD16212846B7
:106010003A4602F013F802461CE005A9304602F0A9
:1060200013F8002801D003460EE0B0880499491FF8
:1060300089B2621D0092019101223946039B00F052
:10604000C5FA01060CD0C3B2162128463A4601F023
:10605000DDFF0246B088294601F0DEFF0BB0F0BD3F
:1060600028462146049C2246FDF72CF9172028706B
:1060700077812246EEE7C04622510000F0B589B094
:106080000D4604460121284601F024FF064603215F
:10609000284601F01FFF029003A8314601F0C2FF1D
:1060A00007462088001D80B201F0AAFF00280CD00E
:1060B0000546002F0ED003A8C088800710D40C21FD
:1060C0002846324601F0C6FF3BE0224801F00EFCB4
:1060D00009B0F0BD0C212846324601F0AFFF30E098
:1060E00003A9204601F0B0FF002806D003460C218A
:1060F0002846324601F08AFF23E0A08803AF3946E4
:10610000FFF7BEFD388A029A824205D90C21284643
:10611000324601F0A5FF14E0801A411C208881421C
:1061200003DD1018401E03A908820798801A81B267
:10613000A08800916B1C03A9FFF71AFC0D212970A0
:10614000401CA18882B20846294601F065FF09B0CB
:10615000F0BDC0461F510000F0B591B014460E4688
:10616000074601213046099101F0B4FE054603219E
:10617000304601F0AFFE024671480A9529460546B1
:10618000089201F037FC7279681C214601F032FC5C
:1061900007973888001D80B201F032FF002804D034
:1061A0000746082C06D3102005E0A81C01F09EFB32
:1061B00011B0F0BD022006900A9A0899501E80B2D4
:1061C00088420AD2701D05900BA801F04FFF0026EF
:1061D00003960296099804900FE00821384601F0D2
:1061E0002DFF9EE00BA9079C204601F02DFF002803
:1061F00034D00390099C002C75D10BA801F03CFF12
:10620000002870D00BAC204601F03CFF2289A18809
:10621000E81C01F0EFFB0E9801784078000240186E
:1062200082B2E188281D01F0E5FB20890028E1D039
:1062300000240A998842DED308998842DAD80BA84C
:106240000599069A01F024FF0028D4D00BA8C08835
:106250008007C7D43004CED10D9ECCE7A0880BA90F
:10626000FFF70EFD0F98801C049989B2002203925B
:10627000022904D382B2029B9BB29342BAD1012974
:1062800003D17870049B5B1C01E0049B0298029090
:1062900080B299B20A1820888242049306D9022952
:1062A000A8D8001F0BAA1082801C78700BAC228922
:1062B000384601F0F3FE07988088218A00910499FE
:1062C000891C049189B27B18002203922146FFF7B2
:1062D0004FFB0446681D214601F080FB04982018FE
:1062E0000490039C87E7049988B2022802D309200E
:1062F000387017E00399080606D0CBB2082138465B
:106300000A9A01F083FE0CE0300405D0B2B20821F5
:10631000384601F09FFE04E0082138460A9A01F051
:10632000C3FE0146A81D8CB2214601F057FB079819
:1063300080883946224601F06FFE11B0F0BDC0469C
:1063400017510000F0B587B00A46044601211046F7
:1063500001F0C0FD064601A8314601F063FE074684
:106360002088001D80B201F04BFE00280CD00546AD
:10637000002F0ED001A8C088800710D40A2128461B
:10638000324601F067FE2EE01B4801F0AFFA07B07D
:10639000F0BD0A212846324601F050FE23E001A953
:1063A000204601F051FE002806D003460A21284667
:1063B000324601F02BFE16E0A08801AE3146FFF711
:1063C0005FFC2088318A814202D3401E01A90882E5
:1063D000A08801A90A8A00926B1C0022FFF7C8FA64
:1063E0000B212970401CA18882B20846294601F081
:1063F00013FE07B0F0BDC0461E51000080B582B04C
:106400000189002907D0002303818088009301932C
:10641000042200F0DBF802B080BDF0B589B015466B
:106420000C4607460121204601F054FD064603A80C
:10643000314601F0F7FD00280CD04120800003A96F
:10644000C9880140814205D103A9384601F0FCFD0D
:10645000002801D009B0F0BDB888E91E89B2E21C5D
:106460000092019100223146134600F0AFF809B0C6
:10647000F0BD0000F0B58BB003920C460746012634
:106480000846314601F026FD014605A8049101F0B9
:10649000C9FD0546102001F0B3FD00280CD0002DE9
:1064A0000FD005A9CA8811073D4613D4122104460E
:1064B000049A01F0BDFD1AE0274801F017FA0BB06D
:1064C000F0BD12210446049A01F0B8FD21460646AB
:1064D0003D460EE005A9D20511D4098AC91C039BCB
:1064E00099420CD212210446049A01F0E3FD2146A0
:1064F0000646A888324601F08FFD0BB0F0BD002A99
:10650000D4D5074605A9284601F09EFD002805D0F0
:10651000034612213C463846049A13E0A8880399A2
:10652000C91E89B2E21C009201910022049C2146FE
:10653000134600F04BF8010609D0C3B212212246DF
:106540003C46384601F062FD39460646D1E7132045
:1065500039463870CDE7C04621510000B0B50C4631
:1065600005460846FFF7D2FB01462948028800206D
:1065700091420AD0C900274A1268511849680A682E
:10658000002A02D0284621469047B0BDF0B581B020
:106590001C4615460E4607460846FFF7B7FB014660
:1065A0001B480288002091420ED02346C900194A98
:1065B0001268511849684C68002C05D00698009064
:1065C000384631462A46A04701B0F0BDF0B583B049
:1065D0001C4615460E4607460846FFF797FB014640
:1065E0000B4802880020914210D02346C900094A76
:1065F0001268511849688C68002C07D009980899CE
:1066000000910190384631462A46A04703B0F0BDBC
:10661000ECB80020F0B8002008480149C164704778
:10662000496A0020092040010449054A0A50E2480D
:106630000021044A026041607047C046500B0020B0
:1066400085720020ED490000F0B587B00546D848B6
:106650002E184520000128180290F8482B5C039161
:10666000497B9768D0682C4650340278002B45D07F
:10667000002965D0092A00D0B1E0FF2109020F40AE
:10668000092109028F4200D0FCE0027A04A90A72B3
:10669000027943791B029A188379C5792D02EB1888
:1066A0001B049A180592027843781B029A18837883
:1066B000C0780002C018000480180490481C01F043
:1066C000FFFC07460D46012030700026039A9672A3
:1066D00010208143B9482F303840029B03C3517BBF
:1066E000B448401C01F07AF9B64A3A40512085433B
:1066F000218830462B4601F0E9FC55E1002970D095
:10670000092A00D1CAE0072A00D008E1FF231B02B2
:106710001F40012673029F4200D015E140780E28E9
:1067200000D041E1002603988672A248401D01F086
:1067300055F921881A203246334601F0C7FC33E16F
:106740000E2A00D09CE0FF210902394009231B02D8
:10675000994200D0E7E0027A04A90A7202794379EB
:106760001B029A188379C4792402E3181B049A182F
:106770000592027843781B029A188378C078000249
:10678000C018000480180490481C01F099FC019185
:10679000894A0ACA894A0090084011402F240440BF
:1067A0000A191027BB43284601F096FC002800D1A7
:1067B000F7E00246F8430121317081499161039964
:1067C000D161019B034000987C4E30400443029805
:1067D00004604360284601F085FC0026E4E00126C1
:1067E000E2E0082A00D09CE0FF2109023940092399
:1067F0001B02994200D0C1E0027A04A90A72027910
:1068000043791B029A188379C4792402E3181B0484
:106810009A180592027843781B029A188378C078F8
:106820000002C018000480180490481C01F048FCC5
:106830000191614A0ACA614A0090084011402F2420
:1068400004400A191027BB43284601F045FC0028E4
:1068500000D1A8E00246F843012131705849916106
:106860000399D161019B03400098544E304004438A
:10687000029804604360284601F034FC002693E04F
:10688000012691E02846039C214601F031FC0026B8
:10689000A672617B474801F0A1F885E0FF2109025B
:1068A0000F4009210902434B8F425AD1027A04A9B1
:1068B0000A72027943791B029A188379C5792D02ED
:1068C000EB181B049A180592027843781B029A1859
:1068D0008378C0780002C018000480180490481C17
:1068E00001F0EEFB07460D46012030700026039AAA
:1068F00096721020814331482F303840029B03C3E9
:10690000517B2C48C01D01F069F82E4A3A405120B5
:106910008543218830462B4601F0D8FB44E0012610
:1069200042E0012640E02846039D294601F0E0FBB5
:10693000204CA01C394600F0D3FF0026AE72697BC4
:10694000E01C01F04BF82FE02846039C214601F0A3
:10695000CFFB0026A672617B1648001D01F03EF8B1
:1069600022E02846039C21461D4601F0C1FB00267B
:10697000A672617BA81D01F031F815E02846039C42
:10698000214601F0B5FB0B4D28460830394600F092
:10699000A7FF0026A672617B0935284601F01EF884
:1069A00002E0022600E00226304607B0F0BDC046F5
:1069B00049040000CE360000F8B8002000CF87F769
:1069C000A98002002FCF87F770B5002810D00D46A0
:1069D00000290DD0002A0BD0D168097800240E2997
:1069E0000FD0082927D11549405C002823D10CE09D
:1069F0001620492100242246234601F07FFB204631
:106A000070BD0E49405C002815D001242C7300266F
:106A1000EE72FF2004302881304601F075FB03C57B
:106A20000748EE806E716E61AE61E861AC7005483A
:106A3000314600F0D3FF204670BDC0465103000030
:106A400049660020CD36000010B5044600F026FD52
:106A5000002802D00C21012006E000F0F9FC0028FB
:106A600001D1014600E00C212070084610BD000055
:106A700010B50A46002911D00446906B00280DD0AD
:106A8000107C072811D0062816D005281DD11048E3
:106A90000068D060104600F023FD13E08520C1009F
:106AA0001C20002301F02AFB10BD09480068D060BB
:106AB000104600F019FD05E005480068D06010465A
:106AC00000F018FD0120207010BD0020207010BDC6
:106AD00050080020B0B50D4600290FD00446A86B21
:106AE00000280BD0287C07280FD0062812D00528B4
:106AF00017D12846114600F0F4FC0FE01C200A498B
:106B000000232A4601F0FAFAB0BD2846114600F0EB
:106B1000EEFC03E02846114600F0F6FC0120207050
:106B2000B0BD00202070B0BD8D04000010B50A4635
:106B3000002918D00446906B002814D0107C072838
:106B400017D0062823D0052831D140480178D068D5
:106B5000484318490968884200D80146D160104668
:106B600000F0C0FC20E01C201349002301F0C6FA0D
:106B700010BD36480178D06848430E4909688842FC
:106B800000D80146D160104600F0B2FC0CE02F485E
:106B90000178D068484307490968884200D801460F
:106BA000D160104600F0CFFC0120207010BD002005
:106BB000207010BD5408002053040000B0B50D46ED
:106BC000002919D00446A86B002815D0287C072876
:106BD00019D0062826D0052835D1E8681B49097840
:106BE000FCF782FB1A490968884200D30146E96034
:106BF000284600F078FC23E01C20164900232A4692
:106C000001F07CFAB0BDE86810490978FCF76CFB2C
:106C10000F490968884200D30146E960284600F020
:106C200068FC0DE0E86809490978FCF75DFB084954
:106C30000968884200D30146E960284600F096FCC6
:106C400001202070B0BD00202070B0BD5C08002085
:106C500058080020B5040000B0B50446012500F036
:106C600085FB002801D0284608E000F017FC00282A
:106C700001D0012002E000F0EBFB05462070284621
:106C8000B0BD70B504460C26012500F0A3FB00281A
:106C90000BD100F010FC002807D100F0E6FB054600
:106CA000002801D12E4600E00C262570304670BD2C
:106CB00070B504460C26012500F08CFB00280BD192
:106CC00000F0F9FB002807D100F0CFFB05460028B3
:106CD00001D12E4600E00C262570304670BD10B55F
:106CE000044600F077FB002803D100F0E4FB002805
:106CF00003D0002020700C2010BD00F0B6FB002156
:106D00002170002800D00C2010BD000015200001CB
:106D10001249074A0A5053208000064A0A50292087
:106D2000C000054A0A5051208000044A0A507047AA
:106D3000BD6B0020D56A00202D6B0020716A0020F9
:106D40000648014901667047596C00200348044910
:106D5000044A054B8363C26301647047500B0020F3
:106D6000DF6C0020836C0020B16C002070470000B5
:106D7000B0B584B0002808D004468168022001F034
:106D8000C9F9002804D004B0B0BD042004B0B0BDDF
:106D9000E389A289607C014601F0C2F90028F2D1A2
:106DA0006269A369217C607C0125009501900290B5
:106DB0000025284601F0BAF90028E4D1206A01F044
:106DC000BBF90028DFD1A18B606A01F0BBF9002874
:106DD000D9D106480570627C03CC01F0B9F90028CE
:106DE000D1D101F0BBF9284604B0B0BD0C0D002094
:106DF00070B501260670274800780024002801D0CD
:106E0000204670BDEFF31085EFF3108072B601F0ED
:106E1000ABF900280CD0344C2078002804D11F484E
:106E200001F0A8F90120207085F31088012070BDC1
:106E30002F490846683800682B4A1278002A1DD06E
:106E400030401BD0052208680B68984204D0531EBE
:106E500012061A46F7D1FF22110613D023490968FA
:106E6000814213D90C4A128885F31088081A5109F7
:106E7000884200D800263446204670BD85F310882D
:106E8000204670BD85F31088204670BD85F31088BC
:106E9000204670BD5F09002022080020FFFFFF1F71
:106EA000B0B501210170EFF31084EFF3108072B6DA
:106EB0000D4D2878002813D00C4800680C4909684B
:106EC000814205D2491D814204D201F059F905E001
:106ED000642001E04B20800000F02CFD0020287091
:106EE00084F31088B0BDC0465B09002080000040DC
:106EF000E8010040B0B584B0002808D0044681689D
:106F0000042001F007F9002804D004B0B0BD04202B
:106F100004B0B0BDE389A289607C014601F000F9AC
:106F20000028F2D16269A369217C607C012500956B
:106F3000019002900025284601F0F8F80028E4D1DD
:106F4000206A01F0F9F80028DFD1A18B606A01F016
:106F5000F9F80028D9D103CC627A01F017F900289A
:106F6000D3D10348057001F017F9284604B0B0BD2D
:106F70009C0D002070B584B0002808D004468168BC
:106F8000062001F0C7F8002804D004B070BD04202A
:106F900004B070BDE389A289A17C607C01F0C0F8D7
:106FA0000028F2D16269A369217C607CA57C01265E
:106FB0000096019002950025284601F0B7F80028B8
:106FC000E3D1206A01F0B8F80028DED1A18B606A15
:106FD00001F0B8F80028D8D103CC627A01F0B8F8F3
:106FE0000028D2D10348057001F0DCF8284604B02F
:106FF00070BDC0469D0D0020B0B584B0002808D0FB
:1070000004468168032001F085F8002804D004B00C
:10701000B0BD042004B0B0BDE389A289607C014604
:1070200001F07EF80028F2D16269A369217C607CBE
:1070300001250095019002900025284601F076F880
:107040000028E4D1206A01F077F80028DFD1A18B75
:10705000606A01F077F80028D9D103CC627A01F098
:1070600095F80028D3D10348057001F0A1F828460F
:1070700004B0B0BDBC0D002070B584B0002808D0AD
:1070800004468168052001F045F8002804D004B0CA
:1070900070BD042004B070BD638A228AA17D607D2A
:1070A00001F03EF80028F2D1A17DE06801F086F8F9
:1070B0000028ECD1A269E369217D607DA57D0126D0
:1070C0000096019002950025284601F02FF800282F
:1070D000DDD1606A01F030F80028D8D1218CA06A97
:1070E00001F030F80028D2D103CCA27B01F04EF899
:1070F0000028CCD10348057001F066F8284604B09A
:1071000070BDC046BD0D002002480349816403499B
:1071100041657047200D0020A16E0020F16D002018
:1071200070B50546554E3068002801D0012070BD6D
:1071300001F050F82846FFF71BFE0446002801D056
:10714000204670BD0348306003CD01F049F8204669
:1071500070BDC04684270200F0B581B00446474F99
:107160003868002801D001261EE001F033F803CC76
:10717000637A00252A46083C01F038F803C42068E9
:10718000627A2946083C01F037F8A0602046FFF7F4
:10719000B1FE0646284601F035F8002E04D1044819
:1071A000386003CC01F01CF8304601B0F0BDC04699
:1071B000D427020070B50546304E3068002801D053
:1071C000012070BD01F006F82846FFF7D3FE044603
:1071D000002801D0204670BD0348306003CD00F088
:1071E000FFFF204670BDC046E4270200F0B581B025
:1071F0000446224F3868002801D001261EE000F026
:10720000E9FF03CC637A00252A46083C00F0EEFF34
:1072100003C42068627A2946083C00F0EDFFA060B4
:107220002046FFF7E9FE0646284600F0EBFF002E59
:1072300004D10448386003CC00F0D2FF304601B0DE
:10724000F0BDC046F427020070B505460B4E30680D
:10725000002801D0012070BD00F0BCFF2846FFF7D8
:107260000BFF0446002801D0204670BD0448306062
:1072700003CD00F0B5FF204670BDC046C00D002014
:1072800004280200B0B501230370D0680478002000
:10729000162C35D87123DB00CB18C0467C442479EA
:1072A0006400A744151A2D0B2D2D2D2D102D0B2DFF
:1072B0001F2D102D2D2D2D2D242D2900084619466A
:1072C00000F0A6FFB0BD08461946FFF77DFBB0BD34
:1072D0000846194600F0A2FFB0BD0846194600F066
:1072E000A3FFB0BD0846194600F0A4FFB0BD084694
:1072F000194600F0A5FFB0BD0846194600F0A6FFEC
:10730000B0BD000080B500F0A7FF00F0ABFF00F0BB
:10731000AFFF002800D080BD00F0B0FF054800F0AE
:10732000B3FF022000F05EFD0B2000F0B3FF002051
:1073300080BDC04620F50100084909680A4A127854
:10734000824203D80020002907D105E03522D2006F
:1073500042438818002900D10846704710A2002037
:10736000014800787047C046EEB80020F0B581B003
:10737000FFF7F6FF002827D0044600250126E8B2D3
:10738000FFF7DAFF00280FD099300178002907D0E5
:107390004078002804D00020374600280FD114E0A0
:1073A000304600280BD110E0912001011E202A4612
:1073B000234600F0A3FE00273846002805D06D1CA8
:1073C000AC42DCD1002700E000270120384001B0AA
:1073D000F0BD0000F0B581B0FFF7C2FF002828D053
:1073E000044600250126E8B2FFF7A6FF00280DD0CD
:1073F0008D30017B002905D0417B002902D0007827
:10740000002811D0304600280AD115E01E200C4972
:107410002A46234600F072FE0027384600280BD08B
:107420006D1CAC42DFD106E0002037460028F7D1C2
:1074300002E0002700E000270120384001B0F0BD45
:1074400026090000014800687047C04614A20020C9
:1074500080B5FFF7F7FF002805D03321C900405C55
:10746000411E884180BD002080BD80B5FFF7EAFF46
:107470000146002000290AD03322D2008A1812784F
:10748000002A04D091310878411E4842484180BD0D
:10749000014800687047C04618A2002080B5FFF779
:1074A000F7FF002805D047218900405C411E884134
:1074B00080BD002080BD80B5FFF7EAFF01460020B7
:1074C00000290CD0472292008A181278002A06D090
:1074D000A531097802220A43032A00D1012080BD88
:1074E0007047704770477047172181747047704725
:1074F00070477047FF217431826B64235354837447
:10750000501819214170704770B50A460446FF2192
:1075100008462030A36B1E18B92040001D18185CC7
:10752000002807D0FF2A00D8D1B268781A2200F0CC
:1075300036F868703078002801D0012000E0022081
:10754000285CA07470BDB0B50446FF20A16B024654
:1075500020328A5C002A08D074300D182878012166
:107560001A2200F01CF82870A074B0BDB0B5044613
:10757000FF20A16B024620328A5C002A08D07430BA
:107580000D1828783221642200F003F82870A074C6
:10759000B0BD4018904200D80246D0B27047531890
:1075A000834200D2421AD0B270470000F0B585B0D5
:1075B0000646EFF3058002ACA6702180E27000253C
:1075C0000395002800D1ED432A4F002A2BD00193C8
:1075D000242A15D80092294F3868002100F060FE57
:1075E0000390002808D1244F38680024214600F079
:1075F00057FE0390002836D03868049003980DE0B9
:10760000802A27D800921C4F38680024214600F0B9
:1076100047FE0390002823D0396804910199009A0D
:10762000FBF750FE134FF81C314600F0D7F9144811
:10763000006802A9002632462B4600F037FE44427D
:107640004441002812D03A1D81B2104600F0C6F91C
:1076500034460BE0B81C114600F0C0F9002405E0E8
:107660000448401C00E0034800F040F9204605B003
:10767000F0BDC04604600000ECCC0020F0CC00203F
:10768000148C002010B582B0019100900022EFF31D
:107690000580002801D0134600E0D3430748006866
:1076A000694600F003FE0446002803D004A02146EA
:1076B00000F00EFE6042604102B010BD7CB90020B7
:1076C000626C655F7461736B5F73656E645F6D732D
:1076D000675F746F5F6C6C635F7461736B2066616E
:1076E000696C65643A25750A000000001C46154661
:1076F0000E460746FCF776F810A001F033F814A008
:107700003946324600F0E4FD19A02946224600F031
:10771000DFFDFCF73BF8FDF751FF1D4800F0E6F8F0
:107720001C483946324600F065F91B482946224676
:1077300000F06CF9FDF742FFFEE7C0467379737401
:10774000656D206572726F72206F6363757273006E
:107750007531364572724D6F64756C653A257520CA
:107760007531364572724C696E653A25750A0000AE
:10777000753332457272496E666F313A25752075E0
:107780003332457272496E666F323A25750A0000CF
:10779000148000001580000016800000F0B585B050
:1077A0000446407D217D01290CD1EFF31081EFF3D8
:1077B000108272B60022227562682260626A2262BA
:1077C00081F3108800280AD0EFF31081EFF31082C4
:1077D00072B600226275E27DA27581F31088A17DE8
:1077E00002291DD000295AD1EFF31080EFF3108148
:1077F00072B6E16A002901D0A26A8A622C4A136833
:10780000A34201D1A36A13602A4A1368A34200D19C
:10781000116080F310880020A062E06205B0F0BD26
:1078200000280BD0276902972068009003A800F079
:1078300043FD0398012813D11B4D14E0207E01283D
:107840002BD100200290174802A900F07FF8206891
:107850000090029F04A800F02FFD04980128EBD0AF
:1078600000F030FD05461148068805800197E76065
:107870007D2042030027009839463B46FBF70AFD6E
:10788000002E01D0721955082A463B46FBF7D2FC60
:1078900001990818A06005B0F0BD0120A07505B0E1
:1078A000F0BDC04600300560127A00009ECD002079
:1078B00090CD002094CD002003480088081A414252
:1078C000414148007047C0465001012000207047E8
:1078D0000020704703B40148019001BD39C4010084
:1078E00003B40148019001BD4DF7020003B4014803
:1078F000019001BDE9F6020003B40148019001BD09
:10790000610E020003B40148019001BD45A30100CE
:1079100003B40148019001BDADA0010003B40148CA
:10792000019001BD65BF010003B40148019001BD94
:10793000BDBD010003B40148019001BD51F8020032
:1079400003B40148019001BD1DBF010003B401480B
:10795000019001BD45BF010003B40148019001BD84
:10796000CDBF010003B40148019001BD698D010044
:1079700003B40148019001BD058F010003B4014823
:10798000019001BDE971010003B40148019001BDFE
:1079900079DC010003B40148019001BD557201007A
:1079A00003B40148019001BD858E010003B4014874
:1079B000019001BD89DB010003B40148019001BDC4
:1079C000ADC3010003B40148019001BD43D70100DC
:1079D00003B40148019001BD41F9020003B401481C
:1079E000019001BDFDF6020003B40148019001BD04
:1079F000C5F7020003B40148019001BD11F7020070
:107A000003B40148019001BD61F7020003B40148CD
:107A1000019001BD89F7020003B40148019001BD46
:107A200039F7020003B40148019001BD25F70200B7
:107A300003B40148019001BD9DF7020003B4014861
:107A4000019001BD75F7020003B40148019001BD2A
:107A5000D9F7020003B40148019001BD89C20100B9
:107A600003B40148019001BDBD0D010003B40148FC
:107A7000019001BD1D23010003B40148019001BD27
:107A80000922010003B40148019001BDD123010086
:107A900003B40148019001BD79C0010003B401485D
:107AA000019001BDBDBE010003B40148019001BDBC
:107AB00081BE010003B40148019001BDF9BD010080
:107AC00003B40148019001BDD9C0010003B40148CD
:107AD000019001BDF912010003B40148019001BDFC
:107AE000B9A0030003B40148019001BDA511010034
:107AF00003B40148019001BD3594020003B401486C
:107B0000019001BD25AA020003B40148019001BD06
:107B100049A0020003B40148019001BDCD39020023
:107B200003B40148019001BD7DDC020003B40148AB
:107B3000019001BD11F4020003B40148019001BDA0
:107B400015D0020003B40148019001BD192C0200B8
:107B500003B40148019001BD1959020003B4014862
:107B6000019001BD5129020003B40148019001BDFB
:107B70002982020003B40148019001BD01140100F3
:107B800003B40148019001BDC5DF020003B4014800
:107B9000019001BD6118020003B40148019001BDCC
:107BA0002D20020003B40148019001BDFD23020015
:107BB00003B40148019001BD6982020003B4014889
:107BC000019001BDB13C030003B40148019001BD27
:107BD00003F9020003B40148019001BDC923030069
:107BE00003B40148019001BDD505030003B4014869
:107BF000019001BD9D12010003B40148019001BD37
:107C000051EC030003B40148019001BDE1050300FC
:107C100003B40148019001BD6D18030003B401488D
:107C2000019001BDB95A030003B40148019001BDA0
:107C3000DD59030003B40148019001BD851803001C
:107C400003B40148019001BDAF28030003B401480B
:107C5000019001BDFD05030003B40148019001BD81
:107C60000506030003B40148019001BDF5050300BA
:107C700003B40148019001BDED05030003B40148C0
:107C8000019001BD89A6010003B40148019001BD26
:107C9000F11A020003B40148019001BD79230200EA
:107CA00003B40148019001BD7520020003B40148EE
:107CB000019001BD3920020003B40148019001BDCB
:107CC0004520020003B40148019001BD812002005B
:107CD00003B40148019001BD6920020003B40148CA
:107CE000019001BD5120020003B40148019001BD83
:107CF0005D20020003B40148019001BD31E00200A3
:107D000003B40148019001BD19E0020003B4014829
:107D1000019001BD25E0020003B40148019001BDBE
:107D2000B9DF020003B40148019001BDD1DF0200B8
:107D300003B40148019001BDF5DF020003B401481E
:107D4000019001BDDDDF020003B40148019001BDD7
:107D500001E0020003B40148019001BDE9DF020027
:107D600003B40148019001BD0DE0020003B40148D5
:107D7000019001BD49E0020003B40148019001BD3A
:107D80003DE0020003B40148019001BDADDF0200F7
:107D900003B40148019001BD5DE9030003B401484B
:107DA000019001BD75E9030003B40148019001BDD4
:107DB00069E9030003B40148019001BD51E90300E2
:107DC00003B40148019001BD45E9030003B4014833
:107DD000019001BD49E2030003B40148019001BDD7
:107DE00055E2030003B40148019001BD05590100AB
:107DF00003B40148019001BDF57E010003B40148C0
:107E0000019001BD7927030003B40148019001BD31
:107E1000E523030003B40148019001BD8D23030055
:107E200003B40148019001BD5D28030003B401487B
:107E3000019001BD9F28030003B40148019001BDDA
:107E4000EB28030003B40148019001BD253D030068
:107E500003B40148019001BD513A030003B4014845
:107E6000019001BD7DDE010003B40148019001BD18
:107E7000A5BC020003B40148019001BD7D080100CA
:107E800003B40148019001BD6108010003B4014839
:107E9000019001BD4D10010003B40148019001BDE6
:107EA000E110010003B40148019001BDD952030063
:107EB00003B40148019001BD3930030003B4014807
:107EC000019001BD2944030003B40148019001BDA4
:107ED000B105030003B40148019001BD99A7030057
:107EE00003B40148019001BDA530030003B401486B
:107EF000019001BD4946030003B40148019001BD52
:107F00008931030003B40148019001BDED44030031
:107F100003B40148019001BD0931030003B40148D5
:107F2000019001BDE132030003B40148019001BD9D
:107F3000A934030003B40148019001BD35320300A8
:107F400003B40148019001BD814E030003B4014810
:107F5000019001BD3549030003B40148019001BD02
:107F60006932030003B40148019001BDB13503003B
:107F700003B40148019001BDC331030003B40148BB
:107F8000019001BDDD30030003B40148019001BD43
:107F90008D35030003B40148019001BD593503003C
:107FA00003B40148019001BD0936030003B4014840
:107FB000019001BDF50B030003B40148019001BD20
:107FC000410C030003B40148019001BDE10C030022
:107FD00003B40148019001BDF10C030003B4014852
:107FE000019001BD910C030003B40148019001BD53
:107FF000A30C030003B40148019001BD110D03005F
:1080000003B40148019001BDC15D030003B4014800
:10801000019001BD3166030003B40148019001BD28
:10802000ED16030003B40148019001BD190F0300D0
:1080300003B40148019001BD8766030003B4014801
:10804000019001BD5766030003B40148019001BDD2
:108050004D17030003B40148019001BD7B66030086
:1080600003B40148019001BD6366030003B40148F5
:10807000019001BD1D10030003B40148019001BD32
:108080001510030003B40148019001BDAF0F0300B8
:1080900003B40148019001BD2910030003B4014855
:1080A000019001BDD1A7030003B40148019001BDB7
:1080B0004B66030003B40148019001BD6F660300E5
:1080C00003B40148019001BD57EF020003B4014819
:1080D000019001BDDDE0030003B40148019001BD42
:1080E000FD7A020003B40148019001BDCD520200A7
:1080F00003B40148019001BD0552020003B40148D8
:10810000019001BD6942010003B40148019001BD25
:1081100031EE020003B40148019001BDA117020035
:1081200003B40148019001BDDD10020003B4014811
:10813000019001BDF115020003B40148019001BD99
:108140004917020003B40148019001BD4913020020
:1081500003B40148019001BD7115020003B4014848
:10816000019001BD9D0F020003B40148019001BDC3
:10817000E11A020003B40148019001BD1D1802007C
:1081800003B40148019001BD4D18020003B4014839
:10819000019001BD9112020003B40148019001BD9C
:1081A000F111020003B40148019001BD3512020033
:1081B00003B40148019001BDD513020003B4014886
:1081C000019001BD6114020003B40148019001BD9A
:1081D0001514020003B40148019001BD11240200EE
:1081E00003B40148019001BDE922020003B4014833
:1081F000019001BD3D1E020003B40148019001BD84
:10820000751E020003B40148019001BDC91D0200A2
:1082100003B40148019001BD2178020003B4014874
:10822000019001BD8543020003B40148019001BDE6
:10823000B12D020003B40148019001BD11F102000B
:1082400003B40148019001BDC961020003B40148B3
:10825000019001BDE9C0020003B40148019001BDD5
:108260005D52010003B40148019001BD5D58010059
:1082700003B40148019001BDD953010003B4014882
:10828000019001BDE955010003B40148019001BD11
:10829000195A010003B40148019001BD91B20100D7
:1082A00003B40148019001BD4D11010003B4014820
:1082B000019001BD3514010003B40148019001BDD6
:1082C000ED72010003B40148019001BDBD720100CF
:1082D0000FB410B503A9044B044A029800F008F843
:1082E00010BC08BC04B01847AD4B0020808B0020A8
:1082F000FFB591B00F460546002606E025280AD0B6
:10830000149A139990476D1C761C28780028F5D193
:10831000304615B0F0BD002400940121F34A0294C8
:1083200000E004436D1C2B780846203B9840104227
:10833000F7D128782A280ED0022128780246303A30
:10834000092A15D8009A0A235A43303A80180C4358
:108350006D1C0090F1E701CF0090002805DA0120A4
:1083600040030443009840420090022004436D1CE7
:1083700028782E2815D10420044368786D1C2A28FB
:108380000AD101CF6D1C02900BE002990A225143E1
:10839000303940186D1C029028780146303909297F
:1083A000F3D928786C2810D006DC4C281AD068281D
:1083B0000ED06A2817D104E0742813D07A2812D17D
:1083C00010E00120400504430CE00121090501E013
:1083D000032109050C436978814203D1012000057E
:1083E00024186D1C6D1C287803906E281ED00CDCA0
:1083F000632831D004DC00288AD0582811D1B2E09B
:1084000064287BD069280CD178E073282DD004DC57
:108410006F2870D0702804D1A7E075286CD0782818
:108420006BD0149A13999047761C62E06002400F5B
:10843000022807D003280AD0042838680AD006602A
:108440003F1D56E03868F11706604160F8E738686C
:108450000680F5E70670F3E738786946087400206F
:10846000487404A80390012003E0386803900020BA
:10847000C0433F1D61070FD5002101E00199491C50
:10848000029A0191914213DA8142F7DB019A039932
:10849000895C0029F2D10BE0002101E00199491C1F
:1084A00001918142FADB019A0399895C0029F5D197
:1084B00001990098139A401A00902146149B00F0ED
:1084C0003BF901998019461807E003980399007851
:1084D000491C0391149A139990470198401E0190EA
:1084E000401CF2D12146149B139A009800F014F915
:1084F00086196D1C09E741E033E034E00A200021D1
:10850000049005916002410F022905D001CFC217E6
:108510009446032905D007E0FF1DFF08FF0003CFA5
:1085200006E000B2C2179446042902D140B2C11736
:108530008C4600226146944506DA0A4600214042F4
:1085400091418C462D2102E0210504D52B216A465C
:108550001176012103E0E10701D02021F7E7019125
:1085600054E00A200BE0102009E0102004900021C4
:108570000420044308200591029003E00820002114
:10858000059104906002410F022905D001CF00221D
:108590009446032906D006E0FF1DFF08FF0003CF25
:1085A0008C4603E080B2042900D1C0B200210191C1
:1085B00021072BD50399702906D0049A1021059B19
:1085C0004A401A4305D00EE040216A461176012147
:1085D00008E06146014306D030216A4611760399CE
:1085E000517602210191049A0821059B4A401A43C1
:1085F0000CD16146014301D1610707D530216A469C
:108600001176012101910299491E0291039958297D
:1086100004D037A103910FA90F910DE039A1F9E71B
:108620006146059B049AFAF705FE039B8C469B5C0A
:108630000F9A521E0F92137061460143F0D10F98AA
:1086400007A9081A20300390600704D50120000410
:108650008443029801E0012002900399884201DDE1
:10866000401A00E000204118029001980918009873
:10867000401A0090E00306D42146149B139A0098F8
:1086800000F05AF886190020049008E006A9085C5A
:10869000149A139990470498401C761C04900199F1
:1086A0008842F3DBE0030CD52146149B139A009813
:1086B00000F042F8861904E0149A3020139990478C
:1086C000761C0299481E02900029F5DC08E00F98FC
:1086D0000F990078491C0F91149A13999047761CB2
:1086E0000399481E03900029F1DCFBE609280100EC
:1086F0003031323334353637383961626364656618
:1087000000000000303132333435363738394142D9
:108710004344454600000000F8B5044600251E46C7
:108720001746880404D405E039462020B0476D1C64
:10873000641EF9D52846F8BDFFB50446002581B072
:108740001E46C80301D5302700E02027880404D541
:1087500005E038460399B0476D1C641EF9D52846DC
:1087600005B0F0BD10B5044601E0FCF71FFA207813
:10877000641C03490028F8D10A20FCF717FA10BD41
:10878000808B0020A000A00000020000000000007C
:10879000000700001B8900200100000000B9002034
:1087A0004400000080BE00200008000020000000FF
:1087B0000000000000000000088900200000000008
:1087C00048B900203400000080B9002000050000F6
:1087D000813F0020B54000200000000061450020DE
:1087E0006D45002025460020FE00657870657269A1
:1087F0006D656E74616C00004669726D77617265BB
:10880000205265766973696F6E000000486172647A
:1088100077617265205265766973696F6E0000003A
:108820004D616E756661637475726572204E616D1F
:10883000650000004D6F64656C204E756D62657259
:108840000000000053657269616C204E756D6265B1
:1088500072000000536F667477617265205265760E
:108860006973696F6E005B486172644661756C7410
:108870005F48616E646C65725D43757272656E749B
:10888000206D73703A203078253038580A004F63D5
:10889000637572656420696E207461736B2E005578
:1088A00073696E67207533324D73702E004F6363AA
:1088B0007572656420696E20696E74657272757078
:1088C000742E0044657620696E666F20736572763B
:1088D00069636520696E6974206661696C7572658B
:1088E0002E006C6C635461736B4D736751756575C5
:1088F000654964204E554C4C006C6C635461736B3D
:108900004964204E554C4C006C6C635F7461736B12
:108910005F6D73675F7175657565006C6C635F741F
:1089200061736B00626C65537461636B5F6D736739
:108930005F717565756500626C65537461636B5436
:1089400061736B5F4D656D506F6F6C5F6C6F6E67C1
:1089500000626C65537461636B5461736B00626C8D
:1089600065537461636B5461736B5F4D656D506FDC
:108970006F6C5F73686F7274005B4D53475F424C5E
:10898000455F5048595F5550444154455F434F4DF2
:10899000504C4554455F494E445D2048616E646CBF
:1089A00065203D20307825582C2054585F50485978
:1089B000203D20307825582C2052585F50485920AF
:1089C0003D20307825580A005B4D53475F424C45A7
:1089D0005F454E435259505445445F4348414E47CA
:1089E00045445F494E445D2048616E646C65203D9E
:1089F00020307825582C20456E6372797074696F29
:108A00006E5F456E61626C6564203D20307825584C
:108A10000A005B4D53475F424C455F454E435259F8
:108A2000505445445F524546524553485F494E4471
:108A30005D2048616E646C65203D20307825580AC1
:108A4000005B4D53475F424C455F4C4C5F5645526F
:108A500053494F4E5F494E445D204D616E756661CE
:108A60006374757265725F4E616D65203D2030786C
:108A700025582C2048616E646C65203D2030782597
:108A8000582C2056657273696F6E203D2030782512
:108A9000580A005B4D53475F424C455F444953437E
:108AA0004F4E4E45435445445F494E445D20486116
:108AB0006E646C65203D20307825582C20726561ED
:108AC000736F6E203D20307825580A005B4D534768
:108AD0005F424C455F434F4E4E454354494F4E5FB6
