:020000041000EA
:100000004B2A110200000000A4030000EEC3A6E981
:100010007EEEE78880B500F087F90020002100F02F
:100020000DF8292000F00FF8202000F011F800F062
:1000300033F900F013F800F025F980BD4CF2B93C1B
:10004000C0F2000C604747F67D1CC0F2000C604710
:1000500047F6D12CC0F2000C6047000080B54FF08D
:10006000A040012100F075F900060BD1032000F03B
:1000700075F9000606D1012000F075F9000604BFED
:10008000002080BD00F074F94FF47A7000F075F92B
:10009000012080BD2DE9F04381B019B343F2B83897
:1000A0000F4606464FF0FF344FF00009C2F2000839
:1000B0003D46B7F5807F28BF4FF480754FF0A040D4
:1000C000314642462B46CDF8009000F05BF960B90E
:1000D00040462946224600F05AF904467F1B2E442A
:1000E000E6D103E04FF0FF3400E00124204601B0E8
:1000F000BDE8F08310B582B004464FF0000C4FF01D
:10010000A0404FF4805122462023CDF800C000F0DB
:1001100039F9000622D120461C214FF0FF3200F0B1
:1001200036F9E169814219D1E078112816D1A07819
:10013000022813D1E168B1F5002F0FD8606846F2AC
:100140007872C4F26A72904208D1A068FFF7A2FFE9
:100150002169401A18BF012002B010BD012002B071
:1001600010BD00002DE9F0410C4605460E184FF079
:100170000008B4F5803F07D3A8B228B94FF4803700
:100180000321102021E000BFB4F5004F08D328461A
:100190006FF3DF3020B94FF4004702210F2014E045
:1001A00029466FF31F31200BB1FA81F1B8EB143FF0
:1001B00018BF0120490901404FF008004FF4807733
:1001C00018BF0C2018BF4FF4805725FA00F082B2F8
:1001D0004FF0A04047F2305300F0DEF800060BD19C
:1001E0003D44B542A4EB070424BF0020BDE8F081E4
:1001F000B4F5803FC0D2C7E700F0BAF84FF47A7088
:1002000000F0BBF80120BDE8F08100002DE9F047C7
:1002100082B04FF000098AB343F2B83814460E4654
:100220000746C2F2000840F6B83A00BF2546B4F5CA
:10023000807F28BF4FF480754FF0A040394642467A
:100240002B46CDF8009000F09DF890B94FF0A040FB
:10025000314642462B46CDF80090CDF804A000F080
:10026000A0F848B92F44641B2E44DFD14FF0000999
:1002700004E04FF0010901E04FF00109484602B0E7
:10028000BDE8F08780B542F20400C1F200000068CA
:1002900000F08CF880BD0000B0B588B06846FFF76C
:1002A00029FF08B101243CE0DDE90501FFF75AFF11
:1002B00038B100F05DF84FF47A7000F05EF8012478
:1002C0002FE0DDE902020599FFF7A0FF38B100F049
:1002D0004FF84FF47A7000F050F8012421E00399B0
:1002E0000598FFF7D7FE0499884213D14FF0A0403C
:1002F0000021102247F23053002400F04DF805464B
:1003000000F036F828060CD04FF47A7000F035F87B
:10031000012406E000F02CF84FF47A7000F02DF87C
:100320000124204608B0B0BDEC20C6F205000168EB
:100330007F2221F002010160016821F004010160C7
:100340006FF0030143180431342943F8D82CF9D154
:10035000704748F6F57CC0F2000C604747F2613CFC
:10036000C0F2000C604747F21D3CC0F2000C604731
:1003700047F6717CC0F2000C604744F2717CC0F219
:10038000000C604748F69D2CC0F2000C604744F218
:10039000C17CC0F2000C604748F6A10CC0F2000C12
:1003A000604749F2D90CC0F2000C604744F62D0CAE
:1003B000C0F2000C604700000000000000000000D8
:1003C000000000000000000000000000000000002D
:1003D000000000000000000000000000000000001D
:1003E000000000000000000000000000000000000D
:1003F00000000000000000000000000000000000FD
:020000041000EA
:102000000000012055210010692100107B210010E3
:102010008D2100108F210010912100100000000080
:10202000000000000000000000000000D1020000DD
:1020300095210010000000007503000081030000DE
:102040009B2100109D2100109F210010A121001054
:10205000A3210010A5210010A7210010A921001024
:10206000AB210010AD210010AF210010B1210010F4
:10207000B3210010B5210010A13C0020A93C002094
:10208000B13C0020BD210010BF210010C121001073
:10209000C3210010C5210010C7210010C921001064
:1020A000CB210010CD210010CF210010D121001034
:1020B000D3210010D5210010D7210010D921001004
:1020C000DB210010DD210010DF210010E1210010D4
:1020D0001D370020E5210010E7210010E921001044
:1020E000EB210010ED210010EF210010F121001074
:1020F000F3210010F5210010F7210010F921001044
:10210000FB210010FD210010FF2100100122001012
:1021100003220010052200100722001009220010DF
:102120000B2200100D2200100F22001000000000F2
:10213000000000000000000000000000000000009F
:10214000DFF80CD000F070F800480047B14D0020D7
:10215000000001202E4880F308882E4880F30A886A
:102160002D4880472D4800475FEA0E00EFF30881B5
:10217000EFF309822A4B9847FEE75FEA0E00EFF380
:102180000881EFF30982274B9847FEE7FEE7FEE759
:10219000FEE7FEE7FEE7FEE7FEE7FEE7FEE7FEE717
:1021A000FEE7FEE7FEE7FEE7FEE7FEE7FEE7FEE707
:1021B000FEE7FEE7FEE7FEE7FEE7FEE7FEE7FEE7F7
:1021C000FEE7FEE7FEE7FEE7FEE7FEE7FEE7FEE7E7
:1021D000FEE7FEE7FEE7FEE7FEE7FEE7FEE7FEE7D7
:1021E000FEE7FEE7FEE7FEE7FEE7FEE7FEE7FEE7C7
:1021F000FEE7FEE7FEE7FEE7FEE7FEE7FEE7FEE7B7
:10220000FEE7FEE7FEE7FEE7FEE7FEE7FEE7FEE7A6
:102210000000012000F00020592200104121001090
:10222000B93C0020313800201CB50948009009480D
:1022300001900546009C06E0E06840F0010394E848
:10224000070098471034AC42F6D3FFF77DFF00003B
:10225000F42200102423001082B00020019000908E
:1022600042F20001C1F2000100910190FFE70198E4
:102270004A2810D8FFE70098019950F82100019AE8
:1022800043F20001C2F2000141F82200FFE7019889
:1022900001300190EBE743F20000C2F200004EF67D
:1022A0000851CEF2000108604EF68851CEF20001CE
:1022B000086840F4700008604EF61451CEF2000138
:1022C000086840F010000860086840F480700860FA
:1022D00002B0704702E008C8121F08C1002AFAD1F4
:1022E00070477047002001E001C1121F002AFBD196
:1022F000704700002423001000320020A4320000A8
:10230000D4220010C855001000B0002004000000C6
:10231000D4220010CC55001004B00020B8000000FA
:10232000E422001030B50B46014600202022012493
:1023300009E021FA02F59D4205D303FA02F5491B93
:1023400004FA02F52844151EA2F10102F1DC30BDA9
:102350002DE9F05F0546002092469B4688460646DA
:10236000814640241BE0284641464746224600F06D
:10237000E8F953465A46C01A914110D311461846FF
:10238000224600F0CFF92D1A67EB01084F4622468E
:102390000120002100F0C6F917EB00094E41201E74
:1023A000A4F10104DFDC484631462A464346BDE835
:1023B000F09F2DE9FE4F804681EA0300C00F0C46D6
:1023C000009021F0004123F00045B8EB0200A94144
:1023D00005D24046214690461C460B46024623F055
:1023E0000040104347D0270DC7F30A00C3F30A513A
:1023F0000290401A019040286BDAC3F3130040F4B6
:10240000801B0098924620B10023D2EB030A63EBB5
:102410000B0B01985946C0F14002504600F082F97A
:1024200006460D4650465946019A00F09AF910EBBF
:1024300008006141002487EA115284EAE7731A43D5
:1024400040D0009A62B3019A012A4FEA075215DC84
:10245000001B61EB02014FF0004202EA0752CDE996
:102460000042001C41F5801132462B4600F09AF9DB
:1024700003B0BDE8F08F40462146F9E7001B61EB51
:102480000201001C41F5801300185B412018A2F5E1
:10249000001747EB030140EAD570B6196D4111E012
:1024A0006D084FEA360645EAC0754FEA0752001B31
:1024B00061EB0201001C41F5801149084FEA300030
:1024C0000019514132462B4603B0BDE8F04F00F0F1
:1024D0005AB90098012240000023D0EB020263EBBE
:1024E000E073009821464FEAE074B8EB000061EB1E
:1024F0000401E9E783F000435BE781F0004158E71E
:102500002DE9FE4F81EA030404F0004421F000416C
:1025100000944FF0000B23F0004350EA01045ED01A
:1025200052EA03045BD0C3F30A54C1F30A552C44A6
:10253000A4F2F3340194A0FB0254C1F3130141F45B
:102540008011C3F3130343F4801301FB024400FB27
:10255000034E840A970A44EA815447EA8357A4FB4E
:10256000076802958D0A05FB07854FEA932C04FB4B
:102570000C542705029D4FEA065847EA1637B5EB7B
:1025800008056EEB070C870E920E47EA811742EAA8
:102590008312A7FB0201B6EB0B0164EB00042B0DC9
:1025A00043EA0C335E1844EB1C50DA465146E7FB15
:1025B0000201C5F313044FEA0B3343EA14534FEA05
:1025C0000432019C43EA0603A4F10C040294009C2B
:1025D000CDE900B400F0E6F803B0BDE8F08F0020CC
:1025E0000146F9E72DE9F04D81EA030404F0004BC0
:1025F00021F0004514464FF0000A23F0004150EA54
:10260000050220D054EA01021DD0C5F30A57024644
:10261000C5F31303C1F31300C1F30A5640F4801548
:1026200043F48013A7EB0608101BD64608F2FD38CA
:1026300073EB050002D308F1010801E092185B4139
:10264000B8F1000F03DA00200146BDE8F08D00204C
:102650004FF48011064684460EE0171B73EB050706
:1026600005D3121B63EB050306434CEA010C490832
:102670004FEA300092185B4150EA0107EDD152EA6F
:10268000030012D082EA040083EA0501084305D062
:10269000101BAB4106D20122002306E000224FF0BE
:1026A000004302E06FF0010253101AEB06004CEBFE
:1026B000085110EB0A0041EB0B01BDE8F04D00F0B2
:1026C00062B8C1F30A52C1F3130140F2FF3341F47F
:1026D00080119A4202DA00200146704740F23343EB
:1026E0009A42A2F2334202DC524200F02AB800F0D1
:1026F00019B8000030B5041E71F1000404DB4FF07E
:102700000044404264EB0101141E73F1000405DB38
:102710001C464FF00043524263EB0403994208BF4A
:10272000904230BD202A04DB203A00FA02F100205A
:1027300070479140C2F1200320FA03F319439040FF
:102740007047202A04DB203A21FA02F0002170476A
:1027500021FA02F3D040C2F1200291400843194609
:102760007047202A06DBCB17203A41FA02F043EAF1
:10277000E07306E041FA02F3D040C2F1200291403A
:1027800008431946704710B5141E73F1000408DAA7
:10279000401C41F1000192185B411A4301D120F025
:1027A000010010BD2DE9F04D92469B4611B1B1FAE2
:1027B00081F202E0B0FA80F220329046FFF7B2FFD9
:1027C00004460F4640EA0A0041EA0B0153465A46C6
:1027D000084313D0114653EA010019D0C8F1400252
:1027E0005046FFF7AEFF05460E4650465946424654
:1027F000FFF798FF084305D0012004E02046394642
:10280000BDE8F08D0020054346EAE0762C433743CF
:102810000A986305E40AA0EB08000022FD0A44EAD6
:1028200047540A3002D500200146E9E70105101996
:102830006941DDE9084500196941BDE8F04DA2E7AD
:1028400080B586B048F28010C5F2000003900DF10B
:10285000170101F0BAFD03989DF8171001F0BAFDB9
:102860009DF817008007002841D5FFE748F2801047
:10287000C5F20000029005A901F0B1FD029801F037
:10288000B3FD46F27040C2F2000001F061FE00208C
:102890000490FFE70498BDF81410884211DAFFE7AE
:1028A00004994BF26400C2F20000415C46F282409F
:1028B000C2F2000001F04CFEFFE7049801300490E2
:1028C000E8E746F20A40C2F2000001F041FE4BF296
:1028D0006402C2F2000243F20000C6F2000048F2B5
:1028E0008011C5F20001202301F08CF9FFE70020E0
:1028F0008DF8170048F2C010C5F2000001900DF1EC
:10290000170101F062FD01989DF8171001F062FDBA
:102910009DF81700800700281AD5FFE748F2C0107D
:10292000C5F20000009001F05FFD46F27940C2F26E
:10293000000001F00DFE00994BF28402C2F2000289
:1029400043F20000C6F20000202301F0D5F9FFE7B2
:1029500006B080BD80B586B004900391029200F06D
:10296000FBFAEFF308800590059946F28230C2F237
:10297000000001F0EDFD002001909DF8100000071F
:10298000002807D5FFE746F25C20C2F2000001F004
:10299000DFFD06E046F28C20C2F2000001F0D8FD17
:1029A000FFE79DF810004007002809D5FFE746F231
:1029B0007D20C2F2000001F0CBFD0298019008E0FA
:1029C00046F26E20C2F2000001F0C2FD03980190B1
:1029D000FFE746F2A320C2F2000001F0B9FD019822
:1029E000016846F2F120C2F2000001F0B1FD019849
:1029F000416846F2FF20C2F2000001F0A9FD0198F3
:102A0000816846F20D30C2F2000001F0A1FD01988C
:102A1000C16846F21B30C2F2000001F099FD019836
:102A2000016946F24530C2F2000001F091FD0198C3
:102A3000416946F23730C2F2000001F089FD019889
:102A4000816946F22930C2F2000001F081FD01984F
:102A5000C16946F25330C2F2000001F079FD0198DD
:102A6000806900904EF62C50CEF20000006880077E
:102A7000002807D5FFE746F20110C2F2000001F07E
:102A800067FDFFE74EF62C50CEF200000068C00F45
:102A900038B1FFE746F21C10C2F2000001F058FD09
:102AA000FFE74EF62C50CEF20000006840000028F0
:102AB00040F18481FFE746F2EC00C2F2000001F031
:102AC00047FD4EF62850CEF20000006800060028B0
:102AD0006DD0FFE746F2CC00C2F2000001F038FDF5
:102AE0004EF62850CEF200000068C00740B1FFE764
:102AF000009946F2DA10C2F2000001F029FDFFE76A
:102B00004EF62850CEF200000068800700281DD540
:102B1000FFE7009946F26710C2F2000001F018FDCD
:102B20004EF62850CEF200000068000600280CD5B2
:102B3000FFE74EF63450CEF20000016846F24F2017
:102B4000C2F2000001F004FDFFE7FFE74EF6285057
:102B5000CEF2000000680007002807D5FFE745F621
:102B60008A70C2F2000001F0F3FCFFE74EF6285035
:102B7000CEF200000068C006002807D5FFE745F642
:102B8000E070C2F2000001F0E3FCFFE74EF62850CF
:102B9000CEF2000000688006002807D5FFE745F662
:102BA000E960C2F2000001F0D3FCFFE7FFE74EF658
:102BB0002850CEF20000006810F47F4F7DD0FFE770
:102BC00046F21010C2F2000001F0C2FC4EF628508E
:102BD000CEF200000068C005002807D5FFE745F6E3
:102BE0000F60C2F2000001F0B3FCFFE74EF6285080
:102BF000CEF200000068800500281DD5FFE700998F
:102C000046F23010C2F2000001F0A2FC4EF628504D
:102C1000CEF200000068000400280CD5FFE74EF655
:102C20003850CEF20000016846F24F20C2F2000098
:102C300001F08EFCFFE7FFE74EF62850CEF20000D1
:102C400000684005002807D5FFE745F6A350C2F20B
:102C5000000001F07DFCFFE74EF62850CEF20000A8
:102C600000680005002807D5FFE746F23400C2F2ED
:102C7000000001F06DFCFFE74EF62850CEF2000098
:102C80000068C004002807D5FFE746F28100C2F2C1
:102C9000000001F05DFCFFE74EF62850CEF2000088
:102CA00000688004002807D5FFE745F63D70C2F2B2
:102CB000000001F04DFCFFE7FFE74EF62850CEF292
:102CC00000000068000C002877D0FFE746F2DE0025
:102CD000C2F2000001F03CFC4EF62850CEF200009B
:102CE0000068C003002807D5FFE745F62D50C2F263
:102CF000000001F02DFCFFE74EF62850CEF2000058
:102D000000688003002807D5FFE745F6AB60C2F2F4
:102D1000000001F01DFCFFE74EF62850CEF2000047
:102D200000684003002807D5FFE745F6FE40C2F2E1
:102D3000000001F00DFCFFE74EF62850CEF2000037
:102D400000680003002807D5FFE745F63D60C2F2A2
:102D5000000001F0FDFBFFE74EF62850CEF2000028
:102D60000068C002002807D5FFE745F67E60C2F282
:102D7000000001F0EDFBFFE74EF62850CEF2000018
:102D80000068C001002807D5FFE745F6DB50C2F216
:102D9000000001F0DDFBFFE74EF62850CEF2000008
:102DA00000688001002807D5FFE745F66750C2F2AA
:102DB000000001F0CDFBFFE7FFE7FFE700F08AF836
:102DC000FFE7FEE780B500F0DDF980BD80B500F0DB
:102DD000D9F980BD80B500F0D5F980BD80B584B04B
:102DE00003900291019200F0B7F80399029A019BB7
:102DF00046F2BF20C2F2000001F0AAFB00F06AF820
:102E0000FFE7FEE780B586B0DDF820C004900391AF
:102E1000029201930298B0F1C04F10D0FFE70298E0
:102E200040F20041C6F20001884208D0FFE7029854
:102E300040F60001C6F20001884210D1FFE7049875
:102E40004BF20001C6F2040188420CD0FFE704985F
:102E50004BF28001C6F20401884204D0FFE7102043
:102E60008DF8170031E008994BF2A400C2F200007F
:102E70000160006860B1FFE74BF2B201C2F20001ED
:102E8000002008804BF2B001C2F200010880FFE789
:102E900002984BF2AC01C2F20001086004984BF2B8
:102EA000A801C2F20001086003984BF2B401C2F21B
:102EB0000001086001984BF2B801C2F200010860FD
:102EC00000F04AF88DF81700FFE79DF8170006B0EC
:102ED00080BD000080B582B04BF2A400C2F20000B9
:102EE000006808B9FFE735E0FFE74BF2B200C2F235
:102EF000000000884BF2B001C2F20001098888424C
:102F000028D0FFE74BF2AC00C2F2000000684BF2A1
:102F1000A401C2F200010091096809684BF2B202F3
:102F2000C2F2000201921288895C01F062FA0099F3
:102F300001980288013202800088096889888842E5
:102F400007DBFFE74BF2B201C2F20001002008806C
:102F5000FFE7CAE702B080BD80B584B04BF2AC0099
:102F6000C2F200000068B0F1C04F13D1FFE72B2080
:102F700001F044FA4BF2A800C2F2000000684BF2E4
:102F8000B401C2F200010968042201F03CFA8DF894
:102F90000E0032E04BF2AC00C2F20000006840F2DA
:102FA0000041C6F20001884213D1FFE72C2001F056
:102FB00025FA4BF2A800C2F2000000684BF2B401FF
:102FC000C2F200010968082201F01DFA8DF80E0016
:102FD00012E02D2001F012FA4BF2A800C2F200001C
:102FE00000684BF2B401C2F2000109680C2201F042
:102FF0000AFA8DF80E00FFE7FFE7FFE79DF80E00E5
:1030000028B1FFE79DF80E008DF80F0030E0FFE7D4
:103010004BF2A800C2F2000000684BF2B401C2F209
:1030200000010968022201F0F3F98DF80E00FFE7B4
:103030009DF80E0028B1FFE79DF80E008DF80F00F7
:1030400016E0FFE74BF2B800C2F200000068019002
:1030500043F22100C0F2011002904BF2AC00C2F228
:103060000000006801A901F0D8F98DF80F00FFE712
:103070009DF80F0004B080BD80B584B0039002912C
:103080004BF2A400C2F20000006870B9FFE7039899
:103090008DF807004BF2AC00C2F2000000680DF1A1
:1030A0000701012201F0BEF91FE0039A4BF2A401CF
:1030B000C2F20001086803684BF2B000C2F20000DF
:1030C000B0F800C003F80C200288013202800088AA
:1030D00009688988884207DBFFE74BF2B001C2F23A
:1030E000000100200880FFE7FFE7039804B080BDDF
:1030F00080B500F0ADF880BD80B588B01C208DF89B
:103100001D001A208DF81F001B208DF81E009DF851
:103110001D0001F073F99DF81F204BF28000C6F2EC
:10312000040006904FF40071019101F06CF90698CB
:103130009DF81E208021029101F065F90199069801
:103140000022039201F064F90299039A069801F0B3
:103150005FF9039A06984FF48061049101F053F9E6
:10316000049906980122059201F061F90499059AE3
:10317000069801F061F90499059A069801F061F941
:1031800008B080BD80B584B00020ADF80C0043F2DB
:103190000000C6F200000DF10E0101F057F9BDF874
:1031A0000E000006002849D5FFE7FFE743F2340090
:1031B000C6F2000001680020019041B1FFE7BDF8B0
:1031C0000C1000202029B8BF01200190FFE70198D2
:1031D000C00780B1FFE743F20400C6F200000068B8
:1031E000BDF80C20511CADF80C104BF26401C2F27A
:1031F00000018854DAE7BDF80C00F0B1FFE70020C9
:103200000290FFE70298BDF80C10884211DAFFE740
:1032100002994BF26400C2F20000415C46F2824027
:10322000C2F2000001F094F9FFE702980130029029
:10323000E8E70020ADF80C00FFE7FFE7BDF80E104F
:1032400043F20000C6F2000001F005F904B080BDB1
:1032500010B588B000F0A8F9322001F001F900F0B3
:10326000B9F88DF81F009DF81F0050B1FFE79DF8D9
:103270001F1046F25340C2F2000001F069F908B095
:1032800010BD00F0B1FDFFE74BF22402C2F20002D4
:103290002220107069460020086043F20000C6F248
:1032A000000048F2C011C5F20001012300F06AFBE2
:1032B0008DF81E009DF81E0090B1FFE79DF81E10CE
:1032C00046F23C40C2F2000001F042F943F2000035
:1032D000C6F2000000F022FF642001F0C1F8D3E73D
:1032E000322001F0C2F86946002008604BF2040267
:1032F000C2F2000243F20000C6F2000048F2801160
:10330000C5F200010C2300F08DF98DF81E009DF828
:103310001E0090B1FFE79DF81E1046F22640C2F253
:10332000000001F015F943F20000C6F2000000F0C1
:10333000F5FE642001F094F8A6E743F20000C6F21F
:10334000000000F0EBFE4BF20401C2F20001039119
:103350000878CA7940EA0220ADF81C0088784A7AD9
:1033600040EA0220ADF81A000879CA7A40EA022041
:10337000ADF818008879CA7940EA0220ADF8160045
:10338000087A4A7A40EA0220ADF81400887AC97AAD
:1033900040EA0120ADF81200BDF91C10BDF91A2059
:1033A000BDF91830BDF91600BDF914E0BDF91240A1
:1033B000EC46CCF80840CCF804E0CCF8000046F22B
:1033C0000C40C2F2000001F0C3F8642001F048F89C
:1033D0005AE7000080B586B007208DF8150006205A
:1033E0008DF81400172001F009F88DF81600FFE79A
:1033F0009DF8160028B1FFE79DF816008DF817001C
:10340000CEE0FFE79DF815008DF81000C82002906F
:1034100043F20400C6F2000000904BF20400C2F236
:10342000000001902020ADF80C00BDF80E0020F047
:103430000100ADF80E00BDF80E0020F00200ADF85E
:103440000E00BDF80E0040F0080020F00400ADF8BA
:103450000E00BDF80E0020F03000ADF80E00BDF8F3
:103460000E0040F04000ADF80E00BDF80E0020F454
:10347000C070ADF80E00BDF80E0020F40070ADF87D
:103480000E00BDF80E0020F48060ADF80E00BDF80F
:103490000E0020F40060ADF80E00BDF80E0020F420
:1034A0008050ADF80E0048F28010C5F20000694669
:1034B00000F0E0FF8DF81600FFE79DF8160028B138
:1034C000FFE79DF816008DF8170069E0FFE79DF80B
:1034D00014008DF81000C82002904BF22400C2F2B4
:1034E0000000009043F20000C6F20000019020208E
:1034F000ADF80C00BDF80E0020F00100ADF80E0094
:10350000BDF80E0020F00200ADF80E00BDF80E0070
:1035100040F0040020F00800ADF80E00BDF80E00E9
:1035200020F03000ADF80E00BDF80E0020F0400095
:10353000ADF80E00BDF80E0020F4C070ADF80E001E
:10354000BDF80E0040F40070ADF80E00BDF80E009E
:1035500020F48060ADF80E00BDF80E0020F400608D
:10356000ADF80E00BDF80E0020F48050ADF80E004E
:1035700048F2C010C5F20000694600F07BFF8DF8EC
:103580001600FFE79DF8160028B1FFE79DF816002A
:103590008DF8170004E0FFE700208DF81700FFE723
:1035A0009DF8170006B080BD80B584B0FFF7A4FD7C
:1035B000642001906A20ADF808009DF80E0000F02C
:1035C000FD008DF80E009DF80E0040F001008DF812
:1035D0000E009DF80E0000F0F30008308DF80E008C
:1035E0009DF80E0040F010008DF80E0043F2000030
:1035F000C6F2000001A900F042FF00200090FFE7A2
:1036000000981F280BDCFFE700984BF22401C2F260
:1036100000010854FFE7009801300090F0E704B083
:1036200080BD000080B58EB084461098CDF830C0C3
:103630000B910A92ADF826308DF825000C9843F2D4
:103640000001C6F20001884218D0FFE70C9843F24F
:103650000041C6F20001884210D0FFE70C9843F603
:103660000001C6F20001884208D0FFE70C9843F63B
:103670000041C6F2000188420AD1FFE70B9838B139
:10368000FFE7BDF8260018B1FFE70A9820B9FFE769
:1036900001208DF8370070E10C980121059100F0B0
:1036A000F3FE0C98022100F0F4FE0C9800F0F6FEF8
:1036B00005980C9A202191640C9A4FF6FF711161C4
:1036C0000C9948640C9908640020ADF82000BDF8FE
:1036D0002600112803DBFFE71020049003E0BDF86B
:1036E00026000490FFE704988DF823000C989DF8BD
:1036F000231000F0D8FE0C980121039100F0D8FEB1
:1037000003980C99886400200790FFE70C98C06B21
:1037100000F01F0100200929029012D0FFE70C9849
:10372000C06B00F01F0100200A29029009D0FFE7BA
:103730000C98C06B00F01F000F3818BF01200290DA
:10374000FFE70298C007D0B1FFE70C98C06B00F00C
:103750001F000D2804D1FFE702208DF837000CE18F
:10376000079801300790B0F5FA6F04D3FFE7042003
:103770008DF8370001E1012000F077FEC6E7FFE792
:10378000BDF82000BDF82610884280F2B280FFE725
:1037900000200790FFE70C98C06B00F01F000F2877
:1037A00015D0FFE7079801300790B0F5FA6F0AD3FC
:1037B000FFE70C99082088640C9902208864042093
:1037C0008DF83700D9E0012000F04FFEE3E7BDF8A7
:1037D0002600BDF82010401A9DF8231088421CDDF9
:1037E000FFE7BDF82600BDF82010401A9DF8231011
:1037F000401A112803DBFFE71020019009E0BDF813
:103800002600BDF82010401A9DF82310401A0190A0
:10381000FFE701988DF8220003E000208DF82200D8
:10382000FFE70C989DF8221000F03DFE0C98043044
:103830000B9948610A98BDF8201008440B998861DB
:103840000B98C0680690BDF81A00000406909DF819
:10385000231006980843069006980B99C8600B98A9
:103860003F2100F0B7FD0B98022100F026FE0B98D7
:1038700000F028FE00200790FFE700208DF82400CC
:103880000B9809A900F0A1FD9DF8240080070028ED
:1038900001D5FFE717E0079801300790B0F5FA6F00
:1038A0000DD3FFE70B9800F09FFD0C99082088646A
:1038B0000C990220886404208DF837005DE0012017
:1038C00000F0D3FDD9E70B983F2100F083FD0B9862
:1038D00000F08AFD9DF82310BDF820000844ADF8E3
:1038E00020009DF822008DF82300052000F0BDFD8A
:1038F00046E70C990820886400200790FFE70C98A1
:10390000C06B00F01F000D280FD0FFE707980130B3
:103910000790B0F5FA6F04D3FFE704208DF8370065
:103920002BE0012000F0A1FDE9E79DF82500D8B1CA
:10393000FFE70C990220886400200790FFE70C98AD
:10394000C06BC00678B1FFE7079801300790B0F56B
:10395000FA6F04D3FFE704208DF837000DE0012053
:1039600000F083FDEBE7FFE70C984FF6FF7100F0E6
:1039700072FD00208DF83700FFE79DF837000EB08C
:1039800080BD000080B58AB084460C98CDF820C078
:1039900007910692ADF816308DF81500089843F29D
:1039A0000001C6F20001884218D0FFE7089843F2F0
:1039B0000041C6F20001884210D0FFE7089843F6A4
:1039C0000001C6F20001884208D0FFE7089843F6DC
:1039D0000041C6F2000188420AD1FFE7079838B1DA
:1039E000FFE7BDF8160018B1FFE7069820B9FFE71A
:1039F00001208DF8270001E108980121029100F0D3
:103A000043FD0299089800F044FD089800F046FD37
:103A10000298089A20219164089A4FF6FF7111616B
:103A200008994864089908640698079948610898B5
:103A3000079988610798C0680390BDF80E000004DC
:103A40000390BDF816100398084303900398079954
:103A5000C86007983F2100F0BDFC0798022100F0E4
:103A60002CFD079800F02EFD02980899886400202C
:103A70000490FFE70898C06B00F01F0100200729A1
:103A8000019012D0FFE70898C06B00F01F010020E2
:103A90000E29019009D0FFE70898C06B00F01F00C5
:103AA000083818BF01200190FFE70198C00700B354
:103AB000FFE70898C06B00F01F000D2807D1FFE753
:103AC000079800F091FC02208DF8270096E00498FA
:103AD00001300490B0F5FA6F07D3FFE7079800F0C4
:103AE00083FC04208DF8270088E0012000F0BDFC55
:103AF000C0E700200490FFE700208DF8140007982D
:103B000005A900F062FC9DF814008007002801D58B
:103B1000FFE711E0049801300490B0F5FA6F07D385
:103B2000FFE7079800F060FC04208DF8270065E0AF
:103B3000012000F09AFCDFE707983F2100F04AFCE3
:103B4000079800F051FC00200490FFE70898C06B34
:103B500000F01F0100200E29009009D0FFE708980F
:103B6000C06B00F01F000D3818BF01200090FFE768
:103B70000098C00778B1FFE7049801300490B0F5D1
:103B8000FA6F04D3FFE704208DF8270036E0012008
:103B900000F06BFCDAE70898C06B00F01F000D28FE
:103BA00004D1FFE703208DF8270027E09DF81500DA
:103BB000D8B1FFE708990220886400200490FFE74D
:103BC0000898C06BC00678B1FFE7049801300490F4
:103BD000B0F5FA6F04D3FFE704208DF827000DE05D
:103BE000012000F042FCEBE7FFE708984FF6FF7179
:103BF00000F031FC00208DF82700FFE79DF827003A
:103C00000AB080BD80B588B0069005910492ADF8E9
:103C10000E30069850B1FFE7059838B1FFE70498D9
:103C200020B1FFE7BDF80E0020B9FFE710208DF8A6
:103C30001F005CE0069804300599486104980599D6
:103C400088610598C0680290BDF80A0000040290DF
:103C5000BDF80E1002980843029002980599C860BA
:103C60000698012100F024FC8DF80700FFE79DF87D
:103C7000070028B1FFE79DF807008DF81F0036E028
:103C8000FFE705983F2100F0A5FB8DF80700FFE74F
:103C90009DF8070028B1FFE79DF807008DF81F0089
:103CA00025E0FFE70598022100F007FC8DF80700EA
:103CB000FFE79DF8070028B1FFE79DF807008DF8A2
:103CC0001F0014E0FFE7059800F0FCFB8DF80700EB
:103CD000FFE79DF8070028B1FFE79DF807008DF882
:103CE0001F0004E0FFE700208DF81F00FFE79DF8AC
:103CF0001F0008B080BD000080B588B00690059117
:103D00000492ADF80E30069850B1FFE7059838B12F
:103D1000FFE7049820B1FFE7BDF80E0020B9FFE7E8
:103D200010208DF81F005BE0049805994861069803
:103D3000059988610598C0680290BDF80A000004E2
:103D40000290BDF80E10029808430290029805995F
:103D5000C86005983F2100F03DFB8DF80700FFE7A4
:103D60009DF8070028B1FFE79DF807008DF81F00B8
:103D700036E0FFE70598022100F09FFB8DF8070071
:103D8000FFE79DF8070028B1FFE79DF807008DF8D1
:103D90001F0025E0FFE70598002100F098FB8DF853
:103DA0000700FFE79DF8070028B1FFE79DF807002F
:103DB0008DF81F0014E0FFE7059800F083FB8DF8F5
:103DC0000700FFE79DF8070028B1FFE79DF807000F
:103DD0008DF81F0004E0FFE700208DF81F00FFE7CB
:103DE0009DF81F0008B080BD80B582B000208DF81E
:103DF00007000F200DF10701012200F017F89DF8D0
:103E000007006A2807D0FFE746F28840C2F20000A8
:103E100000F09EFB07E01020402100F041F8322026
:103E200000F01EFBFFE702B080BD000080B586B049
:103E30008DF813000391ADF80A209DF813004BF2A2
:103E40004401C2F20001087043F20000C6F2000013
:103E50000122002300F096F90190019818B1FFE7C4
:103E60000198059018E00399BDF80A2043F200007C
:103E7000C6F20000002300F045F80190019818B147
:103E8000FFE70198059007E043F20000C6F200004A
:103E900000F044F90590FFE7059806B080BD0000EA
:103EA00080B582B08DF807008DF806109DF80700E8
:103EB0004BF24401C2F2000108709DF80600487000
:103EC00043F20000C6F200000222012300F05AF97A
:103ED00002B080BD80B582B0002001904EF200009B
:103EE000C6F2040000F0F8FA642000F0B9FA00F01D
:103EF0005BFA012000F020FA00F004FAFFF7F8F86E
:103F0000FFE7FEE72DE9F04F81B00446A0F1C04085
:103F1000A0F540504FEAB020032882BF012001B035
:103F2000BDE8F08F0F4600294FF001001CBF9146FD
:103F3000002A02D101B0BDE8F08F20460121009394
:103F4000012500F0A1FA2046022100F0A2FA204645
:103F500000F0A4FA2020A0644FF6FF704E462061C6
:103F600065642564B9F1100F28BF1026F1B2204610
:103F700000F099FAA9EB060AA5646425E06B00F04D
:103F80001F00092834D0E06B00F01F000A282FD052
:103F9000012000F06AFAE06B00F01F000D2818BF46
:103FA000B5F10105EAD1E06B00F01F000D280CD03F
:103FB000642500BF013D00F0AC80012000F055FAFF
:103FC000E06B00F01F000D28F4D10220A064E16B2B
:103FD000C906AFD0642500BF013D00F09A800120E2
:103FE00000F043FAE06BC0064FF00200F4D1A1E705
:103FF000B9F1000F3ED04FF0000B4FF080080025C4
:1040000008E000BF052000F030FA4FF0000BA8B226
:1040100048452FD2E06B00F01F000F280ED15FEA59
:104020000A4014D01FFA8AF62046102E28BF102608
:10403000F1B200F038FAAAEB060A0EE0012000F017
:1040400014FABBF5FA6F40D20BF1010BDFE7204603
:1040500000214FF0000A00F026FAA0680006D1D532
:104060006068A9B201357854C4F81080A0680006D1
:10407000F6D4C7E70820A064E06B00F01F000D280D
:104080000AD06425013D44D0012000F0EEF9E06B38
:1040900000F01F000D28F5D1009868B10220A0643F
:1040A000E06BC00608D06425013D32D0012000F04D
:1040B000DCF9E06BC006F7D120464FF6FF7100F047
:1040C000CAF9002001B0BDE8F08F0820A064E06BC1
:1040D00000F01F000D280BD0642500BF013D18D053
:1040E000012000F0C2F9E06B00F01F000D28F5D1AF
:1040F0000220A064E06BC0060BD06425013D08D00F
:10410000012000F0B2F9E06BC0064FF00400F5D1D9
:1041100010E7042001B0BDE8F08F0000B0B5044600
:10412000A0F1C040A0F540504FEAB020032884BF62
:104130001020B0BDE06B00F01F000A280BD0E06B30
:1041400000F01F000E2806D0E06B00F01F000D28C5
:104150001CBF0120B0BD0220A064E06BC00604BFFC
:104160000020B0BD642500BF013D04BF0320B0BDE9
:10417000012000F07AF9E06BC00604BF0020B0BD5A
:10418000F2E700002DE9F0470446A0F1C040A0F599
:1041900040504FEAB020032884BF0120BDE8F087DB
:1041A0000F4600294FF001001CBF9246002A01D1A2
:1041B000BDE8F087204601219846012500F064F90A
:1041C0002046012100F065F9204600F067F9202023
:1041D000A0644FF6FF70206165642564A5646425C2
:1041E000E06B00F01F0007283BD0E06B00F01F00E1
:1041F0000E2836D0E06B00F01F00082831D00120D7
:1042000000F033F9E06B00F01F000D2818BFB5F186
:104210000105E5D1E06B00F01F000D280AD06425F0
:10422000013D1BD0012000F020F9E06B00F01F00E1
:104230000D28F5D10220A064E16BC906B8D0642531
:10424000013D0BD0012000F010F9E06BC0064FF0EB
:10425000020008BFBDE8F087013DF3D10420BDE8AE
:10426000F087BAF1000F30D000254FF4005902E07A
:104270000135554529D0785D2060A068800409D4B7
:1042800040F2D176013E1BD0012000F0EEF8A0688C
:104290008004F7D5C4F81090E06B00F01F000E28E2
:1042A000E6D06426013E04BF0320BDE8F08701206C
:1042B00000F0DBF8E06B00F01F000E28F2D1D7E72A
:1042C0000220A0640420BDE8F087B8F1000F10D0F0
:1042D0000220A064E06BC0060BD06425013D04BF42
:1042E0000420BDE8F087012000F0BFF8E06BC006B5
:1042F000F4D120464FF6FF7100F0ADF80020BDE884
:10430000F087000080B582B00120002201921146A2
:1043100000F0E7F80198694608604BF20000C6F229
:1043200004004FF000514FF0C0424FF4E133FEF76C
:1043300069FD02B080BD000080B582B08DF8070035
:1043400000208DF806000F200DF10601012200F07B
:10435000CDF89DF8060020B9FFE7562000F0CBF815
:10436000FFE710200DF10601012200F0BFF89DF8D3
:10437000060028B1FFE79DF8060000F0C1F803E051
:10438000A92000F0BDF8FFE7002000F0BEF80321EF
:104390006422084600F0BEF89DF8070040F6C411FC
:1043A00000F0BDF802B080BD80B582B0022000F000
:1043B000BBF80020019000F0BCF8019800F0BEF8B6
:1043C000019800F0C0F802B080BD48F21D2CC0F288
:1043D000000C604748F2590CC0F2000C604748F2EC
:1043E000C52CC0F2000C604748F2AD0CC0F2000CC6
:1043F00060474DF67D7CC0F2000C604747F67D1C9F
:10440000C0F2000C604749F6210CC0F2000C604776
:1044100049F69D0CC0F2000C60474DF6656CC0F289
:10442000000C60474EF2CD1CC0F2000C604749F210
:10443000F16CC0F2000C604749F2716CC0F2000CE4
:10444000604749F2F97CC0F2000C604749F6013C34
:10445000C0F2000C604749F6812CC0F2000C6047A6
:1044600044F2717CC0F2000C604744F2817CC0F2DF
:10447000000C604748F2653CC0F2000C604749F60A
:104480009D4CC0F2000C60474AF22D3CC0F2000C7B
:1044900060474AF2112CC0F2000C604749F67D4C8F
:1044A000C0F2000C60474AF2911CC0F2000C604759
:1044B0004AF25D3CC0F2000C604748F2351CC0F285
:1044C000000C604748F2151CC0F2000C604748F22F
:1044D000195CC0F2000C60474FF6310CC0F2000CC2
:1044E00060474CF2113CC0F2000C604748F20D7C72
:1044F000C0F2000C60474AF6596CC0F2000C6047ED
:104500004AF6696CC0F2000C60474AF6B13CC0F252
:10451000000C604745F6651CC0F2000C604745F68C
:10452000295CC0F2000C60474AF67D5CC0F2000CCA
:1045300060474AF6A95CC0F2000C60474AF6FD5C91
:10454000C0F2000C604745F6214CC0F2000C6047F9
:104550000FB4054B10B503A9044A029800F0CAF83D
:1045600010BC5DF814FB0000553F002000B0002097
:104570002DE9FF5F82B00021DDE90430020DDDF896
:1045800040B0034318D044F61050A2F2FF32424329
:104590001514119801281FD0A5EB0B00401C5FEAF1
:1045A000000A4FF000064E4FDFF83891B0465046F3
:1045B00015D5CAF1000413E0119801244AA301287B
:1045C00001D16FEA0B010298119AC0E90031C0E9EC
:1045D000024206B0BDE8F09FCBF10000DFE70446E1
:1045E0000021404A491842EB0450CDE9001012E086
:1045F000E00707D032463B4640464946FDF780FF7C
:104600008046894632463B4610461946FDF778FFFC
:1046100006460F466410002CEAD1DDE90401DDE90D
:104620000023BAF1000F06DAFDF76AFF42464B4657
:10463000FDF766FF05E0FDF7D5FF42464B46FDF767
:10464000D1FF04460E460022284BFEF753F803D84C
:104650004FF0FF30014607E00022254B204631464F
:10466000FDF7A7FEFEF72DF8102409E0002C0ADB69
:104670000A220023FDF76CFE039B30321A55641E9C
:1046800050EA0102F2D1641C039AC4F111031444EC
:10469000119A012A03D0012208430DD10AE00843F0
:1046A00004D000204FF0110B119072E7A3EB0B0523
:1046B0006D1E0DE05B4504DD4FF0000205F10105C4
:1046C00004E003DA4FF00002A5F10105002AECD066
:1046D00002981199C0E90231C0E9004579E700006C
:1046E000000014400000F03F300000000000F043E4
:1046F0000000E03F2DE9FF4F95B09B4689460646F6
:1047000000250FE2252877D100242746F84A012109
:10471000059400E0044316F8013F203B01FA03F042
:104720001042F7D130782A2811D06FF02F0330785B
:10473000A0F13002092A16D8059A44F0020402EBCF
:10474000820203EB42021044761C0590EFE759F811
:10475000042B0592002A03DA504244F400540590D9
:1047600044F00204761C30782E2816D116F8010F7A
:1047700044F004042A280DD06FF02F023078A0F105
:104780003003092B09D807EB870302EB4303C71853
:10479000761CF3E759F8047B761C30786C280FD030
:1047A00006DC4C2817D068280DD06A2814D104E004
:1047B000742810D07A280FD10DE044F400140AE0D8
:1047C00044F4801401E044F440147278824202D12F
:1047D00004F58014761C761C307866280BD013DC28
:1047E000582877D009DC002875D04528F6D046280F
:1047F000F4D047281AD19DE118E0632835D0642809
:1048000079D0652812D195E1702873D008DC67282B
:10481000F1D069286FD06E280DD06F2806D1B5E091
:1048200073282CD0752875D0782874D05A461799DB
:1048300090476D1C75E1C4F30250022809D003288B
:104840000DD0D9F8001004280DD00D6009F104092D
:1048500067E1D9F80010EA17C1E90052F6E7D9F884
:1048600000100D80F2E70D70F0E719F8041B8DF8C9
:10487000001000208DF80100EA46012003E059F8FD
:1048800004AB4FF0FF3061074FF0000102D40DE0A0
:1048900008F101018846B9420FDA8045F8DB1AF8C1
:1048A00008100029F4D108E008F10101884681428E
:1048B000FADB1AF808100029F6D105985B46A0EB40
:1048C000080721463846179A00F094FA284400EB6E
:1048D000080507E04DE029E10DE01AF8010B5A4602
:1048E00017999047B8F10108F7D25B462146384640
:1048F000179A13E142E00A220092C4F302524FF0E9
:10490000000A022A08D059F804CB032A4FEAEC71B6
:104910000AD00DE029E02AE009F1070121F00702A1
:10492000F2E802C1914609E00FFA8CFC4FEAEC7103
:10493000042A03D14FFA8CFC4FEAEC71002907DA04
:104940000A460021DCF1000C61EB02012D2202E09D
:10495000220504D52B228DF80420012203E0E20772
:1049600001D02022F7E7904659E00A2102E0102208
:104970000DE010214FF0000A00910BE010224FF0E3
:10498000000A44F004040827009203E008224FF0D4
:10499000000A0092C4F30252022A05D059F804CB4F
:1049A0000021032A08D009E009F1070121F00702DC
:1049B000F2E802C1914605E01FFA8CFC042A01D1FD
:1049C0000CF0FF0C4FF00008220728D5702806D005
:1049D000009B83F0100353EA0A0305D00EE0402247
:1049E0008DF80420012208E05CEA010206D03022A2
:1049F0008DF804208DF8050002229046009B83F07C
:104A0000080353EA0A030AD15CEA010201D16207F2
:104A100005D530228DF804204FF001087F1E58285C
:104A200004D034A003900EA802900DE036A0F9E760
:104A300053466046009AFDF78BFC84460398825CDF
:104A40000298401E029002705CEA0100F0D10298C8
:104A500006A9081A00F1200A600702D524F4803460
:104A600000E00127574502DDA7EB0A0000E0002027
:104A700000EB0A01009005984144401A0590E003BC
:104A800006D45B462146179A059800F0B3F9054411
:104A9000002706E001A85A46C05D179990476D1C93
:104AA0007F1C4745F6DBE0030CD55B462146179A91
:104AB000059800F09FF9054404E030205A46179904
:104AC00090476D1C0099481E00900029F5DC08E015
:104AD000029802995A460078491C0291179990470A
:104AE0006D1CBAF10001AAF1010AF1DC65E10000D8
:104AF00009280100303132333435363738396162B4
:104B00006364656600000000303132333435363777
:104B100038394142434445460000000000F058F94E
:104B20000544761C307800287FF4ECAD19B0284697
:104B3000BDE8F08F620700D4062709F1070222F0D2
:104B4000070CFCE80223E14603F000485FEA080C8A
:104B500002D00FF2702C0DE05FEA045C02D50FF278
:104B6000682C07E05FEAC47C02D00FF2602C01E001
:104B7000AFF2700C4FF0FF3823F00043CDF850C077
:104B800065280CD006DC452809D046281DD04728CA
:104B90003DD13DE0662818D067287ED138E000215D
:104BA000112F01DB112000E0781CCDE9000106A9DE
:104BB0000EA8FFF7DDFCDDE90F010E9A039100213D
:104BC000009207F1010A04914DE04FF00040009778
:104BD000CDE9011006A90EA8FFF7CAFCDDE90F0216
:104BE00003920E9B11990022DDF80CA00093049211
:104BF00011B9791C00EB010AB7EB0A0004D4C0F12B
:104C0000FF3007F1010A0490AAEB0700019044E08D
:104C1000012F00DA01270021112F01DD112000E012
:104C20003846CDE9000106A90EA8FFF7A1FCDDE991
:104C30000F010E9A0391002104910092BA462107B8
:104C40000CD40399514500DA8A46BAF1010F05DD0B
:104C5000009AAAF10101515C302908D0B84202DA69
:104C600010F1040F06DA0121CDE9011015E0AAF1D7
:104C70000101E9E7002805DC049901440491AAEB4D
:104C8000000102E0411C514500DD8A460499401AAA
:104C9000401C01904FF000400290200704D401987E
:104CA000504501DBCDF8048000208DF84F000298BC
:104CB0000DF14F07B0F1004F25D02B200E90029838
:104CC0004FF0020800280CDA404202902D200E908E
:104CD00007E00A210298FDF725FB3031029007F822
:104CE000011DB8F10001A8F10108F2DC02980028CA
:104CF000EFD1791E0E980870307800F0200040F057
:104D0000450007F8020D12A8C01B00F1070814980F
:104D1000007800B1012000EB0A01019801EBE0717D
:104D200005984144401A401E0590E00306D45B46B6
:104D30002146179A059800F05DF80544149800780C
:104D400018B15A46179990476D1CE00324D55B466D
:104D50002146179A059800F04DF805441CE0049888
:104D6000002807DBDDE90301884203DD0098405C91
:104D7000179901E0179930205A469047049805F199
:104D80000105401C04900198401E019004D12E2082
:104D90005A46179990476D1CBAF10001AAF1010A11
:104DA000DDDC05E017F8010B5A46179990476D1C9A
:104DB000B8F10001A8F10108F4DC5B462146179A1E
:104DC0000598ABE62D0000002B000000200000003D
:104DD0002DE9F041044600251E461746880404D4F8
:104DE00005E039462020B0476D1C641EF9D52846E1
:104DF000BDE8F0812DE9F041044600251E469046AD
:104E0000C80301D5302700E02027880404D505E039
:104E100041463846B0476D1C641EF9D52846BDE8AA
:104E2000F0815B494E5650435D616E20696E74653A
:104E3000677269747920636865636B206572726F4D
:104E40007220686173206F636375727265640D0A06
:104E5000005B554E444546494E5354525D616E20A9
:104E6000756E646566696E656420696E73747275CB
:104E70006374696F6E206572726F7220686173204F
:104E80006F636375727265640D0A005B4449564234
:104E9000595A45524F5D616E20696E74656765723F
:104EA000206469766973696F6E206279207A657211
:104EB0006F206572726F7220686173206F63637513
:104EC000727265640D0A005B494D50524543495367
:104ED0004552525D496D7072656369736520646106
:104EE000746120616363657373206572726F7220F1
:104EF000686173206F636375727265640D0A005B8D
:104F0000554E414C49474E45445D616E20756E617A
:104F10006C69676E65642061636365737320657295
:104F2000726F7220686173206F636375727265645B
:104F30000D0A005B494255534552525D696E7374C8
:104F400072756374696F6E20627573206572726F1B
:104F50007220686173206F636375727265640D0AF5
:104F6000005B4E4F43505D6120636F70726F6365ED
:104F700073736F722064697361626C6564206F7211
:104F8000206E6F742070726573656E742065727226
:104F90006F7220686173206F636375727265640D50
:104FA0000A005B53544B4F465D6120737461636B21
:104FB000206F766572666C6F77206572726F7220F3
:104FC000686173206F636375727265640D0A005BBC
:104FD000494E5653544154455D20616E204550530F
:104FE000522E54206F7220455053522E4954207631
:104FF000616C6964697479206572726F722068618E
:1050000073206F636375727265640D0A005B4D4CAB
:1050100053504552525D41204D656D4D616E616743
:1050200065206661756C74206F6363757272656468
:1050300020647572696E6720666C6F6174696E6753
:105040002D706F696E74206C617A7920737461744D
:105050006520707265736572766174696F6E0D0A92
:10506000005B4C53504552525D412062757320667F
:1050700061756C74206F636375727265642064750A
:1050800072696E6720666C6F6174696E672D706FF0
:10509000696E74206C617A79207374617465207014
:1050A0007265736572766174696F6E0D0A005B4D8F
:1050B000554E53544B4552525D556E737461636B3C
:1050C00020666F7220616E20657863657074696F09
:1050D0006E2072657475726E2068617320636175ED
:1050E000736564206F6E65206F72206D6F7265202E
:1050F0006163636573732076696F6C6174696F6E49
:10510000730D0A005B4D53544B4552525D5374610D
:10511000636B696E6720666F7220616E20657863CD
:10512000657074696F6E20656E7472792068617342
:1051300020636175736564206F6E65206F72206DEA
:105140006F7265206163636573732076696F6C614C
:1051500074696F6E730D0A005B554E53544B455284
:10516000525D556E737461636B20666F7220616E61
:1051700020657863657074696F6E207265747572EE
:105180006E2068617320636175736564206F6E655E
:10519000206F72206D6F7265204275734661756C69
:1051A00074730D0A005B53544B4552525D53746146
:1051B000636B696E6720666F7220616E206578632D
:1051C000657074696F6E20656E74727920686173A2
:1051D00020636175736564206F6E65206F72206D4A
:1051E0006F7265204275734661756C74730D0A00A9
:1051F0004D656D4D616E616765204661756C740D1E
:105200000A005573616765204661756C740D0A006C
:10521000436F6E666967757261626C652046617581
:105220006C740D0A00566563746F72204661756C6C
:10523000740D0A00427573204661756C740D0A0086
:105240004465627567204576656E74204661756CAD
:10525000740D0A005B5052454349534552525D203C
:105260006461746120627573206572726F72206868
:105270006173206F636375727265642C20504320E4
:105280003A203078253038780D0A005B444143439A
:1052900056494F4C5D205468652070726F6365738A
:1052A000736F7220617474656D7074656420612021
:1052B0006C6F6164206F722073746F72652061740B
:1052C0002061206C6F636174696F6E207468617413
:1052D00020646F6573206E6F74207065726D6974E1
:1052E00020746865206F7065726174696F6E2C2020
:1052F0005043203A203078253038780D0A005B4939
:1053000041434356494F4C5D5468652070726F634A
:105310006573736F7220617474656D707465642059
:10532000616E20696E737472756374696F6E206646
:10533000657463682066726F6D2061206C6F6361B5
:1053400074696F6E207468617420646F6573206E79
:105350006F74207065726D6974206578656375740B
:10536000696F6E2C205043203A20307825303878F1
:105370000D0A004154203A3078253038780D0A0063
:105380004F63637572656420696E207461736B2E60
:105390000A005573696E67207533324D73702E0A9B
:1053A000005573696E67207533325073702E0A0092
:1053B0004F63637572656420696E20696E746572EF
:1053C000727570742E0A00537461636B206672618B
:1053D0006D653A0A00616464723A20307825303491
:1053E000580A004E4D495F48616E646C65723A2000
:1053F000253038582C20253038582C202530385866
:105400000A00636F646520202020203A2030782530
:105410003038580A00523020203A20307825303871
:10542000580A00523120203A203078253038580A66
:1054300000523220203A203078253038580A005265
:105440003320203A203078253038580A0050432045
:10545000203A203078253038580A004C5220203A23
:10546000203078253038580A00523132203A203026
:1054700078253038580A00785053523A2030782531
:105480003038580A006F626A6563745F69643A2055
:105490003078253038580A00696E666F3A203078C7
:1054A000253038580A005B486172644661756C7437
:1054B0005F48616E646C65725D43757272656E748F
:1054C000206D73703A203078253038580A0073798F
:1054D0007374656D206572726F72206F636375728D
:1054E000730A006F7320657272206F636375727345
:1054F0000A00753332457272496E666F313A25750E
:1055000020753332457272496E666F323A25750ADC
:10551000007531364572724D6F64756C653A25754C
:10552000207531364572724C696E653A25750A00F0
:105530002535642C2535642C2535642C2535642CC3
:105540002535642C2535640D0A00444D41205265F3
:105550006164204661696C6564203A2025640A0014
:10556000444D41205772697465204661696C6564D9
:10557000203A2025640A004D617374657220444D01
:105580004120496E6974204661696C6564203A2047
:1055900025640A00727820646F6E650A00747820B2
:1055A000646F6E650A002530325820004C534D362A
:1055B00044533320436F6E6E656374204661696C9B
:0C55C00065642E0D0A00000000000000D1
:040000051000215571
:00000001FF
